{
  "_format": "hh-sol-artifact-1",
  "contractName": "EmergencyUnlocker",
  "sourceName": "src/EmergencyUnlocker.sol",
  "abi": [
    {
      "inputs": [
        {
          "internalType": "address",
          "name": "_bondingContract",
          "type": "address"
        }
      ],
      "stateMutability": "nonpayable",
      "type": "constructor"
    },
    {
      "inputs": [
        {
          "internalType": "address",
          "name": "owner",
          "type": "address"
        }
      ],
      "name": "OwnableInvalidOwner",
      "type": "error"
    },
    {
      "inputs": [
        {
          "internalType": "address",
          "name": "account",
          "type": "address"
        }
      ],
      "name": "OwnableUnauthorizedAccount",
      "type": "error"
    },
    {
      "anonymous": false,
      "inputs": [
        {
          "indexed": true,
          "internalType": "address",
          "name": "previousOwner",
          "type": "address"
        },
        {
          "indexed": true,
          "internalType": "address",
          "name": "newOwner",
          "type": "address"
        }
      ],
      "name": "OwnershipTransferred",
      "type": "event"
    },
    {
      "anonymous": false,
      "inputs": [
        {
          "indexed": true,
          "internalType": "address",
          "name": "user",
          "type": "address"
        },
        {
          "indexed": false,
          "internalType": "uint256",
          "name": "amount",
          "type": "uint256"
        }
      ],
      "name": "VestingUnlocked",
      "type": "event"
    },
    {
      "inputs": [],
      "name": "bondingContract",
      "outputs": [
        {
          "internalType": "contract IBonding",
          "name": "",
          "type": "address"
        }
      ],
      "stateMutability": "view",
      "type": "function"
    },
    {
      "inputs": [],
      "name": "owner",
      "outputs": [
        {
          "internalType": "address",
          "name": "",
          "type": "address"
        }
      ],
      "stateMutability": "view",
      "type": "function"
    },
    {
      "inputs": [],
      "name": "renounceOwnership",
      "outputs": [],
      "stateMutability": "nonpayable",
      "type": "function"
    },
    {
      "inputs": [
        {
          "internalType": "address",
          "name": "newOwner",
          "type": "address"
        }
      ],
      "name": "transferOwnership",
      "outputs": [],
      "stateMutability": "nonpayable",
      "type": "function"
    },
    {
      "inputs": [],
      "name": "unlockAllVesting",
      "outputs": [],
      "stateMutability": "nonpayable",
      "type": "function"
    },
    {
      "inputs": [
        {
          "internalType": "address",
          "name": "user",
          "type": "address"
        }
      ],
      "name": "unlockVesting",
      "outputs": [],
      "stateMutability": "nonpayable",
      "type": "function"
    }
  ],
  "bytecode": "0x608060405234801561001057600080fd5b5060405161046038038061046083398101604081905261002f916100d4565b338061005557604051631e4fbdf760e01b81526000600482015260240160405180910390fd5b61005e81610084565b50600180546001600160a01b0319166001600160a01b0392909216919091179055610104565b600080546001600160a01b038381166001600160a01b0319831681178455604051919092169283917f8be0079c531659141344cd1fd0a4f28419497f9722a3daafe3b4186f6b6457e09190a35050565b6000602082840312156100e657600080fd5b81516001600160a01b03811681146100fd57600080fd5b9392505050565b61034d806101136000396000f3fe608060405234801561001057600080fd5b50600436106100625760003560e01c8063715018a6146100675780638da5cb5b14610071578063ba22cd151461009a578063bc277928146100a2578063e999720f146100b5578063f2fde38b146100c8575b600080fd5b61006f6100db565b005b6000546001600160a01b03165b6040516001600160a01b03909116815260200160405180910390f35b61006f6100ef565b61006f6100b036600461027d565b6100f7565b60015461007e906001600160a01b031681565b61006f6100d636600461027d565b6101bd565b6100e3610200565b6100ed600061022d565b565b6100ed610200565b6100ff610200565b600154604051639f82906360e01b81526001600160a01b0383811660048301526000921690639f82906390602401606060405180830381865afa15801561014a573d6000803e3d6000fd5b505050506040513d601f19601f8201168201806040525081019061016e91906102ad565b8051909150156101b95780516040519081526001600160a01b038316907f8453030baa1e73d7c35b9e056f8c969eb9a5bee143e4e8aa53eff7ef76e08da59060200160405180910390a25b5050565b6101c5610200565b6001600160a01b0381166101f457604051631e4fbdf760e01b8152600060048201526024015b60405180910390fd5b6101fd8161022d565b50565b6000546001600160a01b031633146100ed5760405163118cdaa760e01b81523360048201526024016101eb565b600080546001600160a01b038381166001600160a01b0319831681178455604051919092169283917f8be0079c531659141344cd1fd0a4f28419497f9722a3daafe3b4186f6b6457e09190a35050565b60006020828403121561028f57600080fd5b81356001600160a01b03811681146102a657600080fd5b9392505050565b6000606082840312156102bf57600080fd5b6040516060810181811067ffffffffffffffff821117156102f057634e487b7160e01b600052604160045260246000fd5b8060405250825181526020830151602082015260408301516040820152809150509291505056fea2646970667358221220f1d8df4cc5cc7bcf51ffb3e7a3b5b22dcbc16abc441c9779be8d3e82ed94ccba64736f6c63430008180033",
  "linkReferences": {},
  "deployedLinkReferences": {}
}