{
  "_format": "hh-sol-artifact-1",
  "contractName": "BondingV2",
  "sourceName": "src/BondingV2.sol",
  "abi": [
    {
      "inputs": [
        {
          "internalType": "address",
          "name": "_fvc",
          "type": "address"
        },
        {
          "internalType": "address",
          "name": "_usdc",
          "type": "address"
        },
        {
          "internalType": "address",
          "name": "_treasury",
          "type": "address"
        },
        {
          "internalType": "uint256",
          "name": "_initialDiscount",
          "type": "uint256"
        },
        {
          "internalType": "uint256",
          "name": "_finalDiscount",
          "type": "uint256"
        },
        {
          "internalType": "uint256",
          "name": "_epochCap",
          "type": "uint256"
        },
        {
          "internalType": "uint256",
          "name": "_walletCap",
          "type": "uint256"
        },
        {
          "internalType": "uint256",
          "name": "_vestingPeriod",
          "type": "uint256"
        }
      ],
      "stateMutability": "nonpayable",
      "type": "constructor"
    },
    {
      "inputs": [],
      "name": "Bonding__AmountMustBeGreaterThanZero",
      "type": "error"
    },
    {
      "inputs": [],
      "name": "Bonding__EpochCapExceeded",
      "type": "error"
    },
    {
      "inputs": [],
      "name": "Bonding__ExceedsWalletCap",
      "type": "error"
    },
    {
      "inputs": [],
      "name": "Bonding__InvalidVestingPeriod",
      "type": "error"
    },
    {
      "inputs": [],
      "name": "Bonding__RoundNotActive",
      "type": "error"
    },
    {
      "inputs": [],
      "name": "Bonding__TokensLockedInVesting",
      "type": "error"
    },
    {
      "inputs": [
        {
          "internalType": "address",
          "name": "owner",
          "type": "address"
        }
      ],
      "name": "OwnableInvalidOwner",
      "type": "error"
    },
    {
      "inputs": [
        {
          "internalType": "address",
          "name": "account",
          "type": "address"
        }
      ],
      "name": "OwnableUnauthorizedAccount",
      "type": "error"
    },
    {
      "inputs": [
        {
          "internalType": "address",
          "name": "token",
          "type": "address"
        }
      ],
      "name": "SafeERC20FailedOperation",
      "type": "error"
    },
    {
      "anonymous": false,
      "inputs": [
        {
          "indexed": true,
          "internalType": "address",
          "name": "user",
          "type": "address"
        },
        {
          "indexed": false,
          "internalType": "uint256",
          "name": "amount",
          "type": "uint256"
        }
      ],
      "name": "Bonded",
      "type": "event"
    },
    {
      "anonymous": false,
      "inputs": [
        {
          "indexed": true,
          "internalType": "address",
          "name": "user",
          "type": "address"
        },
        {
          "indexed": false,
          "internalType": "uint256",
          "name": "amount",
          "type": "uint256"
        }
      ],
      "name": "EmergencyUnlock",
      "type": "event"
    },
    {
      "anonymous": false,
      "inputs": [
        {
          "indexed": false,
          "internalType": "uint256",
          "name": "newCap",
          "type": "uint256"
        }
      ],
      "name": "EpochCapUpdated",
      "type": "event"
    },
    {
      "anonymous": false,
      "inputs": [
        {
          "indexed": false,
          "internalType": "uint256",
          "name": "roundId",
          "type": "uint256"
        },
        {
          "indexed": false,
          "internalType": "uint256",
          "name": "fvcAmount",
          "type": "uint256"
        }
      ],
      "name": "FVCAllocated",
      "type": "event"
    },
    {
      "anonymous": false,
      "inputs": [
        {
          "indexed": true,
          "internalType": "address",
          "name": "previousOwner",
          "type": "address"
        },
        {
          "indexed": true,
          "internalType": "address",
          "name": "newOwner",
          "type": "address"
        }
      ],
      "name": "OwnershipTransferred",
      "type": "event"
    },
    {
      "anonymous": false,
      "inputs": [
        {
          "indexed": true,
          "internalType": "uint256",
          "name": "roundId",
          "type": "uint256"
        },
        {
          "indexed": false,
          "internalType": "uint256",
          "name": "totalBonded",
          "type": "uint256"
        }
      ],
      "name": "RoundCompleted",
      "type": "event"
    },
    {
      "anonymous": false,
      "inputs": [
        {
          "indexed": true,
          "internalType": "uint256",
          "name": "roundId",
          "type": "uint256"
        },
        {
          "indexed": false,
          "internalType": "uint256",
          "name": "initialDiscount",
          "type": "uint256"
        },
        {
          "indexed": false,
          "internalType": "uint256",
          "name": "finalDiscount",
          "type": "uint256"
        },
        {
          "indexed": false,
          "internalType": "uint256",
          "name": "epochCap",
          "type": "uint256"
        }
      ],
      "name": "RoundStarted",
      "type": "event"
    },
    {
      "anonymous": false,
      "inputs": [
        {
          "indexed": false,
          "internalType": "uint256",
          "name": "newPeriod",
          "type": "uint256"
        }
      ],
      "name": "VestingPeriodUpdated",
      "type": "event"
    },
    {
      "anonymous": false,
      "inputs": [
        {
          "indexed": true,
          "internalType": "address",
          "name": "user",
          "type": "address"
        },
        {
          "indexed": false,
          "internalType": "uint256",
          "name": "amount",
          "type": "uint256"
        },
        {
          "indexed": false,
          "internalType": "uint256",
          "name": "startTime",
          "type": "uint256"
        },
        {
          "indexed": false,
          "internalType": "uint256",
          "name": "endTime",
          "type": "uint256"
        }
      ],
      "name": "VestingScheduleCreated",
      "type": "event"
    },
    {
      "anonymous": false,
      "inputs": [
        {
          "indexed": false,
          "internalType": "uint256",
          "name": "newCap",
          "type": "uint256"
        }
      ],
      "name": "WalletCapUpdated",
      "type": "event"
    },
    {
      "inputs": [
        {
          "internalType": "uint256",
          "name": "fvcAmount",
          "type": "uint256"
        }
      ],
      "name": "allocateFVC",
      "outputs": [],
      "stateMutability": "nonpayable",
      "type": "function"
    },
    {
      "inputs": [
        {
          "internalType": "uint256",
          "name": "fvcAmount",
          "type": "uint256"
        }
      ],
      "name": "bond",
      "outputs": [],
      "stateMutability": "nonpayable",
      "type": "function"
    },
    {
      "inputs": [
        {
          "internalType": "uint256",
          "name": "fvcAmount",
          "type": "uint256"
        }
      ],
      "name": "calculateUSDCAmount",
      "outputs": [
        {
          "internalType": "uint256",
          "name": "usdcAmount",
          "type": "uint256"
        }
      ],
      "stateMutability": "view",
      "type": "function"
    },
    {
      "inputs": [],
      "name": "currentRoundId",
      "outputs": [
        {
          "internalType": "uint256",
          "name": "",
          "type": "uint256"
        }
      ],
      "stateMutability": "view",
      "type": "function"
    },
    {
      "inputs": [],
      "name": "emergencyUnlockAllVesting",
      "outputs": [],
      "stateMutability": "nonpayable",
      "type": "function"
    },
    {
      "inputs": [
        {
          "internalType": "address",
          "name": "user",
          "type": "address"
        }
      ],
      "name": "emergencyUnlockVesting",
      "outputs": [],
      "stateMutability": "nonpayable",
      "type": "function"
    },
    {
      "inputs": [],
      "name": "epochCap",
      "outputs": [
        {
          "internalType": "uint256",
          "name": "",
          "type": "uint256"
        }
      ],
      "stateMutability": "view",
      "type": "function"
    },
    {
      "inputs": [],
      "name": "finalDiscount",
      "outputs": [
        {
          "internalType": "uint256",
          "name": "",
          "type": "uint256"
        }
      ],
      "stateMutability": "view",
      "type": "function"
    },
    {
      "inputs": [],
      "name": "fvc",
      "outputs": [
        {
          "internalType": "contract IFVC",
          "name": "",
          "type": "address"
        }
      ],
      "stateMutability": "view",
      "type": "function"
    },
    {
      "inputs": [],
      "name": "fvcAllocated",
      "outputs": [
        {
          "internalType": "uint256",
          "name": "",
          "type": "uint256"
        }
      ],
      "stateMutability": "view",
      "type": "function"
    },
    {
      "inputs": [],
      "name": "fvcSold",
      "outputs": [
        {
          "internalType": "uint256",
          "name": "",
          "type": "uint256"
        }
      ],
      "stateMutability": "view",
      "type": "function"
    },
    {
      "inputs": [],
      "name": "getCurrentDiscount",
      "outputs": [
        {
          "internalType": "uint256",
          "name": "",
          "type": "uint256"
        }
      ],
      "stateMutability": "view",
      "type": "function"
    },
    {
      "inputs": [],
      "name": "getCurrentRound",
      "outputs": [
        {
          "components": [
            {
              "internalType": "uint256",
              "name": "roundId",
              "type": "uint256"
            },
            {
              "internalType": "uint256",
              "name": "initialDiscount",
              "type": "uint256"
            },
            {
              "internalType": "uint256",
              "name": "finalDiscount",
              "type": "uint256"
            },
            {
              "internalType": "uint256",
              "name": "epochCap",
              "type": "uint256"
            },
            {
              "internalType": "uint256",
              "name": "walletCap",
              "type": "uint256"
            },
            {
              "internalType": "uint256",
              "name": "vestingPeriod",
              "type": "uint256"
            },
            {
              "internalType": "uint256",
              "name": "fvcAllocated",
              "type": "uint256"
            },
            {
              "internalType": "uint256",
              "name": "fvcSold",
              "type": "uint256"
            },
            {
              "internalType": "bool",
              "name": "isActive",
              "type": "bool"
            },
            {
              "internalType": "uint256",
              "name": "totalBonded",
              "type": "uint256"
            }
          ],
          "internalType": "struct IBonding.RoundConfig",
          "name": "",
          "type": "tuple"
        }
      ],
      "stateMutability": "view",
      "type": "function"
    },
    {
      "inputs": [],
      "name": "getRemainingFVC",
      "outputs": [
        {
          "internalType": "uint256",
          "name": "",
          "type": "uint256"
        }
      ],
      "stateMutability": "view",
      "type": "function"
    },
    {
      "inputs": [
        {
          "internalType": "address",
          "name": "user",
          "type": "address"
        }
      ],
      "name": "getVestingSchedule",
      "outputs": [
        {
          "components": [
            {
              "internalType": "uint256",
              "name": "amount",
              "type": "uint256"
            },
            {
              "internalType": "uint256",
              "name": "startTime",
              "type": "uint256"
            },
            {
              "internalType": "uint256",
              "name": "endTime",
              "type": "uint256"
            }
          ],
          "internalType": "struct IBonding.VestingSchedule",
          "name": "",
          "type": "tuple"
        }
      ],
      "stateMutability": "view",
      "type": "function"
    },
    {
      "inputs": [],
      "name": "initialDiscount",
      "outputs": [
        {
          "internalType": "uint256",
          "name": "",
          "type": "uint256"
        }
      ],
      "stateMutability": "view",
      "type": "function"
    },
    {
      "inputs": [
        {
          "internalType": "address",
          "name": "user",
          "type": "address"
        }
      ],
      "name": "isLocked",
      "outputs": [
        {
          "internalType": "bool",
          "name": "",
          "type": "bool"
        }
      ],
      "stateMutability": "view",
      "type": "function"
    },
    {
      "inputs": [],
      "name": "owner",
      "outputs": [
        {
          "internalType": "address",
          "name": "",
          "type": "address"
        }
      ],
      "stateMutability": "view",
      "type": "function"
    },
    {
      "inputs": [],
      "name": "renounceOwnership",
      "outputs": [],
      "stateMutability": "nonpayable",
      "type": "function"
    },
    {
      "inputs": [
        {
          "internalType": "uint256",
          "name": "",
          "type": "uint256"
        }
      ],
      "name": "rounds",
      "outputs": [
        {
          "internalType": "uint256",
          "name": "roundId",
          "type": "uint256"
        },
        {
          "internalType": "uint256",
          "name": "initialDiscount",
          "type": "uint256"
        },
        {
          "internalType": "uint256",
          "name": "finalDiscount",
          "type": "uint256"
        },
        {
          "internalType": "uint256",
          "name": "epochCap",
          "type": "uint256"
        },
        {
          "internalType": "uint256",
          "name": "walletCap",
          "type": "uint256"
        },
        {
          "internalType": "uint256",
          "name": "vestingPeriod",
          "type": "uint256"
        },
        {
          "internalType": "uint256",
          "name": "fvcAllocated",
          "type": "uint256"
        },
        {
          "internalType": "uint256",
          "name": "fvcSold",
          "type": "uint256"
        },
        {
          "internalType": "bool",
          "name": "isActive",
          "type": "bool"
        },
        {
          "internalType": "uint256",
          "name": "totalBonded",
          "type": "uint256"
        }
      ],
      "stateMutability": "view",
      "type": "function"
    },
    {
      "inputs": [
        {
          "internalType": "uint256",
          "name": "_vestingPeriod",
          "type": "uint256"
        }
      ],
      "name": "setVestingPeriod",
      "outputs": [],
      "stateMutability": "nonpayable",
      "type": "function"
    },
    {
      "inputs": [
        {
          "internalType": "uint256",
          "name": "_initialDiscount",
          "type": "uint256"
        },
        {
          "internalType": "uint256",
          "name": "_finalDiscount",
          "type": "uint256"
        },
        {
          "internalType": "uint256",
          "name": "_epochCap",
          "type": "uint256"
        },
        {
          "internalType": "uint256",
          "name": "_walletCap",
          "type": "uint256"
        },
        {
          "internalType": "uint256",
          "name": "_vestingPeriod",
          "type": "uint256"
        }
      ],
      "name": "startNewRound",
      "outputs": [],
      "stateMutability": "nonpayable",
      "type": "function"
    },
    {
      "inputs": [],
      "name": "totalBonded",
      "outputs": [
        {
          "internalType": "uint256",
          "name": "",
          "type": "uint256"
        }
      ],
      "stateMutability": "view",
      "type": "function"
    },
    {
      "inputs": [
        {
          "internalType": "address",
          "name": "newOwner",
          "type": "address"
        }
      ],
      "name": "transferOwnership",
      "outputs": [],
      "stateMutability": "nonpayable",
      "type": "function"
    },
    {
      "inputs": [],
      "name": "treasury",
      "outputs": [
        {
          "internalType": "address",
          "name": "",
          "type": "address"
        }
      ],
      "stateMutability": "view",
      "type": "function"
    },
    {
      "inputs": [],
      "name": "usdc",
      "outputs": [
        {
          "internalType": "contract IERC20",
          "name": "",
          "type": "address"
        }
      ],
      "stateMutability": "view",
      "type": "function"
    },
    {
      "inputs": [
        {
          "internalType": "uint256",
          "name": "",
          "type": "uint256"
        },
        {
          "internalType": "address",
          "name": "",
          "type": "address"
        }
      ],
      "name": "userBonded",
      "outputs": [
        {
          "internalType": "uint256",
          "name": "",
          "type": "uint256"
        }
      ],
      "stateMutability": "view",
      "type": "function"
    },
    {
      "inputs": [],
      "name": "vestingPeriod",
      "outputs": [
        {
          "internalType": "uint256",
          "name": "",
          "type": "uint256"
        }
      ],
      "stateMutability": "view",
      "type": "function"
    },
    {
      "inputs": [
        {
          "internalType": "address",
          "name": "",
          "type": "address"
        }
      ],
      "name": "vestingSchedules",
      "outputs": [
        {
          "internalType": "uint256",
          "name": "amount",
          "type": "uint256"
        },
        {
          "internalType": "uint256",
          "name": "startTime",
          "type": "uint256"
        },
        {
          "internalType": "uint256",
          "name": "endTime",
          "type": "uint256"
        }
      ],
      "stateMutability": "view",
      "type": "function"
    },
    {
      "inputs": [],
      "name": "walletCap",
      "outputs": [
        {
          "internalType": "uint256",
          "name": "",
          "type": "uint256"
        }
      ],
      "stateMutability": "view",
      "type": "function"
    }
  ],
  "bytecode": "0x60806040523480156200001157600080fd5b506040516200158b3803806200158b83398101604081905262000034916200032b565b33806200005b57604051631e4fbdf760e01b81526000600482015260240160405180910390fd5b6200006681620002be565b50600180546001600160a01b03808b166001600160a01b031992831617909255600280548a841690831617905560038054928916929091169190911790556000819003620000c757604051631b3cc90f60e01b815260040160405180910390fd5b6006859055600784905560088390556009829055600a8190556001600481905560408051610140810182528281526020808201988952918101968752606081019586526080810194855260a08101938452600060c0820181815260e083018281526101008401868152610120850184815296909352600590945291517f1471eb6eb2c5e789fc3de43f8ce62938c7d1836ec861730447e2ada8fd81017b5597517f1471eb6eb2c5e789fc3de43f8ce62938c7d1836ec861730447e2ada8fd81017c5595517f1471eb6eb2c5e789fc3de43f8ce62938c7d1836ec861730447e2ada8fd81017d5593517f1471eb6eb2c5e789fc3de43f8ce62938c7d1836ec861730447e2ada8fd81017e5591517f1471eb6eb2c5e789fc3de43f8ce62938c7d1836ec861730447e2ada8fd81017f55517f1471eb6eb2c5e789fc3de43f8ce62938c7d1836ec861730447e2ada8fd8101805591517f1471eb6eb2c5e789fc3de43f8ce62938c7d1836ec861730447e2ada8fd81018155517f1471eb6eb2c5e789fc3de43f8ce62938c7d1836ec861730447e2ada8fd8101825590517f1471eb6eb2c5e789fc3de43f8ce62938c7d1836ec861730447e2ada8fd810183805460ff1916911515919091179055517f1471eb6eb2c5e789fc3de43f8ce62938c7d1836ec861730447e2ada8fd8101845550620003a6915050565b600080546001600160a01b038381166001600160a01b0319831681178455604051919092169283917f8be0079c531659141344cd1fd0a4f28419497f9722a3daafe3b4186f6b6457e09190a35050565b80516001600160a01b03811681146200032657600080fd5b919050565b600080600080600080600080610100898b0312156200034957600080fd5b62000354896200030e565b97506200036460208a016200030e565b96506200037460408a016200030e565b9550606089015194506080890151935060a0890151925060c0890151915060e089015190509295985092959890939650565b6111d580620003b66000396000f3fe608060405234801561001057600080fd5b50600436106101da5760003560e01c80637ec897cd11610104578063a32bf597116100a2578063eaccaae111610071578063eaccaae114610472578063f0eb737a1461047b578063f2fde38b14610483578063fdb20ccb1461049657600080fd5b8063a32bf5971461040c578063d06f518b14610421578063d1c17e381461044c578063e8ba4b0f1461045f57600080fd5b80638da5cb5b116100de5780638da5cb5b146103aa5780639940686e146103bb5780639cbe5efd146103ce5780639f829063146103d757600080fd5b80637ec897cd146102e65780638c65c81f146102ef5780638cf407dd146103a157600080fd5b80634a4fbeec1161017c578063610250601161014b57806361025060146102b957806361d027b3146102c2578063715018a6146102d55780637313ee5a146102dd57600080fd5b80634a4fbeec146102675780634cabb8241461028a5780634cdaa3541461029d57806358950c22146102b057600080fd5b80633e84d3c5116101b85780633e84d3c51461023a57806340bee0ed1461024257806344d96e9514610255578063473357f11461025e57600080fd5b80630b8f760b146101df57806336fb2cf5146101f45780633e413bee1461020f575b600080fd5b6101f26101ed366004610fe2565b6104e0565b005b6101fc6105c9565b6040519081526020015b60405180910390f35b600254610222906001600160a01b031681565b6040516001600160a01b039091168152602001610206565b6101f26105e0565b6101f2610250366004610fe2565b610620565b6101fc600d5481565b6101fc60075481565b61027a610275366004611017565b610684565b6040519015158152602001610206565b6101fc610298366004610fe2565b6106e4565b6101f26102ab366004611017565b6106fb565b6101fc60095481565b6101fc60085481565b600354610222906001600160a01b031681565b6101f2610779565b6101fc600a5481565b6101fc60065481565b6103556102fd366004610fe2565b6005602081905260009182526040909120805460018201546002830154600384015460048501549585015460068601546007870154600888015460099098015496989597949693959492939192909160ff909116908a565b604080519a8b5260208b0199909952978901969096526060880194909452608087019290925260a086015260c085015260e0840152151561010083015261012082015261014001610206565b6101fc600b5481565b6000546001600160a01b0316610222565b6101f26103c9366004610fe2565b61078d565b6101fc60045481565b6103ea6103e5366004611017565b610a16565b6040805182518152602080840151908201529181015190820152606001610206565b610414610a7c565b6040516102069190611032565b6101fc61042f3660046110aa565b600e60209081526000928352604080842090915290825290205481565b600154610222906001600160a01b031681565b6101f261046d3660046110d6565b610b5c565b6101fc600c5481565b6101fc610d13565b6101f2610491366004611017565b610d81565b6104c56104a4366004611017565b600f6020526000908152604090208054600182015460029092015490919083565b60408051938452602084019290925290820152606001610206565b6104e8610dc4565b6004546000908152600560205260409020600881015460ff1661051e5760405163b885dfef60e01b815260040160405180910390fd5b8160000361053f5760405163d3590a8360e01b815260040160405180910390fd5b600154610557906001600160a01b0316333085610df1565b81600b60008282546105699190611127565b92505081905550818160060160008282546105849190611127565b909155505060045460408051918252602082018490527f7cdd16d98681f4d22957409604a564ef1d8cd2b0d5cc5235d444451f03324b13910160405180910390a15050565b6000600c54600b546105db919061113a565b905090565b6105e8610dc4565b6040516000808252907fb8797ab767ff1517f7c915ddd7c9a79ae5609fc876c2d87f2b2b545475642a1a9060200160405180910390a2565b610628610dc4565b8060000361064957604051631b3cc90f60e01b815260040160405180910390fd5b600a8190556040518181527fc21cb0f112058f1eb0e3313a577dfc27e6be5b39127591e05245343a422e49159060200160405180910390a150565b6001600160a01b0381166000908152600f60209081526040808320815160608101835281548082526001830154948201949094526002909101549181019190915290158015906106dd57506106dd428260400151610e5e565b9392505050565b6000806106ef610d13565b90506106dd8382610e68565b610703610dc4565b6001600160a01b0381166000908152600f6020526040902080541561077557805460008083556001830181905560028301556040518181526001600160a01b038416907fb8797ab767ff1517f7c915ddd7c9a79ae5609fc876c2d87f2b2b545475642a1a9060200160405180910390a2505b5050565b610781610dc4565b61078b6000610eeb565b565b806000036107ae5760405163d3590a8360e01b815260040160405180910390fd5b6004546000908152600560205260409020600881015460ff166107e45760405163b885dfef60e01b815260040160405180910390fd5b600b5482600c546107f59190611127565b11156108145760405163437d78f560e01b815260040160405180910390fd5b600061081e610d13565b9050600061082c8483610e68565b6009546004546000908152600e602090815260408083203384529091529020549192509061085b908390611127565b111561087a576040516375284bdb60e01b815260040160405180910390fd5b600354600254610899916001600160a01b039182169133911684610df1565b6001546108b0906001600160a01b03163386610f3b565b80600d60008282546108c29190611127565b92505081905550808360090160008282546108dd9190611127565b92505081905550838360070160008282546108f89190611127565b9250508190555083600c60008282546109119190611127565b90915550506004546000908152600e6020908152604080832033845290915281208054839290610942908490611127565b9091555050600a5442906000906109599083611127565b604080516060810182528881526020808201868152828401858152336000818152600f85528690209451855591516001850155516002909301929092559151868152929350917fd0a009034e24a39106653c4903cf28b1947b8a9964d03206648e0f0a5de74a46910160405180910390a2604080518781526020810184905290810182905233907f892f1a841b10e4b041cc41d8cc47c6a6049f1ff5fa272ddf47a0aa5ad8f59d13906060015b60405180910390a2505050505050565b610a3a60405180606001604052806000815260200160008152602001600081525090565b506001600160a01b03166000908152600f6020908152604091829020825160608101845281548152600182015492810192909252600201549181019190915290565b610ad46040518061014001604052806000815260200160008152602001600081526020016000815260200160008152602001600081526020016000815260200160008152602001600015158152602001600081525090565b5060048054600090815260056020818152604092839020835161014081018552815481526001820154928101929092526002810154938201939093526003830154606082015292820154608084015281015460a0830152600681015460c0830152600781015460e0830152600881015460ff1615156101008301526009015461012082015290565b610b64610dc4565b80600003610b8557604051631b3cc90f60e01b815260040160405180910390fd5b60048054600090815260056020526040812060088101805460ff19169055825490929091610bb28361114d565b91905055508560068190555084600781905550836008819055508260098190555081600a819055506000600d819055506000600c81905550604051806101400160405280600454815260200187815260200186815260200185815260200184815260200183815260200160008152602001600081526020016001151581526020016000815250600560006004548152602001908152602001600020600082015181600001556020820151816001015560408201518160020155606082015181600301556080820151816004015560a0820151816005015560c0820151816006015560e082015181600701556101008201518160080160006101000a81548160ff02191690831515021790555061012082015181600901559050506004547ffd9d17e5565deea3d25918d95fc398673b9445ef0a96d12eaf3ab2b198756c65878787604051610a06939291909283526020830191909152604082015260600190565b6000600854600d5410610d27575060075490565b6000600854600d546064610d3b9190611166565b610d45919061117d565b9050606481600754600654610d5a919061113a565b610d649190611166565b610d6e919061117d565b600654610d7b919061113a565b91505090565b610d89610dc4565b6001600160a01b038116610db857604051631e4fbdf760e01b8152600060048201526024015b60405180910390fd5b610dc181610eeb565b50565b6000546001600160a01b0316331461078b5760405163118cdaa760e01b8152336004820152602401610daf565b6040516001600160a01b038481166024830152838116604483015260648201839052610e589186918216906323b872dd906084015b604051602081830303815290604052915060e01b6020820180516001600160e01b038381831617835250505050610f71565b50505050565b8082105b92915050565b60006064821115610ebb5760405162461bcd60e51b815260206004820152601b60248201527f446973636f756e742063616e6e6f7420657863656564203130302500000000006044820152606401610daf565b64e8d4a51000610ecc836064611127565b610ed6908561117d565b610ee1906064611166565b6106dd919061117d565b600080546001600160a01b038381166001600160a01b0319831681178455604051919092169283917f8be0079c531659141344cd1fd0a4f28419497f9722a3daafe3b4186f6b6457e09190a35050565b6040516001600160a01b03838116602483015260448201839052610f6c91859182169063a9059cbb90606401610e26565b505050565b600080602060008451602086016000885af180610f94576040513d6000823e3d81fd5b50506000513d91508115610fac578060011415610fb9565b6001600160a01b0384163b155b15610e5857604051635274afe760e01b81526001600160a01b0385166004820152602401610daf565b600060208284031215610ff457600080fd5b5035919050565b80356001600160a01b038116811461101257600080fd5b919050565b60006020828403121561102957600080fd5b6106dd82610ffb565b600061014082019050825182526020830151602083015260408301516040830152606083015160608301526080830151608083015260a083015160a083015260c083015160c083015260e083015160e0830152610100808401516110998285018215159052565b505061012092830151919092015290565b600080604083850312156110bd57600080fd5b823591506110cd60208401610ffb565b90509250929050565b600080600080600060a086880312156110ee57600080fd5b505083359560208501359550604085013594606081013594506080013592509050565b634e487b7160e01b600052601160045260246000fd5b80820180821115610e6257610e62611111565b81810381811115610e6257610e62611111565b60006001820161115f5761115f611111565b5060010190565b8082028115828204841417610e6257610e62611111565b60008261119a57634e487b7160e01b600052601260045260246000fd5b50049056fea26469706673582212200fb332eb87227338db023a2c512658fe735cd0cd003d983308fba956515fe51764736f6c63430008180033",
  "linkReferences": {},
  "deployedLinkReferences": {}
}