{
  "_format": "hh-sol-artifact-1",
  "contractName": "FVC",
  "sourceName": "src/FVC.sol",
  "abi": [
    {
      "inputs": [],
      "stateMutability": "nonpayable",
      "type": "constructor"
    },
    {
      "inputs": [],
      "name": "AccessControlBadConfirmation",
      "type": "error"
    },
    {
      "inputs": [
        {
          "internalType": "address",
          "name": "account",
          "type": "address"
        },
        {
          "internalType": "bytes32",
          "name": "neededRole",
          "type": "bytes32"
        }
      ],
      "name": "AccessControlUnauthorizedAccount",
      "type": "error"
    },
    {
      "inputs": [
        {
          "internalType": "address",
          "name": "target",
          "type": "address"
        }
      ],
      "name": "AddressEmptyCode",
      "type": "error"
    },
    {
      "inputs": [
        {
          "internalType": "address",
          "name": "implementation",
          "type": "address"
        }
      ],
      "name": "ERC1967InvalidImplementation",
      "type": "error"
    },
    {
      "inputs": [],
      "name": "ERC1967NonPayable",
      "type": "error"
    },
    {
      "inputs": [
        {
          "internalType": "address",
          "name": "spender",
          "type": "address"
        },
        {
          "internalType": "uint256",
          "name": "allowance",
          "type": "uint256"
        },
        {
          "internalType": "uint256",
          "name": "needed",
          "type": "uint256"
        }
      ],
      "name": "ERC20InsufficientAllowance",
      "type": "error"
    },
    {
      "inputs": [
        {
          "internalType": "address",
          "name": "sender",
          "type": "address"
        },
        {
          "internalType": "uint256",
          "name": "balance",
          "type": "uint256"
        },
        {
          "internalType": "uint256",
          "name": "needed",
          "type": "uint256"
        }
      ],
      "name": "ERC20InsufficientBalance",
      "type": "error"
    },
    {
      "inputs": [
        {
          "internalType": "address",
          "name": "approver",
          "type": "address"
        }
      ],
      "name": "ERC20InvalidApprover",
      "type": "error"
    },
    {
      "inputs": [
        {
          "internalType": "address",
          "name": "receiver",
          "type": "address"
        }
      ],
      "name": "ERC20InvalidReceiver",
      "type": "error"
    },
    {
      "inputs": [
        {
          "internalType": "address",
          "name": "sender",
          "type": "address"
        }
      ],
      "name": "ERC20InvalidSender",
      "type": "error"
    },
    {
      "inputs": [
        {
          "internalType": "address",
          "name": "spender",
          "type": "address"
        }
      ],
      "name": "ERC20InvalidSpender",
      "type": "error"
    },
    {
      "inputs": [],
      "name": "FailedCall",
      "type": "error"
    },
    {
      "inputs": [],
      "name": "InvalidInitialization",
      "type": "error"
    },
    {
      "inputs": [],
      "name": "NotInitializing",
      "type": "error"
    },
    {
      "inputs": [],
      "name": "UUPSUnauthorizedCallContext",
      "type": "error"
    },
    {
      "inputs": [
        {
          "internalType": "bytes32",
          "name": "slot",
          "type": "bytes32"
        }
      ],
      "name": "UUPSUnsupportedProxiableUUID",
      "type": "error"
    },
    {
      "anonymous": false,
      "inputs": [
        {
          "indexed": true,
          "internalType": "address",
          "name": "owner",
          "type": "address"
        },
        {
          "indexed": true,
          "internalType": "address",
          "name": "spender",
          "type": "address"
        },
        {
          "indexed": false,
          "internalType": "uint256",
          "name": "value",
          "type": "uint256"
        }
      ],
      "name": "Approval",
      "type": "event"
    },
    {
      "anonymous": false,
      "inputs": [
        {
          "indexed": true,
          "internalType": "address",
          "name": "bondingContract",
          "type": "address"
        }
      ],
      "name": "BondingContractSet",
      "type": "event"
    },
    {
      "anonymous": false,
      "inputs": [
        {
          "indexed": false,
          "internalType": "uint64",
          "name": "version",
          "type": "uint64"
        }
      ],
      "name": "Initialized",
      "type": "event"
    },
    {
      "anonymous": false,
      "inputs": [
        {
          "indexed": true,
          "internalType": "bytes32",
          "name": "role",
          "type": "bytes32"
        },
        {
          "indexed": true,
          "internalType": "bytes32",
          "name": "previousAdminRole",
          "type": "bytes32"
        },
        {
          "indexed": true,
          "internalType": "bytes32",
          "name": "newAdminRole",
          "type": "bytes32"
        }
      ],
      "name": "RoleAdminChanged",
      "type": "event"
    },
    {
      "anonymous": false,
      "inputs": [
        {
          "indexed": true,
          "internalType": "bytes32",
          "name": "role",
          "type": "bytes32"
        },
        {
          "indexed": true,
          "internalType": "address",
          "name": "account",
          "type": "address"
        },
        {
          "indexed": true,
          "internalType": "address",
          "name": "sender",
          "type": "address"
        }
      ],
      "name": "RoleGranted",
      "type": "event"
    },
    {
      "anonymous": false,
      "inputs": [
        {
          "indexed": true,
          "internalType": "bytes32",
          "name": "role",
          "type": "bytes32"
        },
        {
          "indexed": true,
          "internalType": "address",
          "name": "account",
          "type": "address"
        },
        {
          "indexed": true,
          "internalType": "address",
          "name": "sender",
          "type": "address"
        }
      ],
      "name": "RoleRevoked",
      "type": "event"
    },
    {
      "anonymous": false,
      "inputs": [
        {
          "indexed": true,
          "internalType": "address",
          "name": "from",
          "type": "address"
        },
        {
          "indexed": true,
          "internalType": "address",
          "name": "to",
          "type": "address"
        },
        {
          "indexed": false,
          "internalType": "uint256",
          "name": "value",
          "type": "uint256"
        }
      ],
      "name": "Transfer",
      "type": "event"
    },
    {
      "anonymous": false,
      "inputs": [
        {
          "indexed": true,
          "internalType": "address",
          "name": "implementation",
          "type": "address"
        }
      ],
      "name": "Upgraded",
      "type": "event"
    },
    {
      "inputs": [],
      "name": "DEFAULT_ADMIN_ROLE",
      "outputs": [
        {
          "internalType": "bytes32",
          "name": "",
          "type": "bytes32"
        }
      ],
      "stateMutability": "view",
      "type": "function"
    },
    {
      "inputs": [],
      "name": "MINTER_ROLE",
      "outputs": [
        {
          "internalType": "bytes32",
          "name": "",
          "type": "bytes32"
        }
      ],
      "stateMutability": "view",
      "type": "function"
    },
    {
      "inputs": [],
      "name": "UPGRADE_INTERFACE_VERSION",
      "outputs": [
        {
          "internalType": "string",
          "name": "",
          "type": "string"
        }
      ],
      "stateMutability": "view",
      "type": "function"
    },
    {
      "inputs": [
        {
          "internalType": "address",
          "name": "owner",
          "type": "address"
        },
        {
          "internalType": "address",
          "name": "spender",
          "type": "address"
        }
      ],
      "name": "allowance",
      "outputs": [
        {
          "internalType": "uint256",
          "name": "",
          "type": "uint256"
        }
      ],
      "stateMutability": "view",
      "type": "function"
    },
    {
      "inputs": [
        {
          "internalType": "address",
          "name": "spender",
          "type": "address"
        },
        {
          "internalType": "uint256",
          "name": "value",
          "type": "uint256"
        }
      ],
      "name": "approve",
      "outputs": [
        {
          "internalType": "bool",
          "name": "",
          "type": "bool"
        }
      ],
      "stateMutability": "nonpayable",
      "type": "function"
    },
    {
      "inputs": [
        {
          "internalType": "address",
          "name": "account",
          "type": "address"
        }
      ],
      "name": "balanceOf",
      "outputs": [
        {
          "internalType": "uint256",
          "name": "",
          "type": "uint256"
        }
      ],
      "stateMutability": "view",
      "type": "function"
    },
    {
      "inputs": [],
      "name": "bondingContract",
      "outputs": [
        {
          "internalType": "address",
          "name": "",
          "type": "address"
        }
      ],
      "stateMutability": "view",
      "type": "function"
    },
    {
      "inputs": [],
      "name": "decimals",
      "outputs": [
        {
          "internalType": "uint8",
          "name": "",
          "type": "uint8"
        }
      ],
      "stateMutability": "view",
      "type": "function"
    },
    {
      "inputs": [
        {
          "internalType": "bytes32",
          "name": "role",
          "type": "bytes32"
        }
      ],
      "name": "getRoleAdmin",
      "outputs": [
        {
          "internalType": "bytes32",
          "name": "",
          "type": "bytes32"
        }
      ],
      "stateMutability": "view",
      "type": "function"
    },
    {
      "inputs": [
        {
          "internalType": "bytes32",
          "name": "role",
          "type": "bytes32"
        },
        {
          "internalType": "address",
          "name": "account",
          "type": "address"
        }
      ],
      "name": "grantRole",
      "outputs": [],
      "stateMutability": "nonpayable",
      "type": "function"
    },
    {
      "inputs": [
        {
          "internalType": "bytes32",
          "name": "role",
          "type": "bytes32"
        },
        {
          "internalType": "address",
          "name": "account",
          "type": "address"
        }
      ],
      "name": "hasRole",
      "outputs": [
        {
          "internalType": "bool",
          "name": "",
          "type": "bool"
        }
      ],
      "stateMutability": "view",
      "type": "function"
    },
    {
      "inputs": [
        {
          "internalType": "string",
          "name": "_name",
          "type": "string"
        },
        {
          "internalType": "string",
          "name": "_symbol",
          "type": "string"
        },
        {
          "internalType": "address",
          "name": "admin",
          "type": "address"
        }
      ],
      "name": "initialize",
      "outputs": [],
      "stateMutability": "nonpayable",
      "type": "function"
    },
    {
      "inputs": [
        {
          "internalType": "address",
          "name": "to",
          "type": "address"
        },
        {
          "internalType": "uint256",
          "name": "amount",
          "type": "uint256"
        }
      ],
      "name": "mint",
      "outputs": [],
      "stateMutability": "nonpayable",
      "type": "function"
    },
    {
      "inputs": [],
      "name": "name",
      "outputs": [
        {
          "internalType": "string",
          "name": "",
          "type": "string"
        }
      ],
      "stateMutability": "view",
      "type": "function"
    },
    {
      "inputs": [],
      "name": "proxiableUUID",
      "outputs": [
        {
          "internalType": "bytes32",
          "name": "",
          "type": "bytes32"
        }
      ],
      "stateMutability": "view",
      "type": "function"
    },
    {
      "inputs": [
        {
          "internalType": "bytes32",
          "name": "role",
          "type": "bytes32"
        },
        {
          "internalType": "address",
          "name": "callerConfirmation",
          "type": "address"
        }
      ],
      "name": "renounceRole",
      "outputs": [],
      "stateMutability": "nonpayable",
      "type": "function"
    },
    {
      "inputs": [
        {
          "internalType": "bytes32",
          "name": "role",
          "type": "bytes32"
        },
        {
          "internalType": "address",
          "name": "account",
          "type": "address"
        }
      ],
      "name": "revokeRole",
      "outputs": [],
      "stateMutability": "nonpayable",
      "type": "function"
    },
    {
      "inputs": [
        {
          "internalType": "address",
          "name": "_bondingContract",
          "type": "address"
        }
      ],
      "name": "setBondingContract",
      "outputs": [],
      "stateMutability": "nonpayable",
      "type": "function"
    },
    {
      "inputs": [
        {
          "internalType": "bytes4",
          "name": "interfaceId",
          "type": "bytes4"
        }
      ],
      "name": "supportsInterface",
      "outputs": [
        {
          "internalType": "bool",
          "name": "",
          "type": "bool"
        }
      ],
      "stateMutability": "view",
      "type": "function"
    },
    {
      "inputs": [],
      "name": "symbol",
      "outputs": [
        {
          "internalType": "string",
          "name": "",
          "type": "string"
        }
      ],
      "stateMutability": "view",
      "type": "function"
    },
    {
      "inputs": [],
      "name": "totalSupply",
      "outputs": [
        {
          "internalType": "uint256",
          "name": "",
          "type": "uint256"
        }
      ],
      "stateMutability": "view",
      "type": "function"
    },
    {
      "inputs": [
        {
          "internalType": "address",
          "name": "to",
          "type": "address"
        },
        {
          "internalType": "uint256",
          "name": "amount",
          "type": "uint256"
        }
      ],
      "name": "transfer",
      "outputs": [
        {
          "internalType": "bool",
          "name": "",
          "type": "bool"
        }
      ],
      "stateMutability": "nonpayable",
      "type": "function"
    },
    {
      "inputs": [
        {
          "internalType": "address",
          "name": "from",
          "type": "address"
        },
        {
          "internalType": "address",
          "name": "to",
          "type": "address"
        },
        {
          "internalType": "uint256",
          "name": "amount",
          "type": "uint256"
        }
      ],
      "name": "transferFrom",
      "outputs": [
        {
          "internalType": "bool",
          "name": "",
          "type": "bool"
        }
      ],
      "stateMutability": "nonpayable",
      "type": "function"
    },
    {
      "inputs": [
        {
          "internalType": "address",
          "name": "newImplementation",
          "type": "address"
        },
        {
          "internalType": "bytes",
          "name": "data",
          "type": "bytes"
        }
      ],
      "name": "upgradeToAndCall",
      "outputs": [],
      "stateMutability": "payable",
      "type": "function"
    }
  ],
  "bytecode": "0x60a06040523060805234801561001457600080fd5b5061001d610022565b6100d4565b7ff0c57e16840df040f15088dc2f81fe391c3923bec73e23a9662efc9c229c6a00805468010000000000000000900460ff16156100725760405163f92ee8a960e01b815260040160405180910390fd5b80546001600160401b03908116146100d15780546001600160401b0319166001600160401b0390811782556040519081527fc7f505b2f371ae2175ee4913f4499e1f2633a7b5936321eed1cdaeb6115181d29060200160405180910390a15b50565b6080516118fe6100fd60003960008181610c5b01528181610c840152610dc801526118fe6000f3fe60806040526004361061014b5760003560e01c806352d1902d116100b6578063ad3cb1cc1161006f578063ad3cb1cc146103b8578063d5391393146103e9578063d547741f1461041d578063dd62ed3e1461043d578063e999720f1461045d578063eecaab061461049557600080fd5b806352d1902d146102f657806370a082311461030b57806391d148541461034e57806395d89b411461036e578063a217fddf14610383578063a9059cbb1461039857600080fd5b8063248a9ca311610108578063248a9ca3146102475780632f2ff15d14610267578063313ce5671461028757806336568abe146102a357806340c10f19146102c35780634f1ef286146102e357600080fd5b806301ffc9a71461015057806306fdde0314610185578063077f224a146101a7578063095ea7b3146101c957806318160ddd146101e957806323b872dd14610227575b600080fd5b34801561015c57600080fd5b5061017061016b366004611397565b6104b5565b60405190151581526020015b60405180910390f35b34801561019157600080fd5b5061019a6104ec565b60405161017c91906113e5565b3480156101b357600080fd5b506101c76101c23660046114e0565b6105af565b005b3480156101d557600080fd5b506101706101e4366004611554565b6106f5565b3480156101f557600080fd5b507f52c63247e1f47db19d5ce0460030c497f067ca4cebf71ba98eeadabe20bace02545b60405190815260200161017c565b34801561023357600080fd5b5061017061024236600461157e565b61070d565b34801561025357600080fd5b506102196102623660046115ba565b61072d565b34801561027357600080fd5b506101c76102823660046115d3565b61074f565b34801561029357600080fd5b506040516012815260200161017c565b3480156102af57600080fd5b506101c76102be3660046115d3565b610771565b3480156102cf57600080fd5b506101c76102de366004611554565b6107a9565b6101c76102f13660046115ff565b6107dd565b34801561030257600080fd5b506102196107fc565b34801561031757600080fd5b50610219610326366004611661565b6001600160a01b03166000908152600080516020611869833981519152602052604090205490565b34801561035a57600080fd5b506101706103693660046115d3565b610819565b34801561037a57600080fd5b5061019a610851565b34801561038f57600080fd5b50610219600081565b3480156103a457600080fd5b506101706103b3366004611554565b610890565b3480156103c457600080fd5b5061019a604051806040016040528060058152602001640352e302e360dc1b81525081565b3480156103f557600080fd5b506102197f9f2df0fed2c77648de5860a4cc508cd0818c85b8b8a1ab4ceeef8d981c8956a681565b34801561042957600080fd5b506101c76104383660046115d3565b6108a5565b34801561044957600080fd5b5061021961045836600461167c565b6108c1565b34801561046957600080fd5b5060005461047d906001600160a01b031681565b6040516001600160a01b03909116815260200161017c565b3480156104a157600080fd5b506101c76104b0366004611661565b61090b565b60006001600160e01b03198216637965db0b60e01b14806104e657506301ffc9a760e01b6001600160e01b03198316145b92915050565b7f52c63247e1f47db19d5ce0460030c497f067ca4cebf71ba98eeadabe20bace0380546060916000805160206118698339815191529161052b906116a6565b80601f0160208091040260200160405190810160405280929190818152602001828054610557906116a6565b80156105a45780601f10610579576101008083540402835291602001916105a4565b820191906000526020600020905b81548152906001019060200180831161058757829003601f168201915b505050505091505090565b60006105b961095f565b805490915060ff600160401b820416159067ffffffffffffffff166000811580156105e15750825b905060008267ffffffffffffffff1660011480156105fe5750303b155b90508115801561060c575080155b1561062a5760405163f92ee8a960e01b815260040160405180910390fd5b845467ffffffffffffffff19166001178555831561065457845460ff60401b1916600160401b1785555b61065e8888610988565b61066661099a565b61066e61099a565b6106796000876109a4565b506106a47f9f2df0fed2c77648de5860a4cc508cd0818c85b8b8a1ab4ceeef8d981c8956a6876109a4565b5083156106eb57845460ff60401b19168555604051600181527fc7f505b2f371ae2175ee4913f4499e1f2633a7b5936321eed1cdaeb6115181d29060200160405180910390a15b5050505050505050565b600033610703818585610a49565b5060019392505050565b600061071884610a56565b610723848484610b70565b90505b9392505050565b60009081526000805160206118a9833981519152602052604090206001015490565b6107588261072d565b61076181610b94565b61076b83836109a4565b50505050565b6001600160a01b038116331461079a5760405163334bd91960e11b815260040160405180910390fd5b6107a48282610b9e565b505050565b7f9f2df0fed2c77648de5860a4cc508cd0818c85b8b8a1ab4ceeef8d981c8956a66107d381610b94565b6107a48383610c1a565b6107e5610c50565b6107ee82610cf5565b6107f88282610d00565b5050565b6000610806610dbd565b5060008051602061188983398151915290565b60009182526000805160206118a9833981519152602090815260408084206001600160a01b0393909316845291905290205460ff1690565b7f52c63247e1f47db19d5ce0460030c497f067ca4cebf71ba98eeadabe20bace0480546060916000805160206118698339815191529161052b906116a6565b600061089b33610a56565b6107268383610e06565b6108ae8261072d565b6108b781610b94565b61076b8383610b9e565b6001600160a01b0391821660009081527f52c63247e1f47db19d5ce0460030c497f067ca4cebf71ba98eeadabe20bace016020908152604080832093909416825291909152205490565b600061091681610b94565b600080546001600160a01b0319166001600160a01b038416908117825560405190917f7aa87aebd6d5c204db6300fd91613a02daf742541b0af8b21606d406a3a4d82791a25050565b6000807ff0c57e16840df040f15088dc2f81fe391c3923bec73e23a9662efc9c229c6a006104e6565b610990610e14565b6107f88282610e39565b6109a2610e14565b565b60006000805160206118a98339815191526109bf8484610819565b610a3f576000848152602082815260408083206001600160a01b03871684529091529020805460ff191660011790556109f53390565b6001600160a01b0316836001600160a01b0316857f2f8788117e7eff1d82e926ec794901d17c78024a50270940304540a733656f0d60405160405180910390a460019150506104e6565b60009150506104e6565b6107a48383836001610e8a565b6000546001600160a01b031615610b6d57600080546040516001600160a01b0384811660248301528392169060440160408051601f198184030181529181526020820180516001600160e01b0316631293efbb60e21b17905251610aba91906116e0565b600060405180830381855afa9150503d8060008114610af5576040519150601f19603f3d011682016040523d82523d6000602084013e610afa565b606091505b5091509150818015610b1b575080806020019051810190610b1b91906116fc565b156107a45760405162461bcd60e51b815260206004820152601d60248201527f4656433a20746f6b656e73206c6f636b656420696e2076657374696e6700000060448201526064015b60405180910390fd5b50565b600033610b7e858285610f72565b610b89858585610fd3565b506001949350505050565b610b6d8133611032565b60006000805160206118a9833981519152610bb98484610819565b15610a3f576000848152602082815260408083206001600160a01b0387168085529252808320805460ff1916905551339287917ff6391f5c32d9c69d2a47ea670b442974b53935d1edc7fd64eb21e047a839171b9190a460019150506104e6565b6001600160a01b038216610c445760405163ec442f0560e01b815260006004820152602401610b64565b6107f86000838361106b565b306001600160a01b037f0000000000000000000000000000000000000000000000000000000000000000161480610cd757507f00000000000000000000000000000000000000000000000000000000000000006001600160a01b0316610ccb600080516020611889833981519152546001600160a01b031690565b6001600160a01b031614155b156109a25760405163703e46dd60e11b815260040160405180910390fd5b60006107f881610b94565b816001600160a01b03166352d1902d6040518163ffffffff1660e01b8152600401602060405180830381865afa925050508015610d5a575060408051601f3d908101601f19168201909252610d579181019061171e565b60015b610d8257604051634c9c8ce360e01b81526001600160a01b0383166004820152602401610b64565b6000805160206118898339815191528114610db357604051632a87526960e21b815260048101829052602401610b64565b6107a483836111a9565b306001600160a01b037f000000000000000000000000000000000000000000000000000000000000000016146109a25760405163703e46dd60e11b815260040160405180910390fd5b600033610703818585610fd3565b610e1c6111ff565b6109a257604051631afcd79f60e31b815260040160405180910390fd5b610e41610e14565b6000805160206118698339815191527f52c63247e1f47db19d5ce0460030c497f067ca4cebf71ba98eeadabe20bace03610e7b8482611787565b506004810161076b8382611787565b6000805160206118698339815191526001600160a01b038516610ec35760405163e602df0560e01b815260006004820152602401610b64565b6001600160a01b038416610eed57604051634a1406b160e11b815260006004820152602401610b64565b6001600160a01b03808616600090815260018301602090815260408083209388168352929052208390558115610f6b57836001600160a01b0316856001600160a01b03167f8c5be1e5ebec7d5bd14f71427d1e84f3dd0314c0f7b2291e5b200ac8c7c3b92585604051610f6291815260200190565b60405180910390a35b5050505050565b6000610f7e84846108c1565b905060001981101561076b5781811015610fc457604051637dc7a0d960e11b81526001600160a01b03841660048201526024810182905260448101839052606401610b64565b61076b84848484036000610e8a565b6001600160a01b038316610ffd57604051634b637e8f60e11b815260006004820152602401610b64565b6001600160a01b0382166110275760405163ec442f0560e01b815260006004820152602401610b64565b6107a483838361106b565b61103c8282610819565b6107f85760405163e2517d3f60e01b81526001600160a01b038216600482015260248101839052604401610b64565b6000805160206118698339815191526001600160a01b0384166110a7578181600201600082825461109c9190611847565b909155506111199050565b6001600160a01b038416600090815260208290526040902054828110156110fa5760405163391434e360e21b81526001600160a01b03861660048201526024810182905260448101849052606401610b64565b6001600160a01b03851660009081526020839052604090209083900390555b6001600160a01b038316611137576002810180548390039055611156565b6001600160a01b03831660009081526020829052604090208054830190555b826001600160a01b0316846001600160a01b03167fddf252ad1be2c89b69c2b068fc378daa952ba7f163c4a11628f55a4df523b3ef8460405161119b91815260200190565b60405180910390a350505050565b6111b282611219565b6040516001600160a01b038316907fbc7cd75a20ee27fd9adebab32041f755214dbc6bffa90cc0225b39da2e5c2d3b90600090a28051156111f7576107a4828261127e565b6107f86112f4565b600061120961095f565b54600160401b900460ff16919050565b806001600160a01b03163b60000361124f57604051634c9c8ce360e01b81526001600160a01b0382166004820152602401610b64565b60008051602061188983398151915280546001600160a01b0319166001600160a01b0392909216919091179055565b6060600080846001600160a01b03168460405161129b91906116e0565b600060405180830381855af49150503d80600081146112d6576040519150601f19603f3d011682016040523d82523d6000602084013e6112db565b606091505b50915091506112eb858383611313565b95945050505050565b34156109a25760405163b398979f60e01b815260040160405180910390fd5b606082611328576113238261136f565b610726565b815115801561133f57506001600160a01b0384163b155b1561136857604051639996b31560e01b81526001600160a01b0385166004820152602401610b64565b5080610726565b80511561137e57805160208201fd5b60405163d6bda27560e01b815260040160405180910390fd5b6000602082840312156113a957600080fd5b81356001600160e01b03198116811461072657600080fd5b60005b838110156113dc5781810151838201526020016113c4565b50506000910152565b60208152600082518060208401526114048160408501602087016113c1565b601f01601f19169190910160400192915050565b634e487b7160e01b600052604160045260246000fd5b600067ffffffffffffffff8084111561144957611449611418565b604051601f8501601f19908116603f0116810190828211818310171561147157611471611418565b8160405280935085815286868601111561148a57600080fd5b858560208301376000602087830101525050509392505050565b600082601f8301126114b557600080fd5b6107268383356020850161142e565b80356001600160a01b03811681146114db57600080fd5b919050565b6000806000606084860312156114f557600080fd5b833567ffffffffffffffff8082111561150d57600080fd5b611519878388016114a4565b9450602086013591508082111561152f57600080fd5b5061153c868287016114a4565b92505061154b604085016114c4565b90509250925092565b6000806040838503121561156757600080fd5b611570836114c4565b946020939093013593505050565b60008060006060848603121561159357600080fd5b61159c846114c4565b92506115aa602085016114c4565b9150604084013590509250925092565b6000602082840312156115cc57600080fd5b5035919050565b600080604083850312156115e657600080fd5b823591506115f6602084016114c4565b90509250929050565b6000806040838503121561161257600080fd5b61161b836114c4565b9150602083013567ffffffffffffffff81111561163757600080fd5b8301601f8101851361164857600080fd5b6116578582356020840161142e565b9150509250929050565b60006020828403121561167357600080fd5b610726826114c4565b6000806040838503121561168f57600080fd5b611698836114c4565b91506115f6602084016114c4565b600181811c908216806116ba57607f821691505b6020821081036116da57634e487b7160e01b600052602260045260246000fd5b50919050565b600082516116f28184602087016113c1565b9190910192915050565b60006020828403121561170e57600080fd5b8151801515811461072657600080fd5b60006020828403121561173057600080fd5b5051919050565b601f8211156107a4576000816000526020600020601f850160051c810160208610156117605750805b601f850160051c820191505b8181101561177f5782815560010161176c565b505050505050565b815167ffffffffffffffff8111156117a1576117a1611418565b6117b5816117af84546116a6565b84611737565b602080601f8311600181146117ea57600084156117d25750858301515b600019600386901b1c1916600185901b17855561177f565b600085815260208120601f198616915b82811015611819578886015182559484019460019091019084016117fa565b50858210156118375787850151600019600388901b60f8161c191681555b5050505050600190811b01905550565b808201808211156104e657634e487b7160e01b600052601160045260246000fdfe52c63247e1f47db19d5ce0460030c497f067ca4cebf71ba98eeadabe20bace00360894a13ba1a3210667c828492db98dca3e2076cc3735a920a3ca505d382bbc02dd7bc7dec4dceedda775e58dd541e08a116c6c53815c0bd028192f7b626800a26469706673582212204b42f7443327b0002c0e8d47785c7237fb9887c452ae06221292dd5021712e6e64736f6c63430008180033",
  "linkReferences": {},
  "deployedLinkReferences": {}
}