{
  "_format": "hh-sol-artifact-1",
  "contractName": "FVC",
  "sourceName": "src/FVC.sol",
  "abi": [
    {
      "inputs": [
        {
          "internalType": "string",
          "name": "_name",
          "type": "string"
        },
        {
          "internalType": "string",
          "name": "_symbol",
          "type": "string"
        },
        {
          "internalType": "address",
          "name": "admin",
          "type": "address"
        }
      ],
      "stateMutability": "nonpayable",
      "type": "constructor"
    },
    {
      "inputs": [],
      "name": "AccessControlBadConfirmation",
      "type": "error"
    },
    {
      "inputs": [
        {
          "internalType": "address",
          "name": "account",
          "type": "address"
        },
        {
          "internalType": "bytes32",
          "name": "neededRole",
          "type": "bytes32"
        }
      ],
      "name": "AccessControlUnauthorizedAccount",
      "type": "error"
    },
    {
      "inputs": [
        {
          "internalType": "address",
          "name": "spender",
          "type": "address"
        },
        {
          "internalType": "uint256",
          "name": "allowance",
          "type": "uint256"
        },
        {
          "internalType": "uint256",
          "name": "needed",
          "type": "uint256"
        }
      ],
      "name": "ERC20InsufficientAllowance",
      "type": "error"
    },
    {
      "inputs": [
        {
          "internalType": "address",
          "name": "sender",
          "type": "address"
        },
        {
          "internalType": "uint256",
          "name": "balance",
          "type": "uint256"
        },
        {
          "internalType": "uint256",
          "name": "needed",
          "type": "uint256"
        }
      ],
      "name": "ERC20InsufficientBalance",
      "type": "error"
    },
    {
      "inputs": [
        {
          "internalType": "address",
          "name": "approver",
          "type": "address"
        }
      ],
      "name": "ERC20InvalidApprover",
      "type": "error"
    },
    {
      "inputs": [
        {
          "internalType": "address",
          "name": "receiver",
          "type": "address"
        }
      ],
      "name": "ERC20InvalidReceiver",
      "type": "error"
    },
    {
      "inputs": [
        {
          "internalType": "address",
          "name": "sender",
          "type": "address"
        }
      ],
      "name": "ERC20InvalidSender",
      "type": "error"
    },
    {
      "inputs": [
        {
          "internalType": "address",
          "name": "spender",
          "type": "address"
        }
      ],
      "name": "ERC20InvalidSpender",
      "type": "error"
    },
    {
      "anonymous": false,
      "inputs": [
        {
          "indexed": true,
          "internalType": "address",
          "name": "owner",
          "type": "address"
        },
        {
          "indexed": true,
          "internalType": "address",
          "name": "spender",
          "type": "address"
        },
        {
          "indexed": false,
          "internalType": "uint256",
          "name": "value",
          "type": "uint256"
        }
      ],
      "name": "Approval",
      "type": "event"
    },
    {
      "anonymous": false,
      "inputs": [
        {
          "indexed": true,
          "internalType": "address",
          "name": "bondingContract",
          "type": "address"
        }
      ],
      "name": "BondingContractSet",
      "type": "event"
    },
    {
      "anonymous": false,
      "inputs": [
        {
          "indexed": true,
          "internalType": "bytes32",
          "name": "role",
          "type": "bytes32"
        },
        {
          "indexed": true,
          "internalType": "bytes32",
          "name": "previousAdminRole",
          "type": "bytes32"
        },
        {
          "indexed": true,
          "internalType": "bytes32",
          "name": "newAdminRole",
          "type": "bytes32"
        }
      ],
      "name": "RoleAdminChanged",
      "type": "event"
    },
    {
      "anonymous": false,
      "inputs": [
        {
          "indexed": true,
          "internalType": "bytes32",
          "name": "role",
          "type": "bytes32"
        },
        {
          "indexed": true,
          "internalType": "address",
          "name": "account",
          "type": "address"
        },
        {
          "indexed": true,
          "internalType": "address",
          "name": "sender",
          "type": "address"
        }
      ],
      "name": "RoleGranted",
      "type": "event"
    },
    {
      "anonymous": false,
      "inputs": [
        {
          "indexed": true,
          "internalType": "bytes32",
          "name": "role",
          "type": "bytes32"
        },
        {
          "indexed": true,
          "internalType": "address",
          "name": "account",
          "type": "address"
        },
        {
          "indexed": true,
          "internalType": "address",
          "name": "sender",
          "type": "address"
        }
      ],
      "name": "RoleRevoked",
      "type": "event"
    },
    {
      "anonymous": false,
      "inputs": [
        {
          "indexed": true,
          "internalType": "address",
          "name": "from",
          "type": "address"
        },
        {
          "indexed": true,
          "internalType": "address",
          "name": "to",
          "type": "address"
        },
        {
          "indexed": false,
          "internalType": "uint256",
          "name": "value",
          "type": "uint256"
        }
      ],
      "name": "Transfer",
      "type": "event"
    },
    {
      "inputs": [],
      "name": "DEFAULT_ADMIN_ROLE",
      "outputs": [
        {
          "internalType": "bytes32",
          "name": "",
          "type": "bytes32"
        }
      ],
      "stateMutability": "view",
      "type": "function"
    },
    {
      "inputs": [],
      "name": "MINTER_ROLE",
      "outputs": [
        {
          "internalType": "bytes32",
          "name": "",
          "type": "bytes32"
        }
      ],
      "stateMutability": "view",
      "type": "function"
    },
    {
      "inputs": [
        {
          "internalType": "address",
          "name": "owner",
          "type": "address"
        },
        {
          "internalType": "address",
          "name": "spender",
          "type": "address"
        }
      ],
      "name": "allowance",
      "outputs": [
        {
          "internalType": "uint256",
          "name": "",
          "type": "uint256"
        }
      ],
      "stateMutability": "view",
      "type": "function"
    },
    {
      "inputs": [
        {
          "internalType": "address",
          "name": "spender",
          "type": "address"
        },
        {
          "internalType": "uint256",
          "name": "value",
          "type": "uint256"
        }
      ],
      "name": "approve",
      "outputs": [
        {
          "internalType": "bool",
          "name": "",
          "type": "bool"
        }
      ],
      "stateMutability": "nonpayable",
      "type": "function"
    },
    {
      "inputs": [
        {
          "internalType": "address",
          "name": "account",
          "type": "address"
        }
      ],
      "name": "balanceOf",
      "outputs": [
        {
          "internalType": "uint256",
          "name": "",
          "type": "uint256"
        }
      ],
      "stateMutability": "view",
      "type": "function"
    },
    {
      "inputs": [],
      "name": "bondingContract",
      "outputs": [
        {
          "internalType": "address",
          "name": "",
          "type": "address"
        }
      ],
      "stateMutability": "view",
      "type": "function"
    },
    {
      "inputs": [],
      "name": "decimals",
      "outputs": [
        {
          "internalType": "uint8",
          "name": "",
          "type": "uint8"
        }
      ],
      "stateMutability": "view",
      "type": "function"
    },
    {
      "inputs": [
        {
          "internalType": "bytes32",
          "name": "role",
          "type": "bytes32"
        }
      ],
      "name": "getRoleAdmin",
      "outputs": [
        {
          "internalType": "bytes32",
          "name": "",
          "type": "bytes32"
        }
      ],
      "stateMutability": "view",
      "type": "function"
    },
    {
      "inputs": [
        {
          "internalType": "bytes32",
          "name": "role",
          "type": "bytes32"
        },
        {
          "internalType": "address",
          "name": "account",
          "type": "address"
        }
      ],
      "name": "grantRole",
      "outputs": [],
      "stateMutability": "nonpayable",
      "type": "function"
    },
    {
      "inputs": [
        {
          "internalType": "bytes32",
          "name": "role",
          "type": "bytes32"
        },
        {
          "internalType": "address",
          "name": "account",
          "type": "address"
        }
      ],
      "name": "hasRole",
      "outputs": [
        {
          "internalType": "bool",
          "name": "",
          "type": "bool"
        }
      ],
      "stateMutability": "view",
      "type": "function"
    },
    {
      "inputs": [
        {
          "internalType": "address",
          "name": "to",
          "type": "address"
        },
        {
          "internalType": "uint256",
          "name": "amount",
          "type": "uint256"
        }
      ],
      "name": "mint",
      "outputs": [],
      "stateMutability": "nonpayable",
      "type": "function"
    },
    {
      "inputs": [],
      "name": "name",
      "outputs": [
        {
          "internalType": "string",
          "name": "",
          "type": "string"
        }
      ],
      "stateMutability": "view",
      "type": "function"
    },
    {
      "inputs": [
        {
          "internalType": "bytes32",
          "name": "role",
          "type": "bytes32"
        },
        {
          "internalType": "address",
          "name": "callerConfirmation",
          "type": "address"
        }
      ],
      "name": "renounceRole",
      "outputs": [],
      "stateMutability": "nonpayable",
      "type": "function"
    },
    {
      "inputs": [
        {
          "internalType": "bytes32",
          "name": "role",
          "type": "bytes32"
        },
        {
          "internalType": "address",
          "name": "account",
          "type": "address"
        }
      ],
      "name": "revokeRole",
      "outputs": [],
      "stateMutability": "nonpayable",
      "type": "function"
    },
    {
      "inputs": [
        {
          "internalType": "address",
          "name": "_bondingContract",
          "type": "address"
        }
      ],
      "name": "setBondingContract",
      "outputs": [],
      "stateMutability": "nonpayable",
      "type": "function"
    },
    {
      "inputs": [
        {
          "internalType": "bytes4",
          "name": "interfaceId",
          "type": "bytes4"
        }
      ],
      "name": "supportsInterface",
      "outputs": [
        {
          "internalType": "bool",
          "name": "",
          "type": "bool"
        }
      ],
      "stateMutability": "view",
      "type": "function"
    },
    {
      "inputs": [],
      "name": "symbol",
      "outputs": [
        {
          "internalType": "string",
          "name": "",
          "type": "string"
        }
      ],
      "stateMutability": "view",
      "type": "function"
    },
    {
      "inputs": [],
      "name": "totalSupply",
      "outputs": [
        {
          "internalType": "uint256",
          "name": "",
          "type": "uint256"
        }
      ],
      "stateMutability": "view",
      "type": "function"
    },
    {
      "inputs": [
        {
          "internalType": "address",
          "name": "to",
          "type": "address"
        },
        {
          "internalType": "uint256",
          "name": "amount",
          "type": "uint256"
        }
      ],
      "name": "transfer",
      "outputs": [
        {
          "internalType": "bool",
          "name": "",
          "type": "bool"
        }
      ],
      "stateMutability": "nonpayable",
      "type": "function"
    },
    {
      "inputs": [
        {
          "internalType": "address",
          "name": "from",
          "type": "address"
        },
        {
          "internalType": "address",
          "name": "to",
          "type": "address"
        },
        {
          "internalType": "uint256",
          "name": "amount",
          "type": "uint256"
        }
      ],
      "name": "transferFrom",
      "outputs": [
        {
          "internalType": "bool",
          "name": "",
          "type": "bool"
        }
      ],
      "stateMutability": "nonpayable",
      "type": "function"
    }
  ],
  "bytecode": "0x60806040523480156200001157600080fd5b50604051620011a8380380620011a8833981016040819052620000349162000217565b8282600362000044838262000335565b50600462000053828262000335565b5062000065915060009050826200009c565b50620000927f9f2df0fed2c77648de5860a4cc508cd0818c85b8b8a1ab4ceeef8d981c8956a6826200009c565b5050505062000401565b60008281526005602090815260408083206001600160a01b038516845290915281205460ff16620001455760008381526005602090815260408083206001600160a01b03861684529091529020805460ff19166001179055620000fc3390565b6001600160a01b0316826001600160a01b0316847f2f8788117e7eff1d82e926ec794901d17c78024a50270940304540a733656f0d60405160405180910390a450600162000149565b5060005b92915050565b634e487b7160e01b600052604160045260246000fd5b600082601f8301126200017757600080fd5b81516001600160401b03808211156200019457620001946200014f565b604051601f8301601f19908116603f01168101908282118183101715620001bf57620001bf6200014f565b8160405283815260209250866020858801011115620001dd57600080fd5b600091505b83821015620002015785820183015181830184015290820190620001e2565b6000602085830101528094505050505092915050565b6000806000606084860312156200022d57600080fd5b83516001600160401b03808211156200024557600080fd5b620002538783880162000165565b945060208601519150808211156200026a57600080fd5b50620002798682870162000165565b604086015190935090506001600160a01b03811681146200029957600080fd5b809150509250925092565b600181811c90821680620002b957607f821691505b602082108103620002da57634e487b7160e01b600052602260045260246000fd5b50919050565b601f82111562000330576000816000526020600020601f850160051c810160208610156200030b5750805b601f850160051c820191505b818110156200032c5782815560010162000317565b5050505b505050565b81516001600160401b038111156200035157620003516200014f565b6200036981620003628454620002a4565b84620002e0565b602080601f831160018114620003a15760008415620003885750858301515b600019600386901b1c1916600185901b1785556200032c565b600085815260208120601f198616915b82811015620003d257888601518255948401946001909101908401620003b1565b5085821015620003f15787850151600019600388901b60f8161c191681555b5050505050600190811b01905550565b610d9780620004116000396000f3fe608060405234801561001057600080fd5b506004361061012c5760003560e01c806370a08231116100ad578063d539139311610071578063d539139314610272578063d547741f14610299578063dd62ed3e146102ac578063e999720f146102e5578063eecaab061461031057600080fd5b806370a082311461021357806391d148541461023c57806395d89b411461024f578063a217fddf14610257578063a9059cbb1461025f57600080fd5b8063248a9ca3116100f4578063248a9ca3146101a65780632f2ff15d146101c9578063313ce567146101de57806336568abe146101ed57806340c10f191461020057600080fd5b806301ffc9a71461013157806306fdde0314610159578063095ea7b31461016e57806318160ddd1461018157806323b872dd14610193575b600080fd5b61014461013f366004610b3b565b610323565b60405190151581526020015b60405180910390f35b61016161035a565b6040516101509190610b89565b61014461017c366004610bd8565b6103ec565b6002545b604051908152602001610150565b6101446101a1366004610c02565b610404565b6101856101b4366004610c3e565b60009081526005602052604090206001015490565b6101dc6101d7366004610c57565b610422565b005b60405160128152602001610150565b6101dc6101fb366004610c57565b61044d565b6101dc61020e366004610bd8565b610485565b610185610221366004610c83565b6001600160a01b031660009081526020819052604090205490565b61014461024a366004610c57565b6104b9565b6101616104e4565b610185600081565b61014461026d366004610bd8565b6104f3565b6101857f9f2df0fed2c77648de5860a4cc508cd0818c85b8b8a1ab4ceeef8d981c8956a681565b6101dc6102a7366004610c57565b61050f565b6101856102ba366004610c9e565b6001600160a01b03918216600090815260016020908152604080832093909416825291909152205490565b6006546102f8906001600160a01b031681565b6040516001600160a01b039091168152602001610150565b6101dc61031e366004610c83565b610534565b60006001600160e01b03198216637965db0b60e01b148061035457506301ffc9a760e01b6001600160e01b03198316145b92915050565b60606003805461036990610cc8565b80601f016020809104026020016040519081016040528092919081815260200182805461039590610cc8565b80156103e25780601f106103b7576101008083540402835291602001916103e2565b820191906000526020600020905b8154815290600101906020018083116103c557829003601f168201915b5050505050905090565b6000336103fa81858561058a565b5060019392505050565b600061040f84610597565b61041a8484846106b4565b949350505050565b60008281526005602052604090206001015461043d816106d8565b61044783836106e2565b50505050565b6001600160a01b03811633146104765760405163334bd91960e11b815260040160405180910390fd5b6104808282610776565b505050565b7f9f2df0fed2c77648de5860a4cc508cd0818c85b8b8a1ab4ceeef8d981c8956a66104af816106d8565b61048083836107e3565b60009182526005602090815260408084206001600160a01b0393909316845291905290205460ff1690565b60606004805461036990610cc8565b60006104fe33610597565b610508838361081d565b9392505050565b60008281526005602052604090206001015461052a816106d8565b6104478383610776565b600061053f816106d8565b600680546001600160a01b0319166001600160a01b0384169081179091556040517f7aa87aebd6d5c204db6300fd91613a02daf742541b0af8b21606d406a3a4d82790600090a25050565b610480838383600161082b565b6006546001600160a01b0316156106b1576006546040516001600160a01b038381166024830152600092839291169060440160408051601f198184030181529181526020820180516001600160e01b0316631293efbb60e21b179052516105fe9190610d02565b600060405180830381855afa9150503d8060008114610639576040519150601f19603f3d011682016040523d82523d6000602084013e61063e565b606091505b509150915081801561065f57508080602001905181019061065f9190610d1e565b156104805760405162461bcd60e51b815260206004820152601d60248201527f4656433a20746f6b656e73206c6f636b656420696e2076657374696e6700000060448201526064015b60405180910390fd5b50565b6000336106c2858285610900565b6106cd858585610979565b506001949350505050565b6106b181336109d8565b60006106ee83836104b9565b61076e5760008381526005602090815260408083206001600160a01b03861684529091529020805460ff191660011790556107263390565b6001600160a01b0316826001600160a01b0316847f2f8788117e7eff1d82e926ec794901d17c78024a50270940304540a733656f0d60405160405180910390a4506001610354565b506000610354565b600061078283836104b9565b1561076e5760008381526005602090815260408083206001600160a01b0386168085529252808320805460ff1916905551339286917ff6391f5c32d9c69d2a47ea670b442974b53935d1edc7fd64eb21e047a839171b9190a4506001610354565b6001600160a01b03821661080d5760405163ec442f0560e01b8152600060048201526024016106a8565b61081960008383610a11565b5050565b6000336103fa818585610979565b6001600160a01b0384166108555760405163e602df0560e01b8152600060048201526024016106a8565b6001600160a01b03831661087f57604051634a1406b160e11b8152600060048201526024016106a8565b6001600160a01b038085166000908152600160209081526040808320938716835292905220829055801561044757826001600160a01b0316846001600160a01b03167f8c5be1e5ebec7d5bd14f71427d1e84f3dd0314c0f7b2291e5b200ac8c7c3b925846040516108f291815260200190565b60405180910390a350505050565b6001600160a01b03838116600090815260016020908152604080832093861683529290522054600019811015610447578181101561096a57604051637dc7a0d960e11b81526001600160a01b038416600482015260248101829052604481018390526064016106a8565b6104478484848403600061082b565b6001600160a01b0383166109a357604051634b637e8f60e11b8152600060048201526024016106a8565b6001600160a01b0382166109cd5760405163ec442f0560e01b8152600060048201526024016106a8565b610480838383610a11565b6109e282826104b9565b6108195760405163e2517d3f60e01b81526001600160a01b0382166004820152602481018390526044016106a8565b6001600160a01b038316610a3c578060026000828254610a319190610d40565b90915550610aae9050565b6001600160a01b03831660009081526020819052604090205481811015610a8f5760405163391434e360e21b81526001600160a01b038516600482015260248101829052604481018390526064016106a8565b6001600160a01b03841660009081526020819052604090209082900390555b6001600160a01b038216610aca57600280548290039055610ae9565b6001600160a01b03821660009081526020819052604090208054820190555b816001600160a01b0316836001600160a01b03167fddf252ad1be2c89b69c2b068fc378daa952ba7f163c4a11628f55a4df523b3ef83604051610b2e91815260200190565b60405180910390a3505050565b600060208284031215610b4d57600080fd5b81356001600160e01b03198116811461050857600080fd5b60005b83811015610b80578181015183820152602001610b68565b50506000910152565b6020815260008251806020840152610ba8816040850160208701610b65565b601f01601f19169190910160400192915050565b80356001600160a01b0381168114610bd357600080fd5b919050565b60008060408385031215610beb57600080fd5b610bf483610bbc565b946020939093013593505050565b600080600060608486031215610c1757600080fd5b610c2084610bbc565b9250610c2e60208501610bbc565b9150604084013590509250925092565b600060208284031215610c5057600080fd5b5035919050565b60008060408385031215610c6a57600080fd5b82359150610c7a60208401610bbc565b90509250929050565b600060208284031215610c9557600080fd5b61050882610bbc565b60008060408385031215610cb157600080fd5b610cba83610bbc565b9150610c7a60208401610bbc565b600181811c90821680610cdc57607f821691505b602082108103610cfc57634e487b7160e01b600052602260045260246000fd5b50919050565b60008251610d14818460208701610b65565b9190910192915050565b600060208284031215610d3057600080fd5b8151801515811461050857600080fd5b8082018082111561035457634e487b7160e01b600052601160045260246000fdfea2646970667358221220a90e334fe9c535dcb375fa3a8386a800aea6bfe0a7502a45a4f54b279154099b64736f6c63430008180033",
  "linkReferences": {},
  "deployedLinkReferences": {}
}