{
  "_format": "hh-sol-artifact-1",
  "contractName": "FVC",
  "sourceName": "src/FVC.sol",
  "abi": [
    {
      "inputs": [
        {
          "internalType": "address",
          "name": "spender",
          "type": "address"
        },
        {
          "internalType": "uint256",
          "name": "allowance",
          "type": "uint256"
        },
        {
          "internalType": "uint256",
          "name": "needed",
          "type": "uint256"
        }
      ],
      "name": "ERC20InsufficientAllowance",
      "type": "error"
    },
    {
      "inputs": [
        {
          "internalType": "address",
          "name": "sender",
          "type": "address"
        },
        {
          "internalType": "uint256",
          "name": "balance",
          "type": "uint256"
        },
        {
          "internalType": "uint256",
          "name": "needed",
          "type": "uint256"
        }
      ],
      "name": "ERC20InsufficientBalance",
      "type": "error"
    },
    {
      "inputs": [
        {
          "internalType": "address",
          "name": "approver",
          "type": "address"
        }
      ],
      "name": "ERC20InvalidApprover",
      "type": "error"
    },
    {
      "inputs": [
        {
          "internalType": "address",
          "name": "receiver",
          "type": "address"
        }
      ],
      "name": "ERC20InvalidReceiver",
      "type": "error"
    },
    {
      "inputs": [
        {
          "internalType": "address",
          "name": "sender",
          "type": "address"
        }
      ],
      "name": "ERC20InvalidSender",
      "type": "error"
    },
    {
      "inputs": [
        {
          "internalType": "address",
          "name": "spender",
          "type": "address"
        }
      ],
      "name": "ERC20InvalidSpender",
      "type": "error"
    },
    {
      "inputs": [],
      "name": "InvalidInitialization",
      "type": "error"
    },
    {
      "inputs": [],
      "name": "NotInitializing",
      "type": "error"
    },
    {
      "inputs": [
        {
          "internalType": "address",
          "name": "owner",
          "type": "address"
        }
      ],
      "name": "OwnableInvalidOwner",
      "type": "error"
    },
    {
      "inputs": [
        {
          "internalType": "address",
          "name": "account",
          "type": "address"
        }
      ],
      "name": "OwnableUnauthorizedAccount",
      "type": "error"
    },
    {
      "anonymous": false,
      "inputs": [
        {
          "indexed": true,
          "internalType": "address",
          "name": "owner",
          "type": "address"
        },
        {
          "indexed": true,
          "internalType": "address",
          "name": "spender",
          "type": "address"
        },
        {
          "indexed": false,
          "internalType": "uint256",
          "name": "value",
          "type": "uint256"
        }
      ],
      "name": "Approval",
      "type": "event"
    },
    {
      "anonymous": false,
      "inputs": [
        {
          "indexed": false,
          "internalType": "uint64",
          "name": "version",
          "type": "uint64"
        }
      ],
      "name": "Initialized",
      "type": "event"
    },
    {
      "anonymous": false,
      "inputs": [
        {
          "indexed": true,
          "internalType": "address",
          "name": "previousOwner",
          "type": "address"
        },
        {
          "indexed": true,
          "internalType": "address",
          "name": "newOwner",
          "type": "address"
        }
      ],
      "name": "OwnershipTransferred",
      "type": "event"
    },
    {
      "anonymous": false,
      "inputs": [
        {
          "indexed": true,
          "internalType": "address",
          "name": "from",
          "type": "address"
        },
        {
          "indexed": true,
          "internalType": "address",
          "name": "to",
          "type": "address"
        },
        {
          "indexed": false,
          "internalType": "uint256",
          "name": "value",
          "type": "uint256"
        }
      ],
      "name": "Transfer",
      "type": "event"
    },
    {
      "inputs": [
        {
          "internalType": "address",
          "name": "owner",
          "type": "address"
        },
        {
          "internalType": "address",
          "name": "spender",
          "type": "address"
        }
      ],
      "name": "allowance",
      "outputs": [
        {
          "internalType": "uint256",
          "name": "",
          "type": "uint256"
        }
      ],
      "stateMutability": "view",
      "type": "function"
    },
    {
      "inputs": [
        {
          "internalType": "address",
          "name": "spender",
          "type": "address"
        },
        {
          "internalType": "uint256",
          "name": "value",
          "type": "uint256"
        }
      ],
      "name": "approve",
      "outputs": [
        {
          "internalType": "bool",
          "name": "",
          "type": "bool"
        }
      ],
      "stateMutability": "nonpayable",
      "type": "function"
    },
    {
      "inputs": [
        {
          "internalType": "address",
          "name": "account",
          "type": "address"
        }
      ],
      "name": "balanceOf",
      "outputs": [
        {
          "internalType": "uint256",
          "name": "",
          "type": "uint256"
        }
      ],
      "stateMutability": "view",
      "type": "function"
    },
    {
      "inputs": [],
      "name": "decimals",
      "outputs": [
        {
          "internalType": "uint8",
          "name": "",
          "type": "uint8"
        }
      ],
      "stateMutability": "view",
      "type": "function"
    },
    {
      "inputs": [
        {
          "internalType": "address",
          "name": "owner",
          "type": "address"
        }
      ],
      "name": "initialize",
      "outputs": [],
      "stateMutability": "nonpayable",
      "type": "function"
    },
    {
      "inputs": [],
      "name": "name",
      "outputs": [
        {
          "internalType": "string",
          "name": "",
          "type": "string"
        }
      ],
      "stateMutability": "view",
      "type": "function"
    },
    {
      "inputs": [],
      "name": "owner",
      "outputs": [
        {
          "internalType": "address",
          "name": "",
          "type": "address"
        }
      ],
      "stateMutability": "view",
      "type": "function"
    },
    {
      "inputs": [],
      "name": "renounceOwnership",
      "outputs": [],
      "stateMutability": "nonpayable",
      "type": "function"
    },
    {
      "inputs": [],
      "name": "symbol",
      "outputs": [
        {
          "internalType": "string",
          "name": "",
          "type": "string"
        }
      ],
      "stateMutability": "view",
      "type": "function"
    },
    {
      "inputs": [],
      "name": "totalSupply",
      "outputs": [
        {
          "internalType": "uint256",
          "name": "",
          "type": "uint256"
        }
      ],
      "stateMutability": "view",
      "type": "function"
    },
    {
      "inputs": [
        {
          "internalType": "address",
          "name": "to",
          "type": "address"
        },
        {
          "internalType": "uint256",
          "name": "value",
          "type": "uint256"
        }
      ],
      "name": "transfer",
      "outputs": [
        {
          "internalType": "bool",
          "name": "",
          "type": "bool"
        }
      ],
      "stateMutability": "nonpayable",
      "type": "function"
    },
    {
      "inputs": [
        {
          "internalType": "address",
          "name": "from",
          "type": "address"
        },
        {
          "internalType": "address",
          "name": "to",
          "type": "address"
        },
        {
          "internalType": "uint256",
          "name": "value",
          "type": "uint256"
        }
      ],
      "name": "transferFrom",
      "outputs": [
        {
          "internalType": "bool",
          "name": "",
          "type": "bool"
        }
      ],
      "stateMutability": "nonpayable",
      "type": "function"
    },
    {
      "inputs": [
        {
          "internalType": "address",
          "name": "newOwner",
          "type": "address"
        }
      ],
      "name": "transferOwnership",
      "outputs": [],
      "stateMutability": "nonpayable",
      "type": "function"
    }
  ],
  "bytecode": "0x608060405234801561001057600080fd5b5061192b806100206000396000f3fe608060405234801561001057600080fd5b50600436106100cf5760003560e01c8063715018a61161008c578063a9059cbb11610066578063a9059cbb14610204578063c4d66de814610234578063dd62ed3e14610250578063f2fde38b14610280576100cf565b8063715018a6146101be5780638da5cb5b146101c857806395d89b41146101e6576100cf565b806306fdde03146100d4578063095ea7b3146100f257806318160ddd1461012257806323b872dd14610140578063313ce5671461017057806370a082311461018e575b600080fd5b6100dc61029c565b6040516100e99190611268565b60405180910390f35b61010c60048036038101906101079190611323565b61033d565b604051610119919061137e565b60405180910390f35b61012a610360565b60405161013791906113a8565b60405180910390f35b61015a600480360381019061015591906113c3565b610378565b604051610167919061137e565b60405180910390f35b6101786103a7565b6040516101859190611432565b60405180910390f35b6101a860048036038101906101a3919061144d565b6103b0565b6040516101b591906113a8565b60405180910390f35b6101c6610407565b005b6101d061041b565b6040516101dd9190611489565b60405180910390f35b6101ee610453565b6040516101fb9190611268565b60405180910390f35b61021e60048036038101906102199190611323565b6104f4565b60405161022b919061137e565b60405180910390f35b61024e6004803603810190610249919061144d565b610517565b005b61026a600480360381019061026591906114a4565b610739565b60405161027791906113a8565b60405180910390f35b61029a6004803603810190610295919061144d565b6107ce565b005b606060006102a8610854565b90508060030180546102b990611513565b80601f01602080910402602001604051908101604052809291908181526020018280546102e590611513565b80156103325780601f1061030757610100808354040283529160200191610332565b820191906000526020600020905b81548152906001019060200180831161031557829003601f168201915b505050505091505090565b60008061034861087c565b9050610355818585610884565b600191505092915050565b60008061036b610854565b9050806002015491505090565b60008061038361087c565b9050610390858285610896565b61039b85858561092b565b60019150509392505050565b60006012905090565b6000806103bb610854565b90508060000160008473ffffffffffffffffffffffffffffffffffffffff1673ffffffffffffffffffffffffffffffffffffffff16815260200190815260200160002054915050919050565b61040f610a1f565b6104196000610aa6565b565b600080610426610b7d565b90508060000160009054906101000a900473ffffffffffffffffffffffffffffffffffffffff1691505090565b6060600061045f610854565b905080600401805461047090611513565b80601f016020809104026020016040519081016040528092919081815260200182805461049c90611513565b80156104e95780601f106104be576101008083540402835291602001916104e9565b820191906000526020600020905b8154815290600101906020018083116104cc57829003601f168201915b505050505091505090565b6000806104ff61087c565b905061050c81858561092b565b600191505092915050565b6000610521610ba5565b905060008160000160089054906101000a900460ff1615905060008260000160009054906101000a900467ffffffffffffffff1690506000808267ffffffffffffffff1614801561056f5750825b9050600060018367ffffffffffffffff161480156105a4575060003073ffffffffffffffffffffffffffffffffffffffff163b145b9050811580156105b2575080155b156105e9576040517ff92ee8a900000000000000000000000000000000000000000000000000000000815260040160405180910390fd5b60018560000160006101000a81548167ffffffffffffffff021916908367ffffffffffffffff16021790555083156106395760018560000160086101000a81548160ff0219169083151502179055505b6106ad6040518060400160405280601581526020017f46697273742056656e74757265204361706974616c00000000000000000000008152506040518060400160405280600381526020017f4656430000000000000000000000000000000000000000000000000000000000815250610bb9565b6106b686610bcf565b6106cc866b033b2e3c9fd0803ce8000000610be3565b6106d5866107ce565b83156107315760008560000160086101000a81548160ff0219169083151502179055507fc7f505b2f371ae2175ee4913f4499e1f2633a7b5936321eed1cdaeb6115181d26001604051610728919061159d565b60405180910390a15b505050505050565b600080610744610854565b90508060010160008573ffffffffffffffffffffffffffffffffffffffff1673ffffffffffffffffffffffffffffffffffffffff16815260200190815260200160002060008473ffffffffffffffffffffffffffffffffffffffff1673ffffffffffffffffffffffffffffffffffffffff1681526020019081526020016000205491505092915050565b6107d6610a1f565b600073ffffffffffffffffffffffffffffffffffffffff168173ffffffffffffffffffffffffffffffffffffffff16036108485760006040517f1e4fbdf700000000000000000000000000000000000000000000000000000000815260040161083f9190611489565b60405180910390fd5b61085181610aa6565b50565b60007f52c63247e1f47db19d5ce0460030c497f067ca4cebf71ba98eeadabe20bace00905090565b600033905090565b6108918383836001610c65565b505050565b60006108a28484610739565b90507fffffffffffffffffffffffffffffffffffffffffffffffffffffffffffffffff8110156109255781811015610915578281836040517ffb8f41b200000000000000000000000000000000000000000000000000000000815260040161090c939291906115b8565b60405180910390fd5b61092484848484036000610c65565b5b50505050565b600073ffffffffffffffffffffffffffffffffffffffff168373ffffffffffffffffffffffffffffffffffffffff160361099d5760006040517f96c6fd1e0000000000000000000000000000000000000000000000000000000081526004016109949190611489565b60405180910390fd5b600073ffffffffffffffffffffffffffffffffffffffff168273ffffffffffffffffffffffffffffffffffffffff1603610a0f5760006040517fec442f05000000000000000000000000000000000000000000000000000000008152600401610a069190611489565b60405180910390fd5b610a1a838383610e4b565b505050565b610a2761087c565b73ffffffffffffffffffffffffffffffffffffffff16610a4561041b565b73ffffffffffffffffffffffffffffffffffffffff1614610aa457610a6861087c565b6040517f118cdaa7000000000000000000000000000000000000000000000000000000008152600401610a9b9190611489565b60405180910390fd5b565b6000610ab0610b7d565b905060008160000160009054906101000a900473ffffffffffffffffffffffffffffffffffffffff169050828260000160006101000a81548173ffffffffffffffffffffffffffffffffffffffff021916908373ffffffffffffffffffffffffffffffffffffffff1602179055508273ffffffffffffffffffffffffffffffffffffffff168173ffffffffffffffffffffffffffffffffffffffff167f8be0079c531659141344cd1fd0a4f28419497f9722a3daafe3b4186f6b6457e060405160405180910390a3505050565b60007f9016d09d72d40fdae2fd8ceac6b6234c7706214fd39c1cd1e609a0528c199300905090565b600080610bb061108a565b90508091505090565b610bc16110b5565b610bcb82826110f5565b5050565b610bd76110b5565b610be081611132565b50565b600073ffffffffffffffffffffffffffffffffffffffff168273ffffffffffffffffffffffffffffffffffffffff1603610c555760006040517fec442f05000000000000000000000000000000000000000000000000000000008152600401610c4c9190611489565b60405180910390fd5b610c6160008383610e4b565b5050565b6000610c6f610854565b9050600073ffffffffffffffffffffffffffffffffffffffff168573ffffffffffffffffffffffffffffffffffffffff1603610ce35760006040517fe602df05000000000000000000000000000000000000000000000000000000008152600401610cda9190611489565b60405180910390fd5b600073ffffffffffffffffffffffffffffffffffffffff168473ffffffffffffffffffffffffffffffffffffffff1603610d555760006040517f94280d62000000000000000000000000000000000000000000000000000000008152600401610d4c9190611489565b60405180910390fd5b828160010160008773ffffffffffffffffffffffffffffffffffffffff1673ffffffffffffffffffffffffffffffffffffffff16815260200190815260200160002060008673ffffffffffffffffffffffffffffffffffffffff1673ffffffffffffffffffffffffffffffffffffffff168152602001908152602001600020819055508115610e44578373ffffffffffffffffffffffffffffffffffffffff168573ffffffffffffffffffffffffffffffffffffffff167f8c5be1e5ebec7d5bd14f71427d1e84f3dd0314c0f7b2291e5b200ac8c7c3b92585604051610e3b91906113a8565b60405180910390a35b5050505050565b6000610e55610854565b9050600073ffffffffffffffffffffffffffffffffffffffff168473ffffffffffffffffffffffffffffffffffffffff1603610eab5781816002016000828254610e9f919061161e565b92505081905550610f84565b60008160000160008673ffffffffffffffffffffffffffffffffffffffff1673ffffffffffffffffffffffffffffffffffffffff16815260200190815260200160002054905082811015610f3a578481846040517fe450d38c000000000000000000000000000000000000000000000000000000008152600401610f31939291906115b8565b60405180910390fd5b8281038260000160008773ffffffffffffffffffffffffffffffffffffffff1673ffffffffffffffffffffffffffffffffffffffff16815260200190815260200160002081905550505b600073ffffffffffffffffffffffffffffffffffffffff168373ffffffffffffffffffffffffffffffffffffffff1603610fcf5781816002016000828254039250508190555061101f565b818160000160008573ffffffffffffffffffffffffffffffffffffffff1673ffffffffffffffffffffffffffffffffffffffff168152602001908152602001600020600082825401925050819055505b8273ffffffffffffffffffffffffffffffffffffffff168473ffffffffffffffffffffffffffffffffffffffff167fddf252ad1be2c89b69c2b068fc378daa952ba7f163c4a11628f55a4df523b3ef8460405161107c91906113a8565b60405180910390a350505050565b60007ff0c57e16840df040f15088dc2f81fe391c3923bec73e23a9662efc9c229c6a0060001b905090565b6110bd6111b8565b6110f3576040517fd7e6bcf800000000000000000000000000000000000000000000000000000000815260040160405180910390fd5b565b6110fd6110b5565b6000611107610854565b90508281600301908161111a9190611823565b508181600401908161112c9190611823565b50505050565b61113a6110b5565b600073ffffffffffffffffffffffffffffffffffffffff168173ffffffffffffffffffffffffffffffffffffffff16036111ac5760006040517f1e4fbdf70000000000000000000000000000000000000000000000000000000081526004016111a39190611489565b60405180910390fd5b6111b581610aa6565b50565b60006111c2610ba5565b60000160089054906101000a900460ff16905090565b600081519050919050565b600082825260208201905092915050565b60005b838110156112125780820151818401526020810190506111f7565b60008484015250505050565b6000601f19601f8301169050919050565b600061123a826111d8565b61124481856111e3565b93506112548185602086016111f4565b61125d8161121e565b840191505092915050565b60006020820190508181036000830152611282818461122f565b905092915050565b600080fd5b600073ffffffffffffffffffffffffffffffffffffffff82169050919050565b60006112ba8261128f565b9050919050565b6112ca816112af565b81146112d557600080fd5b50565b6000813590506112e7816112c1565b92915050565b6000819050919050565b611300816112ed565b811461130b57600080fd5b50565b60008135905061131d816112f7565b92915050565b6000806040838503121561133a5761133961128a565b5b6000611348858286016112d8565b92505060206113598582860161130e565b9150509250929050565b60008115159050919050565b61137881611363565b82525050565b6000602082019050611393600083018461136f565b92915050565b6113a2816112ed565b82525050565b60006020820190506113bd6000830184611399565b92915050565b6000806000606084860312156113dc576113db61128a565b5b60006113ea868287016112d8565b93505060206113fb868287016112d8565b925050604061140c8682870161130e565b9150509250925092565b600060ff82169050919050565b61142c81611416565b82525050565b60006020820190506114476000830184611423565b92915050565b6000602082840312156114635761146261128a565b5b6000611471848285016112d8565b91505092915050565b611483816112af565b82525050565b600060208201905061149e600083018461147a565b92915050565b600080604083850312156114bb576114ba61128a565b5b60006114c9858286016112d8565b92505060206114da858286016112d8565b9150509250929050565b7f4e487b7100000000000000000000000000000000000000000000000000000000600052602260045260246000fd5b6000600282049050600182168061152b57607f821691505b60208210810361153e5761153d6114e4565b5b50919050565b6000819050919050565b600067ffffffffffffffff82169050919050565b6000819050919050565b600061158761158261157d84611544565b611562565b61154e565b9050919050565b6115978161156c565b82525050565b60006020820190506115b2600083018461158e565b92915050565b60006060820190506115cd600083018661147a565b6115da6020830185611399565b6115e76040830184611399565b949350505050565b7f4e487b7100000000000000000000000000000000000000000000000000000000600052601160045260246000fd5b6000611629826112ed565b9150611634836112ed565b925082820190508082111561164c5761164b6115ef565b5b92915050565b7f4e487b7100000000000000000000000000000000000000000000000000000000600052604160045260246000fd5b60008190508160005260206000209050919050565b60006020601f8301049050919050565b600082821b905092915050565b6000600883026116e37fffffffffffffffffffffffffffffffffffffffffffffffffffffffffffffffff826116a6565b6116ed86836116a6565b95508019841693508086168417925050509392505050565b600061172061171b611716846112ed565b611562565b6112ed565b9050919050565b6000819050919050565b61173a83611705565b61174e61174682611727565b8484546116b3565b825550505050565b600090565b611763611756565b61176e818484611731565b505050565b5b818110156117925761178760008261175b565b600181019050611774565b5050565b601f8211156117d7576117a881611681565b6117b184611696565b810160208510156117c0578190505b6117d46117cc85611696565b830182611773565b50505b505050565b600082821c905092915050565b60006117fa600019846008026117dc565b1980831691505092915050565b600061181383836117e9565b9150826002028217905092915050565b61182c826111d8565b67ffffffffffffffff81111561184557611844611652565b5b61184f8254611513565b61185a828285611796565b600060209050601f83116001811461188d576000841561187b578287015190505b6118858582611807565b8655506118ed565b601f19841661189b86611681565b60005b828110156118c35784890151825560018201915060208501945060208101905061189e565b868310156118e057848901516118dc601f8916826117e9565b8355505b6001600288020188555050505b50505050505056fea2646970667358221220f71a723d34d245e5efa3eee3d46434f538cf9e114d6c742aade1872b21b2123864736f6c63430008180033",
  "linkReferences": {},
  "deployedLinkReferences": {}
}