{
  "_format": "hh-sol-artifact-1",
  "contractName": "FVC",
  "sourceName": "src/FVC.sol",
  "abi": [
    {
      "inputs": [],
      "name": "AccessControlBadConfirmation",
      "type": "error"
    },
    {
      "inputs": [
        {
          "internalType": "address",
          "name": "account",
          "type": "address"
        },
        {
          "internalType": "bytes32",
          "name": "neededRole",
          "type": "bytes32"
        }
      ],
      "name": "AccessControlUnauthorizedAccount",
      "type": "error"
    },
    {
      "inputs": [
        {
          "internalType": "address",
          "name": "target",
          "type": "address"
        }
      ],
      "name": "AddressEmptyCode",
      "type": "error"
    },
    {
      "inputs": [
        {
          "internalType": "address",
          "name": "implementation",
          "type": "address"
        }
      ],
      "name": "ERC1967InvalidImplementation",
      "type": "error"
    },
    {
      "inputs": [],
      "name": "ERC1967NonPayable",
      "type": "error"
    },
    {
      "inputs": [
        {
          "internalType": "address",
          "name": "spender",
          "type": "address"
        },
        {
          "internalType": "uint256",
          "name": "allowance",
          "type": "uint256"
        },
        {
          "internalType": "uint256",
          "name": "needed",
          "type": "uint256"
        }
      ],
      "name": "ERC20InsufficientAllowance",
      "type": "error"
    },
    {
      "inputs": [
        {
          "internalType": "address",
          "name": "sender",
          "type": "address"
        },
        {
          "internalType": "uint256",
          "name": "balance",
          "type": "uint256"
        },
        {
          "internalType": "uint256",
          "name": "needed",
          "type": "uint256"
        }
      ],
      "name": "ERC20InsufficientBalance",
      "type": "error"
    },
    {
      "inputs": [
        {
          "internalType": "address",
          "name": "approver",
          "type": "address"
        }
      ],
      "name": "ERC20InvalidApprover",
      "type": "error"
    },
    {
      "inputs": [
        {
          "internalType": "address",
          "name": "receiver",
          "type": "address"
        }
      ],
      "name": "ERC20InvalidReceiver",
      "type": "error"
    },
    {
      "inputs": [
        {
          "internalType": "address",
          "name": "sender",
          "type": "address"
        }
      ],
      "name": "ERC20InvalidSender",
      "type": "error"
    },
    {
      "inputs": [
        {
          "internalType": "address",
          "name": "spender",
          "type": "address"
        }
      ],
      "name": "ERC20InvalidSpender",
      "type": "error"
    },
    {
      "inputs": [],
      "name": "FailedCall",
      "type": "error"
    },
    {
      "inputs": [],
      "name": "InvalidInitialization",
      "type": "error"
    },
    {
      "inputs": [],
      "name": "NotInitializing",
      "type": "error"
    },
    {
      "inputs": [],
      "name": "UUPSUnauthorizedCallContext",
      "type": "error"
    },
    {
      "inputs": [
        {
          "internalType": "bytes32",
          "name": "slot",
          "type": "bytes32"
        }
      ],
      "name": "UUPSUnsupportedProxiableUUID",
      "type": "error"
    },
    {
      "anonymous": false,
      "inputs": [
        {
          "indexed": true,
          "internalType": "address",
          "name": "owner",
          "type": "address"
        },
        {
          "indexed": true,
          "internalType": "address",
          "name": "spender",
          "type": "address"
        },
        {
          "indexed": false,
          "internalType": "uint256",
          "name": "value",
          "type": "uint256"
        }
      ],
      "name": "Approval",
      "type": "event"
    },
    {
      "anonymous": false,
      "inputs": [
        {
          "indexed": false,
          "internalType": "uint64",
          "name": "version",
          "type": "uint64"
        }
      ],
      "name": "Initialized",
      "type": "event"
    },
    {
      "anonymous": false,
      "inputs": [
        {
          "indexed": true,
          "internalType": "bytes32",
          "name": "role",
          "type": "bytes32"
        },
        {
          "indexed": true,
          "internalType": "bytes32",
          "name": "previousAdminRole",
          "type": "bytes32"
        },
        {
          "indexed": true,
          "internalType": "bytes32",
          "name": "newAdminRole",
          "type": "bytes32"
        }
      ],
      "name": "RoleAdminChanged",
      "type": "event"
    },
    {
      "anonymous": false,
      "inputs": [
        {
          "indexed": true,
          "internalType": "bytes32",
          "name": "role",
          "type": "bytes32"
        },
        {
          "indexed": true,
          "internalType": "address",
          "name": "account",
          "type": "address"
        },
        {
          "indexed": true,
          "internalType": "address",
          "name": "sender",
          "type": "address"
        }
      ],
      "name": "RoleGranted",
      "type": "event"
    },
    {
      "anonymous": false,
      "inputs": [
        {
          "indexed": true,
          "internalType": "bytes32",
          "name": "role",
          "type": "bytes32"
        },
        {
          "indexed": true,
          "internalType": "address",
          "name": "account",
          "type": "address"
        },
        {
          "indexed": true,
          "internalType": "address",
          "name": "sender",
          "type": "address"
        }
      ],
      "name": "RoleRevoked",
      "type": "event"
    },
    {
      "anonymous": false,
      "inputs": [
        {
          "indexed": true,
          "internalType": "address",
          "name": "from",
          "type": "address"
        },
        {
          "indexed": true,
          "internalType": "address",
          "name": "to",
          "type": "address"
        },
        {
          "indexed": false,
          "internalType": "uint256",
          "name": "value",
          "type": "uint256"
        }
      ],
      "name": "Transfer",
      "type": "event"
    },
    {
      "anonymous": false,
      "inputs": [
        {
          "indexed": true,
          "internalType": "address",
          "name": "implementation",
          "type": "address"
        }
      ],
      "name": "Upgraded",
      "type": "event"
    },
    {
      "inputs": [],
      "name": "DEFAULT_ADMIN_ROLE",
      "outputs": [
        {
          "internalType": "bytes32",
          "name": "",
          "type": "bytes32"
        }
      ],
      "stateMutability": "view",
      "type": "function"
    },
    {
      "inputs": [],
      "name": "MINTER_ROLE",
      "outputs": [
        {
          "internalType": "bytes32",
          "name": "",
          "type": "bytes32"
        }
      ],
      "stateMutability": "view",
      "type": "function"
    },
    {
      "inputs": [],
      "name": "UPGRADE_INTERFACE_VERSION",
      "outputs": [
        {
          "internalType": "string",
          "name": "",
          "type": "string"
        }
      ],
      "stateMutability": "view",
      "type": "function"
    },
    {
      "inputs": [
        {
          "internalType": "address",
          "name": "owner",
          "type": "address"
        },
        {
          "internalType": "address",
          "name": "spender",
          "type": "address"
        }
      ],
      "name": "allowance",
      "outputs": [
        {
          "internalType": "uint256",
          "name": "",
          "type": "uint256"
        }
      ],
      "stateMutability": "view",
      "type": "function"
    },
    {
      "inputs": [
        {
          "internalType": "address",
          "name": "spender",
          "type": "address"
        },
        {
          "internalType": "uint256",
          "name": "value",
          "type": "uint256"
        }
      ],
      "name": "approve",
      "outputs": [
        {
          "internalType": "bool",
          "name": "",
          "type": "bool"
        }
      ],
      "stateMutability": "nonpayable",
      "type": "function"
    },
    {
      "inputs": [
        {
          "internalType": "address",
          "name": "account",
          "type": "address"
        }
      ],
      "name": "balanceOf",
      "outputs": [
        {
          "internalType": "uint256",
          "name": "",
          "type": "uint256"
        }
      ],
      "stateMutability": "view",
      "type": "function"
    },
    {
      "inputs": [],
      "name": "decimals",
      "outputs": [
        {
          "internalType": "uint8",
          "name": "",
          "type": "uint8"
        }
      ],
      "stateMutability": "view",
      "type": "function"
    },
    {
      "inputs": [
        {
          "internalType": "bytes32",
          "name": "role",
          "type": "bytes32"
        }
      ],
      "name": "getRoleAdmin",
      "outputs": [
        {
          "internalType": "bytes32",
          "name": "",
          "type": "bytes32"
        }
      ],
      "stateMutability": "view",
      "type": "function"
    },
    {
      "inputs": [
        {
          "internalType": "bytes32",
          "name": "role",
          "type": "bytes32"
        },
        {
          "internalType": "address",
          "name": "account",
          "type": "address"
        }
      ],
      "name": "grantRole",
      "outputs": [],
      "stateMutability": "nonpayable",
      "type": "function"
    },
    {
      "inputs": [
        {
          "internalType": "bytes32",
          "name": "role",
          "type": "bytes32"
        },
        {
          "internalType": "address",
          "name": "account",
          "type": "address"
        }
      ],
      "name": "hasRole",
      "outputs": [
        {
          "internalType": "bool",
          "name": "",
          "type": "bool"
        }
      ],
      "stateMutability": "view",
      "type": "function"
    },
    {
      "inputs": [
        {
          "internalType": "string",
          "name": "name",
          "type": "string"
        },
        {
          "internalType": "string",
          "name": "symbol",
          "type": "string"
        },
        {
          "internalType": "address",
          "name": "admin",
          "type": "address"
        }
      ],
      "name": "initialize",
      "outputs": [],
      "stateMutability": "nonpayable",
      "type": "function"
    },
    {
      "inputs": [
        {
          "internalType": "address",
          "name": "to",
          "type": "address"
        },
        {
          "internalType": "uint256",
          "name": "amount",
          "type": "uint256"
        }
      ],
      "name": "mint",
      "outputs": [],
      "stateMutability": "nonpayable",
      "type": "function"
    },
    {
      "inputs": [],
      "name": "name",
      "outputs": [
        {
          "internalType": "string",
          "name": "",
          "type": "string"
        }
      ],
      "stateMutability": "view",
      "type": "function"
    },
    {
      "inputs": [],
      "name": "proxiableUUID",
      "outputs": [
        {
          "internalType": "bytes32",
          "name": "",
          "type": "bytes32"
        }
      ],
      "stateMutability": "view",
      "type": "function"
    },
    {
      "inputs": [
        {
          "internalType": "bytes32",
          "name": "role",
          "type": "bytes32"
        },
        {
          "internalType": "address",
          "name": "callerConfirmation",
          "type": "address"
        }
      ],
      "name": "renounceRole",
      "outputs": [],
      "stateMutability": "nonpayable",
      "type": "function"
    },
    {
      "inputs": [
        {
          "internalType": "bytes32",
          "name": "role",
          "type": "bytes32"
        },
        {
          "internalType": "address",
          "name": "account",
          "type": "address"
        }
      ],
      "name": "revokeRole",
      "outputs": [],
      "stateMutability": "nonpayable",
      "type": "function"
    },
    {
      "inputs": [
        {
          "internalType": "bytes4",
          "name": "interfaceId",
          "type": "bytes4"
        }
      ],
      "name": "supportsInterface",
      "outputs": [
        {
          "internalType": "bool",
          "name": "",
          "type": "bool"
        }
      ],
      "stateMutability": "view",
      "type": "function"
    },
    {
      "inputs": [],
      "name": "symbol",
      "outputs": [
        {
          "internalType": "string",
          "name": "",
          "type": "string"
        }
      ],
      "stateMutability": "view",
      "type": "function"
    },
    {
      "inputs": [],
      "name": "totalSupply",
      "outputs": [
        {
          "internalType": "uint256",
          "name": "",
          "type": "uint256"
        }
      ],
      "stateMutability": "view",
      "type": "function"
    },
    {
      "inputs": [
        {
          "internalType": "address",
          "name": "to",
          "type": "address"
        },
        {
          "internalType": "uint256",
          "name": "value",
          "type": "uint256"
        }
      ],
      "name": "transfer",
      "outputs": [
        {
          "internalType": "bool",
          "name": "",
          "type": "bool"
        }
      ],
      "stateMutability": "nonpayable",
      "type": "function"
    },
    {
      "inputs": [
        {
          "internalType": "address",
          "name": "from",
          "type": "address"
        },
        {
          "internalType": "address",
          "name": "to",
          "type": "address"
        },
        {
          "internalType": "uint256",
          "name": "value",
          "type": "uint256"
        }
      ],
      "name": "transferFrom",
      "outputs": [
        {
          "internalType": "bool",
          "name": "",
          "type": "bool"
        }
      ],
      "stateMutability": "nonpayable",
      "type": "function"
    },
    {
      "inputs": [
        {
          "internalType": "address",
          "name": "newImplementation",
          "type": "address"
        },
        {
          "internalType": "bytes",
          "name": "data",
          "type": "bytes"
        }
      ],
      "name": "upgradeToAndCall",
      "outputs": [],
      "stateMutability": "payable",
      "type": "function"
    }
  ],
  "bytecode": "0x60a06040523060805234801561001457600080fd5b506080516116d561003e60003960008181610b2201528181610b4b0152610c8f01526116d56000f3fe6080604052600436106101355760003560e01c80634f1ef286116100ab578063a217fddf1161006f578063a217fddf1461036d578063a9059cbb14610382578063ad3cb1cc146103a2578063d5391393146103d3578063d547741f14610407578063dd62ed3e1461042757600080fd5b80634f1ef286146102cd57806352d1902d146102e057806370a08231146102f557806391d148541461033857806395d89b411461035857600080fd5b806323b872dd116100fd57806323b872dd14610211578063248a9ca3146102315780632f2ff15d14610251578063313ce5671461027157806336568abe1461028d57806340c10f19146102ad57600080fd5b806301ffc9a71461013a57806306fdde031461016f578063077f224a14610191578063095ea7b3146101b357806318160ddd146101d3575b600080fd5b34801561014657600080fd5b5061015a610155366004611190565b610447565b60405190151581526020015b60405180910390f35b34801561017b57600080fd5b5061018461047e565b60405161016691906111de565b34801561019d57600080fd5b506101b16101ac3660046112d9565b610541565b005b3480156101bf57600080fd5b5061015a6101ce36600461134d565b610687565b3480156101df57600080fd5b507f52c63247e1f47db19d5ce0460030c497f067ca4cebf71ba98eeadabe20bace02545b604051908152602001610166565b34801561021d57600080fd5b5061015a61022c366004611377565b61069f565b34801561023d57600080fd5b5061020361024c3660046113b3565b6106c5565b34801561025d57600080fd5b506101b161026c3660046113cc565b6106e7565b34801561027d57600080fd5b5060405160128152602001610166565b34801561029957600080fd5b506101b16102a83660046113cc565b610709565b3480156102b957600080fd5b506101b16102c836600461134d565b610741565b6101b16102db3660046113f8565b610775565b3480156102ec57600080fd5b50610203610794565b34801561030157600080fd5b5061020361031036600461145a565b6001600160a01b03166000908152600080516020611640833981519152602052604090205490565b34801561034457600080fd5b5061015a6103533660046113cc565b6107b1565b34801561036457600080fd5b506101846107e9565b34801561037957600080fd5b50610203600081565b34801561038e57600080fd5b5061015a61039d36600461134d565b610828565b3480156103ae57600080fd5b50610184604051806040016040528060058152602001640352e302e360dc1b81525081565b3480156103df57600080fd5b506102037f9f2df0fed2c77648de5860a4cc508cd0818c85b8b8a1ab4ceeef8d981c8956a681565b34801561041357600080fd5b506101b16104223660046113cc565b610836565b34801561043357600080fd5b50610203610442366004611475565b610852565b60006001600160e01b03198216637965db0b60e01b148061047857506301ffc9a760e01b6001600160e01b03198316145b92915050565b7f52c63247e1f47db19d5ce0460030c497f067ca4cebf71ba98eeadabe20bace038054606091600080516020611640833981519152916104bd9061149f565b80601f01602080910402602001604051908101604052809291908181526020018280546104e99061149f565b80156105365780601f1061050b57610100808354040283529160200191610536565b820191906000526020600020905b81548152906001019060200180831161051957829003601f168201915b505050505091505090565b600061054b61089c565b805490915060ff600160401b820416159067ffffffffffffffff166000811580156105735750825b905060008267ffffffffffffffff1660011480156105905750303b155b90508115801561059e575080155b156105bc5760405163f92ee8a960e01b815260040160405180910390fd5b845467ffffffffffffffff1916600117855583156105e657845460ff60401b1916600160401b1785555b6105f088886108c5565b6105f86108d7565b6106006108d7565b61060b6000876108e1565b506106367f9f2df0fed2c77648de5860a4cc508cd0818c85b8b8a1ab4ceeef8d981c8956a6876108e1565b50831561067d57845460ff60401b19168555604051600181527fc7f505b2f371ae2175ee4913f4499e1f2633a7b5936321eed1cdaeb6115181d29060200160405180910390a15b5050505050505050565b600033610695818585610986565b5060019392505050565b6000336106ad858285610993565b6106b88585856109f9565b60019150505b9392505050565b6000908152600080516020611680833981519152602052604090206001015490565b6106f0826106c5565b6106f981610a58565b61070383836108e1565b50505050565b6001600160a01b03811633146107325760405163334bd91960e11b815260040160405180910390fd5b61073c8282610a65565b505050565b7f9f2df0fed2c77648de5860a4cc508cd0818c85b8b8a1ab4ceeef8d981c8956a661076b81610a58565b61073c8383610ae1565b61077d610b17565b61078682610bbc565b6107908282610bc7565b5050565b600061079e610c84565b5060008051602061166083398151915290565b6000918252600080516020611680833981519152602090815260408084206001600160a01b0393909316845291905290205460ff1690565b7f52c63247e1f47db19d5ce0460030c497f067ca4cebf71ba98eeadabe20bace048054606091600080516020611640833981519152916104bd9061149f565b6000336106958185856109f9565b61083f826106c5565b61084881610a58565b6107038383610a65565b6001600160a01b0391821660009081527f52c63247e1f47db19d5ce0460030c497f067ca4cebf71ba98eeadabe20bace016020908152604080832093909416825291909152205490565b6000807ff0c57e16840df040f15088dc2f81fe391c3923bec73e23a9662efc9c229c6a00610478565b6108cd610ccd565b6107908282610cf2565b6108df610ccd565b565b60006000805160206116808339815191526108fc84846107b1565b61097c576000848152602082815260408083206001600160a01b03871684529091529020805460ff191660011790556109323390565b6001600160a01b0316836001600160a01b0316857f2f8788117e7eff1d82e926ec794901d17c78024a50270940304540a733656f0d60405160405180910390a46001915050610478565b6000915050610478565b61073c8383836001610d43565b600061099f8484610852565b905060001981101561070357818110156109ea57604051637dc7a0d960e11b81526001600160a01b038416600482015260248101829052604481018390526064015b60405180910390fd5b61070384848484036000610d43565b6001600160a01b038316610a2357604051634b637e8f60e11b8152600060048201526024016109e1565b6001600160a01b038216610a4d5760405163ec442f0560e01b8152600060048201526024016109e1565b61073c838383610e2b565b610a628133610f69565b50565b6000600080516020611680833981519152610a8084846107b1565b1561097c576000848152602082815260408083206001600160a01b0387168085529252808320805460ff1916905551339287917ff6391f5c32d9c69d2a47ea670b442974b53935d1edc7fd64eb21e047a839171b9190a46001915050610478565b6001600160a01b038216610b0b5760405163ec442f0560e01b8152600060048201526024016109e1565b61079060008383610e2b565b306001600160a01b037f0000000000000000000000000000000000000000000000000000000000000000161480610b9e57507f00000000000000000000000000000000000000000000000000000000000000006001600160a01b0316610b92600080516020611660833981519152546001600160a01b031690565b6001600160a01b031614155b156108df5760405163703e46dd60e11b815260040160405180910390fd5b600061079081610a58565b816001600160a01b03166352d1902d6040518163ffffffff1660e01b8152600401602060405180830381865afa925050508015610c21575060408051601f3d908101601f19168201909252610c1e918101906114d9565b60015b610c4957604051634c9c8ce360e01b81526001600160a01b03831660048201526024016109e1565b6000805160206116608339815191528114610c7a57604051632a87526960e21b8152600481018290526024016109e1565b61073c8383610fa2565b306001600160a01b037f000000000000000000000000000000000000000000000000000000000000000016146108df5760405163703e46dd60e11b815260040160405180910390fd5b610cd5610ff8565b6108df57604051631afcd79f60e31b815260040160405180910390fd5b610cfa610ccd565b6000805160206116408339815191527f52c63247e1f47db19d5ce0460030c497f067ca4cebf71ba98eeadabe20bace03610d348482611542565b50600481016107038382611542565b6000805160206116408339815191526001600160a01b038516610d7c5760405163e602df0560e01b8152600060048201526024016109e1565b6001600160a01b038416610da657604051634a1406b160e11b8152600060048201526024016109e1565b6001600160a01b03808616600090815260018301602090815260408083209388168352929052208390558115610e2457836001600160a01b0316856001600160a01b03167f8c5be1e5ebec7d5bd14f71427d1e84f3dd0314c0f7b2291e5b200ac8c7c3b92585604051610e1b91815260200190565b60405180910390a35b5050505050565b6000805160206116408339815191526001600160a01b038416610e675781816002016000828254610e5c9190611602565b90915550610ed99050565b6001600160a01b03841660009081526020829052604090205482811015610eba5760405163391434e360e21b81526001600160a01b038616600482015260248101829052604481018490526064016109e1565b6001600160a01b03851660009081526020839052604090209083900390555b6001600160a01b038316610ef7576002810180548390039055610f16565b6001600160a01b03831660009081526020829052604090208054830190555b826001600160a01b0316846001600160a01b03167fddf252ad1be2c89b69c2b068fc378daa952ba7f163c4a11628f55a4df523b3ef84604051610f5b91815260200190565b60405180910390a350505050565b610f7382826107b1565b6107905760405163e2517d3f60e01b81526001600160a01b0382166004820152602481018390526044016109e1565b610fab82611012565b6040516001600160a01b038316907fbc7cd75a20ee27fd9adebab32041f755214dbc6bffa90cc0225b39da2e5c2d3b90600090a2805115610ff05761073c8282611077565b6107906110ed565b600061100261089c565b54600160401b900460ff16919050565b806001600160a01b03163b60000361104857604051634c9c8ce360e01b81526001600160a01b03821660048201526024016109e1565b60008051602061166083398151915280546001600160a01b0319166001600160a01b0392909216919091179055565b6060600080846001600160a01b0316846040516110949190611623565b600060405180830381855af49150503d80600081146110cf576040519150601f19603f3d011682016040523d82523d6000602084013e6110d4565b606091505b50915091506110e485838361110c565b95945050505050565b34156108df5760405163b398979f60e01b815260040160405180910390fd5b6060826111215761111c82611168565b6106be565b815115801561113857506001600160a01b0384163b155b1561116157604051639996b31560e01b81526001600160a01b03851660048201526024016109e1565b50806106be565b80511561117757805160208201fd5b60405163d6bda27560e01b815260040160405180910390fd5b6000602082840312156111a257600080fd5b81356001600160e01b0319811681146106be57600080fd5b60005b838110156111d55781810151838201526020016111bd565b50506000910152565b60208152600082518060208401526111fd8160408501602087016111ba565b601f01601f19169190910160400192915050565b634e487b7160e01b600052604160045260246000fd5b600067ffffffffffffffff8084111561124257611242611211565b604051601f8501601f19908116603f0116810190828211818310171561126a5761126a611211565b8160405280935085815286868601111561128357600080fd5b858560208301376000602087830101525050509392505050565b600082601f8301126112ae57600080fd5b6106be83833560208501611227565b80356001600160a01b03811681146112d457600080fd5b919050565b6000806000606084860312156112ee57600080fd5b833567ffffffffffffffff8082111561130657600080fd5b6113128783880161129d565b9450602086013591508082111561132857600080fd5b506113358682870161129d565b925050611344604085016112bd565b90509250925092565b6000806040838503121561136057600080fd5b611369836112bd565b946020939093013593505050565b60008060006060848603121561138c57600080fd5b611395846112bd565b92506113a3602085016112bd565b9150604084013590509250925092565b6000602082840312156113c557600080fd5b5035919050565b600080604083850312156113df57600080fd5b823591506113ef602084016112bd565b90509250929050565b6000806040838503121561140b57600080fd5b611414836112bd565b9150602083013567ffffffffffffffff81111561143057600080fd5b8301601f8101851361144157600080fd5b61145085823560208401611227565b9150509250929050565b60006020828403121561146c57600080fd5b6106be826112bd565b6000806040838503121561148857600080fd5b611491836112bd565b91506113ef602084016112bd565b600181811c908216806114b357607f821691505b6020821081036114d357634e487b7160e01b600052602260045260246000fd5b50919050565b6000602082840312156114eb57600080fd5b5051919050565b601f82111561073c576000816000526020600020601f850160051c8101602086101561151b5750805b601f850160051c820191505b8181101561153a57828155600101611527565b505050505050565b815167ffffffffffffffff81111561155c5761155c611211565b6115708161156a845461149f565b846114f2565b602080601f8311600181146115a5576000841561158d5750858301515b600019600386901b1c1916600185901b17855561153a565b600085815260208120601f198616915b828110156115d4578886015182559484019460019091019084016115b5565b50858210156115f25787850151600019600388901b60f8161c191681555b5050505050600190811b01905550565b8082018082111561047857634e487b7160e01b600052601160045260246000fd5b600082516116358184602087016111ba565b919091019291505056fe52c63247e1f47db19d5ce0460030c497f067ca4cebf71ba98eeadabe20bace00360894a13ba1a3210667c828492db98dca3e2076cc3735a920a3ca505d382bbc02dd7bc7dec4dceedda775e58dd541e08a116c6c53815c0bd028192f7b626800a26469706673582212205d605f3f895d042cc127b1582e77cb241f16b34f18c3c55b7d3776f53aeefdae64736f6c63430008180033",
  "linkReferences": {},
  "deployedLinkReferences": {}
}