{
  "_format": "hh-sol-artifact-1",
  "contractName": "Bonding",
  "sourceName": "src/Bonding.sol",
  "abi": [
    {
      "inputs": [
        {
          "internalType": "address",
          "name": "_fvc",
          "type": "address"
        },
        {
          "internalType": "address",
          "name": "_usdc",
          "type": "address"
        },
        {
          "internalType": "address",
          "name": "_treasury",
          "type": "address"
        },
        {
          "internalType": "uint256",
          "name": "_initialDiscount",
          "type": "uint256"
        },
        {
          "internalType": "uint256",
          "name": "_finalDiscount",
          "type": "uint256"
        },
        {
          "internalType": "uint256",
          "name": "_epochCap",
          "type": "uint256"
        },
        {
          "internalType": "uint256",
          "name": "_walletCap",
          "type": "uint256"
        },
        {
          "internalType": "uint256",
          "name": "_vestingPeriod",
          "type": "uint256"
        }
      ],
      "stateMutability": "nonpayable",
      "type": "constructor"
    },
    {
      "inputs": [],
      "name": "Bonding__AmountMustBeGreaterThanZero",
      "type": "error"
    },
    {
      "inputs": [],
      "name": "Bonding__EpochCapExceeded",
      "type": "error"
    },
    {
      "inputs": [],
      "name": "Bonding__ExceedsWalletCap",
      "type": "error"
    },
    {
      "inputs": [],
      "name": "Bonding__InvalidDiscountRange",
      "type": "error"
    },
    {
      "inputs": [],
      "name": "Bonding__InvalidVestingPeriod",
      "type": "error"
    },
    {
      "inputs": [],
      "name": "Bonding__NoMoreRounds",
      "type": "error"
    },
    {
      "inputs": [],
      "name": "Bonding__RoundAlreadyActive",
      "type": "error"
    },
    {
      "inputs": [],
      "name": "Bonding__RoundNotActive",
      "type": "error"
    },
    {
      "inputs": [],
      "name": "Bonding__TokensLockedInVesting",
      "type": "error"
    },
    {
      "inputs": [
        {
          "internalType": "address",
          "name": "owner",
          "type": "address"
        }
      ],
      "name": "OwnableInvalidOwner",
      "type": "error"
    },
    {
      "inputs": [
        {
          "internalType": "address",
          "name": "account",
          "type": "address"
        }
      ],
      "name": "OwnableUnauthorizedAccount",
      "type": "error"
    },
    {
      "inputs": [
        {
          "internalType": "address",
          "name": "token",
          "type": "address"
        }
      ],
      "name": "SafeERC20FailedOperation",
      "type": "error"
    },
    {
      "anonymous": false,
      "inputs": [
        {
          "indexed": true,
          "internalType": "address",
          "name": "user",
          "type": "address"
        },
        {
          "indexed": false,
          "internalType": "uint256",
          "name": "amount",
          "type": "uint256"
        }
      ],
      "name": "Bonded",
      "type": "event"
    },
    {
      "anonymous": false,
      "inputs": [
        {
          "indexed": false,
          "internalType": "uint256",
          "name": "newCap",
          "type": "uint256"
        }
      ],
      "name": "EpochCapUpdated",
      "type": "event"
    },
    {
      "anonymous": false,
      "inputs": [
        {
          "indexed": false,
          "internalType": "uint256",
          "name": "roundId",
          "type": "uint256"
        },
        {
          "indexed": false,
          "internalType": "uint256",
          "name": "fvcAmount",
          "type": "uint256"
        }
      ],
      "name": "FVCAllocated",
      "type": "event"
    },
    {
      "anonymous": false,
      "inputs": [
        {
          "indexed": true,
          "internalType": "address",
          "name": "previousOwner",
          "type": "address"
        },
        {
          "indexed": true,
          "internalType": "address",
          "name": "newOwner",
          "type": "address"
        }
      ],
      "name": "OwnershipTransferred",
      "type": "event"
    },
    {
      "anonymous": false,
      "inputs": [
        {
          "indexed": true,
          "internalType": "uint256",
          "name": "roundId",
          "type": "uint256"
        },
        {
          "indexed": false,
          "internalType": "uint256",
          "name": "totalBonded",
          "type": "uint256"
        }
      ],
      "name": "RoundCompleted",
      "type": "event"
    },
    {
      "anonymous": false,
      "inputs": [
        {
          "indexed": true,
          "internalType": "uint256",
          "name": "roundId",
          "type": "uint256"
        },
        {
          "indexed": false,
          "internalType": "uint256",
          "name": "initialDiscount",
          "type": "uint256"
        },
        {
          "indexed": false,
          "internalType": "uint256",
          "name": "finalDiscount",
          "type": "uint256"
        },
        {
          "indexed": false,
          "internalType": "uint256",
          "name": "epochCap",
          "type": "uint256"
        }
      ],
      "name": "RoundStarted",
      "type": "event"
    },
    {
      "anonymous": false,
      "inputs": [
        {
          "indexed": false,
          "internalType": "uint256",
          "name": "newPeriod",
          "type": "uint256"
        }
      ],
      "name": "VestingPeriodUpdated",
      "type": "event"
    },
    {
      "anonymous": false,
      "inputs": [
        {
          "indexed": true,
          "internalType": "address",
          "name": "user",
          "type": "address"
        },
        {
          "indexed": false,
          "internalType": "uint256",
          "name": "amount",
          "type": "uint256"
        },
        {
          "indexed": false,
          "internalType": "uint256",
          "name": "startTime",
          "type": "uint256"
        },
        {
          "indexed": false,
          "internalType": "uint256",
          "name": "endTime",
          "type": "uint256"
        }
      ],
      "name": "VestingScheduleCreated",
      "type": "event"
    },
    {
      "anonymous": false,
      "inputs": [
        {
          "indexed": false,
          "internalType": "uint256",
          "name": "newCap",
          "type": "uint256"
        }
      ],
      "name": "WalletCapUpdated",
      "type": "event"
    },
    {
      "inputs": [
        {
          "internalType": "uint256",
          "name": "fvcAmount",
          "type": "uint256"
        }
      ],
      "name": "allocateFVC",
      "outputs": [],
      "stateMutability": "nonpayable",
      "type": "function"
    },
    {
      "inputs": [
        {
          "internalType": "uint256",
          "name": "fvcAmount",
          "type": "uint256"
        }
      ],
      "name": "bond",
      "outputs": [],
      "stateMutability": "nonpayable",
      "type": "function"
    },
    {
      "inputs": [
        {
          "internalType": "uint256",
          "name": "fvcAmount",
          "type": "uint256"
        }
      ],
      "name": "calculateUSDCAmount",
      "outputs": [
        {
          "internalType": "uint256",
          "name": "usdcAmount",
          "type": "uint256"
        }
      ],
      "stateMutability": "view",
      "type": "function"
    },
    {
      "inputs": [],
      "name": "completeCurrentRound",
      "outputs": [],
      "stateMutability": "nonpayable",
      "type": "function"
    },
    {
      "inputs": [],
      "name": "currentRoundId",
      "outputs": [
        {
          "internalType": "uint256",
          "name": "",
          "type": "uint256"
        }
      ],
      "stateMutability": "view",
      "type": "function"
    },
    {
      "inputs": [],
      "name": "epochCap",
      "outputs": [
        {
          "internalType": "uint256",
          "name": "",
          "type": "uint256"
        }
      ],
      "stateMutability": "view",
      "type": "function"
    },
    {
      "inputs": [],
      "name": "finalDiscount",
      "outputs": [
        {
          "internalType": "uint256",
          "name": "",
          "type": "uint256"
        }
      ],
      "stateMutability": "view",
      "type": "function"
    },
    {
      "inputs": [],
      "name": "fvc",
      "outputs": [
        {
          "internalType": "contract IFVC",
          "name": "",
          "type": "address"
        }
      ],
      "stateMutability": "view",
      "type": "function"
    },
    {
      "inputs": [],
      "name": "fvcAllocated",
      "outputs": [
        {
          "internalType": "uint256",
          "name": "",
          "type": "uint256"
        }
      ],
      "stateMutability": "view",
      "type": "function"
    },
    {
      "inputs": [],
      "name": "fvcSold",
      "outputs": [
        {
          "internalType": "uint256",
          "name": "",
          "type": "uint256"
        }
      ],
      "stateMutability": "view",
      "type": "function"
    },
    {
      "inputs": [],
      "name": "getCurrentDiscount",
      "outputs": [
        {
          "internalType": "uint256",
          "name": "",
          "type": "uint256"
        }
      ],
      "stateMutability": "view",
      "type": "function"
    },
    {
      "inputs": [],
      "name": "getCurrentRound",
      "outputs": [
        {
          "components": [
            {
              "internalType": "uint256",
              "name": "roundId",
              "type": "uint256"
            },
            {
              "internalType": "uint256",
              "name": "initialDiscount",
              "type": "uint256"
            },
            {
              "internalType": "uint256",
              "name": "finalDiscount",
              "type": "uint256"
            },
            {
              "internalType": "uint256",
              "name": "epochCap",
              "type": "uint256"
            },
            {
              "internalType": "uint256",
              "name": "walletCap",
              "type": "uint256"
            },
            {
              "internalType": "uint256",
              "name": "vestingPeriod",
              "type": "uint256"
            },
            {
              "internalType": "uint256",
              "name": "fvcAllocated",
              "type": "uint256"
            },
            {
              "internalType": "uint256",
              "name": "fvcSold",
              "type": "uint256"
            },
            {
              "internalType": "bool",
              "name": "isActive",
              "type": "bool"
            },
            {
              "internalType": "uint256",
              "name": "totalBonded",
              "type": "uint256"
            }
          ],
          "internalType": "struct IBonding.RoundConfig",
          "name": "",
          "type": "tuple"
        }
      ],
      "stateMutability": "view",
      "type": "function"
    },
    {
      "inputs": [],
      "name": "getRemainingFVC",
      "outputs": [
        {
          "internalType": "uint256",
          "name": "",
          "type": "uint256"
        }
      ],
      "stateMutability": "view",
      "type": "function"
    },
    {
      "inputs": [
        {
          "internalType": "address",
          "name": "user",
          "type": "address"
        }
      ],
      "name": "getVestingSchedule",
      "outputs": [
        {
          "components": [
            {
              "internalType": "uint256",
              "name": "amount",
              "type": "uint256"
            },
            {
              "internalType": "uint256",
              "name": "startTime",
              "type": "uint256"
            },
            {
              "internalType": "uint256",
              "name": "endTime",
              "type": "uint256"
            }
          ],
          "internalType": "struct IBonding.VestingSchedule",
          "name": "",
          "type": "tuple"
        }
      ],
      "stateMutability": "view",
      "type": "function"
    },
    {
      "inputs": [],
      "name": "initialDiscount",
      "outputs": [
        {
          "internalType": "uint256",
          "name": "",
          "type": "uint256"
        }
      ],
      "stateMutability": "view",
      "type": "function"
    },
    {
      "inputs": [
        {
          "internalType": "address",
          "name": "user",
          "type": "address"
        }
      ],
      "name": "isLocked",
      "outputs": [
        {
          "internalType": "bool",
          "name": "",
          "type": "bool"
        }
      ],
      "stateMutability": "view",
      "type": "function"
    },
    {
      "inputs": [],
      "name": "owner",
      "outputs": [
        {
          "internalType": "address",
          "name": "",
          "type": "address"
        }
      ],
      "stateMutability": "view",
      "type": "function"
    },
    {
      "inputs": [],
      "name": "renounceOwnership",
      "outputs": [],
      "stateMutability": "nonpayable",
      "type": "function"
    },
    {
      "inputs": [
        {
          "internalType": "uint256",
          "name": "",
          "type": "uint256"
        }
      ],
      "name": "rounds",
      "outputs": [
        {
          "internalType": "uint256",
          "name": "roundId",
          "type": "uint256"
        },
        {
          "internalType": "uint256",
          "name": "initialDiscount",
          "type": "uint256"
        },
        {
          "internalType": "uint256",
          "name": "finalDiscount",
          "type": "uint256"
        },
        {
          "internalType": "uint256",
          "name": "epochCap",
          "type": "uint256"
        },
        {
          "internalType": "uint256",
          "name": "walletCap",
          "type": "uint256"
        },
        {
          "internalType": "uint256",
          "name": "vestingPeriod",
          "type": "uint256"
        },
        {
          "internalType": "uint256",
          "name": "fvcAllocated",
          "type": "uint256"
        },
        {
          "internalType": "uint256",
          "name": "fvcSold",
          "type": "uint256"
        },
        {
          "internalType": "bool",
          "name": "isActive",
          "type": "bool"
        },
        {
          "internalType": "uint256",
          "name": "totalBonded",
          "type": "uint256"
        }
      ],
      "stateMutability": "view",
      "type": "function"
    },
    {
      "inputs": [
        {
          "internalType": "uint256",
          "name": "_epochCap",
          "type": "uint256"
        }
      ],
      "name": "setEpochCap",
      "outputs": [],
      "stateMutability": "nonpayable",
      "type": "function"
    },
    {
      "inputs": [
        {
          "internalType": "address",
          "name": "_treasury",
          "type": "address"
        }
      ],
      "name": "setTreasury",
      "outputs": [],
      "stateMutability": "nonpayable",
      "type": "function"
    },
    {
      "inputs": [
        {
          "internalType": "uint256",
          "name": "_vestingPeriod",
          "type": "uint256"
        }
      ],
      "name": "setVestingPeriod",
      "outputs": [],
      "stateMutability": "nonpayable",
      "type": "function"
    },
    {
      "inputs": [
        {
          "internalType": "uint256",
          "name": "_walletCap",
          "type": "uint256"
        }
      ],
      "name": "setWalletCap",
      "outputs": [],
      "stateMutability": "nonpayable",
      "type": "function"
    },
    {
      "inputs": [
        {
          "internalType": "uint256",
          "name": "_initialDiscount",
          "type": "uint256"
        },
        {
          "internalType": "uint256",
          "name": "_finalDiscount",
          "type": "uint256"
        },
        {
          "internalType": "uint256",
          "name": "_epochCap",
          "type": "uint256"
        },
        {
          "internalType": "uint256",
          "name": "_walletCap",
          "type": "uint256"
        },
        {
          "internalType": "uint256",
          "name": "_vestingPeriod",
          "type": "uint256"
        }
      ],
      "name": "startNewRound",
      "outputs": [],
      "stateMutability": "nonpayable",
      "type": "function"
    },
    {
      "inputs": [],
      "name": "startNextRound",
      "outputs": [],
      "stateMutability": "nonpayable",
      "type": "function"
    },
    {
      "inputs": [],
      "name": "totalBonded",
      "outputs": [
        {
          "internalType": "uint256",
          "name": "",
          "type": "uint256"
        }
      ],
      "stateMutability": "view",
      "type": "function"
    },
    {
      "inputs": [
        {
          "internalType": "address",
          "name": "newOwner",
          "type": "address"
        }
      ],
      "name": "transferOwnership",
      "outputs": [],
      "stateMutability": "nonpayable",
      "type": "function"
    },
    {
      "inputs": [],
      "name": "treasury",
      "outputs": [
        {
          "internalType": "address",
          "name": "",
          "type": "address"
        }
      ],
      "stateMutability": "view",
      "type": "function"
    },
    {
      "inputs": [],
      "name": "usdc",
      "outputs": [
        {
          "internalType": "contract IERC20",
          "name": "",
          "type": "address"
        }
      ],
      "stateMutability": "view",
      "type": "function"
    },
    {
      "inputs": [
        {
          "internalType": "uint256",
          "name": "",
          "type": "uint256"
        },
        {
          "internalType": "address",
          "name": "",
          "type": "address"
        }
      ],
      "name": "userBonded",
      "outputs": [
        {
          "internalType": "uint256",
          "name": "",
          "type": "uint256"
        }
      ],
      "stateMutability": "view",
      "type": "function"
    },
    {
      "inputs": [],
      "name": "vestingPeriod",
      "outputs": [
        {
          "internalType": "uint256",
          "name": "",
          "type": "uint256"
        }
      ],
      "stateMutability": "view",
      "type": "function"
    },
    {
      "inputs": [
        {
          "internalType": "address",
          "name": "",
          "type": "address"
        }
      ],
      "name": "vestingSchedules",
      "outputs": [
        {
          "internalType": "uint256",
          "name": "amount",
          "type": "uint256"
        },
        {
          "internalType": "uint256",
          "name": "startTime",
          "type": "uint256"
        },
        {
          "internalType": "uint256",
          "name": "endTime",
          "type": "uint256"
        }
      ],
      "stateMutability": "view",
      "type": "function"
    },
    {
      "inputs": [],
      "name": "walletCap",
      "outputs": [
        {
          "internalType": "uint256",
          "name": "",
          "type": "uint256"
        }
      ],
      "stateMutability": "view",
      "type": "function"
    }
  ],
  "bytecode": "0x60806040523480156200001157600080fd5b5060405162001d5a38038062001d5a83398101604081905262000034916200039b565b33806200005b57604051631e4fbdf760e01b81526000600482015260240160405180910390fd5b62000066816200032e565b50600180546001600160a01b03808b166001600160a01b031992831617909255600280548a84169083161790556003805492891692909116919091179055838511620000c5576040516381b8843960e01b815260040160405180910390fd5b80600003620000e757604051631b3cc90f60e01b815260040160405180910390fd5b600160048190556006869055600785905560088490556009839055600a8290556000600b819055600c819055600d819055604080516101408101825283815260208082018a81528284018a815260608085018b8152608086018b815260a087018b815260c088018a815260e089018b81526101008a018d81526101208b018d81529c8e905260058a5299517f1471eb6eb2c5e789fc3de43f8ce62938c7d1836ec861730447e2ada8fd81017b5596517f1471eb6eb2c5e789fc3de43f8ce62938c7d1836ec861730447e2ada8fd81017c5594517f1471eb6eb2c5e789fc3de43f8ce62938c7d1836ec861730447e2ada8fd81017d5591517f1471eb6eb2c5e789fc3de43f8ce62938c7d1836ec861730447e2ada8fd81017e55517f1471eb6eb2c5e789fc3de43f8ce62938c7d1836ec861730447e2ada8fd81017f55517f1471eb6eb2c5e789fc3de43f8ce62938c7d1836ec861730447e2ada8fd8101805590517f1471eb6eb2c5e789fc3de43f8ce62938c7d1836ec861730447e2ada8fd8101815590517f1471eb6eb2c5e789fc3de43f8ce62938c7d1836ec861730447e2ada8fd8101825591517f1471eb6eb2c5e789fc3de43f8ce62938c7d1836ec861730447e2ada8fd810183805460ff191691151591909117905592517f1471eb6eb2c5e789fc3de43f8ce62938c7d1836ec861730447e2ada8fd8101845581518981529283018890529082018690527ffd9d17e5565deea3d25918d95fc398673b9445ef0a96d12eaf3ab2b198756c65910160405180910390a2505050505050505062000416565b600080546001600160a01b038381166001600160a01b0319831681178455604051919092169283917f8be0079c531659141344cd1fd0a4f28419497f9722a3daafe3b4186f6b6457e09190a35050565b80516001600160a01b03811681146200039657600080fd5b919050565b600080600080600080600080610100898b031215620003b957600080fd5b620003c4896200037e565b9750620003d460208a016200037e565b9650620003e460408a016200037e565b9550606089015194506080890151935060a0890151925060c0890151915060e089015190509295985092959890939650565b61193480620004266000396000f3fe608060405234801561001057600080fd5b50600436106101fb5760003560e01c80638c65c81f1161011a578063d1c17e38116100ad578063eaccaae11161007c578063eaccaae1146104ae578063f0eb737a146104b7578063f0f44260146104bf578063f2fde38b146104d2578063fdb20ccb146104e557600080fd5b8063d1c17e381461046d578063d93de01714610480578063e033ebb014610488578063e8ba4b0f1461049b57600080fd5b80639cbe5efd116100e95780639cbe5efd146103ef5780639f829063146103f8578063a32bf5971461042d578063d06f518b1461044257600080fd5b80638c65c81f146103105780638cf407dd146103c25780638da5cb5b146103cb5780639940686e146103dc57600080fd5b80634cabb8241161019257806365a646681161016157806365a64668146102e3578063715018a6146102f65780637313ee5a146102fe5780637ec897cd1461030757600080fd5b80634cabb824146102ab57806358950c22146102be57806361025060146102c757806361d027b3146102d057600080fd5b806340bee0ed116101ce57806340bee0ed1461026357806344d96e9514610276578063473357f11461027f5780634a4fbeec1461028857600080fd5b80630b8f760b1461020057806336fb2cf5146102155780633c3ccc44146102305780633e413bee14610238575b600080fd5b61021361020e36600461170b565b61052f565b005b61021d610618565b6040519081526020015b60405180910390f35b61021361062f565b60025461024b906001600160a01b031681565b6040516001600160a01b039091168152602001610227565b61021361027136600461170b565b610b3d565b61021d600d5481565b61021d60075481565b61029b610296366004611740565b610ba2565b6040519015158152602001610227565b61021d6102b936600461170b565b610c02565b61021d60095481565b61021d60085481565b60035461024b906001600160a01b031681565b6102136102f136600461170b565b610c19565b610213610c56565b61021d600a5481565b61021d60065481565b61037661031e36600461170b565b6005602081905260009182526040909120805460018201546002830154600384015460048501549585015460068601546007870154600888015460099098015496989597949693959492939192909160ff909116908a565b604080519a8b5260208b0199909952978901969096526060880194909452608087019290925260a086015260c085015260e0840152151561010083015261012082015261014001610227565b61021d600b5481565b6000546001600160a01b031661024b565b6102136103ea36600461170b565b610c6a565b61021d60045481565b61040b610406366004611740565b610f40565b6040805182518152602080840151908201529181015190820152606001610227565b610435610fa6565b604051610227919061175b565b61021d6104503660046117d3565b600e60209081526000928352604080842090915290825290205481565b60015461024b906001600160a01b031681565b610213611086565b61021361049636600461170b565b6110fc565b6102136104a93660046117ff565b611139565b61021d600c5481565b61021d611350565b6102136104cd366004611740565b611366565b6102136104e0366004611740565b611390565b6105146104f3366004611740565b600f6020526000908152604090208054600182015460029092015490919083565b60408051938452602084019290925290820152606001610227565b6105376113d3565b6004546000908152600560205260409020600881015460ff1661056d5760405163b885dfef60e01b815260040160405180910390fd5b8160000361058e5760405163d3590a8360e01b815260040160405180910390fd5b6001546105a6906001600160a01b0316333085611400565b81600b60008282546105b89190611850565b92505081905550818160060160008282546105d39190611850565b909155505060045460408051918252602082018490527f7cdd16d98681f4d22957409604a564ef1d8cd2b0d5cc5235d444451f03324b13910160405180910390a15050565b6000600c54600b5461062a9190611863565b905090565b6106376113d3565b6004546000908152600560205260409020600881015460ff161561066e5760405163ccf5bf4560e01b815260040160405180910390fd5b600560045410610691576040516346dc4d3b60e01b815260040160405180910390fd5b60006040518060a001604052806019815260200160148152602001600f8152602001600a81526020016005815250905060006040518060a00160405280600581526020016003815260200160028152602001600181526020016000815250905060006040518060a001604052806304c4b400670de0b6b3a76400006107169190611876565b81526020016107316303938700670de0b6b3a7640000611876565b815260200161074c6302625a00670de0b6b3a7640000611876565b815260200161076662e4e1c0670de0b6b3a7640000611876565b8152602001610780624c4b40670de0b6b3a7640000611876565b815250905060006040518060a00160405280627a1200670de0b6b3a76400006107a99190611876565b81526020016107c3625b8d80670de0b6b3a7640000611876565b81526020016107dd623d0900670de0b6b3a7640000611876565b81526020016107f7621e8480670de0b6b3a7640000611876565b8152602001610811620f4240670de0b6b3a7640000611876565b81525090506004546000805160206118df833981519152866009015460405161083c91815260200190565b60405180910390a2600480549060006108548361188d565b91905055508360016004546108699190611863565b60058110610879576108796118a6565b6020020151600655600454839061089290600190611863565b600581106108a2576108a26118a6565b602002015160075560045482906108bb90600190611863565b600581106108cb576108cb6118a6565b602002015160085560045481906108e490600190611863565b600581106108f4576108f46118a6565b60200201516009819055506000600d81905550604051806101400160405280600454815260200185600160045461092b9190611863565b6005811061093b5761093b6118a6565b602002015181526020018460016004546109559190611863565b60058110610965576109656118a6565b6020020151815260200183600160045461097f9190611863565b6005811061098f5761098f6118a6565b602002015181526020018260016004546109a99190611863565b600581106109b9576109b96118a6565b60200201518152602001600a54815260200160008152602001600081526020016001151581526020016000815250600560006004548152602001908152602001600020600082015181600001556020820151816001015560408201518160020155606082015181600301556080820151816004015560a0820151816005015560c0820151816006015560e082015181600701556101008201518160080160006101000a81548160ff02191690831515021790555061012082015181600901559050506004547ffd9d17e5565deea3d25918d95fc398673b9445ef0a96d12eaf3ab2b198756c65856001600454610aaf9190611863565b60058110610abf57610abf6118a6565b6020020151856001600454610ad49190611863565b60058110610ae457610ae46118a6565b6020020151856001600454610af99190611863565b60058110610b0957610b096118a6565b6020020151604051610b2e939291909283526020830191909152604082015260600190565b60405180910390a25050505050565b610b456113d3565b80600003610b6657604051631b3cc90f60e01b815260040160405180910390fd5b600a8190556040518181527fc21cb0f112058f1eb0e3313a577dfc27e6be5b39127591e05245343a422e4915906020015b60405180910390a150565b6001600160a01b0381166000908152600f6020908152604080832081516060810183528154808252600183015494820194909452600290910154918101919091529015801590610bfb5750610bfb42826040015161146d565b9392505050565b600080610c0d611350565b9050610bfb8382611477565b610c216113d3565b60098190556040518181527f4784309e6b1f1431c711eac5e572f9ba2d542ecb5428efc0e927b794f4e8e2c190602001610b97565b610c5e6113d3565b610c6860006114fa565b565b80600003610c8b5760405163d3590a8360e01b815260040160405180910390fd5b6004546000908152600560205260409020600881015460ff16610cc15760405163b885dfef60e01b815260040160405180910390fd5b600b5482600c54610cd29190611850565b1115610cf15760405163437d78f560e01b815260040160405180910390fd5b6000610cfb611350565b90506000610d098483611477565b6009546004546000908152600e6020908152604080832033845290915290205491925090610d38908390611850565b1115610d57576040516375284bdb60e01b815260040160405180910390fd5b600354600254610d76916001600160a01b039182169133911684611400565b600154610d8d906001600160a01b0316338661154a565b80600d6000828254610d9f9190611850565b9250508190555080836009016000828254610dba9190611850565b9250508190555083836007016000828254610dd59190611850565b9250508190555083600c6000828254610dee9190611850565b90915550506004546000908152600e6020908152604080832033845290915281208054839290610e1f908490611850565b9091555050600a544290600090610e369083611850565b604080516060810182528881526020808201868152828401858152336000818152600f85528690209451855591516001850155516002909301929092559151868152929350917fd0a009034e24a39106653c4903cf28b1947b8a9964d03206648e0f0a5de74a46910160405180910390a2604080518781526020810184905290810182905233907f892f1a841b10e4b041cc41d8cc47c6a6049f1ff5fa272ddf47a0aa5ad8f59d139060600160405180910390a2600b54600c5410610f385760088501805460ff19169055610f09611580565b6004546000805160206118df8339815191528660090154604051610f2f91815260200190565b60405180910390a25b505050505050565b610f6460405180606001604052806000815260200160008152602001600081525090565b506001600160a01b03166000908152600f6020908152604091829020825160608101845281548152600182015492810192909252600201549181019190915290565b610ffe6040518061014001604052806000815260200160008152602001600081526020016000815260200160008152602001600081526020016000815260200160008152602001600015158152602001600081525090565b5060048054600090815260056020818152604092839020835161014081018552815481526001820154928101929092526002810154938201939093526003830154606082015292820154608084015281015460a0830152600681015460c0830152600781015460e0830152600881015460ff1615156101008301526009015461012082015290565b61108e6113d3565b6004546000908152600560205260409020600881015460ff166110c45760405163b885dfef60e01b815260040160405180910390fd5b60088101805460ff1916905560045460098201546040519081526000805160206118df8339815191529060200160405180910390a250565b6111046113d3565b60088190556040518181527f5f444d43ef974de0a9762ea40d495ac7a320efb6f44e8f1c32505b3cbc026d9c90602001610b97565b6111416113d3565b6004546000908152600560205260409020600881015460ff16156111785760405163ccf5bf4560e01b815260040160405180910390fd5b848611611198576040516381b8843960e01b815260040160405180910390fd5b816000036111b957604051631b3cc90f60e01b815260040160405180910390fd5b6004546000805160206118df83398151915282600901546040516111df91815260200190565b60405180910390a2600480549060006111f78361188d565b91905055508560068190555084600781905550836008819055508260098190555081600a819055506000600d81905550604051806101400160405280600454815260200187815260200186815260200185815260200184815260200183815260200160008152602001600081526020016001151581526020016000815250600560006004548152602001908152602001600020600082015181600001556020820151816001015560408201518160020155606082015181600301556080820151816004015560a0820151816005015560c0820151816006015560e082015181600701556101008201518160080160006101000a81548160ff02191690831515021790555061012082015181600901559050506004547ffd9d17e5565deea3d25918d95fc398673b9445ef0a96d12eaf3ab2b198756c65878787604051610f2f939291909283526020830191909152604082015260600190565b600061062a600d54600854600654600754611613565b61136e6113d3565b600380546001600160a01b0319166001600160a01b0392909216919091179055565b6113986113d3565b6001600160a01b0381166113c757604051631e4fbdf760e01b8152600060048201526024015b60405180910390fd5b6113d0816114fa565b50565b6000546001600160a01b03163314610c685760405163118cdaa760e01b81523360048201526024016113be565b6040516001600160a01b0384811660248301528381166044830152606482018390526114679186918216906323b872dd906084015b604051602081830303815290604052915060e01b6020820180516001600160e01b03838183161783525050505061169a565b50505050565b8082105b92915050565b600060648211156114ca5760405162461bcd60e51b815260206004820152601b60248201527f446973636f756e742063616e6e6f74206578636565642031303025000000000060448201526064016113be565b64e8d4a510006114db836064611850565b6114e590856118bc565b6114f0906064611876565b610bfb91906118bc565b600080546001600160a01b038381166001600160a01b0319831681178455604051919092169283917f8be0079c531659141344cd1fd0a4f28419497f9722a3daafe3b4186f6b6457e09190a35050565b6040516001600160a01b0383811660248301526044820183905261157b91859182169063a9059cbb90606401611435565b505050565b6115886113d3565b6004546000908152600560205260408120905b816009015481101561160f57336000818152600f6020908152604091829020825160608101845281548082526001830154938201939093526002909101549281019290925215611605576001600160a01b0382166000908152600f60205260409020426002909101555b505060010161159b565b5050565b600084600003611624575081611692565b838510611632575080611692565b60008461164187612710611876565b61164b91906118bc565b905060006116598486611863565b90506127106116688284611876565b61167291906118bc565b61167c9086611863565b925083831161168b578361168d565b825b925050505b949350505050565b600080602060008451602086016000885af1806116bd576040513d6000823e3d81fd5b50506000513d915081156116d55780600114156116e2565b6001600160a01b0384163b155b1561146757604051635274afe760e01b81526001600160a01b03851660048201526024016113be565b60006020828403121561171d57600080fd5b5035919050565b80356001600160a01b038116811461173b57600080fd5b919050565b60006020828403121561175257600080fd5b610bfb82611724565b600061014082019050825182526020830151602083015260408301516040830152606083015160608301526080830151608083015260a083015160a083015260c083015160c083015260e083015160e0830152610100808401516117c28285018215159052565b505061012092830151919092015290565b600080604083850312156117e657600080fd5b823591506117f660208401611724565b90509250929050565b600080600080600060a0868803121561181757600080fd5b505083359560208501359550604085013594606081013594506080013592509050565b634e487b7160e01b600052601160045260246000fd5b808201808211156114715761147161183a565b818103818111156114715761147161183a565b80820281158282048414176114715761147161183a565b60006001820161189f5761189f61183a565b5060010190565b634e487b7160e01b600052603260045260246000fd5b6000826118d957634e487b7160e01b600052601260045260246000fd5b50049056fe867bc48474afbd71c32542f493801861b7fa916f53f0e706e1bb8a3f47709c28a2646970667358221220ac5c47ddce4dfcfecd8ca2d9ae430ad81463b02fff839575b14d146d6fe814f464736f6c63430008180033",
  "linkReferences": {},
  "deployedLinkReferences": {}
}