{
  "_format": "hh-sol-artifact-1",
  "contractName": "Bonding",
  "sourceName": "src/Bonding.sol",
  "abi": [
    {
      "inputs": [],
      "stateMutability": "nonpayable",
      "type": "constructor"
    },
    {
      "inputs": [
        {
          "internalType": "address",
          "name": "target",
          "type": "address"
        }
      ],
      "name": "AddressEmptyCode",
      "type": "error"
    },
    {
      "inputs": [],
      "name": "Bonding__AmountMustBeGreaterThanZero",
      "type": "error"
    },
    {
      "inputs": [],
      "name": "Bonding__EpochCapExceeded",
      "type": "error"
    },
    {
      "inputs": [],
      "name": "Bonding__ExceedsWalletCap",
      "type": "error"
    },
    {
      "inputs": [],
      "name": "Bonding__InvalidDiscountRange",
      "type": "error"
    },
    {
      "inputs": [],
      "name": "Bonding__InvalidVestingPeriod",
      "type": "error"
    },
    {
      "inputs": [],
      "name": "Bonding__NoMoreRounds",
      "type": "error"
    },
    {
      "inputs": [],
      "name": "Bonding__RoundAlreadyActive",
      "type": "error"
    },
    {
      "inputs": [],
      "name": "Bonding__RoundNotActive",
      "type": "error"
    },
    {
      "inputs": [],
      "name": "Bonding__TokensLockedInVesting",
      "type": "error"
    },
    {
      "inputs": [
        {
          "internalType": "address",
          "name": "implementation",
          "type": "address"
        }
      ],
      "name": "ERC1967InvalidImplementation",
      "type": "error"
    },
    {
      "inputs": [],
      "name": "ERC1967NonPayable",
      "type": "error"
    },
    {
      "inputs": [],
      "name": "FailedCall",
      "type": "error"
    },
    {
      "inputs": [],
      "name": "InvalidInitialization",
      "type": "error"
    },
    {
      "inputs": [],
      "name": "NotInitializing",
      "type": "error"
    },
    {
      "inputs": [
        {
          "internalType": "address",
          "name": "owner",
          "type": "address"
        }
      ],
      "name": "OwnableInvalidOwner",
      "type": "error"
    },
    {
      "inputs": [
        {
          "internalType": "address",
          "name": "account",
          "type": "address"
        }
      ],
      "name": "OwnableUnauthorizedAccount",
      "type": "error"
    },
    {
      "inputs": [
        {
          "internalType": "address",
          "name": "token",
          "type": "address"
        }
      ],
      "name": "SafeERC20FailedOperation",
      "type": "error"
    },
    {
      "inputs": [],
      "name": "UUPSUnauthorizedCallContext",
      "type": "error"
    },
    {
      "inputs": [
        {
          "internalType": "bytes32",
          "name": "slot",
          "type": "bytes32"
        }
      ],
      "name": "UUPSUnsupportedProxiableUUID",
      "type": "error"
    },
    {
      "anonymous": false,
      "inputs": [
        {
          "indexed": true,
          "internalType": "address",
          "name": "user",
          "type": "address"
        },
        {
          "indexed": false,
          "internalType": "uint256",
          "name": "amount",
          "type": "uint256"
        }
      ],
      "name": "Bonded",
      "type": "event"
    },
    {
      "anonymous": false,
      "inputs": [
        {
          "indexed": false,
          "internalType": "uint256",
          "name": "newCap",
          "type": "uint256"
        }
      ],
      "name": "EpochCapUpdated",
      "type": "event"
    },
    {
      "anonymous": false,
      "inputs": [
        {
          "indexed": false,
          "internalType": "uint64",
          "name": "version",
          "type": "uint64"
        }
      ],
      "name": "Initialized",
      "type": "event"
    },
    {
      "anonymous": false,
      "inputs": [
        {
          "indexed": true,
          "internalType": "address",
          "name": "previousOwner",
          "type": "address"
        },
        {
          "indexed": true,
          "internalType": "address",
          "name": "newOwner",
          "type": "address"
        }
      ],
      "name": "OwnershipTransferred",
      "type": "event"
    },
    {
      "anonymous": false,
      "inputs": [
        {
          "indexed": true,
          "internalType": "uint256",
          "name": "roundId",
          "type": "uint256"
        },
        {
          "indexed": false,
          "internalType": "uint256",
          "name": "totalBonded",
          "type": "uint256"
        }
      ],
      "name": "RoundCompleted",
      "type": "event"
    },
    {
      "anonymous": false,
      "inputs": [
        {
          "indexed": true,
          "internalType": "uint256",
          "name": "roundId",
          "type": "uint256"
        },
        {
          "indexed": false,
          "internalType": "uint256",
          "name": "initialDiscount",
          "type": "uint256"
        },
        {
          "indexed": false,
          "internalType": "uint256",
          "name": "finalDiscount",
          "type": "uint256"
        },
        {
          "indexed": false,
          "internalType": "uint256",
          "name": "epochCap",
          "type": "uint256"
        }
      ],
      "name": "RoundStarted",
      "type": "event"
    },
    {
      "anonymous": false,
      "inputs": [
        {
          "indexed": true,
          "internalType": "address",
          "name": "implementation",
          "type": "address"
        }
      ],
      "name": "Upgraded",
      "type": "event"
    },
    {
      "anonymous": false,
      "inputs": [
        {
          "indexed": false,
          "internalType": "uint256",
          "name": "newPeriod",
          "type": "uint256"
        }
      ],
      "name": "VestingPeriodUpdated",
      "type": "event"
    },
    {
      "anonymous": false,
      "inputs": [
        {
          "indexed": true,
          "internalType": "address",
          "name": "user",
          "type": "address"
        },
        {
          "indexed": false,
          "internalType": "uint256",
          "name": "amount",
          "type": "uint256"
        },
        {
          "indexed": false,
          "internalType": "uint256",
          "name": "startTime",
          "type": "uint256"
        },
        {
          "indexed": false,
          "internalType": "uint256",
          "name": "endTime",
          "type": "uint256"
        }
      ],
      "name": "VestingScheduleCreated",
      "type": "event"
    },
    {
      "anonymous": false,
      "inputs": [
        {
          "indexed": false,
          "internalType": "uint256",
          "name": "newCap",
          "type": "uint256"
        }
      ],
      "name": "WalletCapUpdated",
      "type": "event"
    },
    {
      "inputs": [],
      "name": "UPGRADE_INTERFACE_VERSION",
      "outputs": [
        {
          "internalType": "string",
          "name": "",
          "type": "string"
        }
      ],
      "stateMutability": "view",
      "type": "function"
    },
    {
      "inputs": [
        {
          "internalType": "uint256",
          "name": "amount",
          "type": "uint256"
        }
      ],
      "name": "bond",
      "outputs": [],
      "stateMutability": "nonpayable",
      "type": "function"
    },
    {
      "inputs": [],
      "name": "completeCurrentRound",
      "outputs": [],
      "stateMutability": "nonpayable",
      "type": "function"
    },
    {
      "inputs": [],
      "name": "currentRoundId",
      "outputs": [
        {
          "internalType": "uint256",
          "name": "",
          "type": "uint256"
        }
      ],
      "stateMutability": "view",
      "type": "function"
    },
    {
      "inputs": [],
      "name": "epochCap",
      "outputs": [
        {
          "internalType": "uint256",
          "name": "",
          "type": "uint256"
        }
      ],
      "stateMutability": "view",
      "type": "function"
    },
    {
      "inputs": [],
      "name": "finalDiscount",
      "outputs": [
        {
          "internalType": "uint256",
          "name": "",
          "type": "uint256"
        }
      ],
      "stateMutability": "view",
      "type": "function"
    },
    {
      "inputs": [],
      "name": "fvc",
      "outputs": [
        {
          "internalType": "contract IFVC",
          "name": "",
          "type": "address"
        }
      ],
      "stateMutability": "view",
      "type": "function"
    },
    {
      "inputs": [],
      "name": "getCurrentDiscount",
      "outputs": [
        {
          "internalType": "uint256",
          "name": "",
          "type": "uint256"
        }
      ],
      "stateMutability": "view",
      "type": "function"
    },
    {
      "inputs": [],
      "name": "getCurrentRound",
      "outputs": [
        {
          "components": [
            {
              "internalType": "uint256",
              "name": "roundId",
              "type": "uint256"
            },
            {
              "internalType": "uint256",
              "name": "initialDiscount",
              "type": "uint256"
            },
            {
              "internalType": "uint256",
              "name": "finalDiscount",
              "type": "uint256"
            },
            {
              "internalType": "uint256",
              "name": "epochCap",
              "type": "uint256"
            },
            {
              "internalType": "uint256",
              "name": "walletCap",
              "type": "uint256"
            },
            {
              "internalType": "uint256",
              "name": "vestingPeriod",
              "type": "uint256"
            },
            {
              "internalType": "bool",
              "name": "isActive",
              "type": "bool"
            },
            {
              "internalType": "uint256",
              "name": "totalBonded",
              "type": "uint256"
            }
          ],
          "internalType": "struct IBonding.RoundConfig",
          "name": "",
          "type": "tuple"
        }
      ],
      "stateMutability": "view",
      "type": "function"
    },
    {
      "inputs": [
        {
          "internalType": "address",
          "name": "user",
          "type": "address"
        }
      ],
      "name": "getVestingSchedule",
      "outputs": [
        {
          "components": [
            {
              "internalType": "uint256",
              "name": "amount",
              "type": "uint256"
            },
            {
              "internalType": "uint256",
              "name": "startTime",
              "type": "uint256"
            },
            {
              "internalType": "uint256",
              "name": "endTime",
              "type": "uint256"
            }
          ],
          "internalType": "struct IBonding.VestingSchedule",
          "name": "",
          "type": "tuple"
        }
      ],
      "stateMutability": "view",
      "type": "function"
    },
    {
      "inputs": [],
      "name": "initialDiscount",
      "outputs": [
        {
          "internalType": "uint256",
          "name": "",
          "type": "uint256"
        }
      ],
      "stateMutability": "view",
      "type": "function"
    },
    {
      "inputs": [
        {
          "internalType": "address",
          "name": "_fvc",
          "type": "address"
        },
        {
          "internalType": "address",
          "name": "_usdc",
          "type": "address"
        },
        {
          "internalType": "address",
          "name": "_treasury",
          "type": "address"
        },
        {
          "internalType": "uint256",
          "name": "_initialDiscount",
          "type": "uint256"
        },
        {
          "internalType": "uint256",
          "name": "_finalDiscount",
          "type": "uint256"
        },
        {
          "internalType": "uint256",
          "name": "_epochCap",
          "type": "uint256"
        },
        {
          "internalType": "uint256",
          "name": "_walletCap",
          "type": "uint256"
        },
        {
          "internalType": "uint256",
          "name": "_vestingPeriod",
          "type": "uint256"
        }
      ],
      "name": "initialize",
      "outputs": [],
      "stateMutability": "nonpayable",
      "type": "function"
    },
    {
      "inputs": [
        {
          "internalType": "address",
          "name": "user",
          "type": "address"
        }
      ],
      "name": "isLocked",
      "outputs": [
        {
          "internalType": "bool",
          "name": "",
          "type": "bool"
        }
      ],
      "stateMutability": "view",
      "type": "function"
    },
    {
      "inputs": [],
      "name": "owner",
      "outputs": [
        {
          "internalType": "address",
          "name": "",
          "type": "address"
        }
      ],
      "stateMutability": "view",
      "type": "function"
    },
    {
      "inputs": [],
      "name": "proxiableUUID",
      "outputs": [
        {
          "internalType": "bytes32",
          "name": "",
          "type": "bytes32"
        }
      ],
      "stateMutability": "view",
      "type": "function"
    },
    {
      "inputs": [],
      "name": "renounceOwnership",
      "outputs": [],
      "stateMutability": "nonpayable",
      "type": "function"
    },
    {
      "inputs": [
        {
          "internalType": "uint256",
          "name": "",
          "type": "uint256"
        }
      ],
      "name": "rounds",
      "outputs": [
        {
          "internalType": "uint256",
          "name": "roundId",
          "type": "uint256"
        },
        {
          "internalType": "uint256",
          "name": "initialDiscount",
          "type": "uint256"
        },
        {
          "internalType": "uint256",
          "name": "finalDiscount",
          "type": "uint256"
        },
        {
          "internalType": "uint256",
          "name": "epochCap",
          "type": "uint256"
        },
        {
          "internalType": "uint256",
          "name": "walletCap",
          "type": "uint256"
        },
        {
          "internalType": "uint256",
          "name": "vestingPeriod",
          "type": "uint256"
        },
        {
          "internalType": "bool",
          "name": "isActive",
          "type": "bool"
        },
        {
          "internalType": "uint256",
          "name": "totalBonded",
          "type": "uint256"
        }
      ],
      "stateMutability": "view",
      "type": "function"
    },
    {
      "inputs": [
        {
          "internalType": "uint256",
          "name": "_epochCap",
          "type": "uint256"
        }
      ],
      "name": "setEpochCap",
      "outputs": [],
      "stateMutability": "nonpayable",
      "type": "function"
    },
    {
      "inputs": [
        {
          "internalType": "address",
          "name": "_treasury",
          "type": "address"
        }
      ],
      "name": "setTreasury",
      "outputs": [],
      "stateMutability": "nonpayable",
      "type": "function"
    },
    {
      "inputs": [
        {
          "internalType": "uint256",
          "name": "_vestingPeriod",
          "type": "uint256"
        }
      ],
      "name": "setVestingPeriod",
      "outputs": [],
      "stateMutability": "nonpayable",
      "type": "function"
    },
    {
      "inputs": [
        {
          "internalType": "uint256",
          "name": "_walletCap",
          "type": "uint256"
        }
      ],
      "name": "setWalletCap",
      "outputs": [],
      "stateMutability": "nonpayable",
      "type": "function"
    },
    {
      "inputs": [
        {
          "internalType": "uint256",
          "name": "_initialDiscount",
          "type": "uint256"
        },
        {
          "internalType": "uint256",
          "name": "_finalDiscount",
          "type": "uint256"
        },
        {
          "internalType": "uint256",
          "name": "_epochCap",
          "type": "uint256"
        },
        {
          "internalType": "uint256",
          "name": "_walletCap",
          "type": "uint256"
        },
        {
          "internalType": "uint256",
          "name": "_vestingPeriod",
          "type": "uint256"
        }
      ],
      "name": "startNewRound",
      "outputs": [],
      "stateMutability": "nonpayable",
      "type": "function"
    },
    {
      "inputs": [],
      "name": "startNextRound",
      "outputs": [],
      "stateMutability": "nonpayable",
      "type": "function"
    },
    {
      "inputs": [],
      "name": "totalBonded",
      "outputs": [
        {
          "internalType": "uint256",
          "name": "",
          "type": "uint256"
        }
      ],
      "stateMutability": "view",
      "type": "function"
    },
    {
      "inputs": [
        {
          "internalType": "address",
          "name": "newOwner",
          "type": "address"
        }
      ],
      "name": "transferOwnership",
      "outputs": [],
      "stateMutability": "nonpayable",
      "type": "function"
    },
    {
      "inputs": [],
      "name": "treasury",
      "outputs": [
        {
          "internalType": "address",
          "name": "",
          "type": "address"
        }
      ],
      "stateMutability": "view",
      "type": "function"
    },
    {
      "inputs": [
        {
          "internalType": "address",
          "name": "newImplementation",
          "type": "address"
        },
        {
          "internalType": "bytes",
          "name": "data",
          "type": "bytes"
        }
      ],
      "name": "upgradeToAndCall",
      "outputs": [],
      "stateMutability": "payable",
      "type": "function"
    },
    {
      "inputs": [],
      "name": "usdc",
      "outputs": [
        {
          "internalType": "contract IERC20",
          "name": "",
          "type": "address"
        }
      ],
      "stateMutability": "view",
      "type": "function"
    },
    {
      "inputs": [
        {
          "internalType": "uint256",
          "name": "",
          "type": "uint256"
        },
        {
          "internalType": "address",
          "name": "",
          "type": "address"
        }
      ],
      "name": "userBonded",
      "outputs": [
        {
          "internalType": "uint256",
          "name": "",
          "type": "uint256"
        }
      ],
      "stateMutability": "view",
      "type": "function"
    },
    {
      "inputs": [],
      "name": "vestingPeriod",
      "outputs": [
        {
          "internalType": "uint256",
          "name": "",
          "type": "uint256"
        }
      ],
      "stateMutability": "view",
      "type": "function"
    },
    {
      "inputs": [
        {
          "internalType": "address",
          "name": "",
          "type": "address"
        }
      ],
      "name": "vestingSchedules",
      "outputs": [
        {
          "internalType": "uint256",
          "name": "amount",
          "type": "uint256"
        },
        {
          "internalType": "uint256",
          "name": "startTime",
          "type": "uint256"
        },
        {
          "internalType": "uint256",
          "name": "endTime",
          "type": "uint256"
        }
      ],
      "stateMutability": "view",
      "type": "function"
    },
    {
      "inputs": [],
      "name": "walletCap",
      "outputs": [
        {
          "internalType": "uint256",
          "name": "",
          "type": "uint256"
        }
      ],
      "stateMutability": "view",
      "type": "function"
    }
  ],
  "bytecode": "0x60a06040523060805234801561001457600080fd5b5061001d610022565b6100d4565b7ff0c57e16840df040f15088dc2f81fe391c3923bec73e23a9662efc9c229c6a00805468010000000000000000900460ff16156100725760405163f92ee8a960e01b815260040160405180910390fd5b80546001600160401b03908116146100d15780546001600160401b0319166001600160401b0390811782556040519081527fc7f505b2f371ae2175ee4913f4499e1f2633a7b5936321eed1cdaeb6115181d29060200160405180910390a15b50565b6080516122e3620000fe600039600081816118590152818161188201526119c801526122e36000f3fe6080604052600436106101e35760003560e01c80638da5cb5b11610102578063d93de01711610095578063f0eb737a11610064578063f0eb737a14610674578063f0f4426014610689578063f2fde38b146106a9578063fdb20ccb146106c957600080fd5b8063d93de017146105ff578063df8fa43014610614578063e033ebb014610634578063e8ba4b0f1461065457600080fd5b8063a32bf597116100d1578063a32bf597146104f1578063ad3cb1cc14610569578063d06f518b146105a7578063d1c17e38146105df57600080fd5b80638da5cb5b1461043c5780639940686e146104795780639cbe5efd146104995780639f829063146104af57600080fd5b806358950c221161017a578063715018a611610149578063715018a61461035a5780637313ee5a1461036f5780637ec897cd146103855780638c65c81f1461039b57600080fd5b806358950c22146102ee578063610250601461030457806361d027b31461031a57806365a646681461033a57600080fd5b8063473357f1116101b6578063473357f1146102805780634a4fbeec146102965780634f1ef286146102c657806352d1902d146102d957600080fd5b80633c3ccc44146101e85780633e413bee146101ff57806340bee0ed1461023c57806344d96e951461025c575b600080fd5b3480156101f457600080fd5b506101fd610720565b005b34801561020b57600080fd5b5060015461021f906001600160a01b031681565b6040516001600160a01b0390911681526020015b60405180910390f35b34801561024857600080fd5b506101fd610257366004611f3d565b610bf5565b34801561026857600080fd5b50610272600a5481565b604051908152602001610233565b34801561028c57600080fd5b5061027260065481565b3480156102a257600080fd5b506102b66102b1366004611f72565b610c5a565b6040519015158152602001610233565b6101fd6102d4366004611fa3565b610cba565b3480156102e557600080fd5b50610272610cd9565b3480156102fa57600080fd5b5061027260085481565b34801561031057600080fd5b5061027260075481565b34801561032657600080fd5b5060025461021f906001600160a01b031681565b34801561034657600080fd5b506101fd610355366004611f3d565b610cf6565b34801561036657600080fd5b506101fd610d33565b34801561037b57600080fd5b5061027260095481565b34801561039157600080fd5b5061027260055481565b3480156103a757600080fd5b506103ff6103b6366004611f3d565b6004602081905260009182526040909120805460018201546002830154600384015494840154600585015460068601546007909601549496939592949192909160ff9091169088565b604080519889526020890197909752958701949094526060860192909252608085015260a0840152151560c083015260e082015261010001610233565b34801561044857600080fd5b507f9016d09d72d40fdae2fd8ceac6b6234c7706214fd39c1cd1e609a0528c199300546001600160a01b031661021f565b34801561048557600080fd5b506101fd610494366004611f3d565b610d47565b3480156104a557600080fd5b5061027260035481565b3480156104bb57600080fd5b506104cf6104ca366004611f72565b611035565b6040805182518152602080840151908201529181015190820152606001610233565b3480156104fd57600080fd5b5061050661109b565b6040516102339190600061010082019050825182526020830151602083015260408301516040830152606083015160608301526080830151608083015260a083015160a083015260c0830151151560c083015260e083015160e083015292915050565b34801561057557600080fd5b5061059a604051806040016040528060058152602001640352e302e360dc1b81525081565b6040516102339190612089565b3480156105b357600080fd5b506102726105c23660046120bc565b600b60209081526000928352604080842090915290825290205481565b3480156105eb57600080fd5b5060005461021f906001600160a01b031681565b34801561060b57600080fd5b506101fd611157565b34801561062057600080fd5b506101fd61062f3660046120e8565b6111cd565b34801561064057600080fd5b506101fd61064f366004611f3d565b611560565b34801561066057600080fd5b506101fd61066f366004612159565b61159d565b34801561068057600080fd5b50610272611761565b34801561069557600080fd5b506101fd6106a4366004611f72565b61177c565b3480156106b557600080fd5b506101fd6106c4366004611f72565b6117a6565b3480156106d557600080fd5b506107056106e4366004611f72565b600c6020526000908152604090208054600182015460029092015490919083565b60408051938452602084019290925290820152606001610233565b6107286117e9565b6003546000908152600460205260409020600681015460ff161561075f5760405163ccf5bf4560e01b815260040160405180910390fd5b600560035410610782576040516346dc4d3b60e01b815260040160405180910390fd5b60006040518060a001604052806019815260200160148152602001600f8152602001600a81526020016005815250905060006040518060a00160405280600581526020016003815260200160028152602001600181526020016000815250905060006040518060a001604052806304c4b400670de0b6b3a764000061080791906121aa565b81526020016108226303938700670de0b6b3a76400006121aa565b815260200161083d6302625a00670de0b6b3a76400006121aa565b815260200161085762e4e1c0670de0b6b3a76400006121aa565b8152602001610871624c4b40670de0b6b3a76400006121aa565b815250905060006040518060a00160405280627a1200670de0b6b3a764000061089a91906121aa565b81526020016108b4625b8d80670de0b6b3a76400006121aa565b81526020016108ce623d0900670de0b6b3a76400006121aa565b81526020016108e8621e8480670de0b6b3a76400006121aa565b8152602001610902620f4240670de0b6b3a76400006121aa565b815250905060035460008051602061226e833981519152866007015460405161092d91815260200190565b60405180910390a260038054906000610945836121c1565b919050555083600160035461095a91906121da565b6005811061096a5761096a6121ed565b60200201516005556003548390610983906001906121da565b60058110610993576109936121ed565b602002015160065560035482906109ac906001906121da565b600581106109bc576109bc6121ed565b602002015160075560035481906109d5906001906121da565b600581106109e5576109e56121ed565b60200201516008819055506000600a819055506040518061010001604052806003548152602001856001600354610a1c91906121da565b60058110610a2c57610a2c6121ed565b60200201518152602001846001600354610a4691906121da565b60058110610a5657610a566121ed565b60200201518152602001836001600354610a7091906121da565b60058110610a8057610a806121ed565b60200201518152602001826001600354610a9a91906121da565b60058110610aaa57610aaa6121ed565b602090810291909101518252600954828201526001604080840182905260006060948501819052600380548252600480865291839020875181559487015185850155918601516002850155938501518382015560808501519383019390935560a0840151600583015560c084015160068301805460ff191691151591909117905560e09093015160079091015554907ffd9d17e5565deea3d25918d95fc398673b9445ef0a96d12eaf3ab2b198756c65908690610b6790846121da565b60058110610b7757610b776121ed565b6020020151856001600354610b8c91906121da565b60058110610b9c57610b9c6121ed565b6020020151856001600354610bb191906121da565b60058110610bc157610bc16121ed565b6020020151604051610be6939291909283526020830191909152604082015260600190565b60405180910390a25050505050565b610bfd6117e9565b80600003610c1e57604051631b3cc90f60e01b815260040160405180910390fd5b60098190556040518181527fc21cb0f112058f1eb0e3313a577dfc27e6be5b39127591e05245343a422e4915906020015b60405180910390a150565b6001600160a01b0381166000908152600c6020908152604080832081516060810183528154808252600183015494820194909452600290910154918101919091529015801590610cb35750610cb3428260400151611844565b9392505050565b610cc261184e565b610ccb826118f3565b610cd582826118fb565b5050565b6000610ce36119bd565b5060008051602061228e83398151915290565b610cfe6117e9565b60088190556040518181527f4784309e6b1f1431c711eac5e572f9ba2d542ecb5428efc0e927b794f4e8e2c190602001610c4f565b610d3b6117e9565b610d456000611a06565b565b80600003610d685760405163d3590a8360e01b815260040160405180910390fd5b6003546000908152600460205260409020600681015460ff16610d9e5760405163b885dfef60e01b815260040160405180910390fd5b60075482600a54610daf9190612203565b1115610dce5760405163437d78f560e01b815260040160405180910390fd5b6008546003546000908152600b60209081526040808320338452909152902054610df9908490612203565b1115610e18576040516375284bdb60e01b815260040160405180910390fd5b6000610e22611761565b90506000610e308483611a77565b600254600154919250610e52916001600160a01b039081169133911687611af9565b6000546040516340c10f1960e01b8152336004820152602481018390526001600160a01b03909116906340c10f1990604401600060405180830381600087803b158015610e9e57600080fd5b505af1158015610eb2573d6000803e3d6000fd5b5050505083600a6000828254610ec89190612203565b9250508190555083836007016000828254610ee39190612203565b90915550506003546000908152600b6020908152604080832033845290915281208054869290610f14908490612203565b90915550506009544290600090610f2b9083612203565b604080516060810182528581526020808201868152828401858152336000818152600c85528690209451855591516001850155516002909301929092559151898152929350917fd0a009034e24a39106653c4903cf28b1947b8a9964d03206648e0f0a5de74a46910160405180910390a2604080518481526020810184905290810182905233907f892f1a841b10e4b041cc41d8cc47c6a6049f1ff5fa272ddf47a0aa5ad8f59d139060600160405180910390a2600754600a541061102d5760068501805460ff19169055610ffe611b59565b60035460008051602061226e833981519152866007015460405161102491815260200190565b60405180910390a25b505050505050565b61105960405180606001604052806000815260200160008152602001600081525090565b506001600160a01b03166000908152600c6020908152604091829020825160608101845281548152600182015492810192909252600201549181019190915290565b6110e5604051806101000160405280600081526020016000815260200160008152602001600081526020016000815260200160008152602001600015158152602001600081525090565b5060038054600090815260046020818152604092839020835161010081018552815481526001820154928101929092526002810154938201939093529282015460608401528101546080830152600581015460a0830152600681015460ff16151560c08301526007015460e082015290565b61115f6117e9565b6003546000908152600460205260409020600681015460ff166111955760405163b885dfef60e01b815260040160405180910390fd5b60068101805460ff19169055600354600782015460405190815260008051602061226e8339815191529060200160405180910390a250565b60006111d7611be8565b805490915060ff600160401b820416159067ffffffffffffffff166000811580156111ff5750825b905060008267ffffffffffffffff16600114801561121c5750303b155b90508115801561122a575080155b156112485760405163f92ee8a960e01b815260040160405180910390fd5b845467ffffffffffffffff19166001178555831561127257845460ff60401b1916600160401b1785555b61127b33611c11565b611283611c22565b8c6000806101000a8154816001600160a01b0302191690836001600160a01b031602179055508b600160006101000a8154816001600160a01b0302191690836001600160a01b031602179055508a600260006101000a8154816001600160a01b0302191690836001600160a01b03160217905550888a11611317576040516381b8843960e01b815260040160405180910390fd5b8560000361133857604051631b3cc90f60e01b815260040160405180910390fd5b6001600381905560058b905560068a9055600789905560088890556009879055604080516101008101825282815260208082018e81528284018e815260608085018f8152608086018f815260a087018f815260c088018a8152600060e08a01818152908c90526004895298517fabd6e7cb50984ff9c2f3e18a2660c3353dadf4e3291deeb275dae2cd1e44fe055595517fabd6e7cb50984ff9c2f3e18a2660c3353dadf4e3291deeb275dae2cd1e44fe065593517fabd6e7cb50984ff9c2f3e18a2660c3353dadf4e3291deeb275dae2cd1e44fe075590517fabd6e7cb50984ff9c2f3e18a2660c3353dadf4e3291deeb275dae2cd1e44fe0855517fabd6e7cb50984ff9c2f3e18a2660c3353dadf4e3291deeb275dae2cd1e44fe095590517fabd6e7cb50984ff9c2f3e18a2660c3353dadf4e3291deeb275dae2cd1e44fe0a5590517fabd6e7cb50984ff9c2f3e18a2660c3353dadf4e3291deeb275dae2cd1e44fe0b805460ff191691151591909117905591517fabd6e7cb50984ff9c2f3e18a2660c3353dadf4e3291deeb275dae2cd1e44fe0c5582518e81529081018d90529182018b90527ffd9d17e5565deea3d25918d95fc398673b9445ef0a96d12eaf3ab2b198756c65910160405180910390a2831561155157845460ff60401b19168555604051600181527fc7f505b2f371ae2175ee4913f4499e1f2633a7b5936321eed1cdaeb6115181d29060200160405180910390a15b50505050505050505050505050565b6115686117e9565b60078190556040518181527f5f444d43ef974de0a9762ea40d495ac7a320efb6f44e8f1c32505b3cbc026d9c90602001610c4f565b6115a56117e9565b6003546000908152600460205260409020600681015460ff16156115dc5760405163ccf5bf4560e01b815260040160405180910390fd5b8486116115fc576040516381b8843960e01b815260040160405180910390fd5b8160000361161d57604051631b3cc90f60e01b815260040160405180910390fd5b60035460008051602061226e833981519152826007015460405161164391815260200190565b60405180910390a26003805490600061165b836121c1565b9091555050600586815560068681556007868155600886905560098590556000600a81905560408051610100810182526003805480835260208084018f81528486018f8152606086018f8152608087018f815260a088018f8152600160c08a0181815260e08b018d8152988d526004978890529b8b902099518a55945194890194909455915160028801555186860155519185019190915551978301979097559251948101805495151560ff1990961695909517909455935192909101919091555490517ffd9d17e5565deea3d25918d95fc398673b9445ef0a96d12eaf3ab2b198756c6590611024908990899089909283526020830191909152604082015260600190565b6000611777600a54600754600554600654611c2a565b905090565b6117846117e9565b600280546001600160a01b0319166001600160a01b0392909216919091179055565b6117ae6117e9565b6001600160a01b0381166117dd57604051631e4fbdf760e01b8152600060048201526024015b60405180910390fd5b6117e681611a06565b50565b3361181b7f9016d09d72d40fdae2fd8ceac6b6234c7706214fd39c1cd1e609a0528c199300546001600160a01b031690565b6001600160a01b031614610d455760405163118cdaa760e01b81523360048201526024016117d4565b8082105b92915050565b306001600160a01b037f00000000000000000000000000000000000000000000000000000000000000001614806118d557507f00000000000000000000000000000000000000000000000000000000000000006001600160a01b03166118c960008051602061228e833981519152546001600160a01b031690565b6001600160a01b031614155b15610d455760405163703e46dd60e11b815260040160405180910390fd5b6117e66117e9565b816001600160a01b03166352d1902d6040518163ffffffff1660e01b8152600401602060405180830381865afa925050508015611955575060408051601f3d908101601f1916820190925261195291810190612216565b60015b61197d57604051634c9c8ce360e01b81526001600160a01b03831660048201526024016117d4565b60008051602061228e83398151915281146119ae57604051632a87526960e21b8152600481018290526024016117d4565b6119b88383611cb1565b505050565b306001600160a01b037f00000000000000000000000000000000000000000000000000000000000000001614610d455760405163703e46dd60e11b815260040160405180910390fd5b7f9016d09d72d40fdae2fd8ceac6b6234c7706214fd39c1cd1e609a0528c19930080546001600160a01b031981166001600160a01b03848116918217845560405192169182907f8be0079c531659141344cd1fd0a4f28419497f9722a3daafe3b4186f6b6457e090600090a3505050565b60006064821115611aca5760405162461bcd60e51b815260206004820152601b60248201527f446973636f756e742063616e6e6f74206578636565642031303025000000000060448201526064016117d4565b6064611ad68382612203565b611ae090856121aa565b611aea919061222f565b610cb39064e8d4a510006121aa565b604080516001600160a01b0385811660248301528416604482015260648082018490528251808303909101815260849091019091526020810180516001600160e01b03166323b872dd60e01b179052611b53908590611d07565b50505050565b611b616117e9565b6003546000908152600460205260408120905b8160070154811015610cd557336000818152600c6020908152604091829020825160608101845281548082526001830154938201939093526002909101549281019290925215611bde576001600160a01b0382166000908152600c60205260409020426002909101555b5050600101611b74565b6000807ff0c57e16840df040f15088dc2f81fe391c3923bec73e23a9662efc9c229c6a00611848565b611c19611d78565b6117e681611d9d565b610d45611d78565b600084600003611c3b575081611ca9565b838510611c49575080611ca9565b600084611c58876127106121aa565b611c62919061222f565b90506000611c7084866121da565b9050612710611c7f82846121aa565b611c89919061222f565b611c9390866121da565b9250838311611ca25783611ca4565b825b925050505b949350505050565b611cba82611da5565b6040516001600160a01b038316907fbc7cd75a20ee27fd9adebab32041f755214dbc6bffa90cc0225b39da2e5c2d3b90600090a2805115611cff576119b88282611e0a565b610cd5611e80565b600080602060008451602086016000885af180611d2a576040513d6000823e3d81fd5b50506000513d91508115611d42578060011415611d4f565b6001600160a01b0384163b155b15611b5357604051635274afe760e01b81526001600160a01b03851660048201526024016117d4565b611d80611e9f565b610d4557604051631afcd79f60e31b815260040160405180910390fd5b6117ae611d78565b806001600160a01b03163b600003611ddb57604051634c9c8ce360e01b81526001600160a01b03821660048201526024016117d4565b60008051602061228e83398151915280546001600160a01b0319166001600160a01b0392909216919091179055565b6060600080846001600160a01b031684604051611e279190612251565b600060405180830381855af49150503d8060008114611e62576040519150601f19603f3d011682016040523d82523d6000602084013e611e67565b606091505b5091509150611e77858383611eb9565b95945050505050565b3415610d455760405163b398979f60e01b815260040160405180910390fd5b6000611ea9611be8565b54600160401b900460ff16919050565b606082611ece57611ec982611f15565b610cb3565b8151158015611ee557506001600160a01b0384163b155b15611f0e57604051639996b31560e01b81526001600160a01b03851660048201526024016117d4565b5092915050565b805115611f2457805160208201fd5b60405163d6bda27560e01b815260040160405180910390fd5b600060208284031215611f4f57600080fd5b5035919050565b80356001600160a01b0381168114611f6d57600080fd5b919050565b600060208284031215611f8457600080fd5b610cb382611f56565b634e487b7160e01b600052604160045260246000fd5b60008060408385031215611fb657600080fd5b611fbf83611f56565b9150602083013567ffffffffffffffff80821115611fdc57600080fd5b818501915085601f830112611ff057600080fd5b81358181111561200257612002611f8d565b604051601f8201601f19908116603f0116810190838211818310171561202a5761202a611f8d565b8160405282815288602084870101111561204357600080fd5b8260208601602083013760006020848301015280955050505050509250929050565b60005b83811015612080578181015183820152602001612068565b50506000910152565b60208152600082518060208401526120a8816040850160208701612065565b601f01601f19169190910160400192915050565b600080604083850312156120cf57600080fd5b823591506120df60208401611f56565b90509250929050565b600080600080600080600080610100898b03121561210557600080fd5b61210e89611f56565b975061211c60208a01611f56565b965061212a60408a01611f56565b979a96995096976060810135975060808101359660a0820135965060c0820135955060e0909101359350915050565b600080600080600060a0868803121561217157600080fd5b505083359560208501359550604085013594606081013594506080013592509050565b634e487b7160e01b600052601160045260246000fd5b808202811582820484141761184857611848612194565b6000600182016121d3576121d3612194565b5060010190565b8181038181111561184857611848612194565b634e487b7160e01b600052603260045260246000fd5b8082018082111561184857611848612194565b60006020828403121561222857600080fd5b5051919050565b60008261224c57634e487b7160e01b600052601260045260246000fd5b500490565b60008251612263818460208701612065565b919091019291505056fe867bc48474afbd71c32542f493801861b7fa916f53f0e706e1bb8a3f47709c28360894a13ba1a3210667c828492db98dca3e2076cc3735a920a3ca505d382bbca26469706673582212203a9d0bd8ce57126c30586f3dd852633e339fa3bf8e82d3ff86e45b19e86f023264736f6c63430008180033",
  "linkReferences": {},
  "deployedLinkReferences": {}
}