{
  "_format": "hh-sol-artifact-1",
  "contractName": "Bonding",
  "sourceName": "src/Bonding.sol",
  "abi": [
    {
      "inputs": [
        {
          "internalType": "address",
          "name": "_fvc",
          "type": "address"
        },
        {
          "internalType": "address",
          "name": "_usdc",
          "type": "address"
        },
        {
          "internalType": "address",
          "name": "_treasury",
          "type": "address"
        },
        {
          "internalType": "uint256",
          "name": "_initialDiscount",
          "type": "uint256"
        },
        {
          "internalType": "uint256",
          "name": "_finalDiscount",
          "type": "uint256"
        },
        {
          "internalType": "uint256",
          "name": "_epochCap",
          "type": "uint256"
        },
        {
          "internalType": "uint256",
          "name": "_walletCap",
          "type": "uint256"
        },
        {
          "internalType": "uint256",
          "name": "_vestingPeriod",
          "type": "uint256"
        }
      ],
      "stateMutability": "nonpayable",
      "type": "constructor"
    },
    {
      "inputs": [],
      "name": "Bonding__AmountMustBeGreaterThanZero",
      "type": "error"
    },
    {
      "inputs": [],
      "name": "Bonding__EpochCapExceeded",
      "type": "error"
    },
    {
      "inputs": [],
      "name": "Bonding__ExceedsWalletCap",
      "type": "error"
    },
    {
      "inputs": [],
      "name": "Bonding__InvalidDiscountRange",
      "type": "error"
    },
    {
      "inputs": [],
      "name": "Bonding__InvalidVestingPeriod",
      "type": "error"
    },
    {
      "inputs": [],
      "name": "Bonding__NoMoreRounds",
      "type": "error"
    },
    {
      "inputs": [],
      "name": "Bonding__RoundAlreadyActive",
      "type": "error"
    },
    {
      "inputs": [],
      "name": "Bonding__RoundNotActive",
      "type": "error"
    },
    {
      "inputs": [],
      "name": "Bonding__TokensLockedInVesting",
      "type": "error"
    },
    {
      "inputs": [
        {
          "internalType": "address",
          "name": "owner",
          "type": "address"
        }
      ],
      "name": "OwnableInvalidOwner",
      "type": "error"
    },
    {
      "inputs": [
        {
          "internalType": "address",
          "name": "account",
          "type": "address"
        }
      ],
      "name": "OwnableUnauthorizedAccount",
      "type": "error"
    },
    {
      "inputs": [
        {
          "internalType": "address",
          "name": "token",
          "type": "address"
        }
      ],
      "name": "SafeERC20FailedOperation",
      "type": "error"
    },
    {
      "anonymous": false,
      "inputs": [
        {
          "indexed": true,
          "internalType": "address",
          "name": "user",
          "type": "address"
        },
        {
          "indexed": false,
          "internalType": "uint256",
          "name": "amount",
          "type": "uint256"
        }
      ],
      "name": "Bonded",
      "type": "event"
    },
    {
      "anonymous": false,
      "inputs": [
        {
          "indexed": false,
          "internalType": "uint256",
          "name": "newCap",
          "type": "uint256"
        }
      ],
      "name": "EpochCapUpdated",
      "type": "event"
    },
    {
      "anonymous": false,
      "inputs": [
        {
          "indexed": false,
          "internalType": "uint256",
          "name": "roundId",
          "type": "uint256"
        },
        {
          "indexed": false,
          "internalType": "uint256",
          "name": "fvcAmount",
          "type": "uint256"
        }
      ],
      "name": "FVCAllocated",
      "type": "event"
    },
    {
      "anonymous": false,
      "inputs": [
        {
          "indexed": true,
          "internalType": "address",
          "name": "previousOwner",
          "type": "address"
        },
        {
          "indexed": true,
          "internalType": "address",
          "name": "newOwner",
          "type": "address"
        }
      ],
      "name": "OwnershipTransferred",
      "type": "event"
    },
    {
      "anonymous": false,
      "inputs": [
        {
          "indexed": true,
          "internalType": "uint256",
          "name": "roundId",
          "type": "uint256"
        },
        {
          "indexed": false,
          "internalType": "uint256",
          "name": "totalBonded",
          "type": "uint256"
        }
      ],
      "name": "RoundCompleted",
      "type": "event"
    },
    {
      "anonymous": false,
      "inputs": [
        {
          "indexed": true,
          "internalType": "uint256",
          "name": "roundId",
          "type": "uint256"
        },
        {
          "indexed": false,
          "internalType": "uint256",
          "name": "initialDiscount",
          "type": "uint256"
        },
        {
          "indexed": false,
          "internalType": "uint256",
          "name": "finalDiscount",
          "type": "uint256"
        },
        {
          "indexed": false,
          "internalType": "uint256",
          "name": "epochCap",
          "type": "uint256"
        }
      ],
      "name": "RoundStarted",
      "type": "event"
    },
    {
      "anonymous": false,
      "inputs": [
        {
          "indexed": false,
          "internalType": "uint256",
          "name": "newPeriod",
          "type": "uint256"
        }
      ],
      "name": "VestingPeriodUpdated",
      "type": "event"
    },
    {
      "anonymous": false,
      "inputs": [
        {
          "indexed": true,
          "internalType": "address",
          "name": "user",
          "type": "address"
        },
        {
          "indexed": false,
          "internalType": "uint256",
          "name": "amount",
          "type": "uint256"
        },
        {
          "indexed": false,
          "internalType": "uint256",
          "name": "startTime",
          "type": "uint256"
        },
        {
          "indexed": false,
          "internalType": "uint256",
          "name": "endTime",
          "type": "uint256"
        }
      ],
      "name": "VestingScheduleCreated",
      "type": "event"
    },
    {
      "anonymous": false,
      "inputs": [
        {
          "indexed": false,
          "internalType": "uint256",
          "name": "newCap",
          "type": "uint256"
        }
      ],
      "name": "WalletCapUpdated",
      "type": "event"
    },
    {
      "inputs": [
        {
          "internalType": "uint256",
          "name": "fvcAmount",
          "type": "uint256"
        }
      ],
      "name": "allocateFVC",
      "outputs": [],
      "stateMutability": "nonpayable",
      "type": "function"
    },
    {
      "inputs": [
        {
          "internalType": "uint256",
          "name": "fvcAmount",
          "type": "uint256"
        }
      ],
      "name": "bond",
      "outputs": [],
      "stateMutability": "nonpayable",
      "type": "function"
    },
    {
      "inputs": [
        {
          "internalType": "uint256",
          "name": "fvcAmount",
          "type": "uint256"
        }
      ],
      "name": "calculateUSDCAmount",
      "outputs": [
        {
          "internalType": "uint256",
          "name": "usdcAmount",
          "type": "uint256"
        }
      ],
      "stateMutability": "view",
      "type": "function"
    },
    {
      "inputs": [],
      "name": "completeCurrentRound",
      "outputs": [],
      "stateMutability": "nonpayable",
      "type": "function"
    },
    {
      "inputs": [],
      "name": "currentRoundId",
      "outputs": [
        {
          "internalType": "uint256",
          "name": "",
          "type": "uint256"
        }
      ],
      "stateMutability": "view",
      "type": "function"
    },
    {
      "inputs": [],
      "name": "emergencyUnlockAllVesting",
      "outputs": [],
      "stateMutability": "nonpayable",
      "type": "function"
    },
    {
      "inputs": [
        {
          "internalType": "address",
          "name": "user",
          "type": "address"
        }
      ],
      "name": "emergencyUnlockVesting",
      "outputs": [],
      "stateMutability": "nonpayable",
      "type": "function"
    },
    {
      "inputs": [],
      "name": "epochCap",
      "outputs": [
        {
          "internalType": "uint256",
          "name": "",
          "type": "uint256"
        }
      ],
      "stateMutability": "view",
      "type": "function"
    },
    {
      "inputs": [],
      "name": "finalDiscount",
      "outputs": [
        {
          "internalType": "uint256",
          "name": "",
          "type": "uint256"
        }
      ],
      "stateMutability": "view",
      "type": "function"
    },
    {
      "inputs": [],
      "name": "fvc",
      "outputs": [
        {
          "internalType": "contract IFVC",
          "name": "",
          "type": "address"
        }
      ],
      "stateMutability": "view",
      "type": "function"
    },
    {
      "inputs": [],
      "name": "fvcAllocated",
      "outputs": [
        {
          "internalType": "uint256",
          "name": "",
          "type": "uint256"
        }
      ],
      "stateMutability": "view",
      "type": "function"
    },
    {
      "inputs": [],
      "name": "fvcSold",
      "outputs": [
        {
          "internalType": "uint256",
          "name": "",
          "type": "uint256"
        }
      ],
      "stateMutability": "view",
      "type": "function"
    },
    {
      "inputs": [],
      "name": "getCurrentDiscount",
      "outputs": [
        {
          "internalType": "uint256",
          "name": "",
          "type": "uint256"
        }
      ],
      "stateMutability": "view",
      "type": "function"
    },
    {
      "inputs": [],
      "name": "getCurrentRound",
      "outputs": [
        {
          "components": [
            {
              "internalType": "uint256",
              "name": "roundId",
              "type": "uint256"
            },
            {
              "internalType": "uint256",
              "name": "initialDiscount",
              "type": "uint256"
            },
            {
              "internalType": "uint256",
              "name": "finalDiscount",
              "type": "uint256"
            },
            {
              "internalType": "uint256",
              "name": "epochCap",
              "type": "uint256"
            },
            {
              "internalType": "uint256",
              "name": "walletCap",
              "type": "uint256"
            },
            {
              "internalType": "uint256",
              "name": "vestingPeriod",
              "type": "uint256"
            },
            {
              "internalType": "uint256",
              "name": "fvcAllocated",
              "type": "uint256"
            },
            {
              "internalType": "uint256",
              "name": "fvcSold",
              "type": "uint256"
            },
            {
              "internalType": "bool",
              "name": "isActive",
              "type": "bool"
            },
            {
              "internalType": "uint256",
              "name": "totalBonded",
              "type": "uint256"
            }
          ],
          "internalType": "struct IBonding.RoundConfig",
          "name": "",
          "type": "tuple"
        }
      ],
      "stateMutability": "view",
      "type": "function"
    },
    {
      "inputs": [],
      "name": "getRemainingFVC",
      "outputs": [
        {
          "internalType": "uint256",
          "name": "",
          "type": "uint256"
        }
      ],
      "stateMutability": "view",
      "type": "function"
    },
    {
      "inputs": [
        {
          "internalType": "address",
          "name": "user",
          "type": "address"
        }
      ],
      "name": "getVestingSchedule",
      "outputs": [
        {
          "components": [
            {
              "internalType": "uint256",
              "name": "amount",
              "type": "uint256"
            },
            {
              "internalType": "uint256",
              "name": "startTime",
              "type": "uint256"
            },
            {
              "internalType": "uint256",
              "name": "endTime",
              "type": "uint256"
            }
          ],
          "internalType": "struct IBonding.VestingSchedule",
          "name": "",
          "type": "tuple"
        }
      ],
      "stateMutability": "view",
      "type": "function"
    },
    {
      "inputs": [],
      "name": "initialDiscount",
      "outputs": [
        {
          "internalType": "uint256",
          "name": "",
          "type": "uint256"
        }
      ],
      "stateMutability": "view",
      "type": "function"
    },
    {
      "inputs": [
        {
          "internalType": "address",
          "name": "user",
          "type": "address"
        }
      ],
      "name": "isLocked",
      "outputs": [
        {
          "internalType": "bool",
          "name": "",
          "type": "bool"
        }
      ],
      "stateMutability": "view",
      "type": "function"
    },
    {
      "inputs": [],
      "name": "owner",
      "outputs": [
        {
          "internalType": "address",
          "name": "",
          "type": "address"
        }
      ],
      "stateMutability": "view",
      "type": "function"
    },
    {
      "inputs": [],
      "name": "renounceOwnership",
      "outputs": [],
      "stateMutability": "nonpayable",
      "type": "function"
    },
    {
      "inputs": [
        {
          "internalType": "uint256",
          "name": "",
          "type": "uint256"
        }
      ],
      "name": "rounds",
      "outputs": [
        {
          "internalType": "uint256",
          "name": "roundId",
          "type": "uint256"
        },
        {
          "internalType": "uint256",
          "name": "initialDiscount",
          "type": "uint256"
        },
        {
          "internalType": "uint256",
          "name": "finalDiscount",
          "type": "uint256"
        },
        {
          "internalType": "uint256",
          "name": "epochCap",
          "type": "uint256"
        },
        {
          "internalType": "uint256",
          "name": "walletCap",
          "type": "uint256"
        },
        {
          "internalType": "uint256",
          "name": "vestingPeriod",
          "type": "uint256"
        },
        {
          "internalType": "uint256",
          "name": "fvcAllocated",
          "type": "uint256"
        },
        {
          "internalType": "uint256",
          "name": "fvcSold",
          "type": "uint256"
        },
        {
          "internalType": "bool",
          "name": "isActive",
          "type": "bool"
        },
        {
          "internalType": "uint256",
          "name": "totalBonded",
          "type": "uint256"
        }
      ],
      "stateMutability": "view",
      "type": "function"
    },
    {
      "inputs": [
        {
          "internalType": "uint256",
          "name": "_epochCap",
          "type": "uint256"
        }
      ],
      "name": "setEpochCap",
      "outputs": [],
      "stateMutability": "nonpayable",
      "type": "function"
    },
    {
      "inputs": [
        {
          "internalType": "address",
          "name": "_treasury",
          "type": "address"
        }
      ],
      "name": "setTreasury",
      "outputs": [],
      "stateMutability": "nonpayable",
      "type": "function"
    },
    {
      "inputs": [
        {
          "internalType": "uint256",
          "name": "_vestingPeriod",
          "type": "uint256"
        }
      ],
      "name": "setVestingPeriod",
      "outputs": [],
      "stateMutability": "nonpayable",
      "type": "function"
    },
    {
      "inputs": [
        {
          "internalType": "uint256",
          "name": "_walletCap",
          "type": "uint256"
        }
      ],
      "name": "setWalletCap",
      "outputs": [],
      "stateMutability": "nonpayable",
      "type": "function"
    },
    {
      "inputs": [
        {
          "internalType": "uint256",
          "name": "_initialDiscount",
          "type": "uint256"
        },
        {
          "internalType": "uint256",
          "name": "_finalDiscount",
          "type": "uint256"
        },
        {
          "internalType": "uint256",
          "name": "_epochCap",
          "type": "uint256"
        },
        {
          "internalType": "uint256",
          "name": "_walletCap",
          "type": "uint256"
        },
        {
          "internalType": "uint256",
          "name": "_vestingPeriod",
          "type": "uint256"
        }
      ],
      "name": "startNewRound",
      "outputs": [],
      "stateMutability": "nonpayable",
      "type": "function"
    },
    {
      "inputs": [],
      "name": "startNextRound",
      "outputs": [],
      "stateMutability": "nonpayable",
      "type": "function"
    },
    {
      "inputs": [],
      "name": "totalBonded",
      "outputs": [
        {
          "internalType": "uint256",
          "name": "",
          "type": "uint256"
        }
      ],
      "stateMutability": "view",
      "type": "function"
    },
    {
      "inputs": [
        {
          "internalType": "address",
          "name": "newOwner",
          "type": "address"
        }
      ],
      "name": "transferOwnership",
      "outputs": [],
      "stateMutability": "nonpayable",
      "type": "function"
    },
    {
      "inputs": [],
      "name": "treasury",
      "outputs": [
        {
          "internalType": "address",
          "name": "",
          "type": "address"
        }
      ],
      "stateMutability": "view",
      "type": "function"
    },
    {
      "inputs": [],
      "name": "usdc",
      "outputs": [
        {
          "internalType": "contract IERC20",
          "name": "",
          "type": "address"
        }
      ],
      "stateMutability": "view",
      "type": "function"
    },
    {
      "inputs": [
        {
          "internalType": "uint256",
          "name": "",
          "type": "uint256"
        },
        {
          "internalType": "address",
          "name": "",
          "type": "address"
        }
      ],
      "name": "userBonded",
      "outputs": [
        {
          "internalType": "uint256",
          "name": "",
          "type": "uint256"
        }
      ],
      "stateMutability": "view",
      "type": "function"
    },
    {
      "inputs": [],
      "name": "vestingPeriod",
      "outputs": [
        {
          "internalType": "uint256",
          "name": "",
          "type": "uint256"
        }
      ],
      "stateMutability": "view",
      "type": "function"
    },
    {
      "inputs": [
        {
          "internalType": "address",
          "name": "",
          "type": "address"
        }
      ],
      "name": "vestingSchedules",
      "outputs": [
        {
          "internalType": "uint256",
          "name": "amount",
          "type": "uint256"
        },
        {
          "internalType": "uint256",
          "name": "startTime",
          "type": "uint256"
        },
        {
          "internalType": "uint256",
          "name": "endTime",
          "type": "uint256"
        }
      ],
      "stateMutability": "view",
      "type": "function"
    },
    {
      "inputs": [],
      "name": "walletCap",
      "outputs": [
        {
          "internalType": "uint256",
          "name": "",
          "type": "uint256"
        }
      ],
      "stateMutability": "view",
      "type": "function"
    }
  ],
  "bytecode": "0x60806040523480156200001157600080fd5b5060405162001e6338038062001e6383398101604081905262000034916200039b565b33806200005b57604051631e4fbdf760e01b81526000600482015260240160405180910390fd5b62000066816200032e565b50600180546001600160a01b03808b166001600160a01b031992831617909255600280548a84169083161790556003805492891692909116919091179055838511620000c5576040516381b8843960e01b815260040160405180910390fd5b80600003620000e757604051631b3cc90f60e01b815260040160405180910390fd5b600160048190556006869055600785905560088490556009839055600a8290556000600b819055600c819055600d819055604080516101408101825283815260208082018a81528284018a815260608085018b8152608086018b815260a087018b815260c088018a815260e089018b81526101008a018d81526101208b018d81529c8e905260058a5299517f1471eb6eb2c5e789fc3de43f8ce62938c7d1836ec861730447e2ada8fd81017b5596517f1471eb6eb2c5e789fc3de43f8ce62938c7d1836ec861730447e2ada8fd81017c5594517f1471eb6eb2c5e789fc3de43f8ce62938c7d1836ec861730447e2ada8fd81017d5591517f1471eb6eb2c5e789fc3de43f8ce62938c7d1836ec861730447e2ada8fd81017e55517f1471eb6eb2c5e789fc3de43f8ce62938c7d1836ec861730447e2ada8fd81017f55517f1471eb6eb2c5e789fc3de43f8ce62938c7d1836ec861730447e2ada8fd8101805590517f1471eb6eb2c5e789fc3de43f8ce62938c7d1836ec861730447e2ada8fd8101815590517f1471eb6eb2c5e789fc3de43f8ce62938c7d1836ec861730447e2ada8fd8101825591517f1471eb6eb2c5e789fc3de43f8ce62938c7d1836ec861730447e2ada8fd810183805460ff191691151591909117905592517f1471eb6eb2c5e789fc3de43f8ce62938c7d1836ec861730447e2ada8fd8101845581518981529283018890529082018690527ffd9d17e5565deea3d25918d95fc398673b9445ef0a96d12eaf3ab2b198756c65910160405180910390a2505050505050505062000416565b600080546001600160a01b038381166001600160a01b0319831681178455604051919092169283917f8be0079c531659141344cd1fd0a4f28419497f9722a3daafe3b4186f6b6457e09190a35050565b80516001600160a01b03811681146200039657600080fd5b919050565b600080600080600080600080610100898b031215620003b957600080fd5b620003c4896200037e565b9750620003d460208a016200037e565b9650620003e460408a016200037e565b9550606089015194506080890151935060a0890151925060c0890151915060e089015190509295985092959890939650565b611a3d80620004266000396000f3fe608060405234801561001057600080fd5b50600436106102115760003560e01c80637ec897cd11610125578063d1c17e38116100ad578063eaccaae11161007c578063eaccaae1146104df578063f0eb737a146104e8578063f0f44260146104f0578063f2fde38b14610503578063fdb20ccb1461051657600080fd5b8063d1c17e381461049e578063d93de017146104b1578063e033ebb0146104b9578063e8ba4b0f146104cc57600080fd5b80639940686e116100f45780639940686e1461040d5780639cbe5efd146104205780639f82906314610429578063a32bf5971461045e578063d06f518b1461047357600080fd5b80637ec897cd146103385780638c65c81f146103415780638cf407dd146103f35780638da5cb5b146103fc57600080fd5b80634a4fbeec116101a8578063610250601161017757806361025060146102f857806361d027b31461030157806365a6466814610314578063715018a6146103275780637313ee5a1461032f57600080fd5b80634a4fbeec146102a65780634cabb824146102c95780634cdaa354146102dc57806358950c22146102ef57600080fd5b80633e84d3c5116101e45780633e84d3c51461027957806340bee0ed1461028157806344d96e9514610294578063473357f11461029d57600080fd5b80630b8f760b1461021657806336fb2cf51461022b5780633c3ccc44146102465780633e413bee1461024e575b600080fd5b610229610224366004611814565b610560565b005b610233610649565b6040519081526020015b60405180910390f35b610229610660565b600254610261906001600160a01b031681565b6040516001600160a01b03909116815260200161023d565b610229610b6e565b61022961028f366004611814565b610bbb565b610233600d5481565b61023360075481565b6102b96102b4366004611849565b610c20565b604051901515815260200161023d565b6102336102d7366004611814565b610c80565b6102296102ea366004611849565b610c97565b61023360095481565b61023360085481565b600354610261906001600160a01b031681565b610229610322366004611814565b610d26565b610229610d63565b610233600a5481565b61023360065481565b6103a761034f366004611814565b6005602081905260009182526040909120805460018201546002830154600384015460048501549585015460068601546007870154600888015460099098015496989597949693959492939192909160ff909116908a565b604080519a8b5260208b0199909952978901969096526060880194909452608087019290925260a086015260c085015260e084015215156101008301526101208201526101400161023d565b610233600b5481565b6000546001600160a01b0316610261565b61022961041b366004611814565b610d77565b61023360045481565b61043c610437366004611849565b61104d565b604080518251815260208084015190820152918101519082015260600161023d565b6104666110b3565b60405161023d9190611864565b6102336104813660046118dc565b600e60209081526000928352604080842090915290825290205481565b600154610261906001600160a01b031681565b610229611193565b6102296104c7366004611814565b611209565b6102296104da366004611908565b611246565b610233600c5481565b61023361145d565b6102296104fe366004611849565b611473565b610229610511366004611849565b61149d565b610545610524366004611849565b600f6020526000908152604090208054600182015460029092015490919083565b6040805193845260208401929092529082015260600161023d565b6105686114e0565b6004546000908152600560205260409020600881015460ff1661059e5760405163b885dfef60e01b815260040160405180910390fd5b816000036105bf5760405163d3590a8360e01b815260040160405180910390fd5b6001546105d7906001600160a01b031633308561150d565b81600b60008282546105e99190611959565b92505081905550818160060160008282546106049190611959565b909155505060045460408051918252602082018490527f7cdd16d98681f4d22957409604a564ef1d8cd2b0d5cc5235d444451f03324b13910160405180910390a15050565b6000600c54600b5461065b919061196c565b905090565b6106686114e0565b6004546000908152600560205260409020600881015460ff161561069f5760405163ccf5bf4560e01b815260040160405180910390fd5b6005600454106106c2576040516346dc4d3b60e01b815260040160405180910390fd5b60006040518060a001604052806019815260200160148152602001600f8152602001600a81526020016005815250905060006040518060a00160405280600581526020016003815260200160028152602001600181526020016000815250905060006040518060a001604052806304c4b400670de0b6b3a7640000610747919061197f565b81526020016107626303938700670de0b6b3a764000061197f565b815260200161077d6302625a00670de0b6b3a764000061197f565b815260200161079762e4e1c0670de0b6b3a764000061197f565b81526020016107b1624c4b40670de0b6b3a764000061197f565b815250905060006040518060a00160405280627a1200670de0b6b3a76400006107da919061197f565b81526020016107f4625b8d80670de0b6b3a764000061197f565b815260200161080e623d0900670de0b6b3a764000061197f565b8152602001610828621e8480670de0b6b3a764000061197f565b8152602001610842620f4240670de0b6b3a764000061197f565b81525090506004546000805160206119e8833981519152866009015460405161086d91815260200190565b60405180910390a26004805490600061088583611996565b919050555083600160045461089a919061196c565b600581106108aa576108aa6119af565b602002015160065560045483906108c39060019061196c565b600581106108d3576108d36119af565b602002015160075560045482906108ec9060019061196c565b600581106108fc576108fc6119af565b602002015160085560045481906109159060019061196c565b60058110610925576109256119af565b60200201516009819055506000600d81905550604051806101400160405280600454815260200185600160045461095c919061196c565b6005811061096c5761096c6119af565b60200201518152602001846001600454610986919061196c565b60058110610996576109966119af565b602002015181526020018360016004546109b0919061196c565b600581106109c0576109c06119af565b602002015181526020018260016004546109da919061196c565b600581106109ea576109ea6119af565b60200201518152602001600a54815260200160008152602001600081526020016001151581526020016000815250600560006004548152602001908152602001600020600082015181600001556020820151816001015560408201518160020155606082015181600301556080820151816004015560a0820151816005015560c0820151816006015560e082015181600701556101008201518160080160006101000a81548160ff02191690831515021790555061012082015181600901559050506004547ffd9d17e5565deea3d25918d95fc398673b9445ef0a96d12eaf3ab2b198756c65856001600454610ae0919061196c565b60058110610af057610af06119af565b6020020151856001600454610b05919061196c565b60058110610b1557610b156119af565b6020020151856001600454610b2a919061196c565b60058110610b3a57610b3a6119af565b6020020151604051610b5f939291909283526020830191909152604082015260600190565b60405180910390a25050505050565b610b766114e0565b604080516000808252602082018190529181018290527f892f1a841b10e4b041cc41d8cc47c6a6049f1ff5fa272ddf47a0aa5ad8f59d139060600160405180910390a2565b610bc36114e0565b80600003610be457604051631b3cc90f60e01b815260040160405180910390fd5b600a8190556040518181527fc21cb0f112058f1eb0e3313a577dfc27e6be5b39127591e05245343a422e4915906020015b60405180910390a150565b6001600160a01b0381166000908152600f6020908152604080832081516060810183528154808252600183015494820194909452600290910154918101919091529015801590610c795750610c7942826040015161157a565b9392505050565b600080610c8b61145d565b9050610c798382611584565b610c9f6114e0565b6001600160a01b0381166000908152600f60205260409020805415610d22578054600080835560018301819055600283018190556040805182815260208101839052908101919091526001600160a01b038416907f892f1a841b10e4b041cc41d8cc47c6a6049f1ff5fa272ddf47a0aa5ad8f59d139060600160405180910390a2505b5050565b610d2e6114e0565b60098190556040518181527f4784309e6b1f1431c711eac5e572f9ba2d542ecb5428efc0e927b794f4e8e2c190602001610c15565b610d6b6114e0565b610d756000611607565b565b80600003610d985760405163d3590a8360e01b815260040160405180910390fd5b6004546000908152600560205260409020600881015460ff16610dce5760405163b885dfef60e01b815260040160405180910390fd5b600b5482600c54610ddf9190611959565b1115610dfe5760405163437d78f560e01b815260040160405180910390fd5b6000610e0861145d565b90506000610e168483611584565b6009546004546000908152600e6020908152604080832033845290915290205491925090610e45908390611959565b1115610e64576040516375284bdb60e01b815260040160405180910390fd5b600354600254610e83916001600160a01b03918216913391168461150d565b600154610e9a906001600160a01b03163386611657565b80600d6000828254610eac9190611959565b9250508190555080836009016000828254610ec79190611959565b9250508190555083836007016000828254610ee29190611959565b9250508190555083600c6000828254610efb9190611959565b90915550506004546000908152600e6020908152604080832033845290915281208054839290610f2c908490611959565b9091555050600a544290600090610f439083611959565b604080516060810182528881526020808201868152828401858152336000818152600f85528690209451855591516001850155516002909301929092559151868152929350917fd0a009034e24a39106653c4903cf28b1947b8a9964d03206648e0f0a5de74a46910160405180910390a2604080518781526020810184905290810182905233907f892f1a841b10e4b041cc41d8cc47c6a6049f1ff5fa272ddf47a0aa5ad8f59d139060600160405180910390a2600b54600c54106110455760088501805460ff1916905561101661168d565b6004546000805160206119e8833981519152866009015460405161103c91815260200190565b60405180910390a25b505050505050565b61107160405180606001604052806000815260200160008152602001600081525090565b506001600160a01b03166000908152600f6020908152604091829020825160608101845281548152600182015492810192909252600201549181019190915290565b61110b6040518061014001604052806000815260200160008152602001600081526020016000815260200160008152602001600081526020016000815260200160008152602001600015158152602001600081525090565b5060048054600090815260056020818152604092839020835161014081018552815481526001820154928101929092526002810154938201939093526003830154606082015292820154608084015281015460a0830152600681015460c0830152600781015460e0830152600881015460ff1615156101008301526009015461012082015290565b61119b6114e0565b6004546000908152600560205260409020600881015460ff166111d15760405163b885dfef60e01b815260040160405180910390fd5b60088101805460ff1916905560045460098201546040519081526000805160206119e88339815191529060200160405180910390a250565b6112116114e0565b60088190556040518181527f5f444d43ef974de0a9762ea40d495ac7a320efb6f44e8f1c32505b3cbc026d9c90602001610c15565b61124e6114e0565b6004546000908152600560205260409020600881015460ff16156112855760405163ccf5bf4560e01b815260040160405180910390fd5b8486116112a5576040516381b8843960e01b815260040160405180910390fd5b816000036112c657604051631b3cc90f60e01b815260040160405180910390fd5b6004546000805160206119e883398151915282600901546040516112ec91815260200190565b60405180910390a26004805490600061130483611996565b91905055508560068190555084600781905550836008819055508260098190555081600a819055506000600d81905550604051806101400160405280600454815260200187815260200186815260200185815260200184815260200183815260200160008152602001600081526020016001151581526020016000815250600560006004548152602001908152602001600020600082015181600001556020820151816001015560408201518160020155606082015181600301556080820151816004015560a0820151816005015560c0820151816006015560e082015181600701556101008201518160080160006101000a81548160ff02191690831515021790555061012082015181600901559050506004547ffd9d17e5565deea3d25918d95fc398673b9445ef0a96d12eaf3ab2b198756c6587878760405161103c939291909283526020830191909152604082015260600190565b600061065b600d5460085460065460075461171c565b61147b6114e0565b600380546001600160a01b0319166001600160a01b0392909216919091179055565b6114a56114e0565b6001600160a01b0381166114d457604051631e4fbdf760e01b8152600060048201526024015b60405180910390fd5b6114dd81611607565b50565b6000546001600160a01b03163314610d755760405163118cdaa760e01b81523360048201526024016114cb565b6040516001600160a01b0384811660248301528381166044830152606482018390526115749186918216906323b872dd906084015b604051602081830303815290604052915060e01b6020820180516001600160e01b0383818316178352505050506117a3565b50505050565b8082105b92915050565b600060648211156115d75760405162461bcd60e51b815260206004820152601b60248201527f446973636f756e742063616e6e6f74206578636565642031303025000000000060448201526064016114cb565b64e8d4a510006115e8836064611959565b6115f290856119c5565b6115fd90606461197f565b610c7991906119c5565b600080546001600160a01b038381166001600160a01b0319831681178455604051919092169283917f8be0079c531659141344cd1fd0a4f28419497f9722a3daafe3b4186f6b6457e09190a35050565b6040516001600160a01b0383811660248301526044820183905261168891859182169063a9059cbb90606401611542565b505050565b6116956114e0565b6004546000908152600560205260408120905b8160090154811015610d2257336000818152600f6020908152604091829020825160608101845281548082526001830154938201939093526002909101549281019290925215611712576001600160a01b0382166000908152600f60205260409020426002909101555b50506001016116a8565b60008460000361172d57508161179b565b83851061173b57508061179b565b60008461174a8761271061197f565b61175491906119c5565b90506000611762848661196c565b9050612710611771828461197f565b61177b91906119c5565b611785908661196c565b92508383116117945783611796565b825b925050505b949350505050565b600080602060008451602086016000885af1806117c6576040513d6000823e3d81fd5b50506000513d915081156117de5780600114156117eb565b6001600160a01b0384163b155b1561157457604051635274afe760e01b81526001600160a01b03851660048201526024016114cb565b60006020828403121561182657600080fd5b5035919050565b80356001600160a01b038116811461184457600080fd5b919050565b60006020828403121561185b57600080fd5b610c798261182d565b600061014082019050825182526020830151602083015260408301516040830152606083015160608301526080830151608083015260a083015160a083015260c083015160c083015260e083015160e0830152610100808401516118cb8285018215159052565b505061012092830151919092015290565b600080604083850312156118ef57600080fd5b823591506118ff6020840161182d565b90509250929050565b600080600080600060a0868803121561192057600080fd5b505083359560208501359550604085013594606081013594506080013592509050565b634e487b7160e01b600052601160045260246000fd5b8082018082111561157e5761157e611943565b8181038181111561157e5761157e611943565b808202811582820484141761157e5761157e611943565b6000600182016119a8576119a8611943565b5060010190565b634e487b7160e01b600052603260045260246000fd5b6000826119e257634e487b7160e01b600052601260045260246000fd5b50049056fe867bc48474afbd71c32542f493801861b7fa916f53f0e706e1bb8a3f47709c28a2646970667358221220437b6e2218398cec0ca9575c809a8e177a539207cc04e2217e0c13826169180064736f6c63430008180033",
  "linkReferences": {},
  "deployedLinkReferences": {}
}