{
  "_format": "hh-sol-artifact-1",
  "contractName": "Staking",
  "sourceName": "src/Staking.sol",
  "abi": [
    {
      "inputs": [],
      "name": "InvalidInitialization",
      "type": "error"
    },
    {
      "inputs": [],
      "name": "NotInitializing",
      "type": "error"
    },
    {
      "inputs": [
        {
          "internalType": "address",
          "name": "owner",
          "type": "address"
        }
      ],
      "name": "OwnableInvalidOwner",
      "type": "error"
    },
    {
      "inputs": [
        {
          "internalType": "address",
          "name": "account",
          "type": "address"
        }
      ],
      "name": "OwnableUnauthorizedAccount",
      "type": "error"
    },
    {
      "anonymous": false,
      "inputs": [
        {
          "indexed": false,
          "internalType": "uint64",
          "name": "version",
          "type": "uint64"
        }
      ],
      "name": "Initialized",
      "type": "event"
    },
    {
      "anonymous": false,
      "inputs": [
        {
          "indexed": true,
          "internalType": "address",
          "name": "previousOwner",
          "type": "address"
        },
        {
          "indexed": true,
          "internalType": "address",
          "name": "newOwner",
          "type": "address"
        }
      ],
      "name": "OwnershipTransferred",
      "type": "event"
    },
    {
      "anonymous": false,
      "inputs": [
        {
          "indexed": true,
          "internalType": "address",
          "name": "user",
          "type": "address"
        },
        {
          "indexed": false,
          "internalType": "uint256",
          "name": "amount",
          "type": "uint256"
        }
      ],
      "name": "Staked",
      "type": "event"
    },
    {
      "inputs": [],
      "name": "fvc",
      "outputs": [
        {
          "internalType": "contract IFVC",
          "name": "",
          "type": "address"
        }
      ],
      "stateMutability": "view",
      "type": "function"
    },
    {
      "inputs": [
        {
          "internalType": "address",
          "name": "_fvc",
          "type": "address"
        },
        {
          "internalType": "address",
          "name": "_owner",
          "type": "address"
        }
      ],
      "name": "initialize",
      "outputs": [],
      "stateMutability": "nonpayable",
      "type": "function"
    },
    {
      "inputs": [],
      "name": "owner",
      "outputs": [
        {
          "internalType": "address",
          "name": "",
          "type": "address"
        }
      ],
      "stateMutability": "view",
      "type": "function"
    },
    {
      "inputs": [],
      "name": "renounceOwnership",
      "outputs": [],
      "stateMutability": "nonpayable",
      "type": "function"
    },
    {
      "inputs": [
        {
          "internalType": "uint256",
          "name": "amount",
          "type": "uint256"
        }
      ],
      "name": "stake",
      "outputs": [],
      "stateMutability": "nonpayable",
      "type": "function"
    },
    {
      "inputs": [
        {
          "internalType": "address",
          "name": "newOwner",
          "type": "address"
        }
      ],
      "name": "transferOwnership",
      "outputs": [],
      "stateMutability": "nonpayable",
      "type": "function"
    }
  ],
  "bytecode": "0x608060405234801561001057600080fd5b50610b7d806100206000396000f3fe608060405234801561001057600080fd5b50600436106100625760003560e01c8063485cc95514610067578063715018a6146100835780638da5cb5b1461008d578063a694fc3a146100ab578063d1c17e38146100c7578063f2fde38b146100e5575b600080fd5b610081600480360381019061007c9190610826565b610101565b005b61008b6102d1565b005b6100956102e5565b6040516100a29190610875565b60405180910390f35b6100c560048036038101906100c091906108c6565b61031d565b005b6100cf610452565b6040516100dc9190610952565b60405180910390f35b6100ff60048036038101906100fa919061096d565b610476565b005b600061010b6104fc565b905060008160000160089054906101000a900460ff1615905060008260000160009054906101000a900467ffffffffffffffff1690506000808267ffffffffffffffff161480156101595750825b9050600060018367ffffffffffffffff1614801561018e575060003073ffffffffffffffffffffffffffffffffffffffff163b145b90508115801561019c575080155b156101d3576040517ff92ee8a900000000000000000000000000000000000000000000000000000000815260040160405180910390fd5b60018560000160006101000a81548167ffffffffffffffff021916908367ffffffffffffffff16021790555083156102235760018560000160086101000a81548160ff0219169083151502179055505b61022c86610510565b866000806101000a81548173ffffffffffffffffffffffffffffffffffffffff021916908373ffffffffffffffffffffffffffffffffffffffff16021790555083156102c85760008560000160086101000a81548160ff0219169083151502179055507fc7f505b2f371ae2175ee4913f4499e1f2633a7b5936321eed1cdaeb6115181d260016040516102bf91906109e9565b60405180910390a15b50505050505050565b6102d9610524565b6102e360006105ab565b565b6000806102f0610682565b90508060000160009054906101000a900473ffffffffffffffffffffffffffffffffffffffff1691505090565b60008111610360576040517f08c379a000000000000000000000000000000000000000000000000000000000815260040161035790610a61565b60405180910390fd5b60008054906101000a900473ffffffffffffffffffffffffffffffffffffffff1673ffffffffffffffffffffffffffffffffffffffff166323b872dd3330846040518463ffffffff1660e01b81526004016103bd93929190610a90565b6020604051808303816000875af11580156103dc573d6000803e3d6000fd5b505050506040513d601f19601f820116820180604052508101906104009190610aff565b503373ffffffffffffffffffffffffffffffffffffffff167f9e71bc8eea02a63969f509818f2dafb9254532904319f9dbda79b67bd34a5f3d826040516104479190610b2c565b60405180910390a250565b60008054906101000a900473ffffffffffffffffffffffffffffffffffffffff1681565b61047e610524565b600073ffffffffffffffffffffffffffffffffffffffff168173ffffffffffffffffffffffffffffffffffffffff16036104f05760006040517f1e4fbdf70000000000000000000000000000000000000000000000000000000081526004016104e79190610875565b60405180910390fd5b6104f9816105ab565b50565b6000806105076106aa565b90508091505090565b6105186106d5565b61052181610715565b50565b61052c61079b565b73ffffffffffffffffffffffffffffffffffffffff1661054a6102e5565b73ffffffffffffffffffffffffffffffffffffffff16146105a95761056d61079b565b6040517f118cdaa70000000000000000000000000000000000000000000000000000000081526004016105a09190610875565b60405180910390fd5b565b60006105b5610682565b905060008160000160009054906101000a900473ffffffffffffffffffffffffffffffffffffffff169050828260000160006101000a81548173ffffffffffffffffffffffffffffffffffffffff021916908373ffffffffffffffffffffffffffffffffffffffff1602179055508273ffffffffffffffffffffffffffffffffffffffff168173ffffffffffffffffffffffffffffffffffffffff167f8be0079c531659141344cd1fd0a4f28419497f9722a3daafe3b4186f6b6457e060405160405180910390a3505050565b60007f9016d09d72d40fdae2fd8ceac6b6234c7706214fd39c1cd1e609a0528c199300905090565b60007ff0c57e16840df040f15088dc2f81fe391c3923bec73e23a9662efc9c229c6a0060001b905090565b6106dd6107a3565b610713576040517fd7e6bcf800000000000000000000000000000000000000000000000000000000815260040160405180910390fd5b565b61071d6106d5565b600073ffffffffffffffffffffffffffffffffffffffff168173ffffffffffffffffffffffffffffffffffffffff160361078f5760006040517f1e4fbdf70000000000000000000000000000000000000000000000000000000081526004016107869190610875565b60405180910390fd5b610798816105ab565b50565b600033905090565b60006107ad6104fc565b60000160089054906101000a900460ff16905090565b600080fd5b600073ffffffffffffffffffffffffffffffffffffffff82169050919050565b60006107f3826107c8565b9050919050565b610803816107e8565b811461080e57600080fd5b50565b600081359050610820816107fa565b92915050565b6000806040838503121561083d5761083c6107c3565b5b600061084b85828601610811565b925050602061085c85828601610811565b9150509250929050565b61086f816107e8565b82525050565b600060208201905061088a6000830184610866565b92915050565b6000819050919050565b6108a381610890565b81146108ae57600080fd5b50565b6000813590506108c08161089a565b92915050565b6000602082840312156108dc576108db6107c3565b5b60006108ea848285016108b1565b91505092915050565b6000819050919050565b600061091861091361090e846107c8565b6108f3565b6107c8565b9050919050565b600061092a826108fd565b9050919050565b600061093c8261091f565b9050919050565b61094c81610931565b82525050565b60006020820190506109676000830184610943565b92915050565b600060208284031215610983576109826107c3565b5b600061099184828501610811565b91505092915050565b6000819050919050565b600067ffffffffffffffff82169050919050565b60006109d36109ce6109c98461099a565b6108f3565b6109a4565b9050919050565b6109e3816109b8565b82525050565b60006020820190506109fe60008301846109da565b92915050565b600082825260208201905092915050565b7f5a65726f20616d6f756e74000000000000000000000000000000000000000000600082015250565b6000610a4b600b83610a04565b9150610a5682610a15565b602082019050919050565b60006020820190508181036000830152610a7a81610a3e565b9050919050565b610a8a81610890565b82525050565b6000606082019050610aa56000830186610866565b610ab26020830185610866565b610abf6040830184610a81565b949350505050565b60008115159050919050565b610adc81610ac7565b8114610ae757600080fd5b50565b600081519050610af981610ad3565b92915050565b600060208284031215610b1557610b146107c3565b5b6000610b2384828501610aea565b91505092915050565b6000602082019050610b416000830184610a81565b9291505056fea2646970667358221220e44456b3ea6a68073b40d92bb03a1e25c5bcc2e476cd2de1482c09f3d403006b64736f6c63430008180033",
  "linkReferences": {},
  "deployedLinkReferences": {}
}