{"src/Bonding.sol":{"Bonding":{"abi":[{"inputs":[],"stateMutability":"nonpayable","type":"constructor"},{"inputs":[{"internalType":"address","name":"target","type":"address"}],"name":"AddressEmptyCode","type":"error"},{"inputs":[],"name":"Bonding__AmountMustBeGreaterThanZero","type":"error"},{"inputs":[],"name":"Bonding__EpochCapExceeded","type":"error"},{"inputs":[],"name":"Bonding__ExceedsWalletCap","type":"error"},{"inputs":[],"name":"Bonding__InvalidDiscountRange","type":"error"},{"inputs":[],"name":"Bonding__InvalidVestingPeriod","type":"error"},{"inputs":[],"name":"Bonding__NoMoreRounds","type":"error"},{"inputs":[],"name":"Bonding__RoundAlreadyActive","type":"error"},{"inputs":[],"name":"Bonding__RoundNotActive","type":"error"},{"inputs":[],"name":"Bonding__TokensLockedInVesting","type":"error"},{"inputs":[{"internalType":"address","name":"implementation","type":"address"}],"name":"ERC1967InvalidImplementation","type":"error"},{"inputs":[],"name":"ERC1967NonPayable","type":"error"},{"inputs":[],"name":"FailedCall","type":"error"},{"inputs":[],"name":"InvalidInitialization","type":"error"},{"inputs":[],"name":"NotInitializing","type":"error"},{"inputs":[{"internalType":"address","name":"owner","type":"address"}],"name":"OwnableInvalidOwner","type":"error"},{"inputs":[{"internalType":"address","name":"account","type":"address"}],"name":"OwnableUnauthorizedAccount","type":"error"},{"inputs":[{"internalType":"address","name":"token","type":"address"}],"name":"SafeERC20FailedOperation","type":"error"},{"inputs":[],"name":"UUPSUnauthorizedCallContext","type":"error"},{"inputs":[{"internalType":"bytes32","name":"slot","type":"bytes32"}],"name":"UUPSUnsupportedProxiableUUID","type":"error"},{"anonymous":false,"inputs":[{"indexed":true,"internalType":"address","name":"user","type":"address"},{"indexed":false,"internalType":"uint256","name":"amount","type":"uint256"}],"name":"Bonded","type":"event"},{"anonymous":false,"inputs":[{"indexed":false,"internalType":"uint256","name":"newCap","type":"uint256"}],"name":"EpochCapUpdated","type":"event"},{"anonymous":false,"inputs":[{"indexed":false,"internalType":"uint64","name":"version","type":"uint64"}],"name":"Initialized","type":"event"},{"anonymous":false,"inputs":[{"indexed":true,"internalType":"address","name":"previousOwner","type":"address"},{"indexed":true,"internalType":"address","name":"newOwner","type":"address"}],"name":"OwnershipTransferred","type":"event"},{"anonymous":false,"inputs":[{"indexed":true,"internalType":"uint256","name":"roundId","type":"uint256"},{"indexed":false,"internalType":"uint256","name":"totalBonded","type":"uint256"}],"name":"RoundCompleted","type":"event"},{"anonymous":false,"inputs":[{"indexed":true,"internalType":"uint256","name":"roundId","type":"uint256"},{"indexed":false,"internalType":"uint256","name":"initialDiscount","type":"uint256"},{"indexed":false,"internalType":"uint256","name":"finalDiscount","type":"uint256"},{"indexed":false,"internalType":"uint256","name":"epochCap","type":"uint256"}],"name":"RoundStarted","type":"event"},{"anonymous":false,"inputs":[{"indexed":true,"internalType":"address","name":"implementation","type":"address"}],"name":"Upgraded","type":"event"},{"anonymous":false,"inputs":[{"indexed":false,"internalType":"uint256","name":"newPeriod","type":"uint256"}],"name":"VestingPeriodUpdated","type":"event"},{"anonymous":false,"inputs":[{"indexed":true,"internalType":"address","name":"user","type":"address"},{"indexed":false,"internalType":"uint256","name":"amount","type":"uint256"},{"indexed":false,"internalType":"uint256","name":"startTime","type":"uint256"},{"indexed":false,"internalType":"uint256","name":"endTime","type":"uint256"}],"name":"VestingScheduleCreated","type":"event"},{"anonymous":false,"inputs":[{"indexed":false,"internalType":"uint256","name":"newCap","type":"uint256"}],"name":"WalletCapUpdated","type":"event"},{"inputs":[],"name":"UPGRADE_INTERFACE_VERSION","outputs":[{"internalType":"string","name":"","type":"string"}],"stateMutability":"view","type":"function"},{"inputs":[{"internalType":"uint256","name":"amount","type":"uint256"}],"name":"bond","outputs":[],"stateMutability":"nonpayable","type":"function"},{"inputs":[],"name":"completeCurrentRound","outputs":[],"stateMutability":"nonpayable","type":"function"},{"inputs":[],"name":"currentRoundId","outputs":[{"internalType":"uint256","name":"","type":"uint256"}],"stateMutability":"view","type":"function"},{"inputs":[],"name":"epochCap","outputs":[{"internalType":"uint256","name":"","type":"uint256"}],"stateMutability":"view","type":"function"},{"inputs":[],"name":"finalDiscount","outputs":[{"internalType":"uint256","name":"","type":"uint256"}],"stateMutability":"view","type":"function"},{"inputs":[],"name":"fvc","outputs":[{"internalType":"contract IFVC","name":"","type":"address"}],"stateMutability":"view","type":"function"},{"inputs":[],"name":"getCurrentDiscount","outputs":[{"internalType":"uint256","name":"","type":"uint256"}],"stateMutability":"view","type":"function"},{"inputs":[],"name":"getCurrentRound","outputs":[{"components":[{"internalType":"uint256","name":"roundId","type":"uint256"},{"internalType":"uint256","name":"initialDiscount","type":"uint256"},{"internalType":"uint256","name":"finalDiscount","type":"uint256"},{"internalType":"uint256","name":"epochCap","type":"uint256"},{"internalType":"uint256","name":"walletCap","type":"uint256"},{"internalType":"uint256","name":"vestingPeriod","type":"uint256"},{"internalType":"bool","name":"isActive","type":"bool"},{"internalType":"uint256","name":"totalBonded","type":"uint256"}],"internalType":"struct IBonding.RoundConfig","name":"","type":"tuple"}],"stateMutability":"view","type":"function"},{"inputs":[{"internalType":"address","name":"user","type":"address"}],"name":"getVestingSchedule","outputs":[{"components":[{"internalType":"uint256","name":"amount","type":"uint256"},{"internalType":"uint256","name":"startTime","type":"uint256"},{"internalType":"uint256","name":"endTime","type":"uint256"}],"internalType":"struct IBonding.VestingSchedule","name":"","type":"tuple"}],"stateMutability":"view","type":"function"},{"inputs":[],"name":"initialDiscount","outputs":[{"internalType":"uint256","name":"","type":"uint256"}],"stateMutability":"view","type":"function"},{"inputs":[{"internalType":"address","name":"_fvc","type":"address"},{"internalType":"address","name":"_usdc","type":"address"},{"internalType":"address","name":"_treasury","type":"address"},{"internalType":"uint256","name":"_initialDiscount","type":"uint256"},{"internalType":"uint256","name":"_finalDiscount","type":"uint256"},{"internalType":"uint256","name":"_epochCap","type":"uint256"},{"internalType":"uint256","name":"_walletCap","type":"uint256"},{"internalType":"uint256","name":"_vestingPeriod","type":"uint256"}],"name":"initialize","outputs":[],"stateMutability":"nonpayable","type":"function"},{"inputs":[{"internalType":"address","name":"user","type":"address"}],"name":"isLocked","outputs":[{"internalType":"bool","name":"","type":"bool"}],"stateMutability":"view","type":"function"},{"inputs":[],"name":"owner","outputs":[{"internalType":"address","name":"","type":"address"}],"stateMutability":"view","type":"function"},{"inputs":[],"name":"proxiableUUID","outputs":[{"internalType":"bytes32","name":"","type":"bytes32"}],"stateMutability":"view","type":"function"},{"inputs":[],"name":"renounceOwnership","outputs":[],"stateMutability":"nonpayable","type":"function"},{"inputs":[{"internalType":"uint256","name":"","type":"uint256"}],"name":"rounds","outputs":[{"internalType":"uint256","name":"roundId","type":"uint256"},{"internalType":"uint256","name":"initialDiscount","type":"uint256"},{"internalType":"uint256","name":"finalDiscount","type":"uint256"},{"internalType":"uint256","name":"epochCap","type":"uint256"},{"internalType":"uint256","name":"walletCap","type":"uint256"},{"internalType":"uint256","name":"vestingPeriod","type":"uint256"},{"internalType":"bool","name":"isActive","type":"bool"},{"internalType":"uint256","name":"totalBonded","type":"uint256"}],"stateMutability":"view","type":"function"},{"inputs":[{"internalType":"uint256","name":"_epochCap","type":"uint256"}],"name":"setEpochCap","outputs":[],"stateMutability":"nonpayable","type":"function"},{"inputs":[{"internalType":"address","name":"_treasury","type":"address"}],"name":"setTreasury","outputs":[],"stateMutability":"nonpayable","type":"function"},{"inputs":[{"internalType":"uint256","name":"_vestingPeriod","type":"uint256"}],"name":"setVestingPeriod","outputs":[],"stateMutability":"nonpayable","type":"function"},{"inputs":[{"internalType":"uint256","name":"_walletCap","type":"uint256"}],"name":"setWalletCap","outputs":[],"stateMutability":"nonpayable","type":"function"},{"inputs":[{"internalType":"uint256","name":"_initialDiscount","type":"uint256"},{"internalType":"uint256","name":"_finalDiscount","type":"uint256"},{"internalType":"uint256","name":"_epochCap","type":"uint256"},{"internalType":"uint256","name":"_walletCap","type":"uint256"},{"internalType":"uint256","name":"_vestingPeriod","type":"uint256"}],"name":"startNewRound","outputs":[],"stateMutability":"nonpayable","type":"function"},{"inputs":[],"name":"startNextRound","outputs":[],"stateMutability":"nonpayable","type":"function"},{"inputs":[],"name":"totalBonded","outputs":[{"internalType":"uint256","name":"","type":"uint256"}],"stateMutability":"view","type":"function"},{"inputs":[{"internalType":"address","name":"newOwner","type":"address"}],"name":"transferOwnership","outputs":[],"stateMutability":"nonpayable","type":"function"},{"inputs":[],"name":"treasury","outputs":[{"internalType":"address","name":"","type":"address"}],"stateMutability":"view","type":"function"},{"inputs":[{"internalType":"address","name":"newImplementation","type":"address"},{"internalType":"bytes","name":"data","type":"bytes"}],"name":"upgradeToAndCall","outputs":[],"stateMutability":"payable","type":"function"},{"inputs":[],"name":"usdc","outputs":[{"internalType":"contract IERC20","name":"","type":"address"}],"stateMutability":"view","type":"function"},{"inputs":[{"internalType":"uint256","name":"","type":"uint256"},{"internalType":"address","name":"","type":"address"}],"name":"userBonded","outputs":[{"internalType":"uint256","name":"","type":"uint256"}],"stateMutability":"view","type":"function"},{"inputs":[],"name":"vestingPeriod","outputs":[{"internalType":"uint256","name":"","type":"uint256"}],"stateMutability":"view","type":"function"},{"inputs":[{"internalType":"address","name":"","type":"address"}],"name":"vestingSchedules","outputs":[{"internalType":"uint256","name":"amount","type":"uint256"},{"internalType":"uint256","name":"startTime","type":"uint256"},{"internalType":"uint256","name":"endTime","type":"uint256"}],"stateMutability":"view","type":"function"},{"inputs":[],"name":"walletCap","outputs":[{"internalType":"uint256","name":"","type":"uint256"}],"stateMutability":"view","type":"function"}],"evm":{"bytecode":{"linkReferences":{},"object":"60a06040523060805234801561001457600080fd5b5061001d610022565b6100d4565b7ff0c57e16840df040f15088dc2f81fe391c3923bec73e23a9662efc9c229c6a00805468010000000000000000900460ff16156100725760405163f92ee8a960e01b815260040160405180910390fd5b80546001600160401b03908116146100d15780546001600160401b0319166001600160401b0390811782556040519081527fc7f505b2f371ae2175ee4913f4499e1f2633a7b5936321eed1cdaeb6115181d29060200160405180910390a15b50565b6080516122e3620000fe600039600081816118590152818161188201526119c801526122e36000f3fe6080604052600436106101e35760003560e01c80638da5cb5b11610102578063d93de01711610095578063f0eb737a11610064578063f0eb737a14610674578063f0f4426014610689578063f2fde38b146106a9578063fdb20ccb146106c957600080fd5b8063d93de017146105ff578063df8fa43014610614578063e033ebb014610634578063e8ba4b0f1461065457600080fd5b8063a32bf597116100d1578063a32bf597146104f1578063ad3cb1cc14610569578063d06f518b146105a7578063d1c17e38146105df57600080fd5b80638da5cb5b1461043c5780639940686e146104795780639cbe5efd146104995780639f829063146104af57600080fd5b806358950c221161017a578063715018a611610149578063715018a61461035a5780637313ee5a1461036f5780637ec897cd146103855780638c65c81f1461039b57600080fd5b806358950c22146102ee578063610250601461030457806361d027b31461031a57806365a646681461033a57600080fd5b8063473357f1116101b6578063473357f1146102805780634a4fbeec146102965780634f1ef286146102c657806352d1902d146102d957600080fd5b80633c3ccc44146101e85780633e413bee146101ff57806340bee0ed1461023c57806344d96e951461025c575b600080fd5b3480156101f457600080fd5b506101fd610720565b005b34801561020b57600080fd5b5060015461021f906001600160a01b031681565b6040516001600160a01b0390911681526020015b60405180910390f35b34801561024857600080fd5b506101fd610257366004611f3d565b610bf5565b34801561026857600080fd5b50610272600a5481565b604051908152602001610233565b34801561028c57600080fd5b5061027260065481565b3480156102a257600080fd5b506102b66102b1366004611f72565b610c5a565b6040519015158152602001610233565b6101fd6102d4366004611fa3565b610cba565b3480156102e557600080fd5b50610272610cd9565b3480156102fa57600080fd5b5061027260085481565b34801561031057600080fd5b5061027260075481565b34801561032657600080fd5b5060025461021f906001600160a01b031681565b34801561034657600080fd5b506101fd610355366004611f3d565b610cf6565b34801561036657600080fd5b506101fd610d33565b34801561037b57600080fd5b5061027260095481565b34801561039157600080fd5b5061027260055481565b3480156103a757600080fd5b506103ff6103b6366004611f3d565b6004602081905260009182526040909120805460018201546002830154600384015494840154600585015460068601546007909601549496939592949192909160ff9091169088565b604080519889526020890197909752958701949094526060860192909252608085015260a0840152151560c083015260e082015261010001610233565b34801561044857600080fd5b507f9016d09d72d40fdae2fd8ceac6b6234c7706214fd39c1cd1e609a0528c199300546001600160a01b031661021f565b34801561048557600080fd5b506101fd610494366004611f3d565b610d47565b3480156104a557600080fd5b5061027260035481565b3480156104bb57600080fd5b506104cf6104ca366004611f72565b611035565b6040805182518152602080840151908201529181015190820152606001610233565b3480156104fd57600080fd5b5061050661109b565b6040516102339190600061010082019050825182526020830151602083015260408301516040830152606083015160608301526080830151608083015260a083015160a083015260c0830151151560c083015260e083015160e083015292915050565b34801561057557600080fd5b5061059a604051806040016040528060058152602001640352e302e360dc1b81525081565b6040516102339190612089565b3480156105b357600080fd5b506102726105c23660046120bc565b600b60209081526000928352604080842090915290825290205481565b3480156105eb57600080fd5b5060005461021f906001600160a01b031681565b34801561060b57600080fd5b506101fd611157565b34801561062057600080fd5b506101fd61062f3660046120e8565b6111cd565b34801561064057600080fd5b506101fd61064f366004611f3d565b611560565b34801561066057600080fd5b506101fd61066f366004612159565b61159d565b34801561068057600080fd5b50610272611761565b34801561069557600080fd5b506101fd6106a4366004611f72565b61177c565b3480156106b557600080fd5b506101fd6106c4366004611f72565b6117a6565b3480156106d557600080fd5b506107056106e4366004611f72565b600c6020526000908152604090208054600182015460029092015490919083565b60408051938452602084019290925290820152606001610233565b6107286117e9565b6003546000908152600460205260409020600681015460ff161561075f5760405163ccf5bf4560e01b815260040160405180910390fd5b600560035410610782576040516346dc4d3b60e01b815260040160405180910390fd5b60006040518060a001604052806019815260200160148152602001600f8152602001600a81526020016005815250905060006040518060a00160405280600581526020016003815260200160028152602001600181526020016000815250905060006040518060a001604052806304c4b400670de0b6b3a764000061080791906121aa565b81526020016108226303938700670de0b6b3a76400006121aa565b815260200161083d6302625a00670de0b6b3a76400006121aa565b815260200161085762e4e1c0670de0b6b3a76400006121aa565b8152602001610871624c4b40670de0b6b3a76400006121aa565b815250905060006040518060a00160405280627a1200670de0b6b3a764000061089a91906121aa565b81526020016108b4625b8d80670de0b6b3a76400006121aa565b81526020016108ce623d0900670de0b6b3a76400006121aa565b81526020016108e8621e8480670de0b6b3a76400006121aa565b8152602001610902620f4240670de0b6b3a76400006121aa565b815250905060035460008051602061226e833981519152866007015460405161092d91815260200190565b60405180910390a260038054906000610945836121c1565b919050555083600160035461095a91906121da565b6005811061096a5761096a6121ed565b60200201516005556003548390610983906001906121da565b60058110610993576109936121ed565b602002015160065560035482906109ac906001906121da565b600581106109bc576109bc6121ed565b602002015160075560035481906109d5906001906121da565b600581106109e5576109e56121ed565b60200201516008819055506000600a819055506040518061010001604052806003548152602001856001600354610a1c91906121da565b60058110610a2c57610a2c6121ed565b60200201518152602001846001600354610a4691906121da565b60058110610a5657610a566121ed565b60200201518152602001836001600354610a7091906121da565b60058110610a8057610a806121ed565b60200201518152602001826001600354610a9a91906121da565b60058110610aaa57610aaa6121ed565b602090810291909101518252600954828201526001604080840182905260006060948501819052600380548252600480865291839020875181559487015185850155918601516002850155938501518382015560808501519383019390935560a0840151600583015560c084015160068301805460ff191691151591909117905560e09093015160079091015554907ffd9d17e5565deea3d25918d95fc398673b9445ef0a96d12eaf3ab2b198756c65908690610b6790846121da565b60058110610b7757610b776121ed565b6020020151856001600354610b8c91906121da565b60058110610b9c57610b9c6121ed565b6020020151856001600354610bb191906121da565b60058110610bc157610bc16121ed565b6020020151604051610be6939291909283526020830191909152604082015260600190565b60405180910390a25050505050565b610bfd6117e9565b80600003610c1e57604051631b3cc90f60e01b815260040160405180910390fd5b60098190556040518181527fc21cb0f112058f1eb0e3313a577dfc27e6be5b39127591e05245343a422e4915906020015b60405180910390a150565b6001600160a01b0381166000908152600c6020908152604080832081516060810183528154808252600183015494820194909452600290910154918101919091529015801590610cb35750610cb3428260400151611844565b9392505050565b610cc261184e565b610ccb826118f3565b610cd582826118fb565b5050565b6000610ce36119bd565b5060008051602061228e83398151915290565b610cfe6117e9565b60088190556040518181527f4784309e6b1f1431c711eac5e572f9ba2d542ecb5428efc0e927b794f4e8e2c190602001610c4f565b610d3b6117e9565b610d456000611a06565b565b80600003610d685760405163d3590a8360e01b815260040160405180910390fd5b6003546000908152600460205260409020600681015460ff16610d9e5760405163b885dfef60e01b815260040160405180910390fd5b60075482600a54610daf9190612203565b1115610dce5760405163437d78f560e01b815260040160405180910390fd5b6008546003546000908152600b60209081526040808320338452909152902054610df9908490612203565b1115610e18576040516375284bdb60e01b815260040160405180910390fd5b6000610e22611761565b90506000610e308483611a77565b600254600154919250610e52916001600160a01b039081169133911687611af9565b6000546040516340c10f1960e01b8152336004820152602481018390526001600160a01b03909116906340c10f1990604401600060405180830381600087803b158015610e9e57600080fd5b505af1158015610eb2573d6000803e3d6000fd5b5050505083600a6000828254610ec89190612203565b9250508190555083836007016000828254610ee39190612203565b90915550506003546000908152600b6020908152604080832033845290915281208054869290610f14908490612203565b90915550506009544290600090610f2b9083612203565b604080516060810182528581526020808201868152828401858152336000818152600c85528690209451855591516001850155516002909301929092559151898152929350917fd0a009034e24a39106653c4903cf28b1947b8a9964d03206648e0f0a5de74a46910160405180910390a2604080518481526020810184905290810182905233907f892f1a841b10e4b041cc41d8cc47c6a6049f1ff5fa272ddf47a0aa5ad8f59d139060600160405180910390a2600754600a541061102d5760068501805460ff19169055610ffe611b59565b60035460008051602061226e833981519152866007015460405161102491815260200190565b60405180910390a25b505050505050565b61105960405180606001604052806000815260200160008152602001600081525090565b506001600160a01b03166000908152600c6020908152604091829020825160608101845281548152600182015492810192909252600201549181019190915290565b6110e5604051806101000160405280600081526020016000815260200160008152602001600081526020016000815260200160008152602001600015158152602001600081525090565b5060038054600090815260046020818152604092839020835161010081018552815481526001820154928101929092526002810154938201939093529282015460608401528101546080830152600581015460a0830152600681015460ff16151560c08301526007015460e082015290565b61115f6117e9565b6003546000908152600460205260409020600681015460ff166111955760405163b885dfef60e01b815260040160405180910390fd5b60068101805460ff19169055600354600782015460405190815260008051602061226e8339815191529060200160405180910390a250565b60006111d7611be8565b805490915060ff600160401b820416159067ffffffffffffffff166000811580156111ff5750825b905060008267ffffffffffffffff16600114801561121c5750303b155b90508115801561122a575080155b156112485760405163f92ee8a960e01b815260040160405180910390fd5b845467ffffffffffffffff19166001178555831561127257845460ff60401b1916600160401b1785555b61127b33611c11565b611283611c22565b8c6000806101000a8154816001600160a01b0302191690836001600160a01b031602179055508b600160006101000a8154816001600160a01b0302191690836001600160a01b031602179055508a600260006101000a8154816001600160a01b0302191690836001600160a01b03160217905550888a11611317576040516381b8843960e01b815260040160405180910390fd5b8560000361133857604051631b3cc90f60e01b815260040160405180910390fd5b6001600381905560058b905560068a9055600789905560088890556009879055604080516101008101825282815260208082018e81528284018e815260608085018f8152608086018f815260a087018f815260c088018a8152600060e08a01818152908c90526004895298517fabd6e7cb50984ff9c2f3e18a2660c3353dadf4e3291deeb275dae2cd1e44fe055595517fabd6e7cb50984ff9c2f3e18a2660c3353dadf4e3291deeb275dae2cd1e44fe065593517fabd6e7cb50984ff9c2f3e18a2660c3353dadf4e3291deeb275dae2cd1e44fe075590517fabd6e7cb50984ff9c2f3e18a2660c3353dadf4e3291deeb275dae2cd1e44fe0855517fabd6e7cb50984ff9c2f3e18a2660c3353dadf4e3291deeb275dae2cd1e44fe095590517fabd6e7cb50984ff9c2f3e18a2660c3353dadf4e3291deeb275dae2cd1e44fe0a5590517fabd6e7cb50984ff9c2f3e18a2660c3353dadf4e3291deeb275dae2cd1e44fe0b805460ff191691151591909117905591517fabd6e7cb50984ff9c2f3e18a2660c3353dadf4e3291deeb275dae2cd1e44fe0c5582518e81529081018d90529182018b90527ffd9d17e5565deea3d25918d95fc398673b9445ef0a96d12eaf3ab2b198756c65910160405180910390a2831561155157845460ff60401b19168555604051600181527fc7f505b2f371ae2175ee4913f4499e1f2633a7b5936321eed1cdaeb6115181d29060200160405180910390a15b50505050505050505050505050565b6115686117e9565b60078190556040518181527f5f444d43ef974de0a9762ea40d495ac7a320efb6f44e8f1c32505b3cbc026d9c90602001610c4f565b6115a56117e9565b6003546000908152600460205260409020600681015460ff16156115dc5760405163ccf5bf4560e01b815260040160405180910390fd5b8486116115fc576040516381b8843960e01b815260040160405180910390fd5b8160000361161d57604051631b3cc90f60e01b815260040160405180910390fd5b60035460008051602061226e833981519152826007015460405161164391815260200190565b60405180910390a26003805490600061165b836121c1565b9091555050600586815560068681556007868155600886905560098590556000600a81905560408051610100810182526003805480835260208084018f81528486018f8152606086018f8152608087018f815260a088018f8152600160c08a0181815260e08b018d8152988d526004978890529b8b902099518a55945194890194909455915160028801555186860155519185019190915551978301979097559251948101805495151560ff1990961695909517909455935192909101919091555490517ffd9d17e5565deea3d25918d95fc398673b9445ef0a96d12eaf3ab2b198756c6590611024908990899089909283526020830191909152604082015260600190565b6000611777600a54600754600554600654611c2a565b905090565b6117846117e9565b600280546001600160a01b0319166001600160a01b0392909216919091179055565b6117ae6117e9565b6001600160a01b0381166117dd57604051631e4fbdf760e01b8152600060048201526024015b60405180910390fd5b6117e681611a06565b50565b3361181b7f9016d09d72d40fdae2fd8ceac6b6234c7706214fd39c1cd1e609a0528c199300546001600160a01b031690565b6001600160a01b031614610d455760405163118cdaa760e01b81523360048201526024016117d4565b8082105b92915050565b306001600160a01b037f00000000000000000000000000000000000000000000000000000000000000001614806118d557507f00000000000000000000000000000000000000000000000000000000000000006001600160a01b03166118c960008051602061228e833981519152546001600160a01b031690565b6001600160a01b031614155b15610d455760405163703e46dd60e11b815260040160405180910390fd5b6117e66117e9565b816001600160a01b03166352d1902d6040518163ffffffff1660e01b8152600401602060405180830381865afa925050508015611955575060408051601f3d908101601f1916820190925261195291810190612216565b60015b61197d57604051634c9c8ce360e01b81526001600160a01b03831660048201526024016117d4565b60008051602061228e83398151915281146119ae57604051632a87526960e21b8152600481018290526024016117d4565b6119b88383611cb1565b505050565b306001600160a01b037f00000000000000000000000000000000000000000000000000000000000000001614610d455760405163703e46dd60e11b815260040160405180910390fd5b7f9016d09d72d40fdae2fd8ceac6b6234c7706214fd39c1cd1e609a0528c19930080546001600160a01b031981166001600160a01b03848116918217845560405192169182907f8be0079c531659141344cd1fd0a4f28419497f9722a3daafe3b4186f6b6457e090600090a3505050565b60006064821115611aca5760405162461bcd60e51b815260206004820152601b60248201527f446973636f756e742063616e6e6f74206578636565642031303025000000000060448201526064016117d4565b6064611ad68382612203565b611ae090856121aa565b611aea919061222f565b610cb39064e8d4a510006121aa565b604080516001600160a01b0385811660248301528416604482015260648082018490528251808303909101815260849091019091526020810180516001600160e01b03166323b872dd60e01b179052611b53908590611d07565b50505050565b611b616117e9565b6003546000908152600460205260408120905b8160070154811015610cd557336000818152600c6020908152604091829020825160608101845281548082526001830154938201939093526002909101549281019290925215611bde576001600160a01b0382166000908152600c60205260409020426002909101555b5050600101611b74565b6000807ff0c57e16840df040f15088dc2f81fe391c3923bec73e23a9662efc9c229c6a00611848565b611c19611d78565b6117e681611d9d565b610d45611d78565b600084600003611c3b575081611ca9565b838510611c49575080611ca9565b600084611c58876127106121aa565b611c62919061222f565b90506000611c7084866121da565b9050612710611c7f82846121aa565b611c89919061222f565b611c9390866121da565b9250838311611ca25783611ca4565b825b925050505b949350505050565b611cba82611da5565b6040516001600160a01b038316907fbc7cd75a20ee27fd9adebab32041f755214dbc6bffa90cc0225b39da2e5c2d3b90600090a2805115611cff576119b88282611e0a565b610cd5611e80565b600080602060008451602086016000885af180611d2a576040513d6000823e3d81fd5b50506000513d91508115611d42578060011415611d4f565b6001600160a01b0384163b155b15611b5357604051635274afe760e01b81526001600160a01b03851660048201526024016117d4565b611d80611e9f565b610d4557604051631afcd79f60e31b815260040160405180910390fd5b6117ae611d78565b806001600160a01b03163b600003611ddb57604051634c9c8ce360e01b81526001600160a01b03821660048201526024016117d4565b60008051602061228e83398151915280546001600160a01b0319166001600160a01b0392909216919091179055565b6060600080846001600160a01b031684604051611e279190612251565b600060405180830381855af49150503d8060008114611e62576040519150601f19603f3d011682016040523d82523d6000602084013e611e67565b606091505b5091509150611e77858383611eb9565b95945050505050565b3415610d455760405163b398979f60e01b815260040160405180910390fd5b6000611ea9611be8565b54600160401b900460ff16919050565b606082611ece57611ec982611f15565b610cb3565b8151158015611ee557506001600160a01b0384163b155b15611f0e57604051639996b31560e01b81526001600160a01b03851660048201526024016117d4565b5092915050565b805115611f2457805160208201fd5b60405163d6bda27560e01b815260040160405180910390fd5b600060208284031215611f4f57600080fd5b5035919050565b80356001600160a01b0381168114611f6d57600080fd5b919050565b600060208284031215611f8457600080fd5b610cb382611f56565b634e487b7160e01b600052604160045260246000fd5b60008060408385031215611fb657600080fd5b611fbf83611f56565b9150602083013567ffffffffffffffff80821115611fdc57600080fd5b818501915085601f830112611ff057600080fd5b81358181111561200257612002611f8d565b604051601f8201601f19908116603f0116810190838211818310171561202a5761202a611f8d565b8160405282815288602084870101111561204357600080fd5b8260208601602083013760006020848301015280955050505050509250929050565b60005b83811015612080578181015183820152602001612068565b50506000910152565b60208152600082518060208401526120a8816040850160208701612065565b601f01601f19169190910160400192915050565b600080604083850312156120cf57600080fd5b823591506120df60208401611f56565b90509250929050565b600080600080600080600080610100898b03121561210557600080fd5b61210e89611f56565b975061211c60208a01611f56565b965061212a60408a01611f56565b979a96995096976060810135975060808101359660a0820135965060c0820135955060e0909101359350915050565b600080600080600060a0868803121561217157600080fd5b505083359560208501359550604085013594606081013594506080013592509050565b634e487b7160e01b600052601160045260246000fd5b808202811582820484141761184857611848612194565b6000600182016121d3576121d3612194565b5060010190565b8181038181111561184857611848612194565b634e487b7160e01b600052603260045260246000fd5b8082018082111561184857611848612194565b60006020828403121561222857600080fd5b5051919050565b60008261224c57634e487b7160e01b600052601260045260246000fd5b500490565b60008251612263818460208701612065565b919091019291505056fe867bc48474afbd71c32542f493801861b7fa916f53f0e706e1bb8a3f47709c28360894a13ba1a3210667c828492db98dca3e2076cc3735a920a3ca505d382bbca26469706673582212203a9d0bd8ce57126c30586f3dd852633e339fa3bf8e82d3ff86e45b19e86f023264736f6c63430008180033","opcodes":"PUSH1 0xA0 PUSH1 0x40 MSTORE ADDRESS PUSH1 0x80 MSTORE CALLVALUE DUP1 ISZERO PUSH2 0x14 JUMPI PUSH1 0x0 DUP1 REVERT JUMPDEST POP PUSH2 0x1D PUSH2 0x22 JUMP JUMPDEST PUSH2 0xD4 JUMP JUMPDEST PUSH32 0xF0C57E16840DF040F15088DC2F81FE391C3923BEC73E23A9662EFC9C229C6A00 DUP1 SLOAD PUSH9 0x10000000000000000 SWAP1 DIV PUSH1 0xFF AND ISZERO PUSH2 0x72 JUMPI PUSH1 0x40 MLOAD PUSH4 0xF92EE8A9 PUSH1 0xE0 SHL DUP2 MSTORE PUSH1 0x4 ADD PUSH1 0x40 MLOAD DUP1 SWAP2 SUB SWAP1 REVERT JUMPDEST DUP1 SLOAD PUSH1 0x1 PUSH1 0x1 PUSH1 0x40 SHL SUB SWAP1 DUP2 AND EQ PUSH2 0xD1 JUMPI DUP1 SLOAD PUSH1 0x1 PUSH1 0x1 PUSH1 0x40 SHL SUB NOT AND PUSH1 0x1 PUSH1 0x1 PUSH1 0x40 SHL SUB SWAP1 DUP2 OR DUP3 SSTORE PUSH1 0x40 MLOAD SWAP1 DUP2 MSTORE PUSH32 0xC7F505B2F371AE2175EE4913F4499E1F2633A7B5936321EED1CDAEB6115181D2 SWAP1 PUSH1 0x20 ADD PUSH1 0x40 MLOAD DUP1 SWAP2 SUB SWAP1 LOG1 JUMPDEST POP JUMP JUMPDEST PUSH1 0x80 MLOAD PUSH2 0x22E3 PUSH3 0xFE PUSH1 0x0 CODECOPY PUSH1 0x0 DUP2 DUP2 PUSH2 0x1859 ADD MSTORE DUP2 DUP2 PUSH2 0x1882 ADD MSTORE PUSH2 0x19C8 ADD MSTORE PUSH2 0x22E3 PUSH1 0x0 RETURN INVALID PUSH1 0x80 PUSH1 0x40 MSTORE PUSH1 0x4 CALLDATASIZE LT PUSH2 0x1E3 JUMPI PUSH1 0x0 CALLDATALOAD PUSH1 0xE0 SHR DUP1 PUSH4 0x8DA5CB5B GT PUSH2 0x102 JUMPI DUP1 PUSH4 0xD93DE017 GT PUSH2 0x95 JUMPI DUP1 PUSH4 0xF0EB737A GT PUSH2 0x64 JUMPI DUP1 PUSH4 0xF0EB737A EQ PUSH2 0x674 JUMPI DUP1 PUSH4 0xF0F44260 EQ PUSH2 0x689 JUMPI DUP1 PUSH4 0xF2FDE38B EQ PUSH2 0x6A9 JUMPI DUP1 PUSH4 0xFDB20CCB EQ PUSH2 0x6C9 JUMPI PUSH1 0x0 DUP1 REVERT JUMPDEST DUP1 PUSH4 0xD93DE017 EQ PUSH2 0x5FF JUMPI DUP1 PUSH4 0xDF8FA430 EQ PUSH2 0x614 JUMPI DUP1 PUSH4 0xE033EBB0 EQ PUSH2 0x634 JUMPI DUP1 PUSH4 0xE8BA4B0F EQ PUSH2 0x654 JUMPI PUSH1 0x0 DUP1 REVERT JUMPDEST DUP1 PUSH4 0xA32BF597 GT PUSH2 0xD1 JUMPI DUP1 PUSH4 0xA32BF597 EQ PUSH2 0x4F1 JUMPI DUP1 PUSH4 0xAD3CB1CC EQ PUSH2 0x569 JUMPI DUP1 PUSH4 0xD06F518B EQ PUSH2 0x5A7 JUMPI DUP1 PUSH4 0xD1C17E38 EQ PUSH2 0x5DF JUMPI PUSH1 0x0 DUP1 REVERT JUMPDEST DUP1 PUSH4 0x8DA5CB5B EQ PUSH2 0x43C JUMPI DUP1 PUSH4 0x9940686E EQ PUSH2 0x479 JUMPI DUP1 PUSH4 0x9CBE5EFD EQ PUSH2 0x499 JUMPI DUP1 PUSH4 0x9F829063 EQ PUSH2 0x4AF JUMPI PUSH1 0x0 DUP1 REVERT JUMPDEST DUP1 PUSH4 0x58950C22 GT PUSH2 0x17A JUMPI DUP1 PUSH4 0x715018A6 GT PUSH2 0x149 JUMPI DUP1 PUSH4 0x715018A6 EQ PUSH2 0x35A JUMPI DUP1 PUSH4 0x7313EE5A EQ PUSH2 0x36F JUMPI DUP1 PUSH4 0x7EC897CD EQ PUSH2 0x385 JUMPI DUP1 PUSH4 0x8C65C81F EQ PUSH2 0x39B JUMPI PUSH1 0x0 DUP1 REVERT JUMPDEST DUP1 PUSH4 0x58950C22 EQ PUSH2 0x2EE JUMPI DUP1 PUSH4 0x61025060 EQ PUSH2 0x304 JUMPI DUP1 PUSH4 0x61D027B3 EQ PUSH2 0x31A JUMPI DUP1 PUSH4 0x65A64668 EQ PUSH2 0x33A JUMPI PUSH1 0x0 DUP1 REVERT JUMPDEST DUP1 PUSH4 0x473357F1 GT PUSH2 0x1B6 JUMPI DUP1 PUSH4 0x473357F1 EQ PUSH2 0x280 JUMPI DUP1 PUSH4 0x4A4FBEEC EQ PUSH2 0x296 JUMPI DUP1 PUSH4 0x4F1EF286 EQ PUSH2 0x2C6 JUMPI DUP1 PUSH4 0x52D1902D EQ PUSH2 0x2D9 JUMPI PUSH1 0x0 DUP1 REVERT JUMPDEST DUP1 PUSH4 0x3C3CCC44 EQ PUSH2 0x1E8 JUMPI DUP1 PUSH4 0x3E413BEE EQ PUSH2 0x1FF JUMPI DUP1 PUSH4 0x40BEE0ED EQ PUSH2 0x23C JUMPI DUP1 PUSH4 0x44D96E95 EQ PUSH2 0x25C JUMPI JUMPDEST PUSH1 0x0 DUP1 REVERT JUMPDEST CALLVALUE DUP1 ISZERO PUSH2 0x1F4 JUMPI PUSH1 0x0 DUP1 REVERT JUMPDEST POP PUSH2 0x1FD PUSH2 0x720 JUMP JUMPDEST STOP JUMPDEST CALLVALUE DUP1 ISZERO PUSH2 0x20B JUMPI PUSH1 0x0 DUP1 REVERT JUMPDEST POP PUSH1 0x1 SLOAD PUSH2 0x21F SWAP1 PUSH1 0x1 PUSH1 0x1 PUSH1 0xA0 SHL SUB AND DUP2 JUMP JUMPDEST PUSH1 0x40 MLOAD PUSH1 0x1 PUSH1 0x1 PUSH1 0xA0 SHL SUB SWAP1 SWAP2 AND DUP2 MSTORE PUSH1 0x20 ADD JUMPDEST PUSH1 0x40 MLOAD DUP1 SWAP2 SUB SWAP1 RETURN JUMPDEST CALLVALUE DUP1 ISZERO PUSH2 0x248 JUMPI PUSH1 0x0 DUP1 REVERT JUMPDEST POP PUSH2 0x1FD PUSH2 0x257 CALLDATASIZE PUSH1 0x4 PUSH2 0x1F3D JUMP JUMPDEST PUSH2 0xBF5 JUMP JUMPDEST CALLVALUE DUP1 ISZERO PUSH2 0x268 JUMPI PUSH1 0x0 DUP1 REVERT JUMPDEST POP PUSH2 0x272 PUSH1 0xA SLOAD DUP2 JUMP JUMPDEST PUSH1 0x40 MLOAD SWAP1 DUP2 MSTORE PUSH1 0x20 ADD PUSH2 0x233 JUMP JUMPDEST CALLVALUE DUP1 ISZERO PUSH2 0x28C JUMPI PUSH1 0x0 DUP1 REVERT JUMPDEST POP PUSH2 0x272 PUSH1 0x6 SLOAD DUP2 JUMP JUMPDEST CALLVALUE DUP1 ISZERO PUSH2 0x2A2 JUMPI PUSH1 0x0 DUP1 REVERT JUMPDEST POP PUSH2 0x2B6 PUSH2 0x2B1 CALLDATASIZE PUSH1 0x4 PUSH2 0x1F72 JUMP JUMPDEST PUSH2 0xC5A JUMP JUMPDEST PUSH1 0x40 MLOAD SWAP1 ISZERO ISZERO DUP2 MSTORE PUSH1 0x20 ADD PUSH2 0x233 JUMP JUMPDEST PUSH2 0x1FD PUSH2 0x2D4 CALLDATASIZE PUSH1 0x4 PUSH2 0x1FA3 JUMP JUMPDEST PUSH2 0xCBA JUMP JUMPDEST CALLVALUE DUP1 ISZERO PUSH2 0x2E5 JUMPI PUSH1 0x0 DUP1 REVERT JUMPDEST POP PUSH2 0x272 PUSH2 0xCD9 JUMP JUMPDEST CALLVALUE DUP1 ISZERO PUSH2 0x2FA JUMPI PUSH1 0x0 DUP1 REVERT JUMPDEST POP PUSH2 0x272 PUSH1 0x8 SLOAD DUP2 JUMP JUMPDEST CALLVALUE DUP1 ISZERO PUSH2 0x310 JUMPI PUSH1 0x0 DUP1 REVERT JUMPDEST POP PUSH2 0x272 PUSH1 0x7 SLOAD DUP2 JUMP JUMPDEST CALLVALUE DUP1 ISZERO PUSH2 0x326 JUMPI PUSH1 0x0 DUP1 REVERT JUMPDEST POP PUSH1 0x2 SLOAD PUSH2 0x21F SWAP1 PUSH1 0x1 PUSH1 0x1 PUSH1 0xA0 SHL SUB AND DUP2 JUMP JUMPDEST CALLVALUE DUP1 ISZERO PUSH2 0x346 JUMPI PUSH1 0x0 DUP1 REVERT JUMPDEST POP PUSH2 0x1FD PUSH2 0x355 CALLDATASIZE PUSH1 0x4 PUSH2 0x1F3D JUMP JUMPDEST PUSH2 0xCF6 JUMP JUMPDEST CALLVALUE DUP1 ISZERO PUSH2 0x366 JUMPI PUSH1 0x0 DUP1 REVERT JUMPDEST POP PUSH2 0x1FD PUSH2 0xD33 JUMP JUMPDEST CALLVALUE DUP1 ISZERO PUSH2 0x37B JUMPI PUSH1 0x0 DUP1 REVERT JUMPDEST POP PUSH2 0x272 PUSH1 0x9 SLOAD DUP2 JUMP JUMPDEST CALLVALUE DUP1 ISZERO PUSH2 0x391 JUMPI PUSH1 0x0 DUP1 REVERT JUMPDEST POP PUSH2 0x272 PUSH1 0x5 SLOAD DUP2 JUMP JUMPDEST CALLVALUE DUP1 ISZERO PUSH2 0x3A7 JUMPI PUSH1 0x0 DUP1 REVERT JUMPDEST POP PUSH2 0x3FF PUSH2 0x3B6 CALLDATASIZE PUSH1 0x4 PUSH2 0x1F3D JUMP JUMPDEST PUSH1 0x4 PUSH1 0x20 DUP2 SWAP1 MSTORE PUSH1 0x0 SWAP2 DUP3 MSTORE PUSH1 0x40 SWAP1 SWAP2 KECCAK256 DUP1 SLOAD PUSH1 0x1 DUP3 ADD SLOAD PUSH1 0x2 DUP4 ADD SLOAD PUSH1 0x3 DUP5 ADD SLOAD SWAP5 DUP5 ADD SLOAD PUSH1 0x5 DUP6 ADD SLOAD PUSH1 0x6 DUP7 ADD SLOAD PUSH1 0x7 SWAP1 SWAP7 ADD SLOAD SWAP5 SWAP7 SWAP4 SWAP6 SWAP3 SWAP5 SWAP2 SWAP3 SWAP1 SWAP2 PUSH1 0xFF SWAP1 SWAP2 AND SWAP1 DUP9 JUMP JUMPDEST PUSH1 0x40 DUP1 MLOAD SWAP9 DUP10 MSTORE PUSH1 0x20 DUP10 ADD SWAP8 SWAP1 SWAP8 MSTORE SWAP6 DUP8 ADD SWAP5 SWAP1 SWAP5 MSTORE PUSH1 0x60 DUP7 ADD SWAP3 SWAP1 SWAP3 MSTORE PUSH1 0x80 DUP6 ADD MSTORE PUSH1 0xA0 DUP5 ADD MSTORE ISZERO ISZERO PUSH1 0xC0 DUP4 ADD MSTORE PUSH1 0xE0 DUP3 ADD MSTORE PUSH2 0x100 ADD PUSH2 0x233 JUMP JUMPDEST CALLVALUE DUP1 ISZERO PUSH2 0x448 JUMPI PUSH1 0x0 DUP1 REVERT JUMPDEST POP PUSH32 0x9016D09D72D40FDAE2FD8CEAC6B6234C7706214FD39C1CD1E609A0528C199300 SLOAD PUSH1 0x1 PUSH1 0x1 PUSH1 0xA0 SHL SUB AND PUSH2 0x21F JUMP JUMPDEST CALLVALUE DUP1 ISZERO PUSH2 0x485 JUMPI PUSH1 0x0 DUP1 REVERT JUMPDEST POP PUSH2 0x1FD PUSH2 0x494 CALLDATASIZE PUSH1 0x4 PUSH2 0x1F3D JUMP JUMPDEST PUSH2 0xD47 JUMP JUMPDEST CALLVALUE DUP1 ISZERO PUSH2 0x4A5 JUMPI PUSH1 0x0 DUP1 REVERT JUMPDEST POP PUSH2 0x272 PUSH1 0x3 SLOAD DUP2 JUMP JUMPDEST CALLVALUE DUP1 ISZERO PUSH2 0x4BB JUMPI PUSH1 0x0 DUP1 REVERT JUMPDEST POP PUSH2 0x4CF PUSH2 0x4CA CALLDATASIZE PUSH1 0x4 PUSH2 0x1F72 JUMP JUMPDEST PUSH2 0x1035 JUMP JUMPDEST PUSH1 0x40 DUP1 MLOAD DUP3 MLOAD DUP2 MSTORE PUSH1 0x20 DUP1 DUP5 ADD MLOAD SWAP1 DUP3 ADD MSTORE SWAP2 DUP2 ADD MLOAD SWAP1 DUP3 ADD MSTORE PUSH1 0x60 ADD PUSH2 0x233 JUMP JUMPDEST CALLVALUE DUP1 ISZERO PUSH2 0x4FD JUMPI PUSH1 0x0 DUP1 REVERT JUMPDEST POP PUSH2 0x506 PUSH2 0x109B JUMP JUMPDEST PUSH1 0x40 MLOAD PUSH2 0x233 SWAP2 SWAP1 PUSH1 0x0 PUSH2 0x100 DUP3 ADD SWAP1 POP DUP3 MLOAD DUP3 MSTORE PUSH1 0x20 DUP4 ADD MLOAD PUSH1 0x20 DUP4 ADD MSTORE PUSH1 0x40 DUP4 ADD MLOAD PUSH1 0x40 DUP4 ADD MSTORE PUSH1 0x60 DUP4 ADD MLOAD PUSH1 0x60 DUP4 ADD MSTORE PUSH1 0x80 DUP4 ADD MLOAD PUSH1 0x80 DUP4 ADD MSTORE PUSH1 0xA0 DUP4 ADD MLOAD PUSH1 0xA0 DUP4 ADD MSTORE PUSH1 0xC0 DUP4 ADD MLOAD ISZERO ISZERO PUSH1 0xC0 DUP4 ADD MSTORE PUSH1 0xE0 DUP4 ADD MLOAD PUSH1 0xE0 DUP4 ADD MSTORE SWAP3 SWAP2 POP POP JUMP JUMPDEST CALLVALUE DUP1 ISZERO PUSH2 0x575 JUMPI PUSH1 0x0 DUP1 REVERT JUMPDEST POP PUSH2 0x59A PUSH1 0x40 MLOAD DUP1 PUSH1 0x40 ADD PUSH1 0x40 MSTORE DUP1 PUSH1 0x5 DUP2 MSTORE PUSH1 0x20 ADD PUSH5 0x352E302E3 PUSH1 0xDC SHL DUP2 MSTORE POP DUP2 JUMP JUMPDEST PUSH1 0x40 MLOAD PUSH2 0x233 SWAP2 SWAP1 PUSH2 0x2089 JUMP JUMPDEST CALLVALUE DUP1 ISZERO PUSH2 0x5B3 JUMPI PUSH1 0x0 DUP1 REVERT JUMPDEST POP PUSH2 0x272 PUSH2 0x5C2 CALLDATASIZE PUSH1 0x4 PUSH2 0x20BC JUMP JUMPDEST PUSH1 0xB PUSH1 0x20 SWAP1 DUP2 MSTORE PUSH1 0x0 SWAP3 DUP4 MSTORE PUSH1 0x40 DUP1 DUP5 KECCAK256 SWAP1 SWAP2 MSTORE SWAP1 DUP3 MSTORE SWAP1 KECCAK256 SLOAD DUP2 JUMP JUMPDEST CALLVALUE DUP1 ISZERO PUSH2 0x5EB JUMPI PUSH1 0x0 DUP1 REVERT JUMPDEST POP PUSH1 0x0 SLOAD PUSH2 0x21F SWAP1 PUSH1 0x1 PUSH1 0x1 PUSH1 0xA0 SHL SUB AND DUP2 JUMP JUMPDEST CALLVALUE DUP1 ISZERO PUSH2 0x60B JUMPI PUSH1 0x0 DUP1 REVERT JUMPDEST POP PUSH2 0x1FD PUSH2 0x1157 JUMP JUMPDEST CALLVALUE DUP1 ISZERO PUSH2 0x620 JUMPI PUSH1 0x0 DUP1 REVERT JUMPDEST POP PUSH2 0x1FD PUSH2 0x62F CALLDATASIZE PUSH1 0x4 PUSH2 0x20E8 JUMP JUMPDEST PUSH2 0x11CD JUMP JUMPDEST CALLVALUE DUP1 ISZERO PUSH2 0x640 JUMPI PUSH1 0x0 DUP1 REVERT JUMPDEST POP PUSH2 0x1FD PUSH2 0x64F CALLDATASIZE PUSH1 0x4 PUSH2 0x1F3D JUMP JUMPDEST PUSH2 0x1560 JUMP JUMPDEST CALLVALUE DUP1 ISZERO PUSH2 0x660 JUMPI PUSH1 0x0 DUP1 REVERT JUMPDEST POP PUSH2 0x1FD PUSH2 0x66F CALLDATASIZE PUSH1 0x4 PUSH2 0x2159 JUMP JUMPDEST PUSH2 0x159D JUMP JUMPDEST CALLVALUE DUP1 ISZERO PUSH2 0x680 JUMPI PUSH1 0x0 DUP1 REVERT JUMPDEST POP PUSH2 0x272 PUSH2 0x1761 JUMP JUMPDEST CALLVALUE DUP1 ISZERO PUSH2 0x695 JUMPI PUSH1 0x0 DUP1 REVERT JUMPDEST POP PUSH2 0x1FD PUSH2 0x6A4 CALLDATASIZE PUSH1 0x4 PUSH2 0x1F72 JUMP JUMPDEST PUSH2 0x177C JUMP JUMPDEST CALLVALUE DUP1 ISZERO PUSH2 0x6B5 JUMPI PUSH1 0x0 DUP1 REVERT JUMPDEST POP PUSH2 0x1FD PUSH2 0x6C4 CALLDATASIZE PUSH1 0x4 PUSH2 0x1F72 JUMP JUMPDEST PUSH2 0x17A6 JUMP JUMPDEST CALLVALUE DUP1 ISZERO PUSH2 0x6D5 JUMPI PUSH1 0x0 DUP1 REVERT JUMPDEST POP PUSH2 0x705 PUSH2 0x6E4 CALLDATASIZE PUSH1 0x4 PUSH2 0x1F72 JUMP JUMPDEST PUSH1 0xC PUSH1 0x20 MSTORE PUSH1 0x0 SWAP1 DUP2 MSTORE PUSH1 0x40 SWAP1 KECCAK256 DUP1 SLOAD PUSH1 0x1 DUP3 ADD SLOAD PUSH1 0x2 SWAP1 SWAP3 ADD SLOAD SWAP1 SWAP2 SWAP1 DUP4 JUMP JUMPDEST PUSH1 0x40 DUP1 MLOAD SWAP4 DUP5 MSTORE PUSH1 0x20 DUP5 ADD SWAP3 SWAP1 SWAP3 MSTORE SWAP1 DUP3 ADD MSTORE PUSH1 0x60 ADD PUSH2 0x233 JUMP JUMPDEST PUSH2 0x728 PUSH2 0x17E9 JUMP JUMPDEST PUSH1 0x3 SLOAD PUSH1 0x0 SWAP1 DUP2 MSTORE PUSH1 0x4 PUSH1 0x20 MSTORE PUSH1 0x40 SWAP1 KECCAK256 PUSH1 0x6 DUP2 ADD SLOAD PUSH1 0xFF AND ISZERO PUSH2 0x75F JUMPI PUSH1 0x40 MLOAD PUSH4 0xCCF5BF45 PUSH1 0xE0 SHL DUP2 MSTORE PUSH1 0x4 ADD PUSH1 0x40 MLOAD DUP1 SWAP2 SUB SWAP1 REVERT JUMPDEST PUSH1 0x5 PUSH1 0x3 SLOAD LT PUSH2 0x782 JUMPI PUSH1 0x40 MLOAD PUSH4 0x46DC4D3B PUSH1 0xE0 SHL DUP2 MSTORE PUSH1 0x4 ADD PUSH1 0x40 MLOAD DUP1 SWAP2 SUB SWAP1 REVERT JUMPDEST PUSH1 0x0 PUSH1 0x40 MLOAD DUP1 PUSH1 0xA0 ADD PUSH1 0x40 MSTORE DUP1 PUSH1 0x19 DUP2 MSTORE PUSH1 0x20 ADD PUSH1 0x14 DUP2 MSTORE PUSH1 0x20 ADD PUSH1 0xF DUP2 MSTORE PUSH1 0x20 ADD PUSH1 0xA DUP2 MSTORE PUSH1 0x20 ADD PUSH1 0x5 DUP2 MSTORE POP SWAP1 POP PUSH1 0x0 PUSH1 0x40 MLOAD DUP1 PUSH1 0xA0 ADD PUSH1 0x40 MSTORE DUP1 PUSH1 0x5 DUP2 MSTORE PUSH1 0x20 ADD PUSH1 0x3 DUP2 MSTORE PUSH1 0x20 ADD PUSH1 0x2 DUP2 MSTORE PUSH1 0x20 ADD PUSH1 0x1 DUP2 MSTORE PUSH1 0x20 ADD PUSH1 0x0 DUP2 MSTORE POP SWAP1 POP PUSH1 0x0 PUSH1 0x40 MLOAD DUP1 PUSH1 0xA0 ADD PUSH1 0x40 MSTORE DUP1 PUSH4 0x4C4B400 PUSH8 0xDE0B6B3A7640000 PUSH2 0x807 SWAP2 SWAP1 PUSH2 0x21AA JUMP JUMPDEST DUP2 MSTORE PUSH1 0x20 ADD PUSH2 0x822 PUSH4 0x3938700 PUSH8 0xDE0B6B3A7640000 PUSH2 0x21AA JUMP JUMPDEST DUP2 MSTORE PUSH1 0x20 ADD PUSH2 0x83D PUSH4 0x2625A00 PUSH8 0xDE0B6B3A7640000 PUSH2 0x21AA JUMP JUMPDEST DUP2 MSTORE PUSH1 0x20 ADD PUSH2 0x857 PUSH3 0xE4E1C0 PUSH8 0xDE0B6B3A7640000 PUSH2 0x21AA JUMP JUMPDEST DUP2 MSTORE PUSH1 0x20 ADD PUSH2 0x871 PUSH3 0x4C4B40 PUSH8 0xDE0B6B3A7640000 PUSH2 0x21AA JUMP JUMPDEST DUP2 MSTORE POP SWAP1 POP PUSH1 0x0 PUSH1 0x40 MLOAD DUP1 PUSH1 0xA0 ADD PUSH1 0x40 MSTORE DUP1 PUSH3 0x7A1200 PUSH8 0xDE0B6B3A7640000 PUSH2 0x89A SWAP2 SWAP1 PUSH2 0x21AA JUMP JUMPDEST DUP2 MSTORE PUSH1 0x20 ADD PUSH2 0x8B4 PUSH3 0x5B8D80 PUSH8 0xDE0B6B3A7640000 PUSH2 0x21AA JUMP JUMPDEST DUP2 MSTORE PUSH1 0x20 ADD PUSH2 0x8CE PUSH3 0x3D0900 PUSH8 0xDE0B6B3A7640000 PUSH2 0x21AA JUMP JUMPDEST DUP2 MSTORE PUSH1 0x20 ADD PUSH2 0x8E8 PUSH3 0x1E8480 PUSH8 0xDE0B6B3A7640000 PUSH2 0x21AA JUMP JUMPDEST DUP2 MSTORE PUSH1 0x20 ADD PUSH2 0x902 PUSH3 0xF4240 PUSH8 0xDE0B6B3A7640000 PUSH2 0x21AA JUMP JUMPDEST DUP2 MSTORE POP SWAP1 POP PUSH1 0x3 SLOAD PUSH1 0x0 DUP1 MLOAD PUSH1 0x20 PUSH2 0x226E DUP4 CODECOPY DUP2 MLOAD SWAP2 MSTORE DUP7 PUSH1 0x7 ADD SLOAD PUSH1 0x40 MLOAD PUSH2 0x92D SWAP2 DUP2 MSTORE PUSH1 0x20 ADD SWAP1 JUMP JUMPDEST PUSH1 0x40 MLOAD DUP1 SWAP2 SUB SWAP1 LOG2 PUSH1 0x3 DUP1 SLOAD SWAP1 PUSH1 0x0 PUSH2 0x945 DUP4 PUSH2 0x21C1 JUMP JUMPDEST SWAP2 SWAP1 POP SSTORE POP DUP4 PUSH1 0x1 PUSH1 0x3 SLOAD PUSH2 0x95A SWAP2 SWAP1 PUSH2 0x21DA JUMP JUMPDEST PUSH1 0x5 DUP2 LT PUSH2 0x96A JUMPI PUSH2 0x96A PUSH2 0x21ED JUMP JUMPDEST PUSH1 0x20 MUL ADD MLOAD PUSH1 0x5 SSTORE PUSH1 0x3 SLOAD DUP4 SWAP1 PUSH2 0x983 SWAP1 PUSH1 0x1 SWAP1 PUSH2 0x21DA JUMP JUMPDEST PUSH1 0x5 DUP2 LT PUSH2 0x993 JUMPI PUSH2 0x993 PUSH2 0x21ED JUMP JUMPDEST PUSH1 0x20 MUL ADD MLOAD PUSH1 0x6 SSTORE PUSH1 0x3 SLOAD DUP3 SWAP1 PUSH2 0x9AC SWAP1 PUSH1 0x1 SWAP1 PUSH2 0x21DA JUMP JUMPDEST PUSH1 0x5 DUP2 LT PUSH2 0x9BC JUMPI PUSH2 0x9BC PUSH2 0x21ED JUMP JUMPDEST PUSH1 0x20 MUL ADD MLOAD PUSH1 0x7 SSTORE PUSH1 0x3 SLOAD DUP2 SWAP1 PUSH2 0x9D5 SWAP1 PUSH1 0x1 SWAP1 PUSH2 0x21DA JUMP JUMPDEST PUSH1 0x5 DUP2 LT PUSH2 0x9E5 JUMPI PUSH2 0x9E5 PUSH2 0x21ED JUMP JUMPDEST PUSH1 0x20 MUL ADD MLOAD PUSH1 0x8 DUP2 SWAP1 SSTORE POP PUSH1 0x0 PUSH1 0xA DUP2 SWAP1 SSTORE POP PUSH1 0x40 MLOAD DUP1 PUSH2 0x100 ADD PUSH1 0x40 MSTORE DUP1 PUSH1 0x3 SLOAD DUP2 MSTORE PUSH1 0x20 ADD DUP6 PUSH1 0x1 PUSH1 0x3 SLOAD PUSH2 0xA1C SWAP2 SWAP1 PUSH2 0x21DA JUMP JUMPDEST PUSH1 0x5 DUP2 LT PUSH2 0xA2C JUMPI PUSH2 0xA2C PUSH2 0x21ED JUMP JUMPDEST PUSH1 0x20 MUL ADD MLOAD DUP2 MSTORE PUSH1 0x20 ADD DUP5 PUSH1 0x1 PUSH1 0x3 SLOAD PUSH2 0xA46 SWAP2 SWAP1 PUSH2 0x21DA JUMP JUMPDEST PUSH1 0x5 DUP2 LT PUSH2 0xA56 JUMPI PUSH2 0xA56 PUSH2 0x21ED JUMP JUMPDEST PUSH1 0x20 MUL ADD MLOAD DUP2 MSTORE PUSH1 0x20 ADD DUP4 PUSH1 0x1 PUSH1 0x3 SLOAD PUSH2 0xA70 SWAP2 SWAP1 PUSH2 0x21DA JUMP JUMPDEST PUSH1 0x5 DUP2 LT PUSH2 0xA80 JUMPI PUSH2 0xA80 PUSH2 0x21ED JUMP JUMPDEST PUSH1 0x20 MUL ADD MLOAD DUP2 MSTORE PUSH1 0x20 ADD DUP3 PUSH1 0x1 PUSH1 0x3 SLOAD PUSH2 0xA9A SWAP2 SWAP1 PUSH2 0x21DA JUMP JUMPDEST PUSH1 0x5 DUP2 LT PUSH2 0xAAA JUMPI PUSH2 0xAAA PUSH2 0x21ED JUMP JUMPDEST PUSH1 0x20 SWAP1 DUP2 MUL SWAP2 SWAP1 SWAP2 ADD MLOAD DUP3 MSTORE PUSH1 0x9 SLOAD DUP3 DUP3 ADD MSTORE PUSH1 0x1 PUSH1 0x40 DUP1 DUP5 ADD DUP3 SWAP1 MSTORE PUSH1 0x0 PUSH1 0x60 SWAP5 DUP6 ADD DUP2 SWAP1 MSTORE PUSH1 0x3 DUP1 SLOAD DUP3 MSTORE PUSH1 0x4 DUP1 DUP7 MSTORE SWAP2 DUP4 SWAP1 KECCAK256 DUP8 MLOAD DUP2 SSTORE SWAP5 DUP8 ADD MLOAD DUP6 DUP6 ADD SSTORE SWAP2 DUP7 ADD MLOAD PUSH1 0x2 DUP6 ADD SSTORE SWAP4 DUP6 ADD MLOAD DUP4 DUP3 ADD SSTORE PUSH1 0x80 DUP6 ADD MLOAD SWAP4 DUP4 ADD SWAP4 SWAP1 SWAP4 SSTORE PUSH1 0xA0 DUP5 ADD MLOAD PUSH1 0x5 DUP4 ADD SSTORE PUSH1 0xC0 DUP5 ADD MLOAD PUSH1 0x6 DUP4 ADD DUP1 SLOAD PUSH1 0xFF NOT AND SWAP2 ISZERO ISZERO SWAP2 SWAP1 SWAP2 OR SWAP1 SSTORE PUSH1 0xE0 SWAP1 SWAP4 ADD MLOAD PUSH1 0x7 SWAP1 SWAP2 ADD SSTORE SLOAD SWAP1 PUSH32 0xFD9D17E5565DEEA3D25918D95FC398673B9445EF0A96D12EAF3AB2B198756C65 SWAP1 DUP7 SWAP1 PUSH2 0xB67 SWAP1 DUP5 PUSH2 0x21DA JUMP JUMPDEST PUSH1 0x5 DUP2 LT PUSH2 0xB77 JUMPI PUSH2 0xB77 PUSH2 0x21ED JUMP JUMPDEST PUSH1 0x20 MUL ADD MLOAD DUP6 PUSH1 0x1 PUSH1 0x3 SLOAD PUSH2 0xB8C SWAP2 SWAP1 PUSH2 0x21DA JUMP JUMPDEST PUSH1 0x5 DUP2 LT PUSH2 0xB9C JUMPI PUSH2 0xB9C PUSH2 0x21ED JUMP JUMPDEST PUSH1 0x20 MUL ADD MLOAD DUP6 PUSH1 0x1 PUSH1 0x3 SLOAD PUSH2 0xBB1 SWAP2 SWAP1 PUSH2 0x21DA JUMP JUMPDEST PUSH1 0x5 DUP2 LT PUSH2 0xBC1 JUMPI PUSH2 0xBC1 PUSH2 0x21ED JUMP JUMPDEST PUSH1 0x20 MUL ADD MLOAD PUSH1 0x40 MLOAD PUSH2 0xBE6 SWAP4 SWAP3 SWAP2 SWAP1 SWAP3 DUP4 MSTORE PUSH1 0x20 DUP4 ADD SWAP2 SWAP1 SWAP2 MSTORE PUSH1 0x40 DUP3 ADD MSTORE PUSH1 0x60 ADD SWAP1 JUMP JUMPDEST PUSH1 0x40 MLOAD DUP1 SWAP2 SUB SWAP1 LOG2 POP POP POP POP POP JUMP JUMPDEST PUSH2 0xBFD PUSH2 0x17E9 JUMP JUMPDEST DUP1 PUSH1 0x0 SUB PUSH2 0xC1E JUMPI PUSH1 0x40 MLOAD PUSH4 0x1B3CC90F PUSH1 0xE0 SHL DUP2 MSTORE PUSH1 0x4 ADD PUSH1 0x40 MLOAD DUP1 SWAP2 SUB SWAP1 REVERT JUMPDEST PUSH1 0x9 DUP2 SWAP1 SSTORE PUSH1 0x40 MLOAD DUP2 DUP2 MSTORE PUSH32 0xC21CB0F112058F1EB0E3313A577DFC27E6BE5B39127591E05245343A422E4915 SWAP1 PUSH1 0x20 ADD JUMPDEST PUSH1 0x40 MLOAD DUP1 SWAP2 SUB SWAP1 LOG1 POP JUMP JUMPDEST PUSH1 0x1 PUSH1 0x1 PUSH1 0xA0 SHL SUB DUP2 AND PUSH1 0x0 SWAP1 DUP2 MSTORE PUSH1 0xC PUSH1 0x20 SWAP1 DUP2 MSTORE PUSH1 0x40 DUP1 DUP4 KECCAK256 DUP2 MLOAD PUSH1 0x60 DUP2 ADD DUP4 MSTORE DUP2 SLOAD DUP1 DUP3 MSTORE PUSH1 0x1 DUP4 ADD SLOAD SWAP5 DUP3 ADD SWAP5 SWAP1 SWAP5 MSTORE PUSH1 0x2 SWAP1 SWAP2 ADD SLOAD SWAP2 DUP2 ADD SWAP2 SWAP1 SWAP2 MSTORE SWAP1 ISZERO DUP1 ISZERO SWAP1 PUSH2 0xCB3 JUMPI POP PUSH2 0xCB3 TIMESTAMP DUP3 PUSH1 0x40 ADD MLOAD PUSH2 0x1844 JUMP JUMPDEST SWAP4 SWAP3 POP POP POP JUMP JUMPDEST PUSH2 0xCC2 PUSH2 0x184E JUMP JUMPDEST PUSH2 0xCCB DUP3 PUSH2 0x18F3 JUMP JUMPDEST PUSH2 0xCD5 DUP3 DUP3 PUSH2 0x18FB JUMP JUMPDEST POP POP JUMP JUMPDEST PUSH1 0x0 PUSH2 0xCE3 PUSH2 0x19BD JUMP JUMPDEST POP PUSH1 0x0 DUP1 MLOAD PUSH1 0x20 PUSH2 0x228E DUP4 CODECOPY DUP2 MLOAD SWAP2 MSTORE SWAP1 JUMP JUMPDEST PUSH2 0xCFE PUSH2 0x17E9 JUMP JUMPDEST PUSH1 0x8 DUP2 SWAP1 SSTORE PUSH1 0x40 MLOAD DUP2 DUP2 MSTORE PUSH32 0x4784309E6B1F1431C711EAC5E572F9BA2D542ECB5428EFC0E927B794F4E8E2C1 SWAP1 PUSH1 0x20 ADD PUSH2 0xC4F JUMP JUMPDEST PUSH2 0xD3B PUSH2 0x17E9 JUMP JUMPDEST PUSH2 0xD45 PUSH1 0x0 PUSH2 0x1A06 JUMP JUMPDEST JUMP JUMPDEST DUP1 PUSH1 0x0 SUB PUSH2 0xD68 JUMPI PUSH1 0x40 MLOAD PUSH4 0xD3590A83 PUSH1 0xE0 SHL DUP2 MSTORE PUSH1 0x4 ADD PUSH1 0x40 MLOAD DUP1 SWAP2 SUB SWAP1 REVERT JUMPDEST PUSH1 0x3 SLOAD PUSH1 0x0 SWAP1 DUP2 MSTORE PUSH1 0x4 PUSH1 0x20 MSTORE PUSH1 0x40 SWAP1 KECCAK256 PUSH1 0x6 DUP2 ADD SLOAD PUSH1 0xFF AND PUSH2 0xD9E JUMPI PUSH1 0x40 MLOAD PUSH4 0xB885DFEF PUSH1 0xE0 SHL DUP2 MSTORE PUSH1 0x4 ADD PUSH1 0x40 MLOAD DUP1 SWAP2 SUB SWAP1 REVERT JUMPDEST PUSH1 0x7 SLOAD DUP3 PUSH1 0xA SLOAD PUSH2 0xDAF SWAP2 SWAP1 PUSH2 0x2203 JUMP JUMPDEST GT ISZERO PUSH2 0xDCE JUMPI PUSH1 0x40 MLOAD PUSH4 0x437D78F5 PUSH1 0xE0 SHL DUP2 MSTORE PUSH1 0x4 ADD PUSH1 0x40 MLOAD DUP1 SWAP2 SUB SWAP1 REVERT JUMPDEST PUSH1 0x8 SLOAD PUSH1 0x3 SLOAD PUSH1 0x0 SWAP1 DUP2 MSTORE PUSH1 0xB PUSH1 0x20 SWAP1 DUP2 MSTORE PUSH1 0x40 DUP1 DUP4 KECCAK256 CALLER DUP5 MSTORE SWAP1 SWAP2 MSTORE SWAP1 KECCAK256 SLOAD PUSH2 0xDF9 SWAP1 DUP5 SWAP1 PUSH2 0x2203 JUMP JUMPDEST GT ISZERO PUSH2 0xE18 JUMPI PUSH1 0x40 MLOAD PUSH4 0x75284BDB PUSH1 0xE0 SHL DUP2 MSTORE PUSH1 0x4 ADD PUSH1 0x40 MLOAD DUP1 SWAP2 SUB SWAP1 REVERT JUMPDEST PUSH1 0x0 PUSH2 0xE22 PUSH2 0x1761 JUMP JUMPDEST SWAP1 POP PUSH1 0x0 PUSH2 0xE30 DUP5 DUP4 PUSH2 0x1A77 JUMP JUMPDEST PUSH1 0x2 SLOAD PUSH1 0x1 SLOAD SWAP2 SWAP3 POP PUSH2 0xE52 SWAP2 PUSH1 0x1 PUSH1 0x1 PUSH1 0xA0 SHL SUB SWAP1 DUP2 AND SWAP2 CALLER SWAP2 AND DUP8 PUSH2 0x1AF9 JUMP JUMPDEST PUSH1 0x0 SLOAD PUSH1 0x40 MLOAD PUSH4 0x40C10F19 PUSH1 0xE0 SHL DUP2 MSTORE CALLER PUSH1 0x4 DUP3 ADD MSTORE PUSH1 0x24 DUP2 ADD DUP4 SWAP1 MSTORE PUSH1 0x1 PUSH1 0x1 PUSH1 0xA0 SHL SUB SWAP1 SWAP2 AND SWAP1 PUSH4 0x40C10F19 SWAP1 PUSH1 0x44 ADD PUSH1 0x0 PUSH1 0x40 MLOAD DUP1 DUP4 SUB DUP2 PUSH1 0x0 DUP8 DUP1 EXTCODESIZE ISZERO DUP1 ISZERO PUSH2 0xE9E JUMPI PUSH1 0x0 DUP1 REVERT JUMPDEST POP GAS CALL ISZERO DUP1 ISZERO PUSH2 0xEB2 JUMPI RETURNDATASIZE PUSH1 0x0 DUP1 RETURNDATACOPY RETURNDATASIZE PUSH1 0x0 REVERT JUMPDEST POP POP POP POP DUP4 PUSH1 0xA PUSH1 0x0 DUP3 DUP3 SLOAD PUSH2 0xEC8 SWAP2 SWAP1 PUSH2 0x2203 JUMP JUMPDEST SWAP3 POP POP DUP2 SWAP1 SSTORE POP DUP4 DUP4 PUSH1 0x7 ADD PUSH1 0x0 DUP3 DUP3 SLOAD PUSH2 0xEE3 SWAP2 SWAP1 PUSH2 0x2203 JUMP JUMPDEST SWAP1 SWAP2 SSTORE POP POP PUSH1 0x3 SLOAD PUSH1 0x0 SWAP1 DUP2 MSTORE PUSH1 0xB PUSH1 0x20 SWAP1 DUP2 MSTORE PUSH1 0x40 DUP1 DUP4 KECCAK256 CALLER DUP5 MSTORE SWAP1 SWAP2 MSTORE DUP2 KECCAK256 DUP1 SLOAD DUP7 SWAP3 SWAP1 PUSH2 0xF14 SWAP1 DUP5 SWAP1 PUSH2 0x2203 JUMP JUMPDEST SWAP1 SWAP2 SSTORE POP POP PUSH1 0x9 SLOAD TIMESTAMP SWAP1 PUSH1 0x0 SWAP1 PUSH2 0xF2B SWAP1 DUP4 PUSH2 0x2203 JUMP JUMPDEST PUSH1 0x40 DUP1 MLOAD PUSH1 0x60 DUP2 ADD DUP3 MSTORE DUP6 DUP2 MSTORE PUSH1 0x20 DUP1 DUP3 ADD DUP7 DUP2 MSTORE DUP3 DUP5 ADD DUP6 DUP2 MSTORE CALLER PUSH1 0x0 DUP2 DUP2 MSTORE PUSH1 0xC DUP6 MSTORE DUP7 SWAP1 KECCAK256 SWAP5 MLOAD DUP6 SSTORE SWAP2 MLOAD PUSH1 0x1 DUP6 ADD SSTORE MLOAD PUSH1 0x2 SWAP1 SWAP4 ADD SWAP3 SWAP1 SWAP3 SSTORE SWAP2 MLOAD DUP10 DUP2 MSTORE SWAP3 SWAP4 POP SWAP2 PUSH32 0xD0A009034E24A39106653C4903CF28B1947B8A9964D03206648E0F0A5DE74A46 SWAP2 ADD PUSH1 0x40 MLOAD DUP1 SWAP2 SUB SWAP1 LOG2 PUSH1 0x40 DUP1 MLOAD DUP5 DUP2 MSTORE PUSH1 0x20 DUP2 ADD DUP5 SWAP1 MSTORE SWAP1 DUP2 ADD DUP3 SWAP1 MSTORE CALLER SWAP1 PUSH32 0x892F1A841B10E4B041CC41D8CC47C6A6049F1FF5FA272DDF47A0AA5AD8F59D13 SWAP1 PUSH1 0x60 ADD PUSH1 0x40 MLOAD DUP1 SWAP2 SUB SWAP1 LOG2 PUSH1 0x7 SLOAD PUSH1 0xA SLOAD LT PUSH2 0x102D JUMPI PUSH1 0x6 DUP6 ADD DUP1 SLOAD PUSH1 0xFF NOT AND SWAP1 SSTORE PUSH2 0xFFE PUSH2 0x1B59 JUMP JUMPDEST PUSH1 0x3 SLOAD PUSH1 0x0 DUP1 MLOAD PUSH1 0x20 PUSH2 0x226E DUP4 CODECOPY DUP2 MLOAD SWAP2 MSTORE DUP7 PUSH1 0x7 ADD SLOAD PUSH1 0x40 MLOAD PUSH2 0x1024 SWAP2 DUP2 MSTORE PUSH1 0x20 ADD SWAP1 JUMP JUMPDEST PUSH1 0x40 MLOAD DUP1 SWAP2 SUB SWAP1 LOG2 JUMPDEST POP POP POP POP POP POP JUMP JUMPDEST PUSH2 0x1059 PUSH1 0x40 MLOAD DUP1 PUSH1 0x60 ADD PUSH1 0x40 MSTORE DUP1 PUSH1 0x0 DUP2 MSTORE PUSH1 0x20 ADD PUSH1 0x0 DUP2 MSTORE PUSH1 0x20 ADD PUSH1 0x0 DUP2 MSTORE POP SWAP1 JUMP JUMPDEST POP PUSH1 0x1 PUSH1 0x1 PUSH1 0xA0 SHL SUB AND PUSH1 0x0 SWAP1 DUP2 MSTORE PUSH1 0xC PUSH1 0x20 SWAP1 DUP2 MSTORE PUSH1 0x40 SWAP2 DUP3 SWAP1 KECCAK256 DUP3 MLOAD PUSH1 0x60 DUP2 ADD DUP5 MSTORE DUP2 SLOAD DUP2 MSTORE PUSH1 0x1 DUP3 ADD SLOAD SWAP3 DUP2 ADD SWAP3 SWAP1 SWAP3 MSTORE PUSH1 0x2 ADD SLOAD SWAP2 DUP2 ADD SWAP2 SWAP1 SWAP2 MSTORE SWAP1 JUMP JUMPDEST PUSH2 0x10E5 PUSH1 0x40 MLOAD DUP1 PUSH2 0x100 ADD PUSH1 0x40 MSTORE DUP1 PUSH1 0x0 DUP2 MSTORE PUSH1 0x20 ADD PUSH1 0x0 DUP2 MSTORE PUSH1 0x20 ADD PUSH1 0x0 DUP2 MSTORE PUSH1 0x20 ADD PUSH1 0x0 DUP2 MSTORE PUSH1 0x20 ADD PUSH1 0x0 DUP2 MSTORE PUSH1 0x20 ADD PUSH1 0x0 DUP2 MSTORE PUSH1 0x20 ADD PUSH1 0x0 ISZERO ISZERO DUP2 MSTORE PUSH1 0x20 ADD PUSH1 0x0 DUP2 MSTORE POP SWAP1 JUMP JUMPDEST POP PUSH1 0x3 DUP1 SLOAD PUSH1 0x0 SWAP1 DUP2 MSTORE PUSH1 0x4 PUSH1 0x20 DUP2 DUP2 MSTORE PUSH1 0x40 SWAP3 DUP4 SWAP1 KECCAK256 DUP4 MLOAD PUSH2 0x100 DUP2 ADD DUP6 MSTORE DUP2 SLOAD DUP2 MSTORE PUSH1 0x1 DUP3 ADD SLOAD SWAP3 DUP2 ADD SWAP3 SWAP1 SWAP3 MSTORE PUSH1 0x2 DUP2 ADD SLOAD SWAP4 DUP3 ADD SWAP4 SWAP1 SWAP4 MSTORE SWAP3 DUP3 ADD SLOAD PUSH1 0x60 DUP5 ADD MSTORE DUP2 ADD SLOAD PUSH1 0x80 DUP4 ADD MSTORE PUSH1 0x5 DUP2 ADD SLOAD PUSH1 0xA0 DUP4 ADD MSTORE PUSH1 0x6 DUP2 ADD SLOAD PUSH1 0xFF AND ISZERO ISZERO PUSH1 0xC0 DUP4 ADD MSTORE PUSH1 0x7 ADD SLOAD PUSH1 0xE0 DUP3 ADD MSTORE SWAP1 JUMP JUMPDEST PUSH2 0x115F PUSH2 0x17E9 JUMP JUMPDEST PUSH1 0x3 SLOAD PUSH1 0x0 SWAP1 DUP2 MSTORE PUSH1 0x4 PUSH1 0x20 MSTORE PUSH1 0x40 SWAP1 KECCAK256 PUSH1 0x6 DUP2 ADD SLOAD PUSH1 0xFF AND PUSH2 0x1195 JUMPI PUSH1 0x40 MLOAD PUSH4 0xB885DFEF PUSH1 0xE0 SHL DUP2 MSTORE PUSH1 0x4 ADD PUSH1 0x40 MLOAD DUP1 SWAP2 SUB SWAP1 REVERT JUMPDEST PUSH1 0x6 DUP2 ADD DUP1 SLOAD PUSH1 0xFF NOT AND SWAP1 SSTORE PUSH1 0x3 SLOAD PUSH1 0x7 DUP3 ADD SLOAD PUSH1 0x40 MLOAD SWAP1 DUP2 MSTORE PUSH1 0x0 DUP1 MLOAD PUSH1 0x20 PUSH2 0x226E DUP4 CODECOPY DUP2 MLOAD SWAP2 MSTORE SWAP1 PUSH1 0x20 ADD PUSH1 0x40 MLOAD DUP1 SWAP2 SUB SWAP1 LOG2 POP JUMP JUMPDEST PUSH1 0x0 PUSH2 0x11D7 PUSH2 0x1BE8 JUMP JUMPDEST DUP1 SLOAD SWAP1 SWAP2 POP PUSH1 0xFF PUSH1 0x1 PUSH1 0x40 SHL DUP3 DIV AND ISZERO SWAP1 PUSH8 0xFFFFFFFFFFFFFFFF AND PUSH1 0x0 DUP2 ISZERO DUP1 ISZERO PUSH2 0x11FF JUMPI POP DUP3 JUMPDEST SWAP1 POP PUSH1 0x0 DUP3 PUSH8 0xFFFFFFFFFFFFFFFF AND PUSH1 0x1 EQ DUP1 ISZERO PUSH2 0x121C JUMPI POP ADDRESS EXTCODESIZE ISZERO JUMPDEST SWAP1 POP DUP2 ISZERO DUP1 ISZERO PUSH2 0x122A JUMPI POP DUP1 ISZERO JUMPDEST ISZERO PUSH2 0x1248 JUMPI PUSH1 0x40 MLOAD PUSH4 0xF92EE8A9 PUSH1 0xE0 SHL DUP2 MSTORE PUSH1 0x4 ADD PUSH1 0x40 MLOAD DUP1 SWAP2 SUB SWAP1 REVERT JUMPDEST DUP5 SLOAD PUSH8 0xFFFFFFFFFFFFFFFF NOT AND PUSH1 0x1 OR DUP6 SSTORE DUP4 ISZERO PUSH2 0x1272 JUMPI DUP5 SLOAD PUSH1 0xFF PUSH1 0x40 SHL NOT AND PUSH1 0x1 PUSH1 0x40 SHL OR DUP6 SSTORE JUMPDEST PUSH2 0x127B CALLER PUSH2 0x1C11 JUMP JUMPDEST PUSH2 0x1283 PUSH2 0x1C22 JUMP JUMPDEST DUP13 PUSH1 0x0 DUP1 PUSH2 0x100 EXP DUP2 SLOAD DUP2 PUSH1 0x1 PUSH1 0x1 PUSH1 0xA0 SHL SUB MUL NOT AND SWAP1 DUP4 PUSH1 0x1 PUSH1 0x1 PUSH1 0xA0 SHL SUB AND MUL OR SWAP1 SSTORE POP DUP12 PUSH1 0x1 PUSH1 0x0 PUSH2 0x100 EXP DUP2 SLOAD DUP2 PUSH1 0x1 PUSH1 0x1 PUSH1 0xA0 SHL SUB MUL NOT AND SWAP1 DUP4 PUSH1 0x1 PUSH1 0x1 PUSH1 0xA0 SHL SUB AND MUL OR SWAP1 SSTORE POP DUP11 PUSH1 0x2 PUSH1 0x0 PUSH2 0x100 EXP DUP2 SLOAD DUP2 PUSH1 0x1 PUSH1 0x1 PUSH1 0xA0 SHL SUB MUL NOT AND SWAP1 DUP4 PUSH1 0x1 PUSH1 0x1 PUSH1 0xA0 SHL SUB AND MUL OR SWAP1 SSTORE POP DUP9 DUP11 GT PUSH2 0x1317 JUMPI PUSH1 0x40 MLOAD PUSH4 0x81B88439 PUSH1 0xE0 SHL DUP2 MSTORE PUSH1 0x4 ADD PUSH1 0x40 MLOAD DUP1 SWAP2 SUB SWAP1 REVERT JUMPDEST DUP6 PUSH1 0x0 SUB PUSH2 0x1338 JUMPI PUSH1 0x40 MLOAD PUSH4 0x1B3CC90F PUSH1 0xE0 SHL DUP2 MSTORE PUSH1 0x4 ADD PUSH1 0x40 MLOAD DUP1 SWAP2 SUB SWAP1 REVERT JUMPDEST PUSH1 0x1 PUSH1 0x3 DUP2 SWAP1 SSTORE PUSH1 0x5 DUP12 SWAP1 SSTORE PUSH1 0x6 DUP11 SWAP1 SSTORE PUSH1 0x7 DUP10 SWAP1 SSTORE PUSH1 0x8 DUP9 SWAP1 SSTORE PUSH1 0x9 DUP8 SWAP1 SSTORE PUSH1 0x40 DUP1 MLOAD PUSH2 0x100 DUP2 ADD DUP3 MSTORE DUP3 DUP2 MSTORE PUSH1 0x20 DUP1 DUP3 ADD DUP15 DUP2 MSTORE DUP3 DUP5 ADD DUP15 DUP2 MSTORE PUSH1 0x60 DUP1 DUP6 ADD DUP16 DUP2 MSTORE PUSH1 0x80 DUP7 ADD DUP16 DUP2 MSTORE PUSH1 0xA0 DUP8 ADD DUP16 DUP2 MSTORE PUSH1 0xC0 DUP9 ADD DUP11 DUP2 MSTORE PUSH1 0x0 PUSH1 0xE0 DUP11 ADD DUP2 DUP2 MSTORE SWAP1 DUP13 SWAP1 MSTORE PUSH1 0x4 DUP10 MSTORE SWAP9 MLOAD PUSH32 0xABD6E7CB50984FF9C2F3E18A2660C3353DADF4E3291DEEB275DAE2CD1E44FE05 SSTORE SWAP6 MLOAD PUSH32 0xABD6E7CB50984FF9C2F3E18A2660C3353DADF4E3291DEEB275DAE2CD1E44FE06 SSTORE SWAP4 MLOAD PUSH32 0xABD6E7CB50984FF9C2F3E18A2660C3353DADF4E3291DEEB275DAE2CD1E44FE07 SSTORE SWAP1 MLOAD PUSH32 0xABD6E7CB50984FF9C2F3E18A2660C3353DADF4E3291DEEB275DAE2CD1E44FE08 SSTORE MLOAD PUSH32 0xABD6E7CB50984FF9C2F3E18A2660C3353DADF4E3291DEEB275DAE2CD1E44FE09 SSTORE SWAP1 MLOAD PUSH32 0xABD6E7CB50984FF9C2F3E18A2660C3353DADF4E3291DEEB275DAE2CD1E44FE0A SSTORE SWAP1 MLOAD PUSH32 0xABD6E7CB50984FF9C2F3E18A2660C3353DADF4E3291DEEB275DAE2CD1E44FE0B DUP1 SLOAD PUSH1 0xFF NOT AND SWAP2 ISZERO ISZERO SWAP2 SWAP1 SWAP2 OR SWAP1 SSTORE SWAP2 MLOAD PUSH32 0xABD6E7CB50984FF9C2F3E18A2660C3353DADF4E3291DEEB275DAE2CD1E44FE0C SSTORE DUP3 MLOAD DUP15 DUP2 MSTORE SWAP1 DUP2 ADD DUP14 SWAP1 MSTORE SWAP2 DUP3 ADD DUP12 SWAP1 MSTORE PUSH32 0xFD9D17E5565DEEA3D25918D95FC398673B9445EF0A96D12EAF3AB2B198756C65 SWAP2 ADD PUSH1 0x40 MLOAD DUP1 SWAP2 SUB SWAP1 LOG2 DUP4 ISZERO PUSH2 0x1551 JUMPI DUP5 SLOAD PUSH1 0xFF PUSH1 0x40 SHL NOT AND DUP6 SSTORE PUSH1 0x40 MLOAD PUSH1 0x1 DUP2 MSTORE PUSH32 0xC7F505B2F371AE2175EE4913F4499E1F2633A7B5936321EED1CDAEB6115181D2 SWAP1 PUSH1 0x20 ADD PUSH1 0x40 MLOAD DUP1 SWAP2 SUB SWAP1 LOG1 JUMPDEST POP POP POP POP POP POP POP POP POP POP POP POP POP JUMP JUMPDEST PUSH2 0x1568 PUSH2 0x17E9 JUMP JUMPDEST PUSH1 0x7 DUP2 SWAP1 SSTORE PUSH1 0x40 MLOAD DUP2 DUP2 MSTORE PUSH32 0x5F444D43EF974DE0A9762EA40D495AC7A320EFB6F44E8F1C32505B3CBC026D9C SWAP1 PUSH1 0x20 ADD PUSH2 0xC4F JUMP JUMPDEST PUSH2 0x15A5 PUSH2 0x17E9 JUMP JUMPDEST PUSH1 0x3 SLOAD PUSH1 0x0 SWAP1 DUP2 MSTORE PUSH1 0x4 PUSH1 0x20 MSTORE PUSH1 0x40 SWAP1 KECCAK256 PUSH1 0x6 DUP2 ADD SLOAD PUSH1 0xFF AND ISZERO PUSH2 0x15DC JUMPI PUSH1 0x40 MLOAD PUSH4 0xCCF5BF45 PUSH1 0xE0 SHL DUP2 MSTORE PUSH1 0x4 ADD PUSH1 0x40 MLOAD DUP1 SWAP2 SUB SWAP1 REVERT JUMPDEST DUP5 DUP7 GT PUSH2 0x15FC JUMPI PUSH1 0x40 MLOAD PUSH4 0x81B88439 PUSH1 0xE0 SHL DUP2 MSTORE PUSH1 0x4 ADD PUSH1 0x40 MLOAD DUP1 SWAP2 SUB SWAP1 REVERT JUMPDEST DUP2 PUSH1 0x0 SUB PUSH2 0x161D JUMPI PUSH1 0x40 MLOAD PUSH4 0x1B3CC90F PUSH1 0xE0 SHL DUP2 MSTORE PUSH1 0x4 ADD PUSH1 0x40 MLOAD DUP1 SWAP2 SUB SWAP1 REVERT JUMPDEST PUSH1 0x3 SLOAD PUSH1 0x0 DUP1 MLOAD PUSH1 0x20 PUSH2 0x226E DUP4 CODECOPY DUP2 MLOAD SWAP2 MSTORE DUP3 PUSH1 0x7 ADD SLOAD PUSH1 0x40 MLOAD PUSH2 0x1643 SWAP2 DUP2 MSTORE PUSH1 0x20 ADD SWAP1 JUMP JUMPDEST PUSH1 0x40 MLOAD DUP1 SWAP2 SUB SWAP1 LOG2 PUSH1 0x3 DUP1 SLOAD SWAP1 PUSH1 0x0 PUSH2 0x165B DUP4 PUSH2 0x21C1 JUMP JUMPDEST SWAP1 SWAP2 SSTORE POP POP PUSH1 0x5 DUP7 DUP2 SSTORE PUSH1 0x6 DUP7 DUP2 SSTORE PUSH1 0x7 DUP7 DUP2 SSTORE PUSH1 0x8 DUP7 SWAP1 SSTORE PUSH1 0x9 DUP6 SWAP1 SSTORE PUSH1 0x0 PUSH1 0xA DUP2 SWAP1 SSTORE PUSH1 0x40 DUP1 MLOAD PUSH2 0x100 DUP2 ADD DUP3 MSTORE PUSH1 0x3 DUP1 SLOAD DUP1 DUP4 MSTORE PUSH1 0x20 DUP1 DUP5 ADD DUP16 DUP2 MSTORE DUP5 DUP7 ADD DUP16 DUP2 MSTORE PUSH1 0x60 DUP7 ADD DUP16 DUP2 MSTORE PUSH1 0x80 DUP8 ADD DUP16 DUP2 MSTORE PUSH1 0xA0 DUP9 ADD DUP16 DUP2 MSTORE PUSH1 0x1 PUSH1 0xC0 DUP11 ADD DUP2 DUP2 MSTORE PUSH1 0xE0 DUP12 ADD DUP14 DUP2 MSTORE SWAP9 DUP14 MSTORE PUSH1 0x4 SWAP8 DUP9 SWAP1 MSTORE SWAP12 DUP12 SWAP1 KECCAK256 SWAP10 MLOAD DUP11 SSTORE SWAP5 MLOAD SWAP5 DUP10 ADD SWAP5 SWAP1 SWAP5 SSTORE SWAP2 MLOAD PUSH1 0x2 DUP9 ADD SSTORE MLOAD DUP7 DUP7 ADD SSTORE MLOAD SWAP2 DUP6 ADD SWAP2 SWAP1 SWAP2 SSTORE MLOAD SWAP8 DUP4 ADD SWAP8 SWAP1 SWAP8 SSTORE SWAP3 MLOAD SWAP5 DUP2 ADD DUP1 SLOAD SWAP6 ISZERO ISZERO PUSH1 0xFF NOT SWAP1 SWAP7 AND SWAP6 SWAP1 SWAP6 OR SWAP1 SWAP5 SSTORE SWAP4 MLOAD SWAP3 SWAP1 SWAP2 ADD SWAP2 SWAP1 SWAP2 SSTORE SLOAD SWAP1 MLOAD PUSH32 0xFD9D17E5565DEEA3D25918D95FC398673B9445EF0A96D12EAF3AB2B198756C65 SWAP1 PUSH2 0x1024 SWAP1 DUP10 SWAP1 DUP10 SWAP1 DUP10 SWAP1 SWAP3 DUP4 MSTORE PUSH1 0x20 DUP4 ADD SWAP2 SWAP1 SWAP2 MSTORE PUSH1 0x40 DUP3 ADD MSTORE PUSH1 0x60 ADD SWAP1 JUMP JUMPDEST PUSH1 0x0 PUSH2 0x1777 PUSH1 0xA SLOAD PUSH1 0x7 SLOAD PUSH1 0x5 SLOAD PUSH1 0x6 SLOAD PUSH2 0x1C2A JUMP JUMPDEST SWAP1 POP SWAP1 JUMP JUMPDEST PUSH2 0x1784 PUSH2 0x17E9 JUMP JUMPDEST PUSH1 0x2 DUP1 SLOAD PUSH1 0x1 PUSH1 0x1 PUSH1 0xA0 SHL SUB NOT AND PUSH1 0x1 PUSH1 0x1 PUSH1 0xA0 SHL SUB SWAP3 SWAP1 SWAP3 AND SWAP2 SWAP1 SWAP2 OR SWAP1 SSTORE JUMP JUMPDEST PUSH2 0x17AE PUSH2 0x17E9 JUMP JUMPDEST PUSH1 0x1 PUSH1 0x1 PUSH1 0xA0 SHL SUB DUP2 AND PUSH2 0x17DD JUMPI PUSH1 0x40 MLOAD PUSH4 0x1E4FBDF7 PUSH1 0xE0 SHL DUP2 MSTORE PUSH1 0x0 PUSH1 0x4 DUP3 ADD MSTORE PUSH1 0x24 ADD JUMPDEST PUSH1 0x40 MLOAD DUP1 SWAP2 SUB SWAP1 REVERT JUMPDEST PUSH2 0x17E6 DUP2 PUSH2 0x1A06 JUMP JUMPDEST POP JUMP JUMPDEST CALLER PUSH2 0x181B PUSH32 0x9016D09D72D40FDAE2FD8CEAC6B6234C7706214FD39C1CD1E609A0528C199300 SLOAD PUSH1 0x1 PUSH1 0x1 PUSH1 0xA0 SHL SUB AND SWAP1 JUMP JUMPDEST PUSH1 0x1 PUSH1 0x1 PUSH1 0xA0 SHL SUB AND EQ PUSH2 0xD45 JUMPI PUSH1 0x40 MLOAD PUSH4 0x118CDAA7 PUSH1 0xE0 SHL DUP2 MSTORE CALLER PUSH1 0x4 DUP3 ADD MSTORE PUSH1 0x24 ADD PUSH2 0x17D4 JUMP JUMPDEST DUP1 DUP3 LT JUMPDEST SWAP3 SWAP2 POP POP JUMP JUMPDEST ADDRESS PUSH1 0x1 PUSH1 0x1 PUSH1 0xA0 SHL SUB PUSH32 0x0 AND EQ DUP1 PUSH2 0x18D5 JUMPI POP PUSH32 0x0 PUSH1 0x1 PUSH1 0x1 PUSH1 0xA0 SHL SUB AND PUSH2 0x18C9 PUSH1 0x0 DUP1 MLOAD PUSH1 0x20 PUSH2 0x228E DUP4 CODECOPY DUP2 MLOAD SWAP2 MSTORE SLOAD PUSH1 0x1 PUSH1 0x1 PUSH1 0xA0 SHL SUB AND SWAP1 JUMP JUMPDEST PUSH1 0x1 PUSH1 0x1 PUSH1 0xA0 SHL SUB AND EQ ISZERO JUMPDEST ISZERO PUSH2 0xD45 JUMPI PUSH1 0x40 MLOAD PUSH4 0x703E46DD PUSH1 0xE1 SHL DUP2 MSTORE PUSH1 0x4 ADD PUSH1 0x40 MLOAD DUP1 SWAP2 SUB SWAP1 REVERT JUMPDEST PUSH2 0x17E6 PUSH2 0x17E9 JUMP JUMPDEST DUP2 PUSH1 0x1 PUSH1 0x1 PUSH1 0xA0 SHL SUB AND PUSH4 0x52D1902D PUSH1 0x40 MLOAD DUP2 PUSH4 0xFFFFFFFF AND PUSH1 0xE0 SHL DUP2 MSTORE PUSH1 0x4 ADD PUSH1 0x20 PUSH1 0x40 MLOAD DUP1 DUP4 SUB DUP2 DUP7 GAS STATICCALL SWAP3 POP POP POP DUP1 ISZERO PUSH2 0x1955 JUMPI POP PUSH1 0x40 DUP1 MLOAD PUSH1 0x1F RETURNDATASIZE SWAP1 DUP2 ADD PUSH1 0x1F NOT AND DUP3 ADD SWAP1 SWAP3 MSTORE PUSH2 0x1952 SWAP2 DUP2 ADD SWAP1 PUSH2 0x2216 JUMP JUMPDEST PUSH1 0x1 JUMPDEST PUSH2 0x197D JUMPI PUSH1 0x40 MLOAD PUSH4 0x4C9C8CE3 PUSH1 0xE0 SHL DUP2 MSTORE PUSH1 0x1 PUSH1 0x1 PUSH1 0xA0 SHL SUB DUP4 AND PUSH1 0x4 DUP3 ADD MSTORE PUSH1 0x24 ADD PUSH2 0x17D4 JUMP JUMPDEST PUSH1 0x0 DUP1 MLOAD PUSH1 0x20 PUSH2 0x228E DUP4 CODECOPY DUP2 MLOAD SWAP2 MSTORE DUP2 EQ PUSH2 0x19AE JUMPI PUSH1 0x40 MLOAD PUSH4 0x2A875269 PUSH1 0xE2 SHL DUP2 MSTORE PUSH1 0x4 DUP2 ADD DUP3 SWAP1 MSTORE PUSH1 0x24 ADD PUSH2 0x17D4 JUMP JUMPDEST PUSH2 0x19B8 DUP4 DUP4 PUSH2 0x1CB1 JUMP JUMPDEST POP POP POP JUMP JUMPDEST ADDRESS PUSH1 0x1 PUSH1 0x1 PUSH1 0xA0 SHL SUB PUSH32 0x0 AND EQ PUSH2 0xD45 JUMPI PUSH1 0x40 MLOAD PUSH4 0x703E46DD PUSH1 0xE1 SHL DUP2 MSTORE PUSH1 0x4 ADD PUSH1 0x40 MLOAD DUP1 SWAP2 SUB SWAP1 REVERT JUMPDEST PUSH32 0x9016D09D72D40FDAE2FD8CEAC6B6234C7706214FD39C1CD1E609A0528C199300 DUP1 SLOAD PUSH1 0x1 PUSH1 0x1 PUSH1 0xA0 SHL SUB NOT DUP2 AND PUSH1 0x1 PUSH1 0x1 PUSH1 0xA0 SHL SUB DUP5 DUP2 AND SWAP2 DUP3 OR DUP5 SSTORE PUSH1 0x40 MLOAD SWAP3 AND SWAP2 DUP3 SWAP1 PUSH32 0x8BE0079C531659141344CD1FD0A4F28419497F9722A3DAAFE3B4186F6B6457E0 SWAP1 PUSH1 0x0 SWAP1 LOG3 POP POP POP JUMP JUMPDEST PUSH1 0x0 PUSH1 0x64 DUP3 GT ISZERO PUSH2 0x1ACA JUMPI PUSH1 0x40 MLOAD PUSH3 0x461BCD PUSH1 0xE5 SHL DUP2 MSTORE PUSH1 0x20 PUSH1 0x4 DUP3 ADD MSTORE PUSH1 0x1B PUSH1 0x24 DUP3 ADD MSTORE PUSH32 0x446973636F756E742063616E6E6F742065786365656420313030250000000000 PUSH1 0x44 DUP3 ADD MSTORE PUSH1 0x64 ADD PUSH2 0x17D4 JUMP JUMPDEST PUSH1 0x64 PUSH2 0x1AD6 DUP4 DUP3 PUSH2 0x2203 JUMP JUMPDEST PUSH2 0x1AE0 SWAP1 DUP6 PUSH2 0x21AA JUMP JUMPDEST PUSH2 0x1AEA SWAP2 SWAP1 PUSH2 0x222F JUMP JUMPDEST PUSH2 0xCB3 SWAP1 PUSH5 0xE8D4A51000 PUSH2 0x21AA JUMP JUMPDEST PUSH1 0x40 DUP1 MLOAD PUSH1 0x1 PUSH1 0x1 PUSH1 0xA0 SHL SUB DUP6 DUP2 AND PUSH1 0x24 DUP4 ADD MSTORE DUP5 AND PUSH1 0x44 DUP3 ADD MSTORE PUSH1 0x64 DUP1 DUP3 ADD DUP5 SWAP1 MSTORE DUP3 MLOAD DUP1 DUP4 SUB SWAP1 SWAP2 ADD DUP2 MSTORE PUSH1 0x84 SWAP1 SWAP2 ADD SWAP1 SWAP2 MSTORE PUSH1 0x20 DUP2 ADD DUP1 MLOAD PUSH1 0x1 PUSH1 0x1 PUSH1 0xE0 SHL SUB AND PUSH4 0x23B872DD PUSH1 0xE0 SHL OR SWAP1 MSTORE PUSH2 0x1B53 SWAP1 DUP6 SWAP1 PUSH2 0x1D07 JUMP JUMPDEST POP POP POP POP JUMP JUMPDEST PUSH2 0x1B61 PUSH2 0x17E9 JUMP JUMPDEST PUSH1 0x3 SLOAD PUSH1 0x0 SWAP1 DUP2 MSTORE PUSH1 0x4 PUSH1 0x20 MSTORE PUSH1 0x40 DUP2 KECCAK256 SWAP1 JUMPDEST DUP2 PUSH1 0x7 ADD SLOAD DUP2 LT ISZERO PUSH2 0xCD5 JUMPI CALLER PUSH1 0x0 DUP2 DUP2 MSTORE PUSH1 0xC PUSH1 0x20 SWAP1 DUP2 MSTORE PUSH1 0x40 SWAP2 DUP3 SWAP1 KECCAK256 DUP3 MLOAD PUSH1 0x60 DUP2 ADD DUP5 MSTORE DUP2 SLOAD DUP1 DUP3 MSTORE PUSH1 0x1 DUP4 ADD SLOAD SWAP4 DUP3 ADD SWAP4 SWAP1 SWAP4 MSTORE PUSH1 0x2 SWAP1 SWAP2 ADD SLOAD SWAP3 DUP2 ADD SWAP3 SWAP1 SWAP3 MSTORE ISZERO PUSH2 0x1BDE JUMPI PUSH1 0x1 PUSH1 0x1 PUSH1 0xA0 SHL SUB DUP3 AND PUSH1 0x0 SWAP1 DUP2 MSTORE PUSH1 0xC PUSH1 0x20 MSTORE PUSH1 0x40 SWAP1 KECCAK256 TIMESTAMP PUSH1 0x2 SWAP1 SWAP2 ADD SSTORE JUMPDEST POP POP PUSH1 0x1 ADD PUSH2 0x1B74 JUMP JUMPDEST PUSH1 0x0 DUP1 PUSH32 0xF0C57E16840DF040F15088DC2F81FE391C3923BEC73E23A9662EFC9C229C6A00 PUSH2 0x1848 JUMP JUMPDEST PUSH2 0x1C19 PUSH2 0x1D78 JUMP JUMPDEST PUSH2 0x17E6 DUP2 PUSH2 0x1D9D JUMP JUMPDEST PUSH2 0xD45 PUSH2 0x1D78 JUMP JUMPDEST PUSH1 0x0 DUP5 PUSH1 0x0 SUB PUSH2 0x1C3B JUMPI POP DUP2 PUSH2 0x1CA9 JUMP JUMPDEST DUP4 DUP6 LT PUSH2 0x1C49 JUMPI POP DUP1 PUSH2 0x1CA9 JUMP JUMPDEST PUSH1 0x0 DUP5 PUSH2 0x1C58 DUP8 PUSH2 0x2710 PUSH2 0x21AA JUMP JUMPDEST PUSH2 0x1C62 SWAP2 SWAP1 PUSH2 0x222F JUMP JUMPDEST SWAP1 POP PUSH1 0x0 PUSH2 0x1C70 DUP5 DUP7 PUSH2 0x21DA JUMP JUMPDEST SWAP1 POP PUSH2 0x2710 PUSH2 0x1C7F DUP3 DUP5 PUSH2 0x21AA JUMP JUMPDEST PUSH2 0x1C89 SWAP2 SWAP1 PUSH2 0x222F JUMP JUMPDEST PUSH2 0x1C93 SWAP1 DUP7 PUSH2 0x21DA JUMP JUMPDEST SWAP3 POP DUP4 DUP4 GT PUSH2 0x1CA2 JUMPI DUP4 PUSH2 0x1CA4 JUMP JUMPDEST DUP3 JUMPDEST SWAP3 POP POP POP JUMPDEST SWAP5 SWAP4 POP POP POP POP JUMP JUMPDEST PUSH2 0x1CBA DUP3 PUSH2 0x1DA5 JUMP JUMPDEST PUSH1 0x40 MLOAD PUSH1 0x1 PUSH1 0x1 PUSH1 0xA0 SHL SUB DUP4 AND SWAP1 PUSH32 0xBC7CD75A20EE27FD9ADEBAB32041F755214DBC6BFFA90CC0225B39DA2E5C2D3B SWAP1 PUSH1 0x0 SWAP1 LOG2 DUP1 MLOAD ISZERO PUSH2 0x1CFF JUMPI PUSH2 0x19B8 DUP3 DUP3 PUSH2 0x1E0A JUMP JUMPDEST PUSH2 0xCD5 PUSH2 0x1E80 JUMP JUMPDEST PUSH1 0x0 DUP1 PUSH1 0x20 PUSH1 0x0 DUP5 MLOAD PUSH1 0x20 DUP7 ADD PUSH1 0x0 DUP9 GAS CALL DUP1 PUSH2 0x1D2A JUMPI PUSH1 0x40 MLOAD RETURNDATASIZE PUSH1 0x0 DUP3 RETURNDATACOPY RETURNDATASIZE DUP2 REVERT JUMPDEST POP POP PUSH1 0x0 MLOAD RETURNDATASIZE SWAP2 POP DUP2 ISZERO PUSH2 0x1D42 JUMPI DUP1 PUSH1 0x1 EQ ISZERO PUSH2 0x1D4F JUMP JUMPDEST PUSH1 0x1 PUSH1 0x1 PUSH1 0xA0 SHL SUB DUP5 AND EXTCODESIZE ISZERO JUMPDEST ISZERO PUSH2 0x1B53 JUMPI PUSH1 0x40 MLOAD PUSH4 0x5274AFE7 PUSH1 0xE0 SHL DUP2 MSTORE PUSH1 0x1 PUSH1 0x1 PUSH1 0xA0 SHL SUB DUP6 AND PUSH1 0x4 DUP3 ADD MSTORE PUSH1 0x24 ADD PUSH2 0x17D4 JUMP JUMPDEST PUSH2 0x1D80 PUSH2 0x1E9F JUMP JUMPDEST PUSH2 0xD45 JUMPI PUSH1 0x40 MLOAD PUSH4 0x1AFCD79F PUSH1 0xE3 SHL DUP2 MSTORE PUSH1 0x4 ADD PUSH1 0x40 MLOAD DUP1 SWAP2 SUB SWAP1 REVERT JUMPDEST PUSH2 0x17AE PUSH2 0x1D78 JUMP JUMPDEST DUP1 PUSH1 0x1 PUSH1 0x1 PUSH1 0xA0 SHL SUB AND EXTCODESIZE PUSH1 0x0 SUB PUSH2 0x1DDB JUMPI PUSH1 0x40 MLOAD PUSH4 0x4C9C8CE3 PUSH1 0xE0 SHL DUP2 MSTORE PUSH1 0x1 PUSH1 0x1 PUSH1 0xA0 SHL SUB DUP3 AND PUSH1 0x4 DUP3 ADD MSTORE PUSH1 0x24 ADD PUSH2 0x17D4 JUMP JUMPDEST PUSH1 0x0 DUP1 MLOAD PUSH1 0x20 PUSH2 0x228E DUP4 CODECOPY DUP2 MLOAD SWAP2 MSTORE DUP1 SLOAD PUSH1 0x1 PUSH1 0x1 PUSH1 0xA0 SHL SUB NOT AND PUSH1 0x1 PUSH1 0x1 PUSH1 0xA0 SHL SUB SWAP3 SWAP1 SWAP3 AND SWAP2 SWAP1 SWAP2 OR SWAP1 SSTORE JUMP JUMPDEST PUSH1 0x60 PUSH1 0x0 DUP1 DUP5 PUSH1 0x1 PUSH1 0x1 PUSH1 0xA0 SHL SUB AND DUP5 PUSH1 0x40 MLOAD PUSH2 0x1E27 SWAP2 SWAP1 PUSH2 0x2251 JUMP JUMPDEST PUSH1 0x0 PUSH1 0x40 MLOAD DUP1 DUP4 SUB DUP2 DUP6 GAS DELEGATECALL SWAP2 POP POP RETURNDATASIZE DUP1 PUSH1 0x0 DUP2 EQ PUSH2 0x1E62 JUMPI PUSH1 0x40 MLOAD SWAP2 POP PUSH1 0x1F NOT PUSH1 0x3F RETURNDATASIZE ADD AND DUP3 ADD PUSH1 0x40 MSTORE RETURNDATASIZE DUP3 MSTORE RETURNDATASIZE PUSH1 0x0 PUSH1 0x20 DUP5 ADD RETURNDATACOPY PUSH2 0x1E67 JUMP JUMPDEST PUSH1 0x60 SWAP2 POP JUMPDEST POP SWAP2 POP SWAP2 POP PUSH2 0x1E77 DUP6 DUP4 DUP4 PUSH2 0x1EB9 JUMP JUMPDEST SWAP6 SWAP5 POP POP POP POP POP JUMP JUMPDEST CALLVALUE ISZERO PUSH2 0xD45 JUMPI PUSH1 0x40 MLOAD PUSH4 0xB398979F PUSH1 0xE0 SHL DUP2 MSTORE PUSH1 0x4 ADD PUSH1 0x40 MLOAD DUP1 SWAP2 SUB SWAP1 REVERT JUMPDEST PUSH1 0x0 PUSH2 0x1EA9 PUSH2 0x1BE8 JUMP JUMPDEST SLOAD PUSH1 0x1 PUSH1 0x40 SHL SWAP1 DIV PUSH1 0xFF AND SWAP2 SWAP1 POP JUMP JUMPDEST PUSH1 0x60 DUP3 PUSH2 0x1ECE JUMPI PUSH2 0x1EC9 DUP3 PUSH2 0x1F15 JUMP JUMPDEST PUSH2 0xCB3 JUMP JUMPDEST DUP2 MLOAD ISZERO DUP1 ISZERO PUSH2 0x1EE5 JUMPI POP PUSH1 0x1 PUSH1 0x1 PUSH1 0xA0 SHL SUB DUP5 AND EXTCODESIZE ISZERO JUMPDEST ISZERO PUSH2 0x1F0E JUMPI PUSH1 0x40 MLOAD PUSH4 0x9996B315 PUSH1 0xE0 SHL DUP2 MSTORE PUSH1 0x1 PUSH1 0x1 PUSH1 0xA0 SHL SUB DUP6 AND PUSH1 0x4 DUP3 ADD MSTORE PUSH1 0x24 ADD PUSH2 0x17D4 JUMP JUMPDEST POP SWAP3 SWAP2 POP POP JUMP JUMPDEST DUP1 MLOAD ISZERO PUSH2 0x1F24 JUMPI DUP1 MLOAD PUSH1 0x20 DUP3 ADD REVERT JUMPDEST PUSH1 0x40 MLOAD PUSH4 0xD6BDA275 PUSH1 0xE0 SHL DUP2 MSTORE PUSH1 0x4 ADD PUSH1 0x40 MLOAD DUP1 SWAP2 SUB SWAP1 REVERT JUMPDEST PUSH1 0x0 PUSH1 0x20 DUP3 DUP5 SUB SLT ISZERO PUSH2 0x1F4F JUMPI PUSH1 0x0 DUP1 REVERT JUMPDEST POP CALLDATALOAD SWAP2 SWAP1 POP JUMP JUMPDEST DUP1 CALLDATALOAD PUSH1 0x1 PUSH1 0x1 PUSH1 0xA0 SHL SUB DUP2 AND DUP2 EQ PUSH2 0x1F6D JUMPI PUSH1 0x0 DUP1 REVERT JUMPDEST SWAP2 SWAP1 POP JUMP JUMPDEST PUSH1 0x0 PUSH1 0x20 DUP3 DUP5 SUB SLT ISZERO PUSH2 0x1F84 JUMPI PUSH1 0x0 DUP1 REVERT JUMPDEST PUSH2 0xCB3 DUP3 PUSH2 0x1F56 JUMP JUMPDEST PUSH4 0x4E487B71 PUSH1 0xE0 SHL PUSH1 0x0 MSTORE PUSH1 0x41 PUSH1 0x4 MSTORE PUSH1 0x24 PUSH1 0x0 REVERT JUMPDEST PUSH1 0x0 DUP1 PUSH1 0x40 DUP4 DUP6 SUB SLT ISZERO PUSH2 0x1FB6 JUMPI PUSH1 0x0 DUP1 REVERT JUMPDEST PUSH2 0x1FBF DUP4 PUSH2 0x1F56 JUMP JUMPDEST SWAP2 POP PUSH1 0x20 DUP4 ADD CALLDATALOAD PUSH8 0xFFFFFFFFFFFFFFFF DUP1 DUP3 GT ISZERO PUSH2 0x1FDC JUMPI PUSH1 0x0 DUP1 REVERT JUMPDEST DUP2 DUP6 ADD SWAP2 POP DUP6 PUSH1 0x1F DUP4 ADD SLT PUSH2 0x1FF0 JUMPI PUSH1 0x0 DUP1 REVERT JUMPDEST DUP2 CALLDATALOAD DUP2 DUP2 GT ISZERO PUSH2 0x2002 JUMPI PUSH2 0x2002 PUSH2 0x1F8D JUMP JUMPDEST PUSH1 0x40 MLOAD PUSH1 0x1F DUP3 ADD PUSH1 0x1F NOT SWAP1 DUP2 AND PUSH1 0x3F ADD AND DUP2 ADD SWAP1 DUP4 DUP3 GT DUP2 DUP4 LT OR ISZERO PUSH2 0x202A JUMPI PUSH2 0x202A PUSH2 0x1F8D JUMP JUMPDEST DUP2 PUSH1 0x40 MSTORE DUP3 DUP2 MSTORE DUP9 PUSH1 0x20 DUP5 DUP8 ADD ADD GT ISZERO PUSH2 0x2043 JUMPI PUSH1 0x0 DUP1 REVERT JUMPDEST DUP3 PUSH1 0x20 DUP7 ADD PUSH1 0x20 DUP4 ADD CALLDATACOPY PUSH1 0x0 PUSH1 0x20 DUP5 DUP4 ADD ADD MSTORE DUP1 SWAP6 POP POP POP POP POP POP SWAP3 POP SWAP3 SWAP1 POP JUMP JUMPDEST PUSH1 0x0 JUMPDEST DUP4 DUP2 LT ISZERO PUSH2 0x2080 JUMPI DUP2 DUP2 ADD MLOAD DUP4 DUP3 ADD MSTORE PUSH1 0x20 ADD PUSH2 0x2068 JUMP JUMPDEST POP POP PUSH1 0x0 SWAP2 ADD MSTORE JUMP JUMPDEST PUSH1 0x20 DUP2 MSTORE PUSH1 0x0 DUP3 MLOAD DUP1 PUSH1 0x20 DUP5 ADD MSTORE PUSH2 0x20A8 DUP2 PUSH1 0x40 DUP6 ADD PUSH1 0x20 DUP8 ADD PUSH2 0x2065 JUMP JUMPDEST PUSH1 0x1F ADD PUSH1 0x1F NOT AND SWAP2 SWAP1 SWAP2 ADD PUSH1 0x40 ADD SWAP3 SWAP2 POP POP JUMP JUMPDEST PUSH1 0x0 DUP1 PUSH1 0x40 DUP4 DUP6 SUB SLT ISZERO PUSH2 0x20CF JUMPI PUSH1 0x0 DUP1 REVERT JUMPDEST DUP3 CALLDATALOAD SWAP2 POP PUSH2 0x20DF PUSH1 0x20 DUP5 ADD PUSH2 0x1F56 JUMP JUMPDEST SWAP1 POP SWAP3 POP SWAP3 SWAP1 POP JUMP JUMPDEST PUSH1 0x0 DUP1 PUSH1 0x0 DUP1 PUSH1 0x0 DUP1 PUSH1 0x0 DUP1 PUSH2 0x100 DUP10 DUP12 SUB SLT ISZERO PUSH2 0x2105 JUMPI PUSH1 0x0 DUP1 REVERT JUMPDEST PUSH2 0x210E DUP10 PUSH2 0x1F56 JUMP JUMPDEST SWAP8 POP PUSH2 0x211C PUSH1 0x20 DUP11 ADD PUSH2 0x1F56 JUMP JUMPDEST SWAP7 POP PUSH2 0x212A PUSH1 0x40 DUP11 ADD PUSH2 0x1F56 JUMP JUMPDEST SWAP8 SWAP11 SWAP7 SWAP10 POP SWAP7 SWAP8 PUSH1 0x60 DUP2 ADD CALLDATALOAD SWAP8 POP PUSH1 0x80 DUP2 ADD CALLDATALOAD SWAP7 PUSH1 0xA0 DUP3 ADD CALLDATALOAD SWAP7 POP PUSH1 0xC0 DUP3 ADD CALLDATALOAD SWAP6 POP PUSH1 0xE0 SWAP1 SWAP2 ADD CALLDATALOAD SWAP4 POP SWAP2 POP POP JUMP JUMPDEST PUSH1 0x0 DUP1 PUSH1 0x0 DUP1 PUSH1 0x0 PUSH1 0xA0 DUP7 DUP9 SUB SLT ISZERO PUSH2 0x2171 JUMPI PUSH1 0x0 DUP1 REVERT JUMPDEST POP POP DUP4 CALLDATALOAD SWAP6 PUSH1 0x20 DUP6 ADD CALLDATALOAD SWAP6 POP PUSH1 0x40 DUP6 ADD CALLDATALOAD SWAP5 PUSH1 0x60 DUP2 ADD CALLDATALOAD SWAP5 POP PUSH1 0x80 ADD CALLDATALOAD SWAP3 POP SWAP1 POP JUMP JUMPDEST PUSH4 0x4E487B71 PUSH1 0xE0 SHL PUSH1 0x0 MSTORE PUSH1 0x11 PUSH1 0x4 MSTORE PUSH1 0x24 PUSH1 0x0 REVERT JUMPDEST DUP1 DUP3 MUL DUP2 ISZERO DUP3 DUP3 DIV DUP5 EQ OR PUSH2 0x1848 JUMPI PUSH2 0x1848 PUSH2 0x2194 JUMP JUMPDEST PUSH1 0x0 PUSH1 0x1 DUP3 ADD PUSH2 0x21D3 JUMPI PUSH2 0x21D3 PUSH2 0x2194 JUMP JUMPDEST POP PUSH1 0x1 ADD SWAP1 JUMP JUMPDEST DUP2 DUP2 SUB DUP2 DUP2 GT ISZERO PUSH2 0x1848 JUMPI PUSH2 0x1848 PUSH2 0x2194 JUMP JUMPDEST PUSH4 0x4E487B71 PUSH1 0xE0 SHL PUSH1 0x0 MSTORE PUSH1 0x32 PUSH1 0x4 MSTORE PUSH1 0x24 PUSH1 0x0 REVERT JUMPDEST DUP1 DUP3 ADD DUP1 DUP3 GT ISZERO PUSH2 0x1848 JUMPI PUSH2 0x1848 PUSH2 0x2194 JUMP JUMPDEST PUSH1 0x0 PUSH1 0x20 DUP3 DUP5 SUB SLT ISZERO PUSH2 0x2228 JUMPI PUSH1 0x0 DUP1 REVERT JUMPDEST POP MLOAD SWAP2 SWAP1 POP JUMP JUMPDEST PUSH1 0x0 DUP3 PUSH2 0x224C JUMPI PUSH4 0x4E487B71 PUSH1 0xE0 SHL PUSH1 0x0 MSTORE PUSH1 0x12 PUSH1 0x4 MSTORE PUSH1 0x24 PUSH1 0x0 REVERT JUMPDEST POP DIV SWAP1 JUMP JUMPDEST PUSH1 0x0 DUP3 MLOAD PUSH2 0x2263 DUP2 DUP5 PUSH1 0x20 DUP8 ADD PUSH2 0x2065 JUMP JUMPDEST SWAP2 SWAP1 SWAP2 ADD SWAP3 SWAP2 POP POP JUMP INVALID DUP7 PUSH28 0xC48474AFBD71C32542F493801861B7FA916F53F0E706E1BB8A3F4770 SWAP13 0x28 CALLDATASIZE ADDMOD SWAP5 LOG1 EXTCODESIZE LOG1 LOG3 0x21 MOD PUSH8 0xC828492DB98DCA3E KECCAK256 PUSH23 0xCC3735A920A3CA505D382BBCA26469706673582212203A SWAP14 SIGNEXTEND 0xD8 0xCE JUMPI SLT PUSH13 0x30586F3DD852633E339FA3BF8E DUP3 0xD3 SELFDESTRUCT DUP7 0xE4 JUMPDEST NOT 0xE8 PUSH16 0x23264736F6C63430008180033000000 "},"methodIdentifiers":{"UPGRADE_INTERFACE_VERSION()":"ad3cb1cc","bond(uint256)":"9940686e","completeCurrentRound()":"d93de017","currentRoundId()":"9cbe5efd","epochCap()":"61025060","finalDiscount()":"473357f1","fvc()":"d1c17e38","getCurrentDiscount()":"f0eb737a","getCurrentRound()":"a32bf597","getVestingSchedule(address)":"9f829063","initialDiscount()":"7ec897cd","initialize(address,address,address,uint256,uint256,uint256,uint256,uint256)":"df8fa430","isLocked(address)":"4a4fbeec","owner()":"8da5cb5b","proxiableUUID()":"52d1902d","renounceOwnership()":"715018a6","rounds(uint256)":"8c65c81f","setEpochCap(uint256)":"e033ebb0","setTreasury(address)":"f0f44260","setVestingPeriod(uint256)":"40bee0ed","setWalletCap(uint256)":"65a64668","startNewRound(uint256,uint256,uint256,uint256,uint256)":"e8ba4b0f","startNextRound()":"3c3ccc44","totalBonded()":"44d96e95","transferOwnership(address)":"f2fde38b","treasury()":"61d027b3","upgradeToAndCall(address,bytes)":"4f1ef286","usdc()":"3e413bee","userBonded(uint256,address)":"d06f518b","vestingPeriod()":"7313ee5a","vestingSchedules(address)":"fdb20ccb","walletCap()":"58950c22"}},"storageLayout":{"storage":[{"astId":2102,"contract":"src/Bonding.sol:Bonding","label":"fvc","offset":0,"slot":"0","type":"t_contract(IFVC)3246"},{"astId":2106,"contract":"src/Bonding.sol:Bonding","label":"usdc","offset":0,"slot":"1","type":"t_contract(IERC20)1193"},{"astId":2109,"contract":"src/Bonding.sol:Bonding","label":"treasury","offset":0,"slot":"2","type":"t_address"},{"astId":2112,"contract":"src/Bonding.sol:Bonding","label":"currentRoundId","offset":0,"slot":"3","type":"t_uint256"},{"astId":2118,"contract":"src/Bonding.sol:Bonding","label":"rounds","offset":0,"slot":"4","type":"t_mapping(t_uint256,t_struct(RoundConfig)3141_storage)"},{"astId":2121,"contract":"src/Bonding.sol:Bonding","label":"initialDiscount","offset":0,"slot":"5","type":"t_uint256"},{"astId":2124,"contract":"src/Bonding.sol:Bonding","label":"finalDiscount","offset":0,"slot":"6","type":"t_uint256"},{"astId":2127,"contract":"src/Bonding.sol:Bonding","label":"epochCap","offset":0,"slot":"7","type":"t_uint256"},{"astId":2130,"contract":"src/Bonding.sol:Bonding","label":"walletCap","offset":0,"slot":"8","type":"t_uint256"},{"astId":2133,"contract":"src/Bonding.sol:Bonding","label":"vestingPeriod","offset":0,"slot":"9","type":"t_uint256"},{"astId":2136,"contract":"src/Bonding.sol:Bonding","label":"totalBonded","offset":0,"slot":"10","type":"t_uint256"},{"astId":2143,"contract":"src/Bonding.sol:Bonding","label":"userBonded","offset":0,"slot":"11","type":"t_mapping(t_uint256,t_mapping(t_address,t_uint256))"},{"astId":2149,"contract":"src/Bonding.sol:Bonding","label":"vestingSchedules","offset":0,"slot":"12","type":"t_mapping(t_address,t_struct(VestingSchedule)3123_storage)"}],"types":{"t_address":{"encoding":"inplace","label":"address","numberOfBytes":"20"},"t_bool":{"encoding":"inplace","label":"bool","numberOfBytes":"1"},"t_contract(IERC20)1193":{"encoding":"inplace","label":"contract IERC20","numberOfBytes":"20"},"t_contract(IFVC)3246":{"encoding":"inplace","label":"contract IFVC","numberOfBytes":"20"},"t_mapping(t_address,t_struct(VestingSchedule)3123_storage)":{"encoding":"mapping","key":"t_address","label":"mapping(address => struct IBonding.VestingSchedule)","numberOfBytes":"32","value":"t_struct(VestingSchedule)3123_storage"},"t_mapping(t_address,t_uint256)":{"encoding":"mapping","key":"t_address","label":"mapping(address => uint256)","numberOfBytes":"32","value":"t_uint256"},"t_mapping(t_uint256,t_mapping(t_address,t_uint256))":{"encoding":"mapping","key":"t_uint256","label":"mapping(uint256 => mapping(address => uint256))","numberOfBytes":"32","value":"t_mapping(t_address,t_uint256)"},"t_mapping(t_uint256,t_struct(RoundConfig)3141_storage)":{"encoding":"mapping","key":"t_uint256","label":"mapping(uint256 => struct IBonding.RoundConfig)","numberOfBytes":"32","value":"t_struct(RoundConfig)3141_storage"},"t_struct(RoundConfig)3141_storage":{"encoding":"inplace","label":"struct IBonding.RoundConfig","members":[{"astId":3126,"contract":"src/Bonding.sol:Bonding","label":"roundId","offset":0,"slot":"0","type":"t_uint256"},{"astId":3128,"contract":"src/Bonding.sol:Bonding","label":"initialDiscount","offset":0,"slot":"1","type":"t_uint256"},{"astId":3130,"contract":"src/Bonding.sol:Bonding","label":"finalDiscount","offset":0,"slot":"2","type":"t_uint256"},{"astId":3132,"contract":"src/Bonding.sol:Bonding","label":"epochCap","offset":0,"slot":"3","type":"t_uint256"},{"astId":3134,"contract":"src/Bonding.sol:Bonding","label":"walletCap","offset":0,"slot":"4","type":"t_uint256"},{"astId":3136,"contract":"src/Bonding.sol:Bonding","label":"vestingPeriod","offset":0,"slot":"5","type":"t_uint256"},{"astId":3138,"contract":"src/Bonding.sol:Bonding","label":"isActive","offset":0,"slot":"6","type":"t_bool"},{"astId":3140,"contract":"src/Bonding.sol:Bonding","label":"totalBonded","offset":0,"slot":"7","type":"t_uint256"}],"numberOfBytes":"256"},"t_struct(VestingSchedule)3123_storage":{"encoding":"inplace","label":"struct IBonding.VestingSchedule","members":[{"astId":3118,"contract":"src/Bonding.sol:Bonding","label":"amount","offset":0,"slot":"0","type":"t_uint256"},{"astId":3120,"contract":"src/Bonding.sol:Bonding","label":"startTime","offset":0,"slot":"1","type":"t_uint256"},{"astId":3122,"contract":"src/Bonding.sol:Bonding","label":"endTime","offset":0,"slot":"2","type":"t_uint256"}],"numberOfBytes":"96"},"t_uint256":{"encoding":"inplace","label":"uint256","numberOfBytes":"32"}}}}}}