{"src/Bonding.sol":{"Bonding":{"abi":[{"inputs":[],"stateMutability":"nonpayable","type":"constructor"},{"inputs":[{"internalType":"address","name":"target","type":"address"}],"name":"AddressEmptyCode","type":"error"},{"inputs":[],"name":"Bonding__AmountMustBeGreaterThanZero","type":"error"},{"inputs":[],"name":"Bonding__EpochCapExceeded","type":"error"},{"inputs":[],"name":"Bonding__ExceedsWalletCap","type":"error"},{"inputs":[],"name":"Bonding__InvalidDiscountRange","type":"error"},{"inputs":[],"name":"Bonding__InvalidVestingPeriod","type":"error"},{"inputs":[],"name":"Bonding__NoMoreRounds","type":"error"},{"inputs":[],"name":"Bonding__RoundAlreadyActive","type":"error"},{"inputs":[],"name":"Bonding__RoundNotActive","type":"error"},{"inputs":[],"name":"Bonding__TokensLockedInVesting","type":"error"},{"inputs":[{"internalType":"address","name":"implementation","type":"address"}],"name":"ERC1967InvalidImplementation","type":"error"},{"inputs":[],"name":"ERC1967NonPayable","type":"error"},{"inputs":[],"name":"FailedCall","type":"error"},{"inputs":[],"name":"InvalidInitialization","type":"error"},{"inputs":[],"name":"NotInitializing","type":"error"},{"inputs":[{"internalType":"address","name":"owner","type":"address"}],"name":"OwnableInvalidOwner","type":"error"},{"inputs":[{"internalType":"address","name":"account","type":"address"}],"name":"OwnableUnauthorizedAccount","type":"error"},{"inputs":[{"internalType":"address","name":"token","type":"address"}],"name":"SafeERC20FailedOperation","type":"error"},{"inputs":[],"name":"UUPSUnauthorizedCallContext","type":"error"},{"inputs":[{"internalType":"bytes32","name":"slot","type":"bytes32"}],"name":"UUPSUnsupportedProxiableUUID","type":"error"},{"anonymous":false,"inputs":[{"indexed":true,"internalType":"address","name":"user","type":"address"},{"indexed":false,"internalType":"uint256","name":"amount","type":"uint256"}],"name":"Bonded","type":"event"},{"anonymous":false,"inputs":[{"indexed":false,"internalType":"uint256","name":"newCap","type":"uint256"}],"name":"EpochCapUpdated","type":"event"},{"anonymous":false,"inputs":[{"indexed":false,"internalType":"uint256","name":"roundId","type":"uint256"},{"indexed":false,"internalType":"uint256","name":"fvcAmount","type":"uint256"}],"name":"FVCAllocated","type":"event"},{"anonymous":false,"inputs":[{"indexed":false,"internalType":"uint64","name":"version","type":"uint64"}],"name":"Initialized","type":"event"},{"anonymous":false,"inputs":[{"indexed":true,"internalType":"address","name":"previousOwner","type":"address"},{"indexed":true,"internalType":"address","name":"newOwner","type":"address"}],"name":"OwnershipTransferred","type":"event"},{"anonymous":false,"inputs":[{"indexed":true,"internalType":"uint256","name":"roundId","type":"uint256"},{"indexed":false,"internalType":"uint256","name":"totalBonded","type":"uint256"}],"name":"RoundCompleted","type":"event"},{"anonymous":false,"inputs":[{"indexed":true,"internalType":"uint256","name":"roundId","type":"uint256"},{"indexed":false,"internalType":"uint256","name":"initialDiscount","type":"uint256"},{"indexed":false,"internalType":"uint256","name":"finalDiscount","type":"uint256"},{"indexed":false,"internalType":"uint256","name":"epochCap","type":"uint256"}],"name":"RoundStarted","type":"event"},{"anonymous":false,"inputs":[{"indexed":true,"internalType":"address","name":"implementation","type":"address"}],"name":"Upgraded","type":"event"},{"anonymous":false,"inputs":[{"indexed":false,"internalType":"uint256","name":"newPeriod","type":"uint256"}],"name":"VestingPeriodUpdated","type":"event"},{"anonymous":false,"inputs":[{"indexed":true,"internalType":"address","name":"user","type":"address"},{"indexed":false,"internalType":"uint256","name":"amount","type":"uint256"},{"indexed":false,"internalType":"uint256","name":"startTime","type":"uint256"},{"indexed":false,"internalType":"uint256","name":"endTime","type":"uint256"}],"name":"VestingScheduleCreated","type":"event"},{"anonymous":false,"inputs":[{"indexed":false,"internalType":"uint256","name":"newCap","type":"uint256"}],"name":"WalletCapUpdated","type":"event"},{"inputs":[],"name":"UPGRADE_INTERFACE_VERSION","outputs":[{"internalType":"string","name":"","type":"string"}],"stateMutability":"view","type":"function"},{"inputs":[{"internalType":"uint256","name":"fvcAmount","type":"uint256"}],"name":"allocateFVC","outputs":[],"stateMutability":"nonpayable","type":"function"},{"inputs":[{"internalType":"uint256","name":"fvcAmount","type":"uint256"}],"name":"bond","outputs":[],"stateMutability":"nonpayable","type":"function"},{"inputs":[{"internalType":"uint256","name":"fvcAmount","type":"uint256"}],"name":"calculateUSDCAmount","outputs":[{"internalType":"uint256","name":"usdcAmount","type":"uint256"}],"stateMutability":"view","type":"function"},{"inputs":[],"name":"completeCurrentRound","outputs":[],"stateMutability":"nonpayable","type":"function"},{"inputs":[],"name":"currentRoundId","outputs":[{"internalType":"uint256","name":"","type":"uint256"}],"stateMutability":"view","type":"function"},{"inputs":[],"name":"epochCap","outputs":[{"internalType":"uint256","name":"","type":"uint256"}],"stateMutability":"view","type":"function"},{"inputs":[],"name":"finalDiscount","outputs":[{"internalType":"uint256","name":"","type":"uint256"}],"stateMutability":"view","type":"function"},{"inputs":[],"name":"fvc","outputs":[{"internalType":"contract IFVC","name":"","type":"address"}],"stateMutability":"view","type":"function"},{"inputs":[],"name":"fvcAllocated","outputs":[{"internalType":"uint256","name":"","type":"uint256"}],"stateMutability":"view","type":"function"},{"inputs":[],"name":"fvcSold","outputs":[{"internalType":"uint256","name":"","type":"uint256"}],"stateMutability":"view","type":"function"},{"inputs":[],"name":"getCurrentDiscount","outputs":[{"internalType":"uint256","name":"","type":"uint256"}],"stateMutability":"view","type":"function"},{"inputs":[],"name":"getCurrentRound","outputs":[{"components":[{"internalType":"uint256","name":"roundId","type":"uint256"},{"internalType":"uint256","name":"initialDiscount","type":"uint256"},{"internalType":"uint256","name":"finalDiscount","type":"uint256"},{"internalType":"uint256","name":"epochCap","type":"uint256"},{"internalType":"uint256","name":"walletCap","type":"uint256"},{"internalType":"uint256","name":"vestingPeriod","type":"uint256"},{"internalType":"uint256","name":"fvcAllocated","type":"uint256"},{"internalType":"uint256","name":"fvcSold","type":"uint256"},{"internalType":"bool","name":"isActive","type":"bool"},{"internalType":"uint256","name":"totalBonded","type":"uint256"}],"internalType":"struct IBonding.RoundConfig","name":"","type":"tuple"}],"stateMutability":"view","type":"function"},{"inputs":[],"name":"getRemainingFVC","outputs":[{"internalType":"uint256","name":"","type":"uint256"}],"stateMutability":"view","type":"function"},{"inputs":[{"internalType":"address","name":"user","type":"address"}],"name":"getVestingSchedule","outputs":[{"components":[{"internalType":"uint256","name":"amount","type":"uint256"},{"internalType":"uint256","name":"startTime","type":"uint256"},{"internalType":"uint256","name":"endTime","type":"uint256"}],"internalType":"struct IBonding.VestingSchedule","name":"","type":"tuple"}],"stateMutability":"view","type":"function"},{"inputs":[],"name":"initialDiscount","outputs":[{"internalType":"uint256","name":"","type":"uint256"}],"stateMutability":"view","type":"function"},{"inputs":[{"internalType":"address","name":"_fvc","type":"address"},{"internalType":"address","name":"_usdc","type":"address"},{"internalType":"address","name":"_treasury","type":"address"},{"internalType":"uint256","name":"_initialDiscount","type":"uint256"},{"internalType":"uint256","name":"_finalDiscount","type":"uint256"},{"internalType":"uint256","name":"_epochCap","type":"uint256"},{"internalType":"uint256","name":"_walletCap","type":"uint256"},{"internalType":"uint256","name":"_vestingPeriod","type":"uint256"}],"name":"initialise","outputs":[],"stateMutability":"nonpayable","type":"function"},{"inputs":[{"internalType":"address","name":"user","type":"address"}],"name":"isLocked","outputs":[{"internalType":"bool","name":"","type":"bool"}],"stateMutability":"view","type":"function"},{"inputs":[],"name":"owner","outputs":[{"internalType":"address","name":"","type":"address"}],"stateMutability":"view","type":"function"},{"inputs":[],"name":"proxiableUUID","outputs":[{"internalType":"bytes32","name":"","type":"bytes32"}],"stateMutability":"view","type":"function"},{"inputs":[],"name":"renounceOwnership","outputs":[],"stateMutability":"nonpayable","type":"function"},{"inputs":[{"internalType":"uint256","name":"","type":"uint256"}],"name":"rounds","outputs":[{"internalType":"uint256","name":"roundId","type":"uint256"},{"internalType":"uint256","name":"initialDiscount","type":"uint256"},{"internalType":"uint256","name":"finalDiscount","type":"uint256"},{"internalType":"uint256","name":"epochCap","type":"uint256"},{"internalType":"uint256","name":"walletCap","type":"uint256"},{"internalType":"uint256","name":"vestingPeriod","type":"uint256"},{"internalType":"uint256","name":"fvcAllocated","type":"uint256"},{"internalType":"uint256","name":"fvcSold","type":"uint256"},{"internalType":"bool","name":"isActive","type":"bool"},{"internalType":"uint256","name":"totalBonded","type":"uint256"}],"stateMutability":"view","type":"function"},{"inputs":[{"internalType":"uint256","name":"_epochCap","type":"uint256"}],"name":"setEpochCap","outputs":[],"stateMutability":"nonpayable","type":"function"},{"inputs":[{"internalType":"address","name":"_treasury","type":"address"}],"name":"setTreasury","outputs":[],"stateMutability":"nonpayable","type":"function"},{"inputs":[{"internalType":"uint256","name":"_vestingPeriod","type":"uint256"}],"name":"setVestingPeriod","outputs":[],"stateMutability":"nonpayable","type":"function"},{"inputs":[{"internalType":"uint256","name":"_walletCap","type":"uint256"}],"name":"setWalletCap","outputs":[],"stateMutability":"nonpayable","type":"function"},{"inputs":[{"internalType":"uint256","name":"_initialDiscount","type":"uint256"},{"internalType":"uint256","name":"_finalDiscount","type":"uint256"},{"internalType":"uint256","name":"_epochCap","type":"uint256"},{"internalType":"uint256","name":"_walletCap","type":"uint256"},{"internalType":"uint256","name":"_vestingPeriod","type":"uint256"}],"name":"startNewRound","outputs":[],"stateMutability":"nonpayable","type":"function"},{"inputs":[],"name":"startNextRound","outputs":[],"stateMutability":"nonpayable","type":"function"},{"inputs":[],"name":"totalBonded","outputs":[{"internalType":"uint256","name":"","type":"uint256"}],"stateMutability":"view","type":"function"},{"inputs":[{"internalType":"address","name":"newOwner","type":"address"}],"name":"transferOwnership","outputs":[],"stateMutability":"nonpayable","type":"function"},{"inputs":[],"name":"treasury","outputs":[{"internalType":"address","name":"","type":"address"}],"stateMutability":"view","type":"function"},{"inputs":[{"internalType":"address","name":"newImplementation","type":"address"},{"internalType":"bytes","name":"data","type":"bytes"}],"name":"upgradeToAndCall","outputs":[],"stateMutability":"payable","type":"function"},{"inputs":[],"name":"usdc","outputs":[{"internalType":"contract IERC20","name":"","type":"address"}],"stateMutability":"view","type":"function"},{"inputs":[{"internalType":"uint256","name":"","type":"uint256"},{"internalType":"address","name":"","type":"address"}],"name":"userBonded","outputs":[{"internalType":"uint256","name":"","type":"uint256"}],"stateMutability":"view","type":"function"},{"inputs":[],"name":"vestingPeriod","outputs":[{"internalType":"uint256","name":"","type":"uint256"}],"stateMutability":"view","type":"function"},{"inputs":[{"internalType":"address","name":"","type":"address"}],"name":"vestingSchedules","outputs":[{"internalType":"uint256","name":"amount","type":"uint256"},{"internalType":"uint256","name":"startTime","type":"uint256"},{"internalType":"uint256","name":"endTime","type":"uint256"}],"stateMutability":"view","type":"function"},{"inputs":[],"name":"walletCap","outputs":[{"internalType":"uint256","name":"","type":"uint256"}],"stateMutability":"view","type":"function"}],"evm":{"bytecode":{"linkReferences":{},"object":"60a0604052306080523480156200001557600080fd5b506200002062000026565b620000da565b7ff0c57e16840df040f15088dc2f81fe391c3923bec73e23a9662efc9c229c6a00805468010000000000000000900460ff1615620000775760405163f92ee8a960e01b815260040160405180910390fd5b80546001600160401b0390811614620000d75780546001600160401b0319166001600160401b0390811782556040519081527fc7f505b2f371ae2175ee4913f4499e1f2633a7b5936321eed1cdaeb6115181d29060200160405180910390a15b50565b60805161261b6200010460003960008181611bca01528181611bf30152611d39015261261b6000f3fe60806040526004361061021a5760003560e01c80638c65c81f11610123578063d06f518b116100ab578063eaccaae11161006f578063eaccaae1146106dd578063f0eb737a146106f3578063f0f4426014610708578063f2fde38b14610728578063fdb20ccb1461074857600080fd5b8063d06f518b14610630578063d1c17e3814610668578063d93de01714610688578063e033ebb01461069d578063e8ba4b0f146106bd57600080fd5b80639cbe5efd116100f25780639cbe5efd146105585780639f8290631461056e578063a32bf597146105b0578063ad3cb1cc146105d2578063bb1e08441461061057600080fd5b80638c65c81f146104275780638cf407dd146104e55780638da5cb5b146104fb5780639940686e1461053857600080fd5b80634f1ef286116101a657806361d027b31161017557806361d027b3146103a657806365a64668146103c6578063715018a6146103e65780637313ee5a146103fb5780637ec897cd1461041157600080fd5b80634f1ef2861461035257806352d1902d1461036557806358950c221461037a578063610250601461039057600080fd5b806340bee0ed116101ed57806340bee0ed146102b657806344d96e95146102d6578063473357f1146102ec5780634a4fbeec146103025780634cabb8241461033257600080fd5b80630b8f760b1461021f57806336fb2cf5146102415780633c3ccc44146102695780633e413bee1461027e575b600080fd5b34801561022b57600080fd5b5061023f61023a3660046121fd565b61079f565b005b34801561024d57600080fd5b50610256610888565b6040519081526020015b60405180910390f35b34801561027557600080fd5b5061023f61089f565b34801561028a57600080fd5b5060015461029e906001600160a01b031681565b6040516001600160a01b039091168152602001610260565b3480156102c257600080fd5b5061023f6102d13660046121fd565b610dad565b3480156102e257600080fd5b50610256600c5481565b3480156102f857600080fd5b5061025660065481565b34801561030e57600080fd5b5061032261031d366004612232565b610e12565b6040519015158152602001610260565b34801561033e57600080fd5b5061025661034d3660046121fd565b610e72565b61023f610360366004612263565b610e89565b34801561037157600080fd5b50610256610ea8565b34801561038657600080fd5b5061025660085481565b34801561039c57600080fd5b5061025660075481565b3480156103b257600080fd5b5060025461029e906001600160a01b031681565b3480156103d257600080fd5b5061023f6103e13660046121fd565b610ec5565b3480156103f257600080fd5b5061023f610f02565b34801561040757600080fd5b5061025660095481565b34801561041d57600080fd5b5061025660055481565b34801561043357600080fd5b506104996104423660046121fd565b60046020819052600091825260409091208054600182015460028301546003840154948401546005850154600686015460078701546008880154600990980154969895979496939492939192909160ff909116908a565b604080519a8b5260208b0199909952978901969096526060880194909452608087019290925260a086015260c085015260e0840152151561010083015261012082015261014001610260565b3480156104f157600080fd5b50610256600a5481565b34801561050757600080fd5b507f9016d09d72d40fdae2fd8ceac6b6234c7706214fd39c1cd1e609a0528c199300546001600160a01b031661029e565b34801561054457600080fd5b5061023f6105533660046121fd565b610f16565b34801561056457600080fd5b5061025660035481565b34801561057a57600080fd5b5061058e610589366004612232565b6111ec565b6040805182518152602080840151908201529181015190820152606001610260565b3480156105bc57600080fd5b506105c5611252565b6040516102609190612325565b3480156105de57600080fd5b50610603604051806040016040528060058152602001640352e302e360dc1b81525081565b60405161026091906123c1565b34801561061c57600080fd5b5061023f61062b3660046123f4565b611332565b34801561063c57600080fd5b5061025661064b366004612465565b600d60209081526000928352604080842090915290825290205481565b34801561067457600080fd5b5060005461029e906001600160a01b031681565b34801561069457600080fd5b5061023f61171d565b3480156106a957600080fd5b5061023f6106b83660046121fd565b611793565b3480156106c957600080fd5b5061023f6106d8366004612491565b6117d0565b3480156106e957600080fd5b50610256600b5481565b3480156106ff57600080fd5b506102566119e7565b34801561071457600080fd5b5061023f610723366004612232565b6119fd565b34801561073457600080fd5b5061023f610743366004612232565b611a27565b34801561075457600080fd5b50610784610763366004612232565b600e6020526000908152604090208054600182015460029092015490919083565b60408051938452602084019290925290820152606001610260565b6107a7611a6a565b6003546000908152600460205260409020600881015460ff166107dd5760405163b885dfef60e01b815260040160405180910390fd5b816000036107fe5760405163d3590a8360e01b815260040160405180910390fd5b600054610816906001600160a01b0316333085611ac5565b81600a600082825461082891906124e2565b925050819055508181600601600082825461084391906124e2565b909155505060035460408051918252602082018490527f7cdd16d98681f4d22957409604a564ef1d8cd2b0d5cc5235d444451f03324b13910160405180910390a15050565b6000600b54600a5461089a91906124f5565b905090565b6108a7611a6a565b6003546000908152600460205260409020600881015460ff16156108de5760405163ccf5bf4560e01b815260040160405180910390fd5b600560035410610901576040516346dc4d3b60e01b815260040160405180910390fd5b60006040518060a001604052806019815260200160148152602001600f8152602001600a81526020016005815250905060006040518060a00160405280600581526020016003815260200160028152602001600181526020016000815250905060006040518060a001604052806304c4b400670de0b6b3a76400006109869190612508565b81526020016109a16303938700670de0b6b3a7640000612508565b81526020016109bc6302625a00670de0b6b3a7640000612508565b81526020016109d662e4e1c0670de0b6b3a7640000612508565b81526020016109f0624c4b40670de0b6b3a7640000612508565b815250905060006040518060a00160405280627a1200670de0b6b3a7640000610a199190612508565b8152602001610a33625b8d80670de0b6b3a7640000612508565b8152602001610a4d623d0900670de0b6b3a7640000612508565b8152602001610a67621e8480670de0b6b3a7640000612508565b8152602001610a81620f4240670de0b6b3a7640000612508565b81525090506003546000805160206125a68339815191528660090154604051610aac91815260200190565b60405180910390a260038054906000610ac48361251f565b9190505550836001600354610ad991906124f5565b60058110610ae957610ae9612538565b60200201516005556003548390610b02906001906124f5565b60058110610b1257610b12612538565b60200201516006556003548290610b2b906001906124f5565b60058110610b3b57610b3b612538565b60200201516007556003548190610b54906001906124f5565b60058110610b6457610b64612538565b60200201516008819055506000600c819055506040518061014001604052806003548152602001856001600354610b9b91906124f5565b60058110610bab57610bab612538565b60200201518152602001846001600354610bc591906124f5565b60058110610bd557610bd5612538565b60200201518152602001836001600354610bef91906124f5565b60058110610bff57610bff612538565b60200201518152602001826001600354610c1991906124f5565b60058110610c2957610c29612538565b60200201518152602001600954815260200160008152602001600081526020016001151581526020016000815250600460006003548152602001908152602001600020600082015181600001556020820151816001015560408201518160020155606082015181600301556080820151816004015560a0820151816005015560c0820151816006015560e082015181600701556101008201518160080160006101000a81548160ff02191690831515021790555061012082015181600901559050506003547ffd9d17e5565deea3d25918d95fc398673b9445ef0a96d12eaf3ab2b198756c65856001600354610d1f91906124f5565b60058110610d2f57610d2f612538565b6020020151856001600354610d4491906124f5565b60058110610d5457610d54612538565b6020020151856001600354610d6991906124f5565b60058110610d7957610d79612538565b6020020151604051610d9e939291909283526020830191909152604082015260600190565b60405180910390a25050505050565b610db5611a6a565b80600003610dd657604051631b3cc90f60e01b815260040160405180910390fd5b60098190556040518181527fc21cb0f112058f1eb0e3313a577dfc27e6be5b39127591e05245343a422e4915906020015b60405180910390a150565b6001600160a01b0381166000908152600e6020908152604080832081516060810183528154808252600183015494820194909452600290910154918101919091529015801590610e6b5750610e6b428260400151611b32565b9392505050565b600080610e7d6119e7565b9050610e6b8382611b3c565b610e91611bbf565b610e9a82611c64565b610ea48282611c6c565b5050565b6000610eb2611d2e565b506000805160206125c683398151915290565b610ecd611a6a565b60088190556040518181527f4784309e6b1f1431c711eac5e572f9ba2d542ecb5428efc0e927b794f4e8e2c190602001610e07565b610f0a611a6a565b610f146000611d77565b565b80600003610f375760405163d3590a8360e01b815260040160405180910390fd5b6003546000908152600460205260409020600881015460ff16610f6d5760405163b885dfef60e01b815260040160405180910390fd5b600a5482600b54610f7e91906124e2565b1115610f9d5760405163437d78f560e01b815260040160405180910390fd5b6000610fa76119e7565b90506000610fb58483611b3c565b6008546003546000908152600d6020908152604080832033845290915290205491925090610fe49083906124e2565b1115611003576040516375284bdb60e01b815260040160405180910390fd5b600254600154611022916001600160a01b039182169133911684611ac5565b600054611039906001600160a01b03163386611de8565b80600c600082825461104b91906124e2565b925050819055508083600901600082825461106691906124e2565b925050819055508383600701600082825461108191906124e2565b9250508190555083600b600082825461109a91906124e2565b90915550506003546000908152600d60209081526040808320338452909152812080548392906110cb9084906124e2565b909155505060095442906000906110e290836124e2565b604080516060810182528881526020808201868152828401858152336000818152600e85528690209451855591516001850155516002909301929092559151868152929350917fd0a009034e24a39106653c4903cf28b1947b8a9964d03206648e0f0a5de74a46910160405180910390a2604080518781526020810184905290810182905233907f892f1a841b10e4b041cc41d8cc47c6a6049f1ff5fa272ddf47a0aa5ad8f59d139060600160405180910390a2600a54600b54106111e45760088501805460ff191690556111b5611e19565b6003546000805160206125a683398151915286600901546040516111db91815260200190565b60405180910390a25b505050505050565b61121060405180606001604052806000815260200160008152602001600081525090565b506001600160a01b03166000908152600e6020908152604091829020825160608101845281548152600182015492810192909252600201549181019190915290565b6112aa6040518061014001604052806000815260200160008152602001600081526020016000815260200160008152602001600081526020016000815260200160008152602001600015158152602001600081525090565b5060038054600090815260046020818152604092839020835161014081018552815481526001820154928101929092526002810154938201939093529282015460608401528101546080830152600581015460a0830152600681015460c0830152600781015460e0830152600881015460ff1615156101008301526009015461012082015290565b600061133c611ea8565b805490915060ff600160401b820416159067ffffffffffffffff166000811580156113645750825b905060008267ffffffffffffffff1660011480156113815750303b155b90508115801561138f575080155b156113ad5760405163f92ee8a960e01b815260040160405180910390fd5b845467ffffffffffffffff1916600117855583156113d757845460ff60401b1916600160401b1785555b6113e033611ed1565b6113e8611ee2565b8c6000806101000a8154816001600160a01b0302191690836001600160a01b031602179055508b600160006101000a8154816001600160a01b0302191690836001600160a01b031602179055508a600260006101000a8154816001600160a01b0302191690836001600160a01b03160217905550888a1161147c576040516381b8843960e01b815260040160405180910390fd5b8560000361149d57604051631b3cc90f60e01b815260040160405180910390fd5b6001600381905560058b905560068a9055600789905560088890556009879055604080516101408101825282815260208082018e81528284018e815260608085018f8152608086018f815260a087018f8152600060c0890181815260e08a018281526101008b018d81526101208c01848152938e905260048b529a517fabd6e7cb50984ff9c2f3e18a2660c3353dadf4e3291deeb275dae2cd1e44fe055597517fabd6e7cb50984ff9c2f3e18a2660c3353dadf4e3291deeb275dae2cd1e44fe065595517fabd6e7cb50984ff9c2f3e18a2660c3353dadf4e3291deeb275dae2cd1e44fe075592517fabd6e7cb50984ff9c2f3e18a2660c3353dadf4e3291deeb275dae2cd1e44fe085590517fabd6e7cb50984ff9c2f3e18a2660c3353dadf4e3291deeb275dae2cd1e44fe0955517fabd6e7cb50984ff9c2f3e18a2660c3353dadf4e3291deeb275dae2cd1e44fe0a5591517fabd6e7cb50984ff9c2f3e18a2660c3353dadf4e3291deeb275dae2cd1e44fe0b5591517fabd6e7cb50984ff9c2f3e18a2660c3353dadf4e3291deeb275dae2cd1e44fe0c5592517fabd6e7cb50984ff9c2f3e18a2660c3353dadf4e3291deeb275dae2cd1e44fe0d805460ff191691151591909117905591517fabd6e7cb50984ff9c2f3e18a2660c3353dadf4e3291deeb275dae2cd1e44fe0e5582518e81529081018d90529182018b90527ffd9d17e5565deea3d25918d95fc398673b9445ef0a96d12eaf3ab2b198756c65910160405180910390a2831561170e57845460ff60401b19168555604051600181527fc7f505b2f371ae2175ee4913f4499e1f2633a7b5936321eed1cdaeb6115181d29060200160405180910390a15b50505050505050505050505050565b611725611a6a565b6003546000908152600460205260409020600881015460ff1661175b5760405163b885dfef60e01b815260040160405180910390fd5b60088101805460ff1916905560035460098201546040519081526000805160206125a68339815191529060200160405180910390a250565b61179b611a6a565b60078190556040518181527f5f444d43ef974de0a9762ea40d495ac7a320efb6f44e8f1c32505b3cbc026d9c90602001610e07565b6117d8611a6a565b6003546000908152600460205260409020600881015460ff161561180f5760405163ccf5bf4560e01b815260040160405180910390fd5b84861161182f576040516381b8843960e01b815260040160405180910390fd5b8160000361185057604051631b3cc90f60e01b815260040160405180910390fd5b6003546000805160206125a6833981519152826009015460405161187691815260200190565b60405180910390a26003805490600061188e8361251f565b919050555085600581905550846006819055508360078190555082600881905550816009819055506000600c81905550604051806101400160405280600354815260200187815260200186815260200185815260200184815260200183815260200160008152602001600081526020016001151581526020016000815250600460006003548152602001908152602001600020600082015181600001556020820151816001015560408201518160020155606082015181600301556080820151816004015560a0820151816005015560c0820151816006015560e082015181600701556101008201518160080160006101000a81548160ff02191690831515021790555061012082015181600901559050506003547ffd9d17e5565deea3d25918d95fc398673b9445ef0a96d12eaf3ab2b198756c658787876040516111db939291909283526020830191909152604082015260600190565b600061089a600c54600754600554600654611eea565b611a05611a6a565b600280546001600160a01b0319166001600160a01b0392909216919091179055565b611a2f611a6a565b6001600160a01b038116611a5e57604051631e4fbdf760e01b8152600060048201526024015b60405180910390fd5b611a6781611d77565b50565b33611a9c7f9016d09d72d40fdae2fd8ceac6b6234c7706214fd39c1cd1e609a0528c199300546001600160a01b031690565b6001600160a01b031614610f145760405163118cdaa760e01b8152336004820152602401611a55565b6040516001600160a01b038481166024830152838116604483015260648201839052611b2c9186918216906323b872dd906084015b604051602081830303815290604052915060e01b6020820180516001600160e01b038381831617835250505050611f71565b50505050565b8082105b92915050565b60006064821115611b8f5760405162461bcd60e51b815260206004820152601b60248201527f446973636f756e742063616e6e6f7420657863656564203130302500000000006044820152606401611a55565b64e8d4a51000611ba08360646124e2565b611baa908561254e565b611bb5906064612508565b610e6b919061254e565b306001600160a01b037f0000000000000000000000000000000000000000000000000000000000000000161480611c4657507f00000000000000000000000000000000000000000000000000000000000000006001600160a01b0316611c3a6000805160206125c6833981519152546001600160a01b031690565b6001600160a01b031614155b15610f145760405163703e46dd60e11b815260040160405180910390fd5b611a67611a6a565b816001600160a01b03166352d1902d6040518163ffffffff1660e01b8152600401602060405180830381865afa925050508015611cc6575060408051601f3d908101601f19168201909252611cc391810190612570565b60015b611cee57604051634c9c8ce360e01b81526001600160a01b0383166004820152602401611a55565b6000805160206125c68339815191528114611d1f57604051632a87526960e21b815260048101829052602401611a55565b611d298383611fe2565b505050565b306001600160a01b037f00000000000000000000000000000000000000000000000000000000000000001614610f145760405163703e46dd60e11b815260040160405180910390fd5b7f9016d09d72d40fdae2fd8ceac6b6234c7706214fd39c1cd1e609a0528c19930080546001600160a01b031981166001600160a01b03848116918217845560405192169182907f8be0079c531659141344cd1fd0a4f28419497f9722a3daafe3b4186f6b6457e090600090a3505050565b6040516001600160a01b03838116602483015260448201839052611d2991859182169063a9059cbb90606401611afa565b611e21611a6a565b6003546000908152600460205260408120905b8160090154811015610ea457336000818152600e6020908152604091829020825160608101845281548082526001830154938201939093526002909101549281019290925215611e9e576001600160a01b0382166000908152600e60205260409020426002909101555b5050600101611e34565b6000807ff0c57e16840df040f15088dc2f81fe391c3923bec73e23a9662efc9c229c6a00611b36565b611ed9612038565b611a678161205d565b610f14612038565b600084600003611efb575081611f69565b838510611f09575080611f69565b600084611f1887612710612508565b611f22919061254e565b90506000611f3084866124f5565b9050612710611f3f8284612508565b611f49919061254e565b611f5390866124f5565b9250838311611f625783611f64565b825b925050505b949350505050565b600080602060008451602086016000885af180611f94576040513d6000823e3d81fd5b50506000513d91508115611fac578060011415611fb9565b6001600160a01b0384163b155b15611b2c57604051635274afe760e01b81526001600160a01b0385166004820152602401611a55565b611feb82612065565b6040516001600160a01b038316907fbc7cd75a20ee27fd9adebab32041f755214dbc6bffa90cc0225b39da2e5c2d3b90600090a280511561203057611d2982826120ca565b610ea4612140565b61204061215f565b610f1457604051631afcd79f60e31b815260040160405180910390fd5b611a2f612038565b806001600160a01b03163b60000361209b57604051634c9c8ce360e01b81526001600160a01b0382166004820152602401611a55565b6000805160206125c683398151915280546001600160a01b0319166001600160a01b0392909216919091179055565b6060600080846001600160a01b0316846040516120e79190612589565b600060405180830381855af49150503d8060008114612122576040519150601f19603f3d011682016040523d82523d6000602084013e612127565b606091505b5091509150612137858383612179565b95945050505050565b3415610f145760405163b398979f60e01b815260040160405180910390fd5b6000612169611ea8565b54600160401b900460ff16919050565b60608261218e57612189826121d5565b610e6b565b81511580156121a557506001600160a01b0384163b155b156121ce57604051639996b31560e01b81526001600160a01b0385166004820152602401611a55565b5092915050565b8051156121e457805160208201fd5b60405163d6bda27560e01b815260040160405180910390fd5b60006020828403121561220f57600080fd5b5035919050565b80356001600160a01b038116811461222d57600080fd5b919050565b60006020828403121561224457600080fd5b610e6b82612216565b634e487b7160e01b600052604160045260246000fd5b6000806040838503121561227657600080fd5b61227f83612216565b9150602083013567ffffffffffffffff8082111561229c57600080fd5b818501915085601f8301126122b057600080fd5b8135818111156122c2576122c261224d565b604051601f8201601f19908116603f011681019083821181831017156122ea576122ea61224d565b8160405282815288602084870101111561230357600080fd5b8260208601602083013760006020848301015280955050505050509250929050565b600061014082019050825182526020830151602083015260408301516040830152606083015160608301526080830151608083015260a083015160a083015260c083015160c083015260e083015160e08301526101008084015161238c8285018215159052565b505061012092830151919092015290565b60005b838110156123b85781810151838201526020016123a0565b50506000910152565b60208152600082518060208401526123e081604085016020870161239d565b601f01601f19169190910160400192915050565b600080600080600080600080610100898b03121561241157600080fd5b61241a89612216565b975061242860208a01612216565b965061243660408a01612216565b979a96995096976060810135975060808101359660a0820135965060c0820135955060e0909101359350915050565b6000806040838503121561247857600080fd5b8235915061248860208401612216565b90509250929050565b600080600080600060a086880312156124a957600080fd5b505083359560208501359550604085013594606081013594506080013592509050565b634e487b7160e01b600052601160045260246000fd5b80820180821115611b3657611b366124cc565b81810381811115611b3657611b366124cc565b8082028115828204841417611b3657611b366124cc565b600060018201612531576125316124cc565b5060010190565b634e487b7160e01b600052603260045260246000fd5b60008261256b57634e487b7160e01b600052601260045260246000fd5b500490565b60006020828403121561258257600080fd5b5051919050565b6000825161259b81846020870161239d565b919091019291505056fe867bc48474afbd71c32542f493801861b7fa916f53f0e706e1bb8a3f47709c28360894a13ba1a3210667c828492db98dca3e2076cc3735a920a3ca505d382bbca264697066735822122085ac2ea4dc8f53d3af4082aa4d874e351671f4e4cdb32e545df3ddc134c936dd64736f6c63430008180033","opcodes":"PUSH1 0xA0 PUSH1 0x40 MSTORE ADDRESS PUSH1 0x80 MSTORE CALLVALUE DUP1 ISZERO PUSH3 0x15 JUMPI PUSH1 0x0 DUP1 REVERT JUMPDEST POP PUSH3 0x20 PUSH3 0x26 JUMP JUMPDEST PUSH3 0xDA JUMP JUMPDEST PUSH32 0xF0C57E16840DF040F15088DC2F81FE391C3923BEC73E23A9662EFC9C229C6A00 DUP1 SLOAD PUSH9 0x10000000000000000 SWAP1 DIV PUSH1 0xFF AND ISZERO PUSH3 0x77 JUMPI PUSH1 0x40 MLOAD PUSH4 0xF92EE8A9 PUSH1 0xE0 SHL DUP2 MSTORE PUSH1 0x4 ADD PUSH1 0x40 MLOAD DUP1 SWAP2 SUB SWAP1 REVERT JUMPDEST DUP1 SLOAD PUSH1 0x1 PUSH1 0x1 PUSH1 0x40 SHL SUB SWAP1 DUP2 AND EQ PUSH3 0xD7 JUMPI DUP1 SLOAD PUSH1 0x1 PUSH1 0x1 PUSH1 0x40 SHL SUB NOT AND PUSH1 0x1 PUSH1 0x1 PUSH1 0x40 SHL SUB SWAP1 DUP2 OR DUP3 SSTORE PUSH1 0x40 MLOAD SWAP1 DUP2 MSTORE PUSH32 0xC7F505B2F371AE2175EE4913F4499E1F2633A7B5936321EED1CDAEB6115181D2 SWAP1 PUSH1 0x20 ADD PUSH1 0x40 MLOAD DUP1 SWAP2 SUB SWAP1 LOG1 JUMPDEST POP JUMP JUMPDEST PUSH1 0x80 MLOAD PUSH2 0x261B PUSH3 0x104 PUSH1 0x0 CODECOPY PUSH1 0x0 DUP2 DUP2 PUSH2 0x1BCA ADD MSTORE DUP2 DUP2 PUSH2 0x1BF3 ADD MSTORE PUSH2 0x1D39 ADD MSTORE PUSH2 0x261B PUSH1 0x0 RETURN INVALID PUSH1 0x80 PUSH1 0x40 MSTORE PUSH1 0x4 CALLDATASIZE LT PUSH2 0x21A JUMPI PUSH1 0x0 CALLDATALOAD PUSH1 0xE0 SHR DUP1 PUSH4 0x8C65C81F GT PUSH2 0x123 JUMPI DUP1 PUSH4 0xD06F518B GT PUSH2 0xAB JUMPI DUP1 PUSH4 0xEACCAAE1 GT PUSH2 0x6F JUMPI DUP1 PUSH4 0xEACCAAE1 EQ PUSH2 0x6DD JUMPI DUP1 PUSH4 0xF0EB737A EQ PUSH2 0x6F3 JUMPI DUP1 PUSH4 0xF0F44260 EQ PUSH2 0x708 JUMPI DUP1 PUSH4 0xF2FDE38B EQ PUSH2 0x728 JUMPI DUP1 PUSH4 0xFDB20CCB EQ PUSH2 0x748 JUMPI PUSH1 0x0 DUP1 REVERT JUMPDEST DUP1 PUSH4 0xD06F518B EQ PUSH2 0x630 JUMPI DUP1 PUSH4 0xD1C17E38 EQ PUSH2 0x668 JUMPI DUP1 PUSH4 0xD93DE017 EQ PUSH2 0x688 JUMPI DUP1 PUSH4 0xE033EBB0 EQ PUSH2 0x69D JUMPI DUP1 PUSH4 0xE8BA4B0F EQ PUSH2 0x6BD JUMPI PUSH1 0x0 DUP1 REVERT JUMPDEST DUP1 PUSH4 0x9CBE5EFD GT PUSH2 0xF2 JUMPI DUP1 PUSH4 0x9CBE5EFD EQ PUSH2 0x558 JUMPI DUP1 PUSH4 0x9F829063 EQ PUSH2 0x56E JUMPI DUP1 PUSH4 0xA32BF597 EQ PUSH2 0x5B0 JUMPI DUP1 PUSH4 0xAD3CB1CC EQ PUSH2 0x5D2 JUMPI DUP1 PUSH4 0xBB1E0844 EQ PUSH2 0x610 JUMPI PUSH1 0x0 DUP1 REVERT JUMPDEST DUP1 PUSH4 0x8C65C81F EQ PUSH2 0x427 JUMPI DUP1 PUSH4 0x8CF407DD EQ PUSH2 0x4E5 JUMPI DUP1 PUSH4 0x8DA5CB5B EQ PUSH2 0x4FB JUMPI DUP1 PUSH4 0x9940686E EQ PUSH2 0x538 JUMPI PUSH1 0x0 DUP1 REVERT JUMPDEST DUP1 PUSH4 0x4F1EF286 GT PUSH2 0x1A6 JUMPI DUP1 PUSH4 0x61D027B3 GT PUSH2 0x175 JUMPI DUP1 PUSH4 0x61D027B3 EQ PUSH2 0x3A6 JUMPI DUP1 PUSH4 0x65A64668 EQ PUSH2 0x3C6 JUMPI DUP1 PUSH4 0x715018A6 EQ PUSH2 0x3E6 JUMPI DUP1 PUSH4 0x7313EE5A EQ PUSH2 0x3FB JUMPI DUP1 PUSH4 0x7EC897CD EQ PUSH2 0x411 JUMPI PUSH1 0x0 DUP1 REVERT JUMPDEST DUP1 PUSH4 0x4F1EF286 EQ PUSH2 0x352 JUMPI DUP1 PUSH4 0x52D1902D EQ PUSH2 0x365 JUMPI DUP1 PUSH4 0x58950C22 EQ PUSH2 0x37A JUMPI DUP1 PUSH4 0x61025060 EQ PUSH2 0x390 JUMPI PUSH1 0x0 DUP1 REVERT JUMPDEST DUP1 PUSH4 0x40BEE0ED GT PUSH2 0x1ED JUMPI DUP1 PUSH4 0x40BEE0ED EQ PUSH2 0x2B6 JUMPI DUP1 PUSH4 0x44D96E95 EQ PUSH2 0x2D6 JUMPI DUP1 PUSH4 0x473357F1 EQ PUSH2 0x2EC JUMPI DUP1 PUSH4 0x4A4FBEEC EQ PUSH2 0x302 JUMPI DUP1 PUSH4 0x4CABB824 EQ PUSH2 0x332 JUMPI PUSH1 0x0 DUP1 REVERT JUMPDEST DUP1 PUSH4 0xB8F760B EQ PUSH2 0x21F JUMPI DUP1 PUSH4 0x36FB2CF5 EQ PUSH2 0x241 JUMPI DUP1 PUSH4 0x3C3CCC44 EQ PUSH2 0x269 JUMPI DUP1 PUSH4 0x3E413BEE EQ PUSH2 0x27E JUMPI JUMPDEST PUSH1 0x0 DUP1 REVERT JUMPDEST CALLVALUE DUP1 ISZERO PUSH2 0x22B JUMPI PUSH1 0x0 DUP1 REVERT JUMPDEST POP PUSH2 0x23F PUSH2 0x23A CALLDATASIZE PUSH1 0x4 PUSH2 0x21FD JUMP JUMPDEST PUSH2 0x79F JUMP JUMPDEST STOP JUMPDEST CALLVALUE DUP1 ISZERO PUSH2 0x24D JUMPI PUSH1 0x0 DUP1 REVERT JUMPDEST POP PUSH2 0x256 PUSH2 0x888 JUMP JUMPDEST PUSH1 0x40 MLOAD SWAP1 DUP2 MSTORE PUSH1 0x20 ADD JUMPDEST PUSH1 0x40 MLOAD DUP1 SWAP2 SUB SWAP1 RETURN JUMPDEST CALLVALUE DUP1 ISZERO PUSH2 0x275 JUMPI PUSH1 0x0 DUP1 REVERT JUMPDEST POP PUSH2 0x23F PUSH2 0x89F JUMP JUMPDEST CALLVALUE DUP1 ISZERO PUSH2 0x28A JUMPI PUSH1 0x0 DUP1 REVERT JUMPDEST POP PUSH1 0x1 SLOAD PUSH2 0x29E SWAP1 PUSH1 0x1 PUSH1 0x1 PUSH1 0xA0 SHL SUB AND DUP2 JUMP JUMPDEST PUSH1 0x40 MLOAD PUSH1 0x1 PUSH1 0x1 PUSH1 0xA0 SHL SUB SWAP1 SWAP2 AND DUP2 MSTORE PUSH1 0x20 ADD PUSH2 0x260 JUMP JUMPDEST CALLVALUE DUP1 ISZERO PUSH2 0x2C2 JUMPI PUSH1 0x0 DUP1 REVERT JUMPDEST POP PUSH2 0x23F PUSH2 0x2D1 CALLDATASIZE PUSH1 0x4 PUSH2 0x21FD JUMP JUMPDEST PUSH2 0xDAD JUMP JUMPDEST CALLVALUE DUP1 ISZERO PUSH2 0x2E2 JUMPI PUSH1 0x0 DUP1 REVERT JUMPDEST POP PUSH2 0x256 PUSH1 0xC SLOAD DUP2 JUMP JUMPDEST CALLVALUE DUP1 ISZERO PUSH2 0x2F8 JUMPI PUSH1 0x0 DUP1 REVERT JUMPDEST POP PUSH2 0x256 PUSH1 0x6 SLOAD DUP2 JUMP JUMPDEST CALLVALUE DUP1 ISZERO PUSH2 0x30E JUMPI PUSH1 0x0 DUP1 REVERT JUMPDEST POP PUSH2 0x322 PUSH2 0x31D CALLDATASIZE PUSH1 0x4 PUSH2 0x2232 JUMP JUMPDEST PUSH2 0xE12 JUMP JUMPDEST PUSH1 0x40 MLOAD SWAP1 ISZERO ISZERO DUP2 MSTORE PUSH1 0x20 ADD PUSH2 0x260 JUMP JUMPDEST CALLVALUE DUP1 ISZERO PUSH2 0x33E JUMPI PUSH1 0x0 DUP1 REVERT JUMPDEST POP PUSH2 0x256 PUSH2 0x34D CALLDATASIZE PUSH1 0x4 PUSH2 0x21FD JUMP JUMPDEST PUSH2 0xE72 JUMP JUMPDEST PUSH2 0x23F PUSH2 0x360 CALLDATASIZE PUSH1 0x4 PUSH2 0x2263 JUMP JUMPDEST PUSH2 0xE89 JUMP JUMPDEST CALLVALUE DUP1 ISZERO PUSH2 0x371 JUMPI PUSH1 0x0 DUP1 REVERT JUMPDEST POP PUSH2 0x256 PUSH2 0xEA8 JUMP JUMPDEST CALLVALUE DUP1 ISZERO PUSH2 0x386 JUMPI PUSH1 0x0 DUP1 REVERT JUMPDEST POP PUSH2 0x256 PUSH1 0x8 SLOAD DUP2 JUMP JUMPDEST CALLVALUE DUP1 ISZERO PUSH2 0x39C JUMPI PUSH1 0x0 DUP1 REVERT JUMPDEST POP PUSH2 0x256 PUSH1 0x7 SLOAD DUP2 JUMP JUMPDEST CALLVALUE DUP1 ISZERO PUSH2 0x3B2 JUMPI PUSH1 0x0 DUP1 REVERT JUMPDEST POP PUSH1 0x2 SLOAD PUSH2 0x29E SWAP1 PUSH1 0x1 PUSH1 0x1 PUSH1 0xA0 SHL SUB AND DUP2 JUMP JUMPDEST CALLVALUE DUP1 ISZERO PUSH2 0x3D2 JUMPI PUSH1 0x0 DUP1 REVERT JUMPDEST POP PUSH2 0x23F PUSH2 0x3E1 CALLDATASIZE PUSH1 0x4 PUSH2 0x21FD JUMP JUMPDEST PUSH2 0xEC5 JUMP JUMPDEST CALLVALUE DUP1 ISZERO PUSH2 0x3F2 JUMPI PUSH1 0x0 DUP1 REVERT JUMPDEST POP PUSH2 0x23F PUSH2 0xF02 JUMP JUMPDEST CALLVALUE DUP1 ISZERO PUSH2 0x407 JUMPI PUSH1 0x0 DUP1 REVERT JUMPDEST POP PUSH2 0x256 PUSH1 0x9 SLOAD DUP2 JUMP JUMPDEST CALLVALUE DUP1 ISZERO PUSH2 0x41D JUMPI PUSH1 0x0 DUP1 REVERT JUMPDEST POP PUSH2 0x256 PUSH1 0x5 SLOAD DUP2 JUMP JUMPDEST CALLVALUE DUP1 ISZERO PUSH2 0x433 JUMPI PUSH1 0x0 DUP1 REVERT JUMPDEST POP PUSH2 0x499 PUSH2 0x442 CALLDATASIZE PUSH1 0x4 PUSH2 0x21FD JUMP JUMPDEST PUSH1 0x4 PUSH1 0x20 DUP2 SWAP1 MSTORE PUSH1 0x0 SWAP2 DUP3 MSTORE PUSH1 0x40 SWAP1 SWAP2 KECCAK256 DUP1 SLOAD PUSH1 0x1 DUP3 ADD SLOAD PUSH1 0x2 DUP4 ADD SLOAD PUSH1 0x3 DUP5 ADD SLOAD SWAP5 DUP5 ADD SLOAD PUSH1 0x5 DUP6 ADD SLOAD PUSH1 0x6 DUP7 ADD SLOAD PUSH1 0x7 DUP8 ADD SLOAD PUSH1 0x8 DUP9 ADD SLOAD PUSH1 0x9 SWAP1 SWAP9 ADD SLOAD SWAP7 SWAP9 SWAP6 SWAP8 SWAP5 SWAP7 SWAP4 SWAP5 SWAP3 SWAP4 SWAP2 SWAP3 SWAP1 SWAP2 PUSH1 0xFF SWAP1 SWAP2 AND SWAP1 DUP11 JUMP JUMPDEST PUSH1 0x40 DUP1 MLOAD SWAP11 DUP12 MSTORE PUSH1 0x20 DUP12 ADD SWAP10 SWAP1 SWAP10 MSTORE SWAP8 DUP10 ADD SWAP7 SWAP1 SWAP7 MSTORE PUSH1 0x60 DUP9 ADD SWAP5 SWAP1 SWAP5 MSTORE PUSH1 0x80 DUP8 ADD SWAP3 SWAP1 SWAP3 MSTORE PUSH1 0xA0 DUP7 ADD MSTORE PUSH1 0xC0 DUP6 ADD MSTORE PUSH1 0xE0 DUP5 ADD MSTORE ISZERO ISZERO PUSH2 0x100 DUP4 ADD MSTORE PUSH2 0x120 DUP3 ADD MSTORE PUSH2 0x140 ADD PUSH2 0x260 JUMP JUMPDEST CALLVALUE DUP1 ISZERO PUSH2 0x4F1 JUMPI PUSH1 0x0 DUP1 REVERT JUMPDEST POP PUSH2 0x256 PUSH1 0xA SLOAD DUP2 JUMP JUMPDEST CALLVALUE DUP1 ISZERO PUSH2 0x507 JUMPI PUSH1 0x0 DUP1 REVERT JUMPDEST POP PUSH32 0x9016D09D72D40FDAE2FD8CEAC6B6234C7706214FD39C1CD1E609A0528C199300 SLOAD PUSH1 0x1 PUSH1 0x1 PUSH1 0xA0 SHL SUB AND PUSH2 0x29E JUMP JUMPDEST CALLVALUE DUP1 ISZERO PUSH2 0x544 JUMPI PUSH1 0x0 DUP1 REVERT JUMPDEST POP PUSH2 0x23F PUSH2 0x553 CALLDATASIZE PUSH1 0x4 PUSH2 0x21FD JUMP JUMPDEST PUSH2 0xF16 JUMP JUMPDEST CALLVALUE DUP1 ISZERO PUSH2 0x564 JUMPI PUSH1 0x0 DUP1 REVERT JUMPDEST POP PUSH2 0x256 PUSH1 0x3 SLOAD DUP2 JUMP JUMPDEST CALLVALUE DUP1 ISZERO PUSH2 0x57A JUMPI PUSH1 0x0 DUP1 REVERT JUMPDEST POP PUSH2 0x58E PUSH2 0x589 CALLDATASIZE PUSH1 0x4 PUSH2 0x2232 JUMP JUMPDEST PUSH2 0x11EC JUMP JUMPDEST PUSH1 0x40 DUP1 MLOAD DUP3 MLOAD DUP2 MSTORE PUSH1 0x20 DUP1 DUP5 ADD MLOAD SWAP1 DUP3 ADD MSTORE SWAP2 DUP2 ADD MLOAD SWAP1 DUP3 ADD MSTORE PUSH1 0x60 ADD PUSH2 0x260 JUMP JUMPDEST CALLVALUE DUP1 ISZERO PUSH2 0x5BC JUMPI PUSH1 0x0 DUP1 REVERT JUMPDEST POP PUSH2 0x5C5 PUSH2 0x1252 JUMP JUMPDEST PUSH1 0x40 MLOAD PUSH2 0x260 SWAP2 SWAP1 PUSH2 0x2325 JUMP JUMPDEST CALLVALUE DUP1 ISZERO PUSH2 0x5DE JUMPI PUSH1 0x0 DUP1 REVERT JUMPDEST POP PUSH2 0x603 PUSH1 0x40 MLOAD DUP1 PUSH1 0x40 ADD PUSH1 0x40 MSTORE DUP1 PUSH1 0x5 DUP2 MSTORE PUSH1 0x20 ADD PUSH5 0x352E302E3 PUSH1 0xDC SHL DUP2 MSTORE POP DUP2 JUMP JUMPDEST PUSH1 0x40 MLOAD PUSH2 0x260 SWAP2 SWAP1 PUSH2 0x23C1 JUMP JUMPDEST CALLVALUE DUP1 ISZERO PUSH2 0x61C JUMPI PUSH1 0x0 DUP1 REVERT JUMPDEST POP PUSH2 0x23F PUSH2 0x62B CALLDATASIZE PUSH1 0x4 PUSH2 0x23F4 JUMP JUMPDEST PUSH2 0x1332 JUMP JUMPDEST CALLVALUE DUP1 ISZERO PUSH2 0x63C JUMPI PUSH1 0x0 DUP1 REVERT JUMPDEST POP PUSH2 0x256 PUSH2 0x64B CALLDATASIZE PUSH1 0x4 PUSH2 0x2465 JUMP JUMPDEST PUSH1 0xD PUSH1 0x20 SWAP1 DUP2 MSTORE PUSH1 0x0 SWAP3 DUP4 MSTORE PUSH1 0x40 DUP1 DUP5 KECCAK256 SWAP1 SWAP2 MSTORE SWAP1 DUP3 MSTORE SWAP1 KECCAK256 SLOAD DUP2 JUMP JUMPDEST CALLVALUE DUP1 ISZERO PUSH2 0x674 JUMPI PUSH1 0x0 DUP1 REVERT JUMPDEST POP PUSH1 0x0 SLOAD PUSH2 0x29E SWAP1 PUSH1 0x1 PUSH1 0x1 PUSH1 0xA0 SHL SUB AND DUP2 JUMP JUMPDEST CALLVALUE DUP1 ISZERO PUSH2 0x694 JUMPI PUSH1 0x0 DUP1 REVERT JUMPDEST POP PUSH2 0x23F PUSH2 0x171D JUMP JUMPDEST CALLVALUE DUP1 ISZERO PUSH2 0x6A9 JUMPI PUSH1 0x0 DUP1 REVERT JUMPDEST POP PUSH2 0x23F PUSH2 0x6B8 CALLDATASIZE PUSH1 0x4 PUSH2 0x21FD JUMP JUMPDEST PUSH2 0x1793 JUMP JUMPDEST CALLVALUE DUP1 ISZERO PUSH2 0x6C9 JUMPI PUSH1 0x0 DUP1 REVERT JUMPDEST POP PUSH2 0x23F PUSH2 0x6D8 CALLDATASIZE PUSH1 0x4 PUSH2 0x2491 JUMP JUMPDEST PUSH2 0x17D0 JUMP JUMPDEST CALLVALUE DUP1 ISZERO PUSH2 0x6E9 JUMPI PUSH1 0x0 DUP1 REVERT JUMPDEST POP PUSH2 0x256 PUSH1 0xB SLOAD DUP2 JUMP JUMPDEST CALLVALUE DUP1 ISZERO PUSH2 0x6FF JUMPI PUSH1 0x0 DUP1 REVERT JUMPDEST POP PUSH2 0x256 PUSH2 0x19E7 JUMP JUMPDEST CALLVALUE DUP1 ISZERO PUSH2 0x714 JUMPI PUSH1 0x0 DUP1 REVERT JUMPDEST POP PUSH2 0x23F PUSH2 0x723 CALLDATASIZE PUSH1 0x4 PUSH2 0x2232 JUMP JUMPDEST PUSH2 0x19FD JUMP JUMPDEST CALLVALUE DUP1 ISZERO PUSH2 0x734 JUMPI PUSH1 0x0 DUP1 REVERT JUMPDEST POP PUSH2 0x23F PUSH2 0x743 CALLDATASIZE PUSH1 0x4 PUSH2 0x2232 JUMP JUMPDEST PUSH2 0x1A27 JUMP JUMPDEST CALLVALUE DUP1 ISZERO PUSH2 0x754 JUMPI PUSH1 0x0 DUP1 REVERT JUMPDEST POP PUSH2 0x784 PUSH2 0x763 CALLDATASIZE PUSH1 0x4 PUSH2 0x2232 JUMP JUMPDEST PUSH1 0xE PUSH1 0x20 MSTORE PUSH1 0x0 SWAP1 DUP2 MSTORE PUSH1 0x40 SWAP1 KECCAK256 DUP1 SLOAD PUSH1 0x1 DUP3 ADD SLOAD PUSH1 0x2 SWAP1 SWAP3 ADD SLOAD SWAP1 SWAP2 SWAP1 DUP4 JUMP JUMPDEST PUSH1 0x40 DUP1 MLOAD SWAP4 DUP5 MSTORE PUSH1 0x20 DUP5 ADD SWAP3 SWAP1 SWAP3 MSTORE SWAP1 DUP3 ADD MSTORE PUSH1 0x60 ADD PUSH2 0x260 JUMP JUMPDEST PUSH2 0x7A7 PUSH2 0x1A6A JUMP JUMPDEST PUSH1 0x3 SLOAD PUSH1 0x0 SWAP1 DUP2 MSTORE PUSH1 0x4 PUSH1 0x20 MSTORE PUSH1 0x40 SWAP1 KECCAK256 PUSH1 0x8 DUP2 ADD SLOAD PUSH1 0xFF AND PUSH2 0x7DD JUMPI PUSH1 0x40 MLOAD PUSH4 0xB885DFEF PUSH1 0xE0 SHL DUP2 MSTORE PUSH1 0x4 ADD PUSH1 0x40 MLOAD DUP1 SWAP2 SUB SWAP1 REVERT JUMPDEST DUP2 PUSH1 0x0 SUB PUSH2 0x7FE JUMPI PUSH1 0x40 MLOAD PUSH4 0xD3590A83 PUSH1 0xE0 SHL DUP2 MSTORE PUSH1 0x4 ADD PUSH1 0x40 MLOAD DUP1 SWAP2 SUB SWAP1 REVERT JUMPDEST PUSH1 0x0 SLOAD PUSH2 0x816 SWAP1 PUSH1 0x1 PUSH1 0x1 PUSH1 0xA0 SHL SUB AND CALLER ADDRESS DUP6 PUSH2 0x1AC5 JUMP JUMPDEST DUP2 PUSH1 0xA PUSH1 0x0 DUP3 DUP3 SLOAD PUSH2 0x828 SWAP2 SWAP1 PUSH2 0x24E2 JUMP JUMPDEST SWAP3 POP POP DUP2 SWAP1 SSTORE POP DUP2 DUP2 PUSH1 0x6 ADD PUSH1 0x0 DUP3 DUP3 SLOAD PUSH2 0x843 SWAP2 SWAP1 PUSH2 0x24E2 JUMP JUMPDEST SWAP1 SWAP2 SSTORE POP POP PUSH1 0x3 SLOAD PUSH1 0x40 DUP1 MLOAD SWAP2 DUP3 MSTORE PUSH1 0x20 DUP3 ADD DUP5 SWAP1 MSTORE PUSH32 0x7CDD16D98681F4D22957409604A564EF1D8CD2B0D5CC5235D444451F03324B13 SWAP2 ADD PUSH1 0x40 MLOAD DUP1 SWAP2 SUB SWAP1 LOG1 POP POP JUMP JUMPDEST PUSH1 0x0 PUSH1 0xB SLOAD PUSH1 0xA SLOAD PUSH2 0x89A SWAP2 SWAP1 PUSH2 0x24F5 JUMP JUMPDEST SWAP1 POP SWAP1 JUMP JUMPDEST PUSH2 0x8A7 PUSH2 0x1A6A JUMP JUMPDEST PUSH1 0x3 SLOAD PUSH1 0x0 SWAP1 DUP2 MSTORE PUSH1 0x4 PUSH1 0x20 MSTORE PUSH1 0x40 SWAP1 KECCAK256 PUSH1 0x8 DUP2 ADD SLOAD PUSH1 0xFF AND ISZERO PUSH2 0x8DE JUMPI PUSH1 0x40 MLOAD PUSH4 0xCCF5BF45 PUSH1 0xE0 SHL DUP2 MSTORE PUSH1 0x4 ADD PUSH1 0x40 MLOAD DUP1 SWAP2 SUB SWAP1 REVERT JUMPDEST PUSH1 0x5 PUSH1 0x3 SLOAD LT PUSH2 0x901 JUMPI PUSH1 0x40 MLOAD PUSH4 0x46DC4D3B PUSH1 0xE0 SHL DUP2 MSTORE PUSH1 0x4 ADD PUSH1 0x40 MLOAD DUP1 SWAP2 SUB SWAP1 REVERT JUMPDEST PUSH1 0x0 PUSH1 0x40 MLOAD DUP1 PUSH1 0xA0 ADD PUSH1 0x40 MSTORE DUP1 PUSH1 0x19 DUP2 MSTORE PUSH1 0x20 ADD PUSH1 0x14 DUP2 MSTORE PUSH1 0x20 ADD PUSH1 0xF DUP2 MSTORE PUSH1 0x20 ADD PUSH1 0xA DUP2 MSTORE PUSH1 0x20 ADD PUSH1 0x5 DUP2 MSTORE POP SWAP1 POP PUSH1 0x0 PUSH1 0x40 MLOAD DUP1 PUSH1 0xA0 ADD PUSH1 0x40 MSTORE DUP1 PUSH1 0x5 DUP2 MSTORE PUSH1 0x20 ADD PUSH1 0x3 DUP2 MSTORE PUSH1 0x20 ADD PUSH1 0x2 DUP2 MSTORE PUSH1 0x20 ADD PUSH1 0x1 DUP2 MSTORE PUSH1 0x20 ADD PUSH1 0x0 DUP2 MSTORE POP SWAP1 POP PUSH1 0x0 PUSH1 0x40 MLOAD DUP1 PUSH1 0xA0 ADD PUSH1 0x40 MSTORE DUP1 PUSH4 0x4C4B400 PUSH8 0xDE0B6B3A7640000 PUSH2 0x986 SWAP2 SWAP1 PUSH2 0x2508 JUMP JUMPDEST DUP2 MSTORE PUSH1 0x20 ADD PUSH2 0x9A1 PUSH4 0x3938700 PUSH8 0xDE0B6B3A7640000 PUSH2 0x2508 JUMP JUMPDEST DUP2 MSTORE PUSH1 0x20 ADD PUSH2 0x9BC PUSH4 0x2625A00 PUSH8 0xDE0B6B3A7640000 PUSH2 0x2508 JUMP JUMPDEST DUP2 MSTORE PUSH1 0x20 ADD PUSH2 0x9D6 PUSH3 0xE4E1C0 PUSH8 0xDE0B6B3A7640000 PUSH2 0x2508 JUMP JUMPDEST DUP2 MSTORE PUSH1 0x20 ADD PUSH2 0x9F0 PUSH3 0x4C4B40 PUSH8 0xDE0B6B3A7640000 PUSH2 0x2508 JUMP JUMPDEST DUP2 MSTORE POP SWAP1 POP PUSH1 0x0 PUSH1 0x40 MLOAD DUP1 PUSH1 0xA0 ADD PUSH1 0x40 MSTORE DUP1 PUSH3 0x7A1200 PUSH8 0xDE0B6B3A7640000 PUSH2 0xA19 SWAP2 SWAP1 PUSH2 0x2508 JUMP JUMPDEST DUP2 MSTORE PUSH1 0x20 ADD PUSH2 0xA33 PUSH3 0x5B8D80 PUSH8 0xDE0B6B3A7640000 PUSH2 0x2508 JUMP JUMPDEST DUP2 MSTORE PUSH1 0x20 ADD PUSH2 0xA4D PUSH3 0x3D0900 PUSH8 0xDE0B6B3A7640000 PUSH2 0x2508 JUMP JUMPDEST DUP2 MSTORE PUSH1 0x20 ADD PUSH2 0xA67 PUSH3 0x1E8480 PUSH8 0xDE0B6B3A7640000 PUSH2 0x2508 JUMP JUMPDEST DUP2 MSTORE PUSH1 0x20 ADD PUSH2 0xA81 PUSH3 0xF4240 PUSH8 0xDE0B6B3A7640000 PUSH2 0x2508 JUMP JUMPDEST DUP2 MSTORE POP SWAP1 POP PUSH1 0x3 SLOAD PUSH1 0x0 DUP1 MLOAD PUSH1 0x20 PUSH2 0x25A6 DUP4 CODECOPY DUP2 MLOAD SWAP2 MSTORE DUP7 PUSH1 0x9 ADD SLOAD PUSH1 0x40 MLOAD PUSH2 0xAAC SWAP2 DUP2 MSTORE PUSH1 0x20 ADD SWAP1 JUMP JUMPDEST PUSH1 0x40 MLOAD DUP1 SWAP2 SUB SWAP1 LOG2 PUSH1 0x3 DUP1 SLOAD SWAP1 PUSH1 0x0 PUSH2 0xAC4 DUP4 PUSH2 0x251F JUMP JUMPDEST SWAP2 SWAP1 POP SSTORE POP DUP4 PUSH1 0x1 PUSH1 0x3 SLOAD PUSH2 0xAD9 SWAP2 SWAP1 PUSH2 0x24F5 JUMP JUMPDEST PUSH1 0x5 DUP2 LT PUSH2 0xAE9 JUMPI PUSH2 0xAE9 PUSH2 0x2538 JUMP JUMPDEST PUSH1 0x20 MUL ADD MLOAD PUSH1 0x5 SSTORE PUSH1 0x3 SLOAD DUP4 SWAP1 PUSH2 0xB02 SWAP1 PUSH1 0x1 SWAP1 PUSH2 0x24F5 JUMP JUMPDEST PUSH1 0x5 DUP2 LT PUSH2 0xB12 JUMPI PUSH2 0xB12 PUSH2 0x2538 JUMP JUMPDEST PUSH1 0x20 MUL ADD MLOAD PUSH1 0x6 SSTORE PUSH1 0x3 SLOAD DUP3 SWAP1 PUSH2 0xB2B SWAP1 PUSH1 0x1 SWAP1 PUSH2 0x24F5 JUMP JUMPDEST PUSH1 0x5 DUP2 LT PUSH2 0xB3B JUMPI PUSH2 0xB3B PUSH2 0x2538 JUMP JUMPDEST PUSH1 0x20 MUL ADD MLOAD PUSH1 0x7 SSTORE PUSH1 0x3 SLOAD DUP2 SWAP1 PUSH2 0xB54 SWAP1 PUSH1 0x1 SWAP1 PUSH2 0x24F5 JUMP JUMPDEST PUSH1 0x5 DUP2 LT PUSH2 0xB64 JUMPI PUSH2 0xB64 PUSH2 0x2538 JUMP JUMPDEST PUSH1 0x20 MUL ADD MLOAD PUSH1 0x8 DUP2 SWAP1 SSTORE POP PUSH1 0x0 PUSH1 0xC DUP2 SWAP1 SSTORE POP PUSH1 0x40 MLOAD DUP1 PUSH2 0x140 ADD PUSH1 0x40 MSTORE DUP1 PUSH1 0x3 SLOAD DUP2 MSTORE PUSH1 0x20 ADD DUP6 PUSH1 0x1 PUSH1 0x3 SLOAD PUSH2 0xB9B SWAP2 SWAP1 PUSH2 0x24F5 JUMP JUMPDEST PUSH1 0x5 DUP2 LT PUSH2 0xBAB JUMPI PUSH2 0xBAB PUSH2 0x2538 JUMP JUMPDEST PUSH1 0x20 MUL ADD MLOAD DUP2 MSTORE PUSH1 0x20 ADD DUP5 PUSH1 0x1 PUSH1 0x3 SLOAD PUSH2 0xBC5 SWAP2 SWAP1 PUSH2 0x24F5 JUMP JUMPDEST PUSH1 0x5 DUP2 LT PUSH2 0xBD5 JUMPI PUSH2 0xBD5 PUSH2 0x2538 JUMP JUMPDEST PUSH1 0x20 MUL ADD MLOAD DUP2 MSTORE PUSH1 0x20 ADD DUP4 PUSH1 0x1 PUSH1 0x3 SLOAD PUSH2 0xBEF SWAP2 SWAP1 PUSH2 0x24F5 JUMP JUMPDEST PUSH1 0x5 DUP2 LT PUSH2 0xBFF JUMPI PUSH2 0xBFF PUSH2 0x2538 JUMP JUMPDEST PUSH1 0x20 MUL ADD MLOAD DUP2 MSTORE PUSH1 0x20 ADD DUP3 PUSH1 0x1 PUSH1 0x3 SLOAD PUSH2 0xC19 SWAP2 SWAP1 PUSH2 0x24F5 JUMP JUMPDEST PUSH1 0x5 DUP2 LT PUSH2 0xC29 JUMPI PUSH2 0xC29 PUSH2 0x2538 JUMP JUMPDEST PUSH1 0x20 MUL ADD MLOAD DUP2 MSTORE PUSH1 0x20 ADD PUSH1 0x9 SLOAD DUP2 MSTORE PUSH1 0x20 ADD PUSH1 0x0 DUP2 MSTORE PUSH1 0x20 ADD PUSH1 0x0 DUP2 MSTORE PUSH1 0x20 ADD PUSH1 0x1 ISZERO ISZERO DUP2 MSTORE PUSH1 0x20 ADD PUSH1 0x0 DUP2 MSTORE POP PUSH1 0x4 PUSH1 0x0 PUSH1 0x3 SLOAD DUP2 MSTORE PUSH1 0x20 ADD SWAP1 DUP2 MSTORE PUSH1 0x20 ADD PUSH1 0x0 KECCAK256 PUSH1 0x0 DUP3 ADD MLOAD DUP2 PUSH1 0x0 ADD SSTORE PUSH1 0x20 DUP3 ADD MLOAD DUP2 PUSH1 0x1 ADD SSTORE PUSH1 0x40 DUP3 ADD MLOAD DUP2 PUSH1 0x2 ADD SSTORE PUSH1 0x60 DUP3 ADD MLOAD DUP2 PUSH1 0x3 ADD SSTORE PUSH1 0x80 DUP3 ADD MLOAD DUP2 PUSH1 0x4 ADD SSTORE PUSH1 0xA0 DUP3 ADD MLOAD DUP2 PUSH1 0x5 ADD SSTORE PUSH1 0xC0 DUP3 ADD MLOAD DUP2 PUSH1 0x6 ADD SSTORE PUSH1 0xE0 DUP3 ADD MLOAD DUP2 PUSH1 0x7 ADD SSTORE PUSH2 0x100 DUP3 ADD MLOAD DUP2 PUSH1 0x8 ADD PUSH1 0x0 PUSH2 0x100 EXP DUP2 SLOAD DUP2 PUSH1 0xFF MUL NOT AND SWAP1 DUP4 ISZERO ISZERO MUL OR SWAP1 SSTORE POP PUSH2 0x120 DUP3 ADD MLOAD DUP2 PUSH1 0x9 ADD SSTORE SWAP1 POP POP PUSH1 0x3 SLOAD PUSH32 0xFD9D17E5565DEEA3D25918D95FC398673B9445EF0A96D12EAF3AB2B198756C65 DUP6 PUSH1 0x1 PUSH1 0x3 SLOAD PUSH2 0xD1F SWAP2 SWAP1 PUSH2 0x24F5 JUMP JUMPDEST PUSH1 0x5 DUP2 LT PUSH2 0xD2F JUMPI PUSH2 0xD2F PUSH2 0x2538 JUMP JUMPDEST PUSH1 0x20 MUL ADD MLOAD DUP6 PUSH1 0x1 PUSH1 0x3 SLOAD PUSH2 0xD44 SWAP2 SWAP1 PUSH2 0x24F5 JUMP JUMPDEST PUSH1 0x5 DUP2 LT PUSH2 0xD54 JUMPI PUSH2 0xD54 PUSH2 0x2538 JUMP JUMPDEST PUSH1 0x20 MUL ADD MLOAD DUP6 PUSH1 0x1 PUSH1 0x3 SLOAD PUSH2 0xD69 SWAP2 SWAP1 PUSH2 0x24F5 JUMP JUMPDEST PUSH1 0x5 DUP2 LT PUSH2 0xD79 JUMPI PUSH2 0xD79 PUSH2 0x2538 JUMP JUMPDEST PUSH1 0x20 MUL ADD MLOAD PUSH1 0x40 MLOAD PUSH2 0xD9E SWAP4 SWAP3 SWAP2 SWAP1 SWAP3 DUP4 MSTORE PUSH1 0x20 DUP4 ADD SWAP2 SWAP1 SWAP2 MSTORE PUSH1 0x40 DUP3 ADD MSTORE PUSH1 0x60 ADD SWAP1 JUMP JUMPDEST PUSH1 0x40 MLOAD DUP1 SWAP2 SUB SWAP1 LOG2 POP POP POP POP POP JUMP JUMPDEST PUSH2 0xDB5 PUSH2 0x1A6A JUMP JUMPDEST DUP1 PUSH1 0x0 SUB PUSH2 0xDD6 JUMPI PUSH1 0x40 MLOAD PUSH4 0x1B3CC90F PUSH1 0xE0 SHL DUP2 MSTORE PUSH1 0x4 ADD PUSH1 0x40 MLOAD DUP1 SWAP2 SUB SWAP1 REVERT JUMPDEST PUSH1 0x9 DUP2 SWAP1 SSTORE PUSH1 0x40 MLOAD DUP2 DUP2 MSTORE PUSH32 0xC21CB0F112058F1EB0E3313A577DFC27E6BE5B39127591E05245343A422E4915 SWAP1 PUSH1 0x20 ADD JUMPDEST PUSH1 0x40 MLOAD DUP1 SWAP2 SUB SWAP1 LOG1 POP JUMP JUMPDEST PUSH1 0x1 PUSH1 0x1 PUSH1 0xA0 SHL SUB DUP2 AND PUSH1 0x0 SWAP1 DUP2 MSTORE PUSH1 0xE PUSH1 0x20 SWAP1 DUP2 MSTORE PUSH1 0x40 DUP1 DUP4 KECCAK256 DUP2 MLOAD PUSH1 0x60 DUP2 ADD DUP4 MSTORE DUP2 SLOAD DUP1 DUP3 MSTORE PUSH1 0x1 DUP4 ADD SLOAD SWAP5 DUP3 ADD SWAP5 SWAP1 SWAP5 MSTORE PUSH1 0x2 SWAP1 SWAP2 ADD SLOAD SWAP2 DUP2 ADD SWAP2 SWAP1 SWAP2 MSTORE SWAP1 ISZERO DUP1 ISZERO SWAP1 PUSH2 0xE6B JUMPI POP PUSH2 0xE6B TIMESTAMP DUP3 PUSH1 0x40 ADD MLOAD PUSH2 0x1B32 JUMP JUMPDEST SWAP4 SWAP3 POP POP POP JUMP JUMPDEST PUSH1 0x0 DUP1 PUSH2 0xE7D PUSH2 0x19E7 JUMP JUMPDEST SWAP1 POP PUSH2 0xE6B DUP4 DUP3 PUSH2 0x1B3C JUMP JUMPDEST PUSH2 0xE91 PUSH2 0x1BBF JUMP JUMPDEST PUSH2 0xE9A DUP3 PUSH2 0x1C64 JUMP JUMPDEST PUSH2 0xEA4 DUP3 DUP3 PUSH2 0x1C6C JUMP JUMPDEST POP POP JUMP JUMPDEST PUSH1 0x0 PUSH2 0xEB2 PUSH2 0x1D2E JUMP JUMPDEST POP PUSH1 0x0 DUP1 MLOAD PUSH1 0x20 PUSH2 0x25C6 DUP4 CODECOPY DUP2 MLOAD SWAP2 MSTORE SWAP1 JUMP JUMPDEST PUSH2 0xECD PUSH2 0x1A6A JUMP JUMPDEST PUSH1 0x8 DUP2 SWAP1 SSTORE PUSH1 0x40 MLOAD DUP2 DUP2 MSTORE PUSH32 0x4784309E6B1F1431C711EAC5E572F9BA2D542ECB5428EFC0E927B794F4E8E2C1 SWAP1 PUSH1 0x20 ADD PUSH2 0xE07 JUMP JUMPDEST PUSH2 0xF0A PUSH2 0x1A6A JUMP JUMPDEST PUSH2 0xF14 PUSH1 0x0 PUSH2 0x1D77 JUMP JUMPDEST JUMP JUMPDEST DUP1 PUSH1 0x0 SUB PUSH2 0xF37 JUMPI PUSH1 0x40 MLOAD PUSH4 0xD3590A83 PUSH1 0xE0 SHL DUP2 MSTORE PUSH1 0x4 ADD PUSH1 0x40 MLOAD DUP1 SWAP2 SUB SWAP1 REVERT JUMPDEST PUSH1 0x3 SLOAD PUSH1 0x0 SWAP1 DUP2 MSTORE PUSH1 0x4 PUSH1 0x20 MSTORE PUSH1 0x40 SWAP1 KECCAK256 PUSH1 0x8 DUP2 ADD SLOAD PUSH1 0xFF AND PUSH2 0xF6D JUMPI PUSH1 0x40 MLOAD PUSH4 0xB885DFEF PUSH1 0xE0 SHL DUP2 MSTORE PUSH1 0x4 ADD PUSH1 0x40 MLOAD DUP1 SWAP2 SUB SWAP1 REVERT JUMPDEST PUSH1 0xA SLOAD DUP3 PUSH1 0xB SLOAD PUSH2 0xF7E SWAP2 SWAP1 PUSH2 0x24E2 JUMP JUMPDEST GT ISZERO PUSH2 0xF9D JUMPI PUSH1 0x40 MLOAD PUSH4 0x437D78F5 PUSH1 0xE0 SHL DUP2 MSTORE PUSH1 0x4 ADD PUSH1 0x40 MLOAD DUP1 SWAP2 SUB SWAP1 REVERT JUMPDEST PUSH1 0x0 PUSH2 0xFA7 PUSH2 0x19E7 JUMP JUMPDEST SWAP1 POP PUSH1 0x0 PUSH2 0xFB5 DUP5 DUP4 PUSH2 0x1B3C JUMP JUMPDEST PUSH1 0x8 SLOAD PUSH1 0x3 SLOAD PUSH1 0x0 SWAP1 DUP2 MSTORE PUSH1 0xD PUSH1 0x20 SWAP1 DUP2 MSTORE PUSH1 0x40 DUP1 DUP4 KECCAK256 CALLER DUP5 MSTORE SWAP1 SWAP2 MSTORE SWAP1 KECCAK256 SLOAD SWAP2 SWAP3 POP SWAP1 PUSH2 0xFE4 SWAP1 DUP4 SWAP1 PUSH2 0x24E2 JUMP JUMPDEST GT ISZERO PUSH2 0x1003 JUMPI PUSH1 0x40 MLOAD PUSH4 0x75284BDB PUSH1 0xE0 SHL DUP2 MSTORE PUSH1 0x4 ADD PUSH1 0x40 MLOAD DUP1 SWAP2 SUB SWAP1 REVERT JUMPDEST PUSH1 0x2 SLOAD PUSH1 0x1 SLOAD PUSH2 0x1022 SWAP2 PUSH1 0x1 PUSH1 0x1 PUSH1 0xA0 SHL SUB SWAP2 DUP3 AND SWAP2 CALLER SWAP2 AND DUP5 PUSH2 0x1AC5 JUMP JUMPDEST PUSH1 0x0 SLOAD PUSH2 0x1039 SWAP1 PUSH1 0x1 PUSH1 0x1 PUSH1 0xA0 SHL SUB AND CALLER DUP7 PUSH2 0x1DE8 JUMP JUMPDEST DUP1 PUSH1 0xC PUSH1 0x0 DUP3 DUP3 SLOAD PUSH2 0x104B SWAP2 SWAP1 PUSH2 0x24E2 JUMP JUMPDEST SWAP3 POP POP DUP2 SWAP1 SSTORE POP DUP1 DUP4 PUSH1 0x9 ADD PUSH1 0x0 DUP3 DUP3 SLOAD PUSH2 0x1066 SWAP2 SWAP1 PUSH2 0x24E2 JUMP JUMPDEST SWAP3 POP POP DUP2 SWAP1 SSTORE POP DUP4 DUP4 PUSH1 0x7 ADD PUSH1 0x0 DUP3 DUP3 SLOAD PUSH2 0x1081 SWAP2 SWAP1 PUSH2 0x24E2 JUMP JUMPDEST SWAP3 POP POP DUP2 SWAP1 SSTORE POP DUP4 PUSH1 0xB PUSH1 0x0 DUP3 DUP3 SLOAD PUSH2 0x109A SWAP2 SWAP1 PUSH2 0x24E2 JUMP JUMPDEST SWAP1 SWAP2 SSTORE POP POP PUSH1 0x3 SLOAD PUSH1 0x0 SWAP1 DUP2 MSTORE PUSH1 0xD PUSH1 0x20 SWAP1 DUP2 MSTORE PUSH1 0x40 DUP1 DUP4 KECCAK256 CALLER DUP5 MSTORE SWAP1 SWAP2 MSTORE DUP2 KECCAK256 DUP1 SLOAD DUP4 SWAP3 SWAP1 PUSH2 0x10CB SWAP1 DUP5 SWAP1 PUSH2 0x24E2 JUMP JUMPDEST SWAP1 SWAP2 SSTORE POP POP PUSH1 0x9 SLOAD TIMESTAMP SWAP1 PUSH1 0x0 SWAP1 PUSH2 0x10E2 SWAP1 DUP4 PUSH2 0x24E2 JUMP JUMPDEST PUSH1 0x40 DUP1 MLOAD PUSH1 0x60 DUP2 ADD DUP3 MSTORE DUP9 DUP2 MSTORE PUSH1 0x20 DUP1 DUP3 ADD DUP7 DUP2 MSTORE DUP3 DUP5 ADD DUP6 DUP2 MSTORE CALLER PUSH1 0x0 DUP2 DUP2 MSTORE PUSH1 0xE DUP6 MSTORE DUP7 SWAP1 KECCAK256 SWAP5 MLOAD DUP6 SSTORE SWAP2 MLOAD PUSH1 0x1 DUP6 ADD SSTORE MLOAD PUSH1 0x2 SWAP1 SWAP4 ADD SWAP3 SWAP1 SWAP3 SSTORE SWAP2 MLOAD DUP7 DUP2 MSTORE SWAP3 SWAP4 POP SWAP2 PUSH32 0xD0A009034E24A39106653C4903CF28B1947B8A9964D03206648E0F0A5DE74A46 SWAP2 ADD PUSH1 0x40 MLOAD DUP1 SWAP2 SUB SWAP1 LOG2 PUSH1 0x40 DUP1 MLOAD DUP8 DUP2 MSTORE PUSH1 0x20 DUP2 ADD DUP5 SWAP1 MSTORE SWAP1 DUP2 ADD DUP3 SWAP1 MSTORE CALLER SWAP1 PUSH32 0x892F1A841B10E4B041CC41D8CC47C6A6049F1FF5FA272DDF47A0AA5AD8F59D13 SWAP1 PUSH1 0x60 ADD PUSH1 0x40 MLOAD DUP1 SWAP2 SUB SWAP1 LOG2 PUSH1 0xA SLOAD PUSH1 0xB SLOAD LT PUSH2 0x11E4 JUMPI PUSH1 0x8 DUP6 ADD DUP1 SLOAD PUSH1 0xFF NOT AND SWAP1 SSTORE PUSH2 0x11B5 PUSH2 0x1E19 JUMP JUMPDEST PUSH1 0x3 SLOAD PUSH1 0x0 DUP1 MLOAD PUSH1 0x20 PUSH2 0x25A6 DUP4 CODECOPY DUP2 MLOAD SWAP2 MSTORE DUP7 PUSH1 0x9 ADD SLOAD PUSH1 0x40 MLOAD PUSH2 0x11DB SWAP2 DUP2 MSTORE PUSH1 0x20 ADD SWAP1 JUMP JUMPDEST PUSH1 0x40 MLOAD DUP1 SWAP2 SUB SWAP1 LOG2 JUMPDEST POP POP POP POP POP POP JUMP JUMPDEST PUSH2 0x1210 PUSH1 0x40 MLOAD DUP1 PUSH1 0x60 ADD PUSH1 0x40 MSTORE DUP1 PUSH1 0x0 DUP2 MSTORE PUSH1 0x20 ADD PUSH1 0x0 DUP2 MSTORE PUSH1 0x20 ADD PUSH1 0x0 DUP2 MSTORE POP SWAP1 JUMP JUMPDEST POP PUSH1 0x1 PUSH1 0x1 PUSH1 0xA0 SHL SUB AND PUSH1 0x0 SWAP1 DUP2 MSTORE PUSH1 0xE PUSH1 0x20 SWAP1 DUP2 MSTORE PUSH1 0x40 SWAP2 DUP3 SWAP1 KECCAK256 DUP3 MLOAD PUSH1 0x60 DUP2 ADD DUP5 MSTORE DUP2 SLOAD DUP2 MSTORE PUSH1 0x1 DUP3 ADD SLOAD SWAP3 DUP2 ADD SWAP3 SWAP1 SWAP3 MSTORE PUSH1 0x2 ADD SLOAD SWAP2 DUP2 ADD SWAP2 SWAP1 SWAP2 MSTORE SWAP1 JUMP JUMPDEST PUSH2 0x12AA PUSH1 0x40 MLOAD DUP1 PUSH2 0x140 ADD PUSH1 0x40 MSTORE DUP1 PUSH1 0x0 DUP2 MSTORE PUSH1 0x20 ADD PUSH1 0x0 DUP2 MSTORE PUSH1 0x20 ADD PUSH1 0x0 DUP2 MSTORE PUSH1 0x20 ADD PUSH1 0x0 DUP2 MSTORE PUSH1 0x20 ADD PUSH1 0x0 DUP2 MSTORE PUSH1 0x20 ADD PUSH1 0x0 DUP2 MSTORE PUSH1 0x20 ADD PUSH1 0x0 DUP2 MSTORE PUSH1 0x20 ADD PUSH1 0x0 DUP2 MSTORE PUSH1 0x20 ADD PUSH1 0x0 ISZERO ISZERO DUP2 MSTORE PUSH1 0x20 ADD PUSH1 0x0 DUP2 MSTORE POP SWAP1 JUMP JUMPDEST POP PUSH1 0x3 DUP1 SLOAD PUSH1 0x0 SWAP1 DUP2 MSTORE PUSH1 0x4 PUSH1 0x20 DUP2 DUP2 MSTORE PUSH1 0x40 SWAP3 DUP4 SWAP1 KECCAK256 DUP4 MLOAD PUSH2 0x140 DUP2 ADD DUP6 MSTORE DUP2 SLOAD DUP2 MSTORE PUSH1 0x1 DUP3 ADD SLOAD SWAP3 DUP2 ADD SWAP3 SWAP1 SWAP3 MSTORE PUSH1 0x2 DUP2 ADD SLOAD SWAP4 DUP3 ADD SWAP4 SWAP1 SWAP4 MSTORE SWAP3 DUP3 ADD SLOAD PUSH1 0x60 DUP5 ADD MSTORE DUP2 ADD SLOAD PUSH1 0x80 DUP4 ADD MSTORE PUSH1 0x5 DUP2 ADD SLOAD PUSH1 0xA0 DUP4 ADD MSTORE PUSH1 0x6 DUP2 ADD SLOAD PUSH1 0xC0 DUP4 ADD MSTORE PUSH1 0x7 DUP2 ADD SLOAD PUSH1 0xE0 DUP4 ADD MSTORE PUSH1 0x8 DUP2 ADD SLOAD PUSH1 0xFF AND ISZERO ISZERO PUSH2 0x100 DUP4 ADD MSTORE PUSH1 0x9 ADD SLOAD PUSH2 0x120 DUP3 ADD MSTORE SWAP1 JUMP JUMPDEST PUSH1 0x0 PUSH2 0x133C PUSH2 0x1EA8 JUMP JUMPDEST DUP1 SLOAD SWAP1 SWAP2 POP PUSH1 0xFF PUSH1 0x1 PUSH1 0x40 SHL DUP3 DIV AND ISZERO SWAP1 PUSH8 0xFFFFFFFFFFFFFFFF AND PUSH1 0x0 DUP2 ISZERO DUP1 ISZERO PUSH2 0x1364 JUMPI POP DUP3 JUMPDEST SWAP1 POP PUSH1 0x0 DUP3 PUSH8 0xFFFFFFFFFFFFFFFF AND PUSH1 0x1 EQ DUP1 ISZERO PUSH2 0x1381 JUMPI POP ADDRESS EXTCODESIZE ISZERO JUMPDEST SWAP1 POP DUP2 ISZERO DUP1 ISZERO PUSH2 0x138F JUMPI POP DUP1 ISZERO JUMPDEST ISZERO PUSH2 0x13AD JUMPI PUSH1 0x40 MLOAD PUSH4 0xF92EE8A9 PUSH1 0xE0 SHL DUP2 MSTORE PUSH1 0x4 ADD PUSH1 0x40 MLOAD DUP1 SWAP2 SUB SWAP1 REVERT JUMPDEST DUP5 SLOAD PUSH8 0xFFFFFFFFFFFFFFFF NOT AND PUSH1 0x1 OR DUP6 SSTORE DUP4 ISZERO PUSH2 0x13D7 JUMPI DUP5 SLOAD PUSH1 0xFF PUSH1 0x40 SHL NOT AND PUSH1 0x1 PUSH1 0x40 SHL OR DUP6 SSTORE JUMPDEST PUSH2 0x13E0 CALLER PUSH2 0x1ED1 JUMP JUMPDEST PUSH2 0x13E8 PUSH2 0x1EE2 JUMP JUMPDEST DUP13 PUSH1 0x0 DUP1 PUSH2 0x100 EXP DUP2 SLOAD DUP2 PUSH1 0x1 PUSH1 0x1 PUSH1 0xA0 SHL SUB MUL NOT AND SWAP1 DUP4 PUSH1 0x1 PUSH1 0x1 PUSH1 0xA0 SHL SUB AND MUL OR SWAP1 SSTORE POP DUP12 PUSH1 0x1 PUSH1 0x0 PUSH2 0x100 EXP DUP2 SLOAD DUP2 PUSH1 0x1 PUSH1 0x1 PUSH1 0xA0 SHL SUB MUL NOT AND SWAP1 DUP4 PUSH1 0x1 PUSH1 0x1 PUSH1 0xA0 SHL SUB AND MUL OR SWAP1 SSTORE POP DUP11 PUSH1 0x2 PUSH1 0x0 PUSH2 0x100 EXP DUP2 SLOAD DUP2 PUSH1 0x1 PUSH1 0x1 PUSH1 0xA0 SHL SUB MUL NOT AND SWAP1 DUP4 PUSH1 0x1 PUSH1 0x1 PUSH1 0xA0 SHL SUB AND MUL OR SWAP1 SSTORE POP DUP9 DUP11 GT PUSH2 0x147C JUMPI PUSH1 0x40 MLOAD PUSH4 0x81B88439 PUSH1 0xE0 SHL DUP2 MSTORE PUSH1 0x4 ADD PUSH1 0x40 MLOAD DUP1 SWAP2 SUB SWAP1 REVERT JUMPDEST DUP6 PUSH1 0x0 SUB PUSH2 0x149D JUMPI PUSH1 0x40 MLOAD PUSH4 0x1B3CC90F PUSH1 0xE0 SHL DUP2 MSTORE PUSH1 0x4 ADD PUSH1 0x40 MLOAD DUP1 SWAP2 SUB SWAP1 REVERT JUMPDEST PUSH1 0x1 PUSH1 0x3 DUP2 SWAP1 SSTORE PUSH1 0x5 DUP12 SWAP1 SSTORE PUSH1 0x6 DUP11 SWAP1 SSTORE PUSH1 0x7 DUP10 SWAP1 SSTORE PUSH1 0x8 DUP9 SWAP1 SSTORE PUSH1 0x9 DUP8 SWAP1 SSTORE PUSH1 0x40 DUP1 MLOAD PUSH2 0x140 DUP2 ADD DUP3 MSTORE DUP3 DUP2 MSTORE PUSH1 0x20 DUP1 DUP3 ADD DUP15 DUP2 MSTORE DUP3 DUP5 ADD DUP15 DUP2 MSTORE PUSH1 0x60 DUP1 DUP6 ADD DUP16 DUP2 MSTORE PUSH1 0x80 DUP7 ADD DUP16 DUP2 MSTORE PUSH1 0xA0 DUP8 ADD DUP16 DUP2 MSTORE PUSH1 0x0 PUSH1 0xC0 DUP10 ADD DUP2 DUP2 MSTORE PUSH1 0xE0 DUP11 ADD DUP3 DUP2 MSTORE PUSH2 0x100 DUP12 ADD DUP14 DUP2 MSTORE PUSH2 0x120 DUP13 ADD DUP5 DUP2 MSTORE SWAP4 DUP15 SWAP1 MSTORE PUSH1 0x4 DUP12 MSTORE SWAP11 MLOAD PUSH32 0xABD6E7CB50984FF9C2F3E18A2660C3353DADF4E3291DEEB275DAE2CD1E44FE05 SSTORE SWAP8 MLOAD PUSH32 0xABD6E7CB50984FF9C2F3E18A2660C3353DADF4E3291DEEB275DAE2CD1E44FE06 SSTORE SWAP6 MLOAD PUSH32 0xABD6E7CB50984FF9C2F3E18A2660C3353DADF4E3291DEEB275DAE2CD1E44FE07 SSTORE SWAP3 MLOAD PUSH32 0xABD6E7CB50984FF9C2F3E18A2660C3353DADF4E3291DEEB275DAE2CD1E44FE08 SSTORE SWAP1 MLOAD PUSH32 0xABD6E7CB50984FF9C2F3E18A2660C3353DADF4E3291DEEB275DAE2CD1E44FE09 SSTORE MLOAD PUSH32 0xABD6E7CB50984FF9C2F3E18A2660C3353DADF4E3291DEEB275DAE2CD1E44FE0A SSTORE SWAP2 MLOAD PUSH32 0xABD6E7CB50984FF9C2F3E18A2660C3353DADF4E3291DEEB275DAE2CD1E44FE0B SSTORE SWAP2 MLOAD PUSH32 0xABD6E7CB50984FF9C2F3E18A2660C3353DADF4E3291DEEB275DAE2CD1E44FE0C SSTORE SWAP3 MLOAD PUSH32 0xABD6E7CB50984FF9C2F3E18A2660C3353DADF4E3291DEEB275DAE2CD1E44FE0D DUP1 SLOAD PUSH1 0xFF NOT AND SWAP2 ISZERO ISZERO SWAP2 SWAP1 SWAP2 OR SWAP1 SSTORE SWAP2 MLOAD PUSH32 0xABD6E7CB50984FF9C2F3E18A2660C3353DADF4E3291DEEB275DAE2CD1E44FE0E SSTORE DUP3 MLOAD DUP15 DUP2 MSTORE SWAP1 DUP2 ADD DUP14 SWAP1 MSTORE SWAP2 DUP3 ADD DUP12 SWAP1 MSTORE PUSH32 0xFD9D17E5565DEEA3D25918D95FC398673B9445EF0A96D12EAF3AB2B198756C65 SWAP2 ADD PUSH1 0x40 MLOAD DUP1 SWAP2 SUB SWAP1 LOG2 DUP4 ISZERO PUSH2 0x170E JUMPI DUP5 SLOAD PUSH1 0xFF PUSH1 0x40 SHL NOT AND DUP6 SSTORE PUSH1 0x40 MLOAD PUSH1 0x1 DUP2 MSTORE PUSH32 0xC7F505B2F371AE2175EE4913F4499E1F2633A7B5936321EED1CDAEB6115181D2 SWAP1 PUSH1 0x20 ADD PUSH1 0x40 MLOAD DUP1 SWAP2 SUB SWAP1 LOG1 JUMPDEST POP POP POP POP POP POP POP POP POP POP POP POP POP JUMP JUMPDEST PUSH2 0x1725 PUSH2 0x1A6A JUMP JUMPDEST PUSH1 0x3 SLOAD PUSH1 0x0 SWAP1 DUP2 MSTORE PUSH1 0x4 PUSH1 0x20 MSTORE PUSH1 0x40 SWAP1 KECCAK256 PUSH1 0x8 DUP2 ADD SLOAD PUSH1 0xFF AND PUSH2 0x175B JUMPI PUSH1 0x40 MLOAD PUSH4 0xB885DFEF PUSH1 0xE0 SHL DUP2 MSTORE PUSH1 0x4 ADD PUSH1 0x40 MLOAD DUP1 SWAP2 SUB SWAP1 REVERT JUMPDEST PUSH1 0x8 DUP2 ADD DUP1 SLOAD PUSH1 0xFF NOT AND SWAP1 SSTORE PUSH1 0x3 SLOAD PUSH1 0x9 DUP3 ADD SLOAD PUSH1 0x40 MLOAD SWAP1 DUP2 MSTORE PUSH1 0x0 DUP1 MLOAD PUSH1 0x20 PUSH2 0x25A6 DUP4 CODECOPY DUP2 MLOAD SWAP2 MSTORE SWAP1 PUSH1 0x20 ADD PUSH1 0x40 MLOAD DUP1 SWAP2 SUB SWAP1 LOG2 POP JUMP JUMPDEST PUSH2 0x179B PUSH2 0x1A6A JUMP JUMPDEST PUSH1 0x7 DUP2 SWAP1 SSTORE PUSH1 0x40 MLOAD DUP2 DUP2 MSTORE PUSH32 0x5F444D43EF974DE0A9762EA40D495AC7A320EFB6F44E8F1C32505B3CBC026D9C SWAP1 PUSH1 0x20 ADD PUSH2 0xE07 JUMP JUMPDEST PUSH2 0x17D8 PUSH2 0x1A6A JUMP JUMPDEST PUSH1 0x3 SLOAD PUSH1 0x0 SWAP1 DUP2 MSTORE PUSH1 0x4 PUSH1 0x20 MSTORE PUSH1 0x40 SWAP1 KECCAK256 PUSH1 0x8 DUP2 ADD SLOAD PUSH1 0xFF AND ISZERO PUSH2 0x180F JUMPI PUSH1 0x40 MLOAD PUSH4 0xCCF5BF45 PUSH1 0xE0 SHL DUP2 MSTORE PUSH1 0x4 ADD PUSH1 0x40 MLOAD DUP1 SWAP2 SUB SWAP1 REVERT JUMPDEST DUP5 DUP7 GT PUSH2 0x182F JUMPI PUSH1 0x40 MLOAD PUSH4 0x81B88439 PUSH1 0xE0 SHL DUP2 MSTORE PUSH1 0x4 ADD PUSH1 0x40 MLOAD DUP1 SWAP2 SUB SWAP1 REVERT JUMPDEST DUP2 PUSH1 0x0 SUB PUSH2 0x1850 JUMPI PUSH1 0x40 MLOAD PUSH4 0x1B3CC90F PUSH1 0xE0 SHL DUP2 MSTORE PUSH1 0x4 ADD PUSH1 0x40 MLOAD DUP1 SWAP2 SUB SWAP1 REVERT JUMPDEST PUSH1 0x3 SLOAD PUSH1 0x0 DUP1 MLOAD PUSH1 0x20 PUSH2 0x25A6 DUP4 CODECOPY DUP2 MLOAD SWAP2 MSTORE DUP3 PUSH1 0x9 ADD SLOAD PUSH1 0x40 MLOAD PUSH2 0x1876 SWAP2 DUP2 MSTORE PUSH1 0x20 ADD SWAP1 JUMP JUMPDEST PUSH1 0x40 MLOAD DUP1 SWAP2 SUB SWAP1 LOG2 PUSH1 0x3 DUP1 SLOAD SWAP1 PUSH1 0x0 PUSH2 0x188E DUP4 PUSH2 0x251F JUMP JUMPDEST SWAP2 SWAP1 POP SSTORE POP DUP6 PUSH1 0x5 DUP2 SWAP1 SSTORE POP DUP5 PUSH1 0x6 DUP2 SWAP1 SSTORE POP DUP4 PUSH1 0x7 DUP2 SWAP1 SSTORE POP DUP3 PUSH1 0x8 DUP2 SWAP1 SSTORE POP DUP2 PUSH1 0x9 DUP2 SWAP1 SSTORE POP PUSH1 0x0 PUSH1 0xC DUP2 SWAP1 SSTORE POP PUSH1 0x40 MLOAD DUP1 PUSH2 0x140 ADD PUSH1 0x40 MSTORE DUP1 PUSH1 0x3 SLOAD DUP2 MSTORE PUSH1 0x20 ADD DUP8 DUP2 MSTORE PUSH1 0x20 ADD DUP7 DUP2 MSTORE PUSH1 0x20 ADD DUP6 DUP2 MSTORE PUSH1 0x20 ADD DUP5 DUP2 MSTORE PUSH1 0x20 ADD DUP4 DUP2 MSTORE PUSH1 0x20 ADD PUSH1 0x0 DUP2 MSTORE PUSH1 0x20 ADD PUSH1 0x0 DUP2 MSTORE PUSH1 0x20 ADD PUSH1 0x1 ISZERO ISZERO DUP2 MSTORE PUSH1 0x20 ADD PUSH1 0x0 DUP2 MSTORE POP PUSH1 0x4 PUSH1 0x0 PUSH1 0x3 SLOAD DUP2 MSTORE PUSH1 0x20 ADD SWAP1 DUP2 MSTORE PUSH1 0x20 ADD PUSH1 0x0 KECCAK256 PUSH1 0x0 DUP3 ADD MLOAD DUP2 PUSH1 0x0 ADD SSTORE PUSH1 0x20 DUP3 ADD MLOAD DUP2 PUSH1 0x1 ADD SSTORE PUSH1 0x40 DUP3 ADD MLOAD DUP2 PUSH1 0x2 ADD SSTORE PUSH1 0x60 DUP3 ADD MLOAD DUP2 PUSH1 0x3 ADD SSTORE PUSH1 0x80 DUP3 ADD MLOAD DUP2 PUSH1 0x4 ADD SSTORE PUSH1 0xA0 DUP3 ADD MLOAD DUP2 PUSH1 0x5 ADD SSTORE PUSH1 0xC0 DUP3 ADD MLOAD DUP2 PUSH1 0x6 ADD SSTORE PUSH1 0xE0 DUP3 ADD MLOAD DUP2 PUSH1 0x7 ADD SSTORE PUSH2 0x100 DUP3 ADD MLOAD DUP2 PUSH1 0x8 ADD PUSH1 0x0 PUSH2 0x100 EXP DUP2 SLOAD DUP2 PUSH1 0xFF MUL NOT AND SWAP1 DUP4 ISZERO ISZERO MUL OR SWAP1 SSTORE POP PUSH2 0x120 DUP3 ADD MLOAD DUP2 PUSH1 0x9 ADD SSTORE SWAP1 POP POP PUSH1 0x3 SLOAD PUSH32 0xFD9D17E5565DEEA3D25918D95FC398673B9445EF0A96D12EAF3AB2B198756C65 DUP8 DUP8 DUP8 PUSH1 0x40 MLOAD PUSH2 0x11DB SWAP4 SWAP3 SWAP2 SWAP1 SWAP3 DUP4 MSTORE PUSH1 0x20 DUP4 ADD SWAP2 SWAP1 SWAP2 MSTORE PUSH1 0x40 DUP3 ADD MSTORE PUSH1 0x60 ADD SWAP1 JUMP JUMPDEST PUSH1 0x0 PUSH2 0x89A PUSH1 0xC SLOAD PUSH1 0x7 SLOAD PUSH1 0x5 SLOAD PUSH1 0x6 SLOAD PUSH2 0x1EEA JUMP JUMPDEST PUSH2 0x1A05 PUSH2 0x1A6A JUMP JUMPDEST PUSH1 0x2 DUP1 SLOAD PUSH1 0x1 PUSH1 0x1 PUSH1 0xA0 SHL SUB NOT AND PUSH1 0x1 PUSH1 0x1 PUSH1 0xA0 SHL SUB SWAP3 SWAP1 SWAP3 AND SWAP2 SWAP1 SWAP2 OR SWAP1 SSTORE JUMP JUMPDEST PUSH2 0x1A2F PUSH2 0x1A6A JUMP JUMPDEST PUSH1 0x1 PUSH1 0x1 PUSH1 0xA0 SHL SUB DUP2 AND PUSH2 0x1A5E JUMPI PUSH1 0x40 MLOAD PUSH4 0x1E4FBDF7 PUSH1 0xE0 SHL DUP2 MSTORE PUSH1 0x0 PUSH1 0x4 DUP3 ADD MSTORE PUSH1 0x24 ADD JUMPDEST PUSH1 0x40 MLOAD DUP1 SWAP2 SUB SWAP1 REVERT JUMPDEST PUSH2 0x1A67 DUP2 PUSH2 0x1D77 JUMP JUMPDEST POP JUMP JUMPDEST CALLER PUSH2 0x1A9C PUSH32 0x9016D09D72D40FDAE2FD8CEAC6B6234C7706214FD39C1CD1E609A0528C199300 SLOAD PUSH1 0x1 PUSH1 0x1 PUSH1 0xA0 SHL SUB AND SWAP1 JUMP JUMPDEST PUSH1 0x1 PUSH1 0x1 PUSH1 0xA0 SHL SUB AND EQ PUSH2 0xF14 JUMPI PUSH1 0x40 MLOAD PUSH4 0x118CDAA7 PUSH1 0xE0 SHL DUP2 MSTORE CALLER PUSH1 0x4 DUP3 ADD MSTORE PUSH1 0x24 ADD PUSH2 0x1A55 JUMP JUMPDEST PUSH1 0x40 MLOAD PUSH1 0x1 PUSH1 0x1 PUSH1 0xA0 SHL SUB DUP5 DUP2 AND PUSH1 0x24 DUP4 ADD MSTORE DUP4 DUP2 AND PUSH1 0x44 DUP4 ADD MSTORE PUSH1 0x64 DUP3 ADD DUP4 SWAP1 MSTORE PUSH2 0x1B2C SWAP2 DUP7 SWAP2 DUP3 AND SWAP1 PUSH4 0x23B872DD SWAP1 PUSH1 0x84 ADD JUMPDEST PUSH1 0x40 MLOAD PUSH1 0x20 DUP2 DUP4 SUB SUB DUP2 MSTORE SWAP1 PUSH1 0x40 MSTORE SWAP2 POP PUSH1 0xE0 SHL PUSH1 0x20 DUP3 ADD DUP1 MLOAD PUSH1 0x1 PUSH1 0x1 PUSH1 0xE0 SHL SUB DUP4 DUP2 DUP4 AND OR DUP4 MSTORE POP POP POP POP PUSH2 0x1F71 JUMP JUMPDEST POP POP POP POP JUMP JUMPDEST DUP1 DUP3 LT JUMPDEST SWAP3 SWAP2 POP POP JUMP JUMPDEST PUSH1 0x0 PUSH1 0x64 DUP3 GT ISZERO PUSH2 0x1B8F JUMPI PUSH1 0x40 MLOAD PUSH3 0x461BCD PUSH1 0xE5 SHL DUP2 MSTORE PUSH1 0x20 PUSH1 0x4 DUP3 ADD MSTORE PUSH1 0x1B PUSH1 0x24 DUP3 ADD MSTORE PUSH32 0x446973636F756E742063616E6E6F742065786365656420313030250000000000 PUSH1 0x44 DUP3 ADD MSTORE PUSH1 0x64 ADD PUSH2 0x1A55 JUMP JUMPDEST PUSH5 0xE8D4A51000 PUSH2 0x1BA0 DUP4 PUSH1 0x64 PUSH2 0x24E2 JUMP JUMPDEST PUSH2 0x1BAA SWAP1 DUP6 PUSH2 0x254E JUMP JUMPDEST PUSH2 0x1BB5 SWAP1 PUSH1 0x64 PUSH2 0x2508 JUMP JUMPDEST PUSH2 0xE6B SWAP2 SWAP1 PUSH2 0x254E JUMP JUMPDEST ADDRESS PUSH1 0x1 PUSH1 0x1 PUSH1 0xA0 SHL SUB PUSH32 0x0 AND EQ DUP1 PUSH2 0x1C46 JUMPI POP PUSH32 0x0 PUSH1 0x1 PUSH1 0x1 PUSH1 0xA0 SHL SUB AND PUSH2 0x1C3A PUSH1 0x0 DUP1 MLOAD PUSH1 0x20 PUSH2 0x25C6 DUP4 CODECOPY DUP2 MLOAD SWAP2 MSTORE SLOAD PUSH1 0x1 PUSH1 0x1 PUSH1 0xA0 SHL SUB AND SWAP1 JUMP JUMPDEST PUSH1 0x1 PUSH1 0x1 PUSH1 0xA0 SHL SUB AND EQ ISZERO JUMPDEST ISZERO PUSH2 0xF14 JUMPI PUSH1 0x40 MLOAD PUSH4 0x703E46DD PUSH1 0xE1 SHL DUP2 MSTORE PUSH1 0x4 ADD PUSH1 0x40 MLOAD DUP1 SWAP2 SUB SWAP1 REVERT JUMPDEST PUSH2 0x1A67 PUSH2 0x1A6A JUMP JUMPDEST DUP2 PUSH1 0x1 PUSH1 0x1 PUSH1 0xA0 SHL SUB AND PUSH4 0x52D1902D PUSH1 0x40 MLOAD DUP2 PUSH4 0xFFFFFFFF AND PUSH1 0xE0 SHL DUP2 MSTORE PUSH1 0x4 ADD PUSH1 0x20 PUSH1 0x40 MLOAD DUP1 DUP4 SUB DUP2 DUP7 GAS STATICCALL SWAP3 POP POP POP DUP1 ISZERO PUSH2 0x1CC6 JUMPI POP PUSH1 0x40 DUP1 MLOAD PUSH1 0x1F RETURNDATASIZE SWAP1 DUP2 ADD PUSH1 0x1F NOT AND DUP3 ADD SWAP1 SWAP3 MSTORE PUSH2 0x1CC3 SWAP2 DUP2 ADD SWAP1 PUSH2 0x2570 JUMP JUMPDEST PUSH1 0x1 JUMPDEST PUSH2 0x1CEE JUMPI PUSH1 0x40 MLOAD PUSH4 0x4C9C8CE3 PUSH1 0xE0 SHL DUP2 MSTORE PUSH1 0x1 PUSH1 0x1 PUSH1 0xA0 SHL SUB DUP4 AND PUSH1 0x4 DUP3 ADD MSTORE PUSH1 0x24 ADD PUSH2 0x1A55 JUMP JUMPDEST PUSH1 0x0 DUP1 MLOAD PUSH1 0x20 PUSH2 0x25C6 DUP4 CODECOPY DUP2 MLOAD SWAP2 MSTORE DUP2 EQ PUSH2 0x1D1F JUMPI PUSH1 0x40 MLOAD PUSH4 0x2A875269 PUSH1 0xE2 SHL DUP2 MSTORE PUSH1 0x4 DUP2 ADD DUP3 SWAP1 MSTORE PUSH1 0x24 ADD PUSH2 0x1A55 JUMP JUMPDEST PUSH2 0x1D29 DUP4 DUP4 PUSH2 0x1FE2 JUMP JUMPDEST POP POP POP JUMP JUMPDEST ADDRESS PUSH1 0x1 PUSH1 0x1 PUSH1 0xA0 SHL SUB PUSH32 0x0 AND EQ PUSH2 0xF14 JUMPI PUSH1 0x40 MLOAD PUSH4 0x703E46DD PUSH1 0xE1 SHL DUP2 MSTORE PUSH1 0x4 ADD PUSH1 0x40 MLOAD DUP1 SWAP2 SUB SWAP1 REVERT JUMPDEST PUSH32 0x9016D09D72D40FDAE2FD8CEAC6B6234C7706214FD39C1CD1E609A0528C199300 DUP1 SLOAD PUSH1 0x1 PUSH1 0x1 PUSH1 0xA0 SHL SUB NOT DUP2 AND PUSH1 0x1 PUSH1 0x1 PUSH1 0xA0 SHL SUB DUP5 DUP2 AND SWAP2 DUP3 OR DUP5 SSTORE PUSH1 0x40 MLOAD SWAP3 AND SWAP2 DUP3 SWAP1 PUSH32 0x8BE0079C531659141344CD1FD0A4F28419497F9722A3DAAFE3B4186F6B6457E0 SWAP1 PUSH1 0x0 SWAP1 LOG3 POP POP POP JUMP JUMPDEST PUSH1 0x40 MLOAD PUSH1 0x1 PUSH1 0x1 PUSH1 0xA0 SHL SUB DUP4 DUP2 AND PUSH1 0x24 DUP4 ADD MSTORE PUSH1 0x44 DUP3 ADD DUP4 SWAP1 MSTORE PUSH2 0x1D29 SWAP2 DUP6 SWAP2 DUP3 AND SWAP1 PUSH4 0xA9059CBB SWAP1 PUSH1 0x64 ADD PUSH2 0x1AFA JUMP JUMPDEST PUSH2 0x1E21 PUSH2 0x1A6A JUMP JUMPDEST PUSH1 0x3 SLOAD PUSH1 0x0 SWAP1 DUP2 MSTORE PUSH1 0x4 PUSH1 0x20 MSTORE PUSH1 0x40 DUP2 KECCAK256 SWAP1 JUMPDEST DUP2 PUSH1 0x9 ADD SLOAD DUP2 LT ISZERO PUSH2 0xEA4 JUMPI CALLER PUSH1 0x0 DUP2 DUP2 MSTORE PUSH1 0xE PUSH1 0x20 SWAP1 DUP2 MSTORE PUSH1 0x40 SWAP2 DUP3 SWAP1 KECCAK256 DUP3 MLOAD PUSH1 0x60 DUP2 ADD DUP5 MSTORE DUP2 SLOAD DUP1 DUP3 MSTORE PUSH1 0x1 DUP4 ADD SLOAD SWAP4 DUP3 ADD SWAP4 SWAP1 SWAP4 MSTORE PUSH1 0x2 SWAP1 SWAP2 ADD SLOAD SWAP3 DUP2 ADD SWAP3 SWAP1 SWAP3 MSTORE ISZERO PUSH2 0x1E9E JUMPI PUSH1 0x1 PUSH1 0x1 PUSH1 0xA0 SHL SUB DUP3 AND PUSH1 0x0 SWAP1 DUP2 MSTORE PUSH1 0xE PUSH1 0x20 MSTORE PUSH1 0x40 SWAP1 KECCAK256 TIMESTAMP PUSH1 0x2 SWAP1 SWAP2 ADD SSTORE JUMPDEST POP POP PUSH1 0x1 ADD PUSH2 0x1E34 JUMP JUMPDEST PUSH1 0x0 DUP1 PUSH32 0xF0C57E16840DF040F15088DC2F81FE391C3923BEC73E23A9662EFC9C229C6A00 PUSH2 0x1B36 JUMP JUMPDEST PUSH2 0x1ED9 PUSH2 0x2038 JUMP JUMPDEST PUSH2 0x1A67 DUP2 PUSH2 0x205D JUMP JUMPDEST PUSH2 0xF14 PUSH2 0x2038 JUMP JUMPDEST PUSH1 0x0 DUP5 PUSH1 0x0 SUB PUSH2 0x1EFB JUMPI POP DUP2 PUSH2 0x1F69 JUMP JUMPDEST DUP4 DUP6 LT PUSH2 0x1F09 JUMPI POP DUP1 PUSH2 0x1F69 JUMP JUMPDEST PUSH1 0x0 DUP5 PUSH2 0x1F18 DUP8 PUSH2 0x2710 PUSH2 0x2508 JUMP JUMPDEST PUSH2 0x1F22 SWAP2 SWAP1 PUSH2 0x254E JUMP JUMPDEST SWAP1 POP PUSH1 0x0 PUSH2 0x1F30 DUP5 DUP7 PUSH2 0x24F5 JUMP JUMPDEST SWAP1 POP PUSH2 0x2710 PUSH2 0x1F3F DUP3 DUP5 PUSH2 0x2508 JUMP JUMPDEST PUSH2 0x1F49 SWAP2 SWAP1 PUSH2 0x254E JUMP JUMPDEST PUSH2 0x1F53 SWAP1 DUP7 PUSH2 0x24F5 JUMP JUMPDEST SWAP3 POP DUP4 DUP4 GT PUSH2 0x1F62 JUMPI DUP4 PUSH2 0x1F64 JUMP JUMPDEST DUP3 JUMPDEST SWAP3 POP POP POP JUMPDEST SWAP5 SWAP4 POP POP POP POP JUMP JUMPDEST PUSH1 0x0 DUP1 PUSH1 0x20 PUSH1 0x0 DUP5 MLOAD PUSH1 0x20 DUP7 ADD PUSH1 0x0 DUP9 GAS CALL DUP1 PUSH2 0x1F94 JUMPI PUSH1 0x40 MLOAD RETURNDATASIZE PUSH1 0x0 DUP3 RETURNDATACOPY RETURNDATASIZE DUP2 REVERT JUMPDEST POP POP PUSH1 0x0 MLOAD RETURNDATASIZE SWAP2 POP DUP2 ISZERO PUSH2 0x1FAC JUMPI DUP1 PUSH1 0x1 EQ ISZERO PUSH2 0x1FB9 JUMP JUMPDEST PUSH1 0x1 PUSH1 0x1 PUSH1 0xA0 SHL SUB DUP5 AND EXTCODESIZE ISZERO JUMPDEST ISZERO PUSH2 0x1B2C JUMPI PUSH1 0x40 MLOAD PUSH4 0x5274AFE7 PUSH1 0xE0 SHL DUP2 MSTORE PUSH1 0x1 PUSH1 0x1 PUSH1 0xA0 SHL SUB DUP6 AND PUSH1 0x4 DUP3 ADD MSTORE PUSH1 0x24 ADD PUSH2 0x1A55 JUMP JUMPDEST PUSH2 0x1FEB DUP3 PUSH2 0x2065 JUMP JUMPDEST PUSH1 0x40 MLOAD PUSH1 0x1 PUSH1 0x1 PUSH1 0xA0 SHL SUB DUP4 AND SWAP1 PUSH32 0xBC7CD75A20EE27FD9ADEBAB32041F755214DBC6BFFA90CC0225B39DA2E5C2D3B SWAP1 PUSH1 0x0 SWAP1 LOG2 DUP1 MLOAD ISZERO PUSH2 0x2030 JUMPI PUSH2 0x1D29 DUP3 DUP3 PUSH2 0x20CA JUMP JUMPDEST PUSH2 0xEA4 PUSH2 0x2140 JUMP JUMPDEST PUSH2 0x2040 PUSH2 0x215F JUMP JUMPDEST PUSH2 0xF14 JUMPI PUSH1 0x40 MLOAD PUSH4 0x1AFCD79F PUSH1 0xE3 SHL DUP2 MSTORE PUSH1 0x4 ADD PUSH1 0x40 MLOAD DUP1 SWAP2 SUB SWAP1 REVERT JUMPDEST PUSH2 0x1A2F PUSH2 0x2038 JUMP JUMPDEST DUP1 PUSH1 0x1 PUSH1 0x1 PUSH1 0xA0 SHL SUB AND EXTCODESIZE PUSH1 0x0 SUB PUSH2 0x209B JUMPI PUSH1 0x40 MLOAD PUSH4 0x4C9C8CE3 PUSH1 0xE0 SHL DUP2 MSTORE PUSH1 0x1 PUSH1 0x1 PUSH1 0xA0 SHL SUB DUP3 AND PUSH1 0x4 DUP3 ADD MSTORE PUSH1 0x24 ADD PUSH2 0x1A55 JUMP JUMPDEST PUSH1 0x0 DUP1 MLOAD PUSH1 0x20 PUSH2 0x25C6 DUP4 CODECOPY DUP2 MLOAD SWAP2 MSTORE DUP1 SLOAD PUSH1 0x1 PUSH1 0x1 PUSH1 0xA0 SHL SUB NOT AND PUSH1 0x1 PUSH1 0x1 PUSH1 0xA0 SHL SUB SWAP3 SWAP1 SWAP3 AND SWAP2 SWAP1 SWAP2 OR SWAP1 SSTORE JUMP JUMPDEST PUSH1 0x60 PUSH1 0x0 DUP1 DUP5 PUSH1 0x1 PUSH1 0x1 PUSH1 0xA0 SHL SUB AND DUP5 PUSH1 0x40 MLOAD PUSH2 0x20E7 SWAP2 SWAP1 PUSH2 0x2589 JUMP JUMPDEST PUSH1 0x0 PUSH1 0x40 MLOAD DUP1 DUP4 SUB DUP2 DUP6 GAS DELEGATECALL SWAP2 POP POP RETURNDATASIZE DUP1 PUSH1 0x0 DUP2 EQ PUSH2 0x2122 JUMPI PUSH1 0x40 MLOAD SWAP2 POP PUSH1 0x1F NOT PUSH1 0x3F RETURNDATASIZE ADD AND DUP3 ADD PUSH1 0x40 MSTORE RETURNDATASIZE DUP3 MSTORE RETURNDATASIZE PUSH1 0x0 PUSH1 0x20 DUP5 ADD RETURNDATACOPY PUSH2 0x2127 JUMP JUMPDEST PUSH1 0x60 SWAP2 POP JUMPDEST POP SWAP2 POP SWAP2 POP PUSH2 0x2137 DUP6 DUP4 DUP4 PUSH2 0x2179 JUMP JUMPDEST SWAP6 SWAP5 POP POP POP POP POP JUMP JUMPDEST CALLVALUE ISZERO PUSH2 0xF14 JUMPI PUSH1 0x40 MLOAD PUSH4 0xB398979F PUSH1 0xE0 SHL DUP2 MSTORE PUSH1 0x4 ADD PUSH1 0x40 MLOAD DUP1 SWAP2 SUB SWAP1 REVERT JUMPDEST PUSH1 0x0 PUSH2 0x2169 PUSH2 0x1EA8 JUMP JUMPDEST SLOAD PUSH1 0x1 PUSH1 0x40 SHL SWAP1 DIV PUSH1 0xFF AND SWAP2 SWAP1 POP JUMP JUMPDEST PUSH1 0x60 DUP3 PUSH2 0x218E JUMPI PUSH2 0x2189 DUP3 PUSH2 0x21D5 JUMP JUMPDEST PUSH2 0xE6B JUMP JUMPDEST DUP2 MLOAD ISZERO DUP1 ISZERO PUSH2 0x21A5 JUMPI POP PUSH1 0x1 PUSH1 0x1 PUSH1 0xA0 SHL SUB DUP5 AND EXTCODESIZE ISZERO JUMPDEST ISZERO PUSH2 0x21CE JUMPI PUSH1 0x40 MLOAD PUSH4 0x9996B315 PUSH1 0xE0 SHL DUP2 MSTORE PUSH1 0x1 PUSH1 0x1 PUSH1 0xA0 SHL SUB DUP6 AND PUSH1 0x4 DUP3 ADD MSTORE PUSH1 0x24 ADD PUSH2 0x1A55 JUMP JUMPDEST POP SWAP3 SWAP2 POP POP JUMP JUMPDEST DUP1 MLOAD ISZERO PUSH2 0x21E4 JUMPI DUP1 MLOAD PUSH1 0x20 DUP3 ADD REVERT JUMPDEST PUSH1 0x40 MLOAD PUSH4 0xD6BDA275 PUSH1 0xE0 SHL DUP2 MSTORE PUSH1 0x4 ADD PUSH1 0x40 MLOAD DUP1 SWAP2 SUB SWAP1 REVERT JUMPDEST PUSH1 0x0 PUSH1 0x20 DUP3 DUP5 SUB SLT ISZERO PUSH2 0x220F JUMPI PUSH1 0x0 DUP1 REVERT JUMPDEST POP CALLDATALOAD SWAP2 SWAP1 POP JUMP JUMPDEST DUP1 CALLDATALOAD PUSH1 0x1 PUSH1 0x1 PUSH1 0xA0 SHL SUB DUP2 AND DUP2 EQ PUSH2 0x222D JUMPI PUSH1 0x0 DUP1 REVERT JUMPDEST SWAP2 SWAP1 POP JUMP JUMPDEST PUSH1 0x0 PUSH1 0x20 DUP3 DUP5 SUB SLT ISZERO PUSH2 0x2244 JUMPI PUSH1 0x0 DUP1 REVERT JUMPDEST PUSH2 0xE6B DUP3 PUSH2 0x2216 JUMP JUMPDEST PUSH4 0x4E487B71 PUSH1 0xE0 SHL PUSH1 0x0 MSTORE PUSH1 0x41 PUSH1 0x4 MSTORE PUSH1 0x24 PUSH1 0x0 REVERT JUMPDEST PUSH1 0x0 DUP1 PUSH1 0x40 DUP4 DUP6 SUB SLT ISZERO PUSH2 0x2276 JUMPI PUSH1 0x0 DUP1 REVERT JUMPDEST PUSH2 0x227F DUP4 PUSH2 0x2216 JUMP JUMPDEST SWAP2 POP PUSH1 0x20 DUP4 ADD CALLDATALOAD PUSH8 0xFFFFFFFFFFFFFFFF DUP1 DUP3 GT ISZERO PUSH2 0x229C JUMPI PUSH1 0x0 DUP1 REVERT JUMPDEST DUP2 DUP6 ADD SWAP2 POP DUP6 PUSH1 0x1F DUP4 ADD SLT PUSH2 0x22B0 JUMPI PUSH1 0x0 DUP1 REVERT JUMPDEST DUP2 CALLDATALOAD DUP2 DUP2 GT ISZERO PUSH2 0x22C2 JUMPI PUSH2 0x22C2 PUSH2 0x224D JUMP JUMPDEST PUSH1 0x40 MLOAD PUSH1 0x1F DUP3 ADD PUSH1 0x1F NOT SWAP1 DUP2 AND PUSH1 0x3F ADD AND DUP2 ADD SWAP1 DUP4 DUP3 GT DUP2 DUP4 LT OR ISZERO PUSH2 0x22EA JUMPI PUSH2 0x22EA PUSH2 0x224D JUMP JUMPDEST DUP2 PUSH1 0x40 MSTORE DUP3 DUP2 MSTORE DUP9 PUSH1 0x20 DUP5 DUP8 ADD ADD GT ISZERO PUSH2 0x2303 JUMPI PUSH1 0x0 DUP1 REVERT JUMPDEST DUP3 PUSH1 0x20 DUP7 ADD PUSH1 0x20 DUP4 ADD CALLDATACOPY PUSH1 0x0 PUSH1 0x20 DUP5 DUP4 ADD ADD MSTORE DUP1 SWAP6 POP POP POP POP POP POP SWAP3 POP SWAP3 SWAP1 POP JUMP JUMPDEST PUSH1 0x0 PUSH2 0x140 DUP3 ADD SWAP1 POP DUP3 MLOAD DUP3 MSTORE PUSH1 0x20 DUP4 ADD MLOAD PUSH1 0x20 DUP4 ADD MSTORE PUSH1 0x40 DUP4 ADD MLOAD PUSH1 0x40 DUP4 ADD MSTORE PUSH1 0x60 DUP4 ADD MLOAD PUSH1 0x60 DUP4 ADD MSTORE PUSH1 0x80 DUP4 ADD MLOAD PUSH1 0x80 DUP4 ADD MSTORE PUSH1 0xA0 DUP4 ADD MLOAD PUSH1 0xA0 DUP4 ADD MSTORE PUSH1 0xC0 DUP4 ADD MLOAD PUSH1 0xC0 DUP4 ADD MSTORE PUSH1 0xE0 DUP4 ADD MLOAD PUSH1 0xE0 DUP4 ADD MSTORE PUSH2 0x100 DUP1 DUP5 ADD MLOAD PUSH2 0x238C DUP3 DUP6 ADD DUP3 ISZERO ISZERO SWAP1 MSTORE JUMP JUMPDEST POP POP PUSH2 0x120 SWAP3 DUP4 ADD MLOAD SWAP2 SWAP1 SWAP3 ADD MSTORE SWAP1 JUMP JUMPDEST PUSH1 0x0 JUMPDEST DUP4 DUP2 LT ISZERO PUSH2 0x23B8 JUMPI DUP2 DUP2 ADD MLOAD DUP4 DUP3 ADD MSTORE PUSH1 0x20 ADD PUSH2 0x23A0 JUMP JUMPDEST POP POP PUSH1 0x0 SWAP2 ADD MSTORE JUMP JUMPDEST PUSH1 0x20 DUP2 MSTORE PUSH1 0x0 DUP3 MLOAD DUP1 PUSH1 0x20 DUP5 ADD MSTORE PUSH2 0x23E0 DUP2 PUSH1 0x40 DUP6 ADD PUSH1 0x20 DUP8 ADD PUSH2 0x239D JUMP JUMPDEST PUSH1 0x1F ADD PUSH1 0x1F NOT AND SWAP2 SWAP1 SWAP2 ADD PUSH1 0x40 ADD SWAP3 SWAP2 POP POP JUMP JUMPDEST PUSH1 0x0 DUP1 PUSH1 0x0 DUP1 PUSH1 0x0 DUP1 PUSH1 0x0 DUP1 PUSH2 0x100 DUP10 DUP12 SUB SLT ISZERO PUSH2 0x2411 JUMPI PUSH1 0x0 DUP1 REVERT JUMPDEST PUSH2 0x241A DUP10 PUSH2 0x2216 JUMP JUMPDEST SWAP8 POP PUSH2 0x2428 PUSH1 0x20 DUP11 ADD PUSH2 0x2216 JUMP JUMPDEST SWAP7 POP PUSH2 0x2436 PUSH1 0x40 DUP11 ADD PUSH2 0x2216 JUMP JUMPDEST SWAP8 SWAP11 SWAP7 SWAP10 POP SWAP7 SWAP8 PUSH1 0x60 DUP2 ADD CALLDATALOAD SWAP8 POP PUSH1 0x80 DUP2 ADD CALLDATALOAD SWAP7 PUSH1 0xA0 DUP3 ADD CALLDATALOAD SWAP7 POP PUSH1 0xC0 DUP3 ADD CALLDATALOAD SWAP6 POP PUSH1 0xE0 SWAP1 SWAP2 ADD CALLDATALOAD SWAP4 POP SWAP2 POP POP JUMP JUMPDEST PUSH1 0x0 DUP1 PUSH1 0x40 DUP4 DUP6 SUB SLT ISZERO PUSH2 0x2478 JUMPI PUSH1 0x0 DUP1 REVERT JUMPDEST DUP3 CALLDATALOAD SWAP2 POP PUSH2 0x2488 PUSH1 0x20 DUP5 ADD PUSH2 0x2216 JUMP JUMPDEST SWAP1 POP SWAP3 POP SWAP3 SWAP1 POP JUMP JUMPDEST PUSH1 0x0 DUP1 PUSH1 0x0 DUP1 PUSH1 0x0 PUSH1 0xA0 DUP7 DUP9 SUB SLT ISZERO PUSH2 0x24A9 JUMPI PUSH1 0x0 DUP1 REVERT JUMPDEST POP POP DUP4 CALLDATALOAD SWAP6 PUSH1 0x20 DUP6 ADD CALLDATALOAD SWAP6 POP PUSH1 0x40 DUP6 ADD CALLDATALOAD SWAP5 PUSH1 0x60 DUP2 ADD CALLDATALOAD SWAP5 POP PUSH1 0x80 ADD CALLDATALOAD SWAP3 POP SWAP1 POP JUMP JUMPDEST PUSH4 0x4E487B71 PUSH1 0xE0 SHL PUSH1 0x0 MSTORE PUSH1 0x11 PUSH1 0x4 MSTORE PUSH1 0x24 PUSH1 0x0 REVERT JUMPDEST DUP1 DUP3 ADD DUP1 DUP3 GT ISZERO PUSH2 0x1B36 JUMPI PUSH2 0x1B36 PUSH2 0x24CC JUMP JUMPDEST DUP2 DUP2 SUB DUP2 DUP2 GT ISZERO PUSH2 0x1B36 JUMPI PUSH2 0x1B36 PUSH2 0x24CC JUMP JUMPDEST DUP1 DUP3 MUL DUP2 ISZERO DUP3 DUP3 DIV DUP5 EQ OR PUSH2 0x1B36 JUMPI PUSH2 0x1B36 PUSH2 0x24CC JUMP JUMPDEST PUSH1 0x0 PUSH1 0x1 DUP3 ADD PUSH2 0x2531 JUMPI PUSH2 0x2531 PUSH2 0x24CC JUMP JUMPDEST POP PUSH1 0x1 ADD SWAP1 JUMP JUMPDEST PUSH4 0x4E487B71 PUSH1 0xE0 SHL PUSH1 0x0 MSTORE PUSH1 0x32 PUSH1 0x4 MSTORE PUSH1 0x24 PUSH1 0x0 REVERT JUMPDEST PUSH1 0x0 DUP3 PUSH2 0x256B JUMPI PUSH4 0x4E487B71 PUSH1 0xE0 SHL PUSH1 0x0 MSTORE PUSH1 0x12 PUSH1 0x4 MSTORE PUSH1 0x24 PUSH1 0x0 REVERT JUMPDEST POP DIV SWAP1 JUMP JUMPDEST PUSH1 0x0 PUSH1 0x20 DUP3 DUP5 SUB SLT ISZERO PUSH2 0x2582 JUMPI PUSH1 0x0 DUP1 REVERT JUMPDEST POP MLOAD SWAP2 SWAP1 POP JUMP JUMPDEST PUSH1 0x0 DUP3 MLOAD PUSH2 0x259B DUP2 DUP5 PUSH1 0x20 DUP8 ADD PUSH2 0x239D JUMP JUMPDEST SWAP2 SWAP1 SWAP2 ADD SWAP3 SWAP2 POP POP JUMP INVALID DUP7 PUSH28 0xC48474AFBD71C32542F493801861B7FA916F53F0E706E1BB8A3F4770 SWAP13 0x28 CALLDATASIZE ADDMOD SWAP5 LOG1 EXTCODESIZE LOG1 LOG3 0x21 MOD PUSH8 0xC828492DB98DCA3E KECCAK256 PUSH23 0xCC3735A920A3CA505D382BBCA264697066735822122085 0xAC 0x2E LOG4 0xDC DUP16 MSTORE8 0xD3 0xAF BLOCKHASH DUP3 0xAA 0x4D DUP8 0x4E CALLDATALOAD AND PUSH18 0xF4E4CDB32E545DF3DDC134C936DD64736F6C PUSH4 0x43000818 STOP CALLER "},"methodIdentifiers":{"UPGRADE_INTERFACE_VERSION()":"ad3cb1cc","allocateFVC(uint256)":"0b8f760b","bond(uint256)":"9940686e","calculateUSDCAmount(uint256)":"4cabb824","completeCurrentRound()":"d93de017","currentRoundId()":"9cbe5efd","epochCap()":"61025060","finalDiscount()":"473357f1","fvc()":"d1c17e38","fvcAllocated()":"8cf407dd","fvcSold()":"eaccaae1","getCurrentDiscount()":"f0eb737a","getCurrentRound()":"a32bf597","getRemainingFVC()":"36fb2cf5","getVestingSchedule(address)":"9f829063","initialDiscount()":"7ec897cd","initialise(address,address,address,uint256,uint256,uint256,uint256,uint256)":"bb1e0844","isLocked(address)":"4a4fbeec","owner()":"8da5cb5b","proxiableUUID()":"52d1902d","renounceOwnership()":"715018a6","rounds(uint256)":"8c65c81f","setEpochCap(uint256)":"e033ebb0","setTreasury(address)":"f0f44260","setVestingPeriod(uint256)":"40bee0ed","setWalletCap(uint256)":"65a64668","startNewRound(uint256,uint256,uint256,uint256,uint256)":"e8ba4b0f","startNextRound()":"3c3ccc44","totalBonded()":"44d96e95","transferOwnership(address)":"f2fde38b","treasury()":"61d027b3","upgradeToAndCall(address,bytes)":"4f1ef286","usdc()":"3e413bee","userBonded(uint256,address)":"d06f518b","vestingPeriod()":"7313ee5a","vestingSchedules(address)":"fdb20ccb","walletCap()":"58950c22"}},"storageLayout":{"storage":[{"astId":2102,"contract":"src/Bonding.sol:Bonding","label":"fvc","offset":0,"slot":"0","type":"t_contract(IFVC)3397"},{"astId":2106,"contract":"src/Bonding.sol:Bonding","label":"usdc","offset":0,"slot":"1","type":"t_contract(IERC20)1193"},{"astId":2109,"contract":"src/Bonding.sol:Bonding","label":"treasury","offset":0,"slot":"2","type":"t_address"},{"astId":2112,"contract":"src/Bonding.sol:Bonding","label":"currentRoundId","offset":0,"slot":"3","type":"t_uint256"},{"astId":2118,"contract":"src/Bonding.sol:Bonding","label":"rounds","offset":0,"slot":"4","type":"t_mapping(t_uint256,t_struct(RoundConfig)3265_storage)"},{"astId":2121,"contract":"src/Bonding.sol:Bonding","label":"initialDiscount","offset":0,"slot":"5","type":"t_uint256"},{"astId":2124,"contract":"src/Bonding.sol:Bonding","label":"finalDiscount","offset":0,"slot":"6","type":"t_uint256"},{"astId":2127,"contract":"src/Bonding.sol:Bonding","label":"epochCap","offset":0,"slot":"7","type":"t_uint256"},{"astId":2130,"contract":"src/Bonding.sol:Bonding","label":"walletCap","offset":0,"slot":"8","type":"t_uint256"},{"astId":2133,"contract":"src/Bonding.sol:Bonding","label":"vestingPeriod","offset":0,"slot":"9","type":"t_uint256"},{"astId":2136,"contract":"src/Bonding.sol:Bonding","label":"fvcAllocated","offset":0,"slot":"10","type":"t_uint256"},{"astId":2139,"contract":"src/Bonding.sol:Bonding","label":"fvcSold","offset":0,"slot":"11","type":"t_uint256"},{"astId":2142,"contract":"src/Bonding.sol:Bonding","label":"totalBonded","offset":0,"slot":"12","type":"t_uint256"},{"astId":2149,"contract":"src/Bonding.sol:Bonding","label":"userBonded","offset":0,"slot":"13","type":"t_mapping(t_uint256,t_mapping(t_address,t_uint256))"},{"astId":2155,"contract":"src/Bonding.sol:Bonding","label":"vestingSchedules","offset":0,"slot":"14","type":"t_mapping(t_address,t_struct(VestingSchedule)3243_storage)"}],"types":{"t_address":{"encoding":"inplace","label":"address","numberOfBytes":"20"},"t_bool":{"encoding":"inplace","label":"bool","numberOfBytes":"1"},"t_contract(IERC20)1193":{"encoding":"inplace","label":"contract IERC20","numberOfBytes":"20"},"t_contract(IFVC)3397":{"encoding":"inplace","label":"contract IFVC","numberOfBytes":"20"},"t_mapping(t_address,t_struct(VestingSchedule)3243_storage)":{"encoding":"mapping","key":"t_address","label":"mapping(address => struct IBonding.VestingSchedule)","numberOfBytes":"32","value":"t_struct(VestingSchedule)3243_storage"},"t_mapping(t_address,t_uint256)":{"encoding":"mapping","key":"t_address","label":"mapping(address => uint256)","numberOfBytes":"32","value":"t_uint256"},"t_mapping(t_uint256,t_mapping(t_address,t_uint256))":{"encoding":"mapping","key":"t_uint256","label":"mapping(uint256 => mapping(address => uint256))","numberOfBytes":"32","value":"t_mapping(t_address,t_uint256)"},"t_mapping(t_uint256,t_struct(RoundConfig)3265_storage)":{"encoding":"mapping","key":"t_uint256","label":"mapping(uint256 => struct IBonding.RoundConfig)","numberOfBytes":"32","value":"t_struct(RoundConfig)3265_storage"},"t_struct(RoundConfig)3265_storage":{"encoding":"inplace","label":"struct IBonding.RoundConfig","members":[{"astId":3246,"contract":"src/Bonding.sol:Bonding","label":"roundId","offset":0,"slot":"0","type":"t_uint256"},{"astId":3248,"contract":"src/Bonding.sol:Bonding","label":"initialDiscount","offset":0,"slot":"1","type":"t_uint256"},{"astId":3250,"contract":"src/Bonding.sol:Bonding","label":"finalDiscount","offset":0,"slot":"2","type":"t_uint256"},{"astId":3252,"contract":"src/Bonding.sol:Bonding","label":"epochCap","offset":0,"slot":"3","type":"t_uint256"},{"astId":3254,"contract":"src/Bonding.sol:Bonding","label":"walletCap","offset":0,"slot":"4","type":"t_uint256"},{"astId":3256,"contract":"src/Bonding.sol:Bonding","label":"vestingPeriod","offset":0,"slot":"5","type":"t_uint256"},{"astId":3258,"contract":"src/Bonding.sol:Bonding","label":"fvcAllocated","offset":0,"slot":"6","type":"t_uint256"},{"astId":3260,"contract":"src/Bonding.sol:Bonding","label":"fvcSold","offset":0,"slot":"7","type":"t_uint256"},{"astId":3262,"contract":"src/Bonding.sol:Bonding","label":"isActive","offset":0,"slot":"8","type":"t_bool"},{"astId":3264,"contract":"src/Bonding.sol:Bonding","label":"totalBonded","offset":0,"slot":"9","type":"t_uint256"}],"numberOfBytes":"320"},"t_struct(VestingSchedule)3243_storage":{"encoding":"inplace","label":"struct IBonding.VestingSchedule","members":[{"astId":3238,"contract":"src/Bonding.sol:Bonding","label":"amount","offset":0,"slot":"0","type":"t_uint256"},{"astId":3240,"contract":"src/Bonding.sol:Bonding","label":"startTime","offset":0,"slot":"1","type":"t_uint256"},{"astId":3242,"contract":"src/Bonding.sol:Bonding","label":"endTime","offset":0,"slot":"2","type":"t_uint256"}],"numberOfBytes":"96"},"t_uint256":{"encoding":"inplace","label":"uint256","numberOfBytes":"32"}}}}}}