{"src/Bonding.sol":{"Bonding":{"abi":[{"inputs":[{"internalType":"address","name":"_fvc","type":"address"},{"internalType":"address","name":"_usdc","type":"address"},{"internalType":"address","name":"_treasury","type":"address"},{"internalType":"uint256","name":"_initialDiscount","type":"uint256"},{"internalType":"uint256","name":"_finalDiscount","type":"uint256"},{"internalType":"uint256","name":"_epochCap","type":"uint256"},{"internalType":"uint256","name":"_walletCap","type":"uint256"},{"internalType":"uint256","name":"_vestingPeriod","type":"uint256"}],"stateMutability":"nonpayable","type":"constructor"},{"inputs":[],"name":"Bonding__AmountMustBeGreaterThanZero","type":"error"},{"inputs":[],"name":"Bonding__EpochCapExceeded","type":"error"},{"inputs":[],"name":"Bonding__ExceedsWalletCap","type":"error"},{"inputs":[],"name":"Bonding__InvalidDiscountRange","type":"error"},{"inputs":[],"name":"Bonding__InvalidVestingPeriod","type":"error"},{"inputs":[],"name":"Bonding__NoMoreRounds","type":"error"},{"inputs":[],"name":"Bonding__RoundAlreadyActive","type":"error"},{"inputs":[],"name":"Bonding__RoundNotActive","type":"error"},{"inputs":[],"name":"Bonding__TokensLockedInVesting","type":"error"},{"inputs":[{"internalType":"address","name":"owner","type":"address"}],"name":"OwnableInvalidOwner","type":"error"},{"inputs":[{"internalType":"address","name":"account","type":"address"}],"name":"OwnableUnauthorizedAccount","type":"error"},{"inputs":[{"internalType":"address","name":"token","type":"address"}],"name":"SafeERC20FailedOperation","type":"error"},{"anonymous":false,"inputs":[{"indexed":true,"internalType":"address","name":"user","type":"address"},{"indexed":false,"internalType":"uint256","name":"amount","type":"uint256"}],"name":"Bonded","type":"event"},{"anonymous":false,"inputs":[{"indexed":false,"internalType":"uint256","name":"newCap","type":"uint256"}],"name":"EpochCapUpdated","type":"event"},{"anonymous":false,"inputs":[{"indexed":false,"internalType":"uint256","name":"roundId","type":"uint256"},{"indexed":false,"internalType":"uint256","name":"fvcAmount","type":"uint256"}],"name":"FVCAllocated","type":"event"},{"anonymous":false,"inputs":[{"indexed":true,"internalType":"address","name":"previousOwner","type":"address"},{"indexed":true,"internalType":"address","name":"newOwner","type":"address"}],"name":"OwnershipTransferred","type":"event"},{"anonymous":false,"inputs":[{"indexed":true,"internalType":"uint256","name":"roundId","type":"uint256"},{"indexed":false,"internalType":"uint256","name":"totalBonded","type":"uint256"}],"name":"RoundCompleted","type":"event"},{"anonymous":false,"inputs":[{"indexed":true,"internalType":"uint256","name":"roundId","type":"uint256"},{"indexed":false,"internalType":"uint256","name":"initialDiscount","type":"uint256"},{"indexed":false,"internalType":"uint256","name":"finalDiscount","type":"uint256"},{"indexed":false,"internalType":"uint256","name":"epochCap","type":"uint256"}],"name":"RoundStarted","type":"event"},{"anonymous":false,"inputs":[{"indexed":false,"internalType":"uint256","name":"newPeriod","type":"uint256"}],"name":"VestingPeriodUpdated","type":"event"},{"anonymous":false,"inputs":[{"indexed":true,"internalType":"address","name":"user","type":"address"},{"indexed":false,"internalType":"uint256","name":"amount","type":"uint256"},{"indexed":false,"internalType":"uint256","name":"startTime","type":"uint256"},{"indexed":false,"internalType":"uint256","name":"endTime","type":"uint256"}],"name":"VestingScheduleCreated","type":"event"},{"anonymous":false,"inputs":[{"indexed":false,"internalType":"uint256","name":"newCap","type":"uint256"}],"name":"WalletCapUpdated","type":"event"},{"inputs":[{"internalType":"uint256","name":"fvcAmount","type":"uint256"}],"name":"allocateFVC","outputs":[],"stateMutability":"nonpayable","type":"function"},{"inputs":[{"internalType":"uint256","name":"fvcAmount","type":"uint256"}],"name":"bond","outputs":[],"stateMutability":"nonpayable","type":"function"},{"inputs":[{"internalType":"uint256","name":"fvcAmount","type":"uint256"}],"name":"calculateUSDCAmount","outputs":[{"internalType":"uint256","name":"usdcAmount","type":"uint256"}],"stateMutability":"view","type":"function"},{"inputs":[],"name":"completeCurrentRound","outputs":[],"stateMutability":"nonpayable","type":"function"},{"inputs":[],"name":"currentRoundId","outputs":[{"internalType":"uint256","name":"","type":"uint256"}],"stateMutability":"view","type":"function"},{"inputs":[],"name":"emergencyUnlockAllVesting","outputs":[],"stateMutability":"nonpayable","type":"function"},{"inputs":[{"internalType":"address","name":"user","type":"address"}],"name":"emergencyUnlockVesting","outputs":[],"stateMutability":"nonpayable","type":"function"},{"inputs":[],"name":"epochCap","outputs":[{"internalType":"uint256","name":"","type":"uint256"}],"stateMutability":"view","type":"function"},{"inputs":[],"name":"finalDiscount","outputs":[{"internalType":"uint256","name":"","type":"uint256"}],"stateMutability":"view","type":"function"},{"inputs":[],"name":"fvc","outputs":[{"internalType":"contract IFVC","name":"","type":"address"}],"stateMutability":"view","type":"function"},{"inputs":[],"name":"fvcAllocated","outputs":[{"internalType":"uint256","name":"","type":"uint256"}],"stateMutability":"view","type":"function"},{"inputs":[],"name":"fvcSold","outputs":[{"internalType":"uint256","name":"","type":"uint256"}],"stateMutability":"view","type":"function"},{"inputs":[],"name":"getCurrentDiscount","outputs":[{"internalType":"uint256","name":"","type":"uint256"}],"stateMutability":"view","type":"function"},{"inputs":[],"name":"getCurrentRound","outputs":[{"components":[{"internalType":"uint256","name":"roundId","type":"uint256"},{"internalType":"uint256","name":"initialDiscount","type":"uint256"},{"internalType":"uint256","name":"finalDiscount","type":"uint256"},{"internalType":"uint256","name":"epochCap","type":"uint256"},{"internalType":"uint256","name":"walletCap","type":"uint256"},{"internalType":"uint256","name":"vestingPeriod","type":"uint256"},{"internalType":"uint256","name":"fvcAllocated","type":"uint256"},{"internalType":"uint256","name":"fvcSold","type":"uint256"},{"internalType":"bool","name":"isActive","type":"bool"},{"internalType":"uint256","name":"totalBonded","type":"uint256"}],"internalType":"struct IBonding.RoundConfig","name":"","type":"tuple"}],"stateMutability":"view","type":"function"},{"inputs":[],"name":"getRemainingFVC","outputs":[{"internalType":"uint256","name":"","type":"uint256"}],"stateMutability":"view","type":"function"},{"inputs":[{"internalType":"address","name":"user","type":"address"}],"name":"getVestingSchedule","outputs":[{"components":[{"internalType":"uint256","name":"amount","type":"uint256"},{"internalType":"uint256","name":"startTime","type":"uint256"},{"internalType":"uint256","name":"endTime","type":"uint256"}],"internalType":"struct IBonding.VestingSchedule","name":"","type":"tuple"}],"stateMutability":"view","type":"function"},{"inputs":[],"name":"initialDiscount","outputs":[{"internalType":"uint256","name":"","type":"uint256"}],"stateMutability":"view","type":"function"},{"inputs":[{"internalType":"address","name":"user","type":"address"}],"name":"isLocked","outputs":[{"internalType":"bool","name":"","type":"bool"}],"stateMutability":"view","type":"function"},{"inputs":[],"name":"owner","outputs":[{"internalType":"address","name":"","type":"address"}],"stateMutability":"view","type":"function"},{"inputs":[],"name":"renounceOwnership","outputs":[],"stateMutability":"nonpayable","type":"function"},{"inputs":[{"internalType":"uint256","name":"","type":"uint256"}],"name":"rounds","outputs":[{"internalType":"uint256","name":"roundId","type":"uint256"},{"internalType":"uint256","name":"initialDiscount","type":"uint256"},{"internalType":"uint256","name":"finalDiscount","type":"uint256"},{"internalType":"uint256","name":"epochCap","type":"uint256"},{"internalType":"uint256","name":"walletCap","type":"uint256"},{"internalType":"uint256","name":"vestingPeriod","type":"uint256"},{"internalType":"uint256","name":"fvcAllocated","type":"uint256"},{"internalType":"uint256","name":"fvcSold","type":"uint256"},{"internalType":"bool","name":"isActive","type":"bool"},{"internalType":"uint256","name":"totalBonded","type":"uint256"}],"stateMutability":"view","type":"function"},{"inputs":[{"internalType":"uint256","name":"_epochCap","type":"uint256"}],"name":"setEpochCap","outputs":[],"stateMutability":"nonpayable","type":"function"},{"inputs":[{"internalType":"address","name":"_treasury","type":"address"}],"name":"setTreasury","outputs":[],"stateMutability":"nonpayable","type":"function"},{"inputs":[{"internalType":"uint256","name":"_vestingPeriod","type":"uint256"}],"name":"setVestingPeriod","outputs":[],"stateMutability":"nonpayable","type":"function"},{"inputs":[{"internalType":"uint256","name":"_walletCap","type":"uint256"}],"name":"setWalletCap","outputs":[],"stateMutability":"nonpayable","type":"function"},{"inputs":[{"internalType":"uint256","name":"_initialDiscount","type":"uint256"},{"internalType":"uint256","name":"_finalDiscount","type":"uint256"},{"internalType":"uint256","name":"_epochCap","type":"uint256"},{"internalType":"uint256","name":"_walletCap","type":"uint256"},{"internalType":"uint256","name":"_vestingPeriod","type":"uint256"}],"name":"startNewRound","outputs":[],"stateMutability":"nonpayable","type":"function"},{"inputs":[],"name":"startNextRound","outputs":[],"stateMutability":"nonpayable","type":"function"},{"inputs":[],"name":"totalBonded","outputs":[{"internalType":"uint256","name":"","type":"uint256"}],"stateMutability":"view","type":"function"},{"inputs":[{"internalType":"address","name":"newOwner","type":"address"}],"name":"transferOwnership","outputs":[],"stateMutability":"nonpayable","type":"function"},{"inputs":[],"name":"treasury","outputs":[{"internalType":"address","name":"","type":"address"}],"stateMutability":"view","type":"function"},{"inputs":[],"name":"usdc","outputs":[{"internalType":"contract IERC20","name":"","type":"address"}],"stateMutability":"view","type":"function"},{"inputs":[{"internalType":"uint256","name":"","type":"uint256"},{"internalType":"address","name":"","type":"address"}],"name":"userBonded","outputs":[{"internalType":"uint256","name":"","type":"uint256"}],"stateMutability":"view","type":"function"},{"inputs":[],"name":"vestingPeriod","outputs":[{"internalType":"uint256","name":"","type":"uint256"}],"stateMutability":"view","type":"function"},{"inputs":[{"internalType":"address","name":"","type":"address"}],"name":"vestingSchedules","outputs":[{"internalType":"uint256","name":"amount","type":"uint256"},{"internalType":"uint256","name":"startTime","type":"uint256"},{"internalType":"uint256","name":"endTime","type":"uint256"}],"stateMutability":"view","type":"function"},{"inputs":[],"name":"walletCap","outputs":[{"internalType":"uint256","name":"","type":"uint256"}],"stateMutability":"view","type":"function"}],"evm":{"bytecode":{"linkReferences":{},"object":"60806040523480156200001157600080fd5b5060405162001e6338038062001e6383398101604081905262000034916200039b565b33806200005b57604051631e4fbdf760e01b81526000600482015260240160405180910390fd5b62000066816200032e565b50600180546001600160a01b03808b166001600160a01b031992831617909255600280548a84169083161790556003805492891692909116919091179055838511620000c5576040516381b8843960e01b815260040160405180910390fd5b80600003620000e757604051631b3cc90f60e01b815260040160405180910390fd5b600160048190556006869055600785905560088490556009839055600a8290556000600b819055600c819055600d819055604080516101408101825283815260208082018a81528284018a815260608085018b8152608086018b815260a087018b815260c088018a815260e089018b81526101008a018d81526101208b018d81529c8e905260058a5299517f1471eb6eb2c5e789fc3de43f8ce62938c7d1836ec861730447e2ada8fd81017b5596517f1471eb6eb2c5e789fc3de43f8ce62938c7d1836ec861730447e2ada8fd81017c5594517f1471eb6eb2c5e789fc3de43f8ce62938c7d1836ec861730447e2ada8fd81017d5591517f1471eb6eb2c5e789fc3de43f8ce62938c7d1836ec861730447e2ada8fd81017e55517f1471eb6eb2c5e789fc3de43f8ce62938c7d1836ec861730447e2ada8fd81017f55517f1471eb6eb2c5e789fc3de43f8ce62938c7d1836ec861730447e2ada8fd8101805590517f1471eb6eb2c5e789fc3de43f8ce62938c7d1836ec861730447e2ada8fd8101815590517f1471eb6eb2c5e789fc3de43f8ce62938c7d1836ec861730447e2ada8fd8101825591517f1471eb6eb2c5e789fc3de43f8ce62938c7d1836ec861730447e2ada8fd810183805460ff191691151591909117905592517f1471eb6eb2c5e789fc3de43f8ce62938c7d1836ec861730447e2ada8fd8101845581518981529283018890529082018690527ffd9d17e5565deea3d25918d95fc398673b9445ef0a96d12eaf3ab2b198756c65910160405180910390a2505050505050505062000416565b600080546001600160a01b038381166001600160a01b0319831681178455604051919092169283917f8be0079c531659141344cd1fd0a4f28419497f9722a3daafe3b4186f6b6457e09190a35050565b80516001600160a01b03811681146200039657600080fd5b919050565b600080600080600080600080610100898b031215620003b957600080fd5b620003c4896200037e565b9750620003d460208a016200037e565b9650620003e460408a016200037e565b9550606089015194506080890151935060a0890151925060c0890151915060e089015190509295985092959890939650565b611a3d80620004266000396000f3fe608060405234801561001057600080fd5b50600436106102115760003560e01c80637ec897cd11610125578063d1c17e38116100ad578063eaccaae11161007c578063eaccaae1146104df578063f0eb737a146104e8578063f0f44260146104f0578063f2fde38b14610503578063fdb20ccb1461051657600080fd5b8063d1c17e381461049e578063d93de017146104b1578063e033ebb0146104b9578063e8ba4b0f146104cc57600080fd5b80639940686e116100f45780639940686e1461040d5780639cbe5efd146104205780639f82906314610429578063a32bf5971461045e578063d06f518b1461047357600080fd5b80637ec897cd146103385780638c65c81f146103415780638cf407dd146103f35780638da5cb5b146103fc57600080fd5b80634a4fbeec116101a8578063610250601161017757806361025060146102f857806361d027b31461030157806365a6466814610314578063715018a6146103275780637313ee5a1461032f57600080fd5b80634a4fbeec146102a65780634cabb824146102c95780634cdaa354146102dc57806358950c22146102ef57600080fd5b80633e84d3c5116101e45780633e84d3c51461027957806340bee0ed1461028157806344d96e9514610294578063473357f11461029d57600080fd5b80630b8f760b1461021657806336fb2cf51461022b5780633c3ccc44146102465780633e413bee1461024e575b600080fd5b610229610224366004611814565b610560565b005b610233610649565b6040519081526020015b60405180910390f35b610229610660565b600254610261906001600160a01b031681565b6040516001600160a01b03909116815260200161023d565b610229610b6e565b61022961028f366004611814565b610bbb565b610233600d5481565b61023360075481565b6102b96102b4366004611849565b610c20565b604051901515815260200161023d565b6102336102d7366004611814565b610c80565b6102296102ea366004611849565b610c97565b61023360095481565b61023360085481565b600354610261906001600160a01b031681565b610229610322366004611814565b610d26565b610229610d63565b610233600a5481565b61023360065481565b6103a761034f366004611814565b6005602081905260009182526040909120805460018201546002830154600384015460048501549585015460068601546007870154600888015460099098015496989597949693959492939192909160ff909116908a565b604080519a8b5260208b0199909952978901969096526060880194909452608087019290925260a086015260c085015260e084015215156101008301526101208201526101400161023d565b610233600b5481565b6000546001600160a01b0316610261565b61022961041b366004611814565b610d77565b61023360045481565b61043c610437366004611849565b61104d565b604080518251815260208084015190820152918101519082015260600161023d565b6104666110b3565b60405161023d9190611864565b6102336104813660046118dc565b600e60209081526000928352604080842090915290825290205481565b600154610261906001600160a01b031681565b610229611193565b6102296104c7366004611814565b611209565b6102296104da366004611908565b611246565b610233600c5481565b61023361145d565b6102296104fe366004611849565b611473565b610229610511366004611849565b61149d565b610545610524366004611849565b600f6020526000908152604090208054600182015460029092015490919083565b6040805193845260208401929092529082015260600161023d565b6105686114e0565b6004546000908152600560205260409020600881015460ff1661059e5760405163b885dfef60e01b815260040160405180910390fd5b816000036105bf5760405163d3590a8360e01b815260040160405180910390fd5b6001546105d7906001600160a01b031633308561150d565b81600b60008282546105e99190611959565b92505081905550818160060160008282546106049190611959565b909155505060045460408051918252602082018490527f7cdd16d98681f4d22957409604a564ef1d8cd2b0d5cc5235d444451f03324b13910160405180910390a15050565b6000600c54600b5461065b919061196c565b905090565b6106686114e0565b6004546000908152600560205260409020600881015460ff161561069f5760405163ccf5bf4560e01b815260040160405180910390fd5b6005600454106106c2576040516346dc4d3b60e01b815260040160405180910390fd5b60006040518060a001604052806019815260200160148152602001600f8152602001600a81526020016005815250905060006040518060a00160405280600581526020016003815260200160028152602001600181526020016000815250905060006040518060a001604052806304c4b400670de0b6b3a7640000610747919061197f565b81526020016107626303938700670de0b6b3a764000061197f565b815260200161077d6302625a00670de0b6b3a764000061197f565b815260200161079762e4e1c0670de0b6b3a764000061197f565b81526020016107b1624c4b40670de0b6b3a764000061197f565b815250905060006040518060a00160405280627a1200670de0b6b3a76400006107da919061197f565b81526020016107f4625b8d80670de0b6b3a764000061197f565b815260200161080e623d0900670de0b6b3a764000061197f565b8152602001610828621e8480670de0b6b3a764000061197f565b8152602001610842620f4240670de0b6b3a764000061197f565b81525090506004546000805160206119e8833981519152866009015460405161086d91815260200190565b60405180910390a26004805490600061088583611996565b919050555083600160045461089a919061196c565b600581106108aa576108aa6119af565b602002015160065560045483906108c39060019061196c565b600581106108d3576108d36119af565b602002015160075560045482906108ec9060019061196c565b600581106108fc576108fc6119af565b602002015160085560045481906109159060019061196c565b60058110610925576109256119af565b60200201516009819055506000600d81905550604051806101400160405280600454815260200185600160045461095c919061196c565b6005811061096c5761096c6119af565b60200201518152602001846001600454610986919061196c565b60058110610996576109966119af565b602002015181526020018360016004546109b0919061196c565b600581106109c0576109c06119af565b602002015181526020018260016004546109da919061196c565b600581106109ea576109ea6119af565b60200201518152602001600a54815260200160008152602001600081526020016001151581526020016000815250600560006004548152602001908152602001600020600082015181600001556020820151816001015560408201518160020155606082015181600301556080820151816004015560a0820151816005015560c0820151816006015560e082015181600701556101008201518160080160006101000a81548160ff02191690831515021790555061012082015181600901559050506004547ffd9d17e5565deea3d25918d95fc398673b9445ef0a96d12eaf3ab2b198756c65856001600454610ae0919061196c565b60058110610af057610af06119af565b6020020151856001600454610b05919061196c565b60058110610b1557610b156119af565b6020020151856001600454610b2a919061196c565b60058110610b3a57610b3a6119af565b6020020151604051610b5f939291909283526020830191909152604082015260600190565b60405180910390a25050505050565b610b766114e0565b604080516000808252602082018190529181018290527f892f1a841b10e4b041cc41d8cc47c6a6049f1ff5fa272ddf47a0aa5ad8f59d139060600160405180910390a2565b610bc36114e0565b80600003610be457604051631b3cc90f60e01b815260040160405180910390fd5b600a8190556040518181527fc21cb0f112058f1eb0e3313a577dfc27e6be5b39127591e05245343a422e4915906020015b60405180910390a150565b6001600160a01b0381166000908152600f6020908152604080832081516060810183528154808252600183015494820194909452600290910154918101919091529015801590610c795750610c7942826040015161157a565b9392505050565b600080610c8b61145d565b9050610c798382611584565b610c9f6114e0565b6001600160a01b0381166000908152600f60205260409020805415610d22578054600080835560018301819055600283018190556040805182815260208101839052908101919091526001600160a01b038416907f892f1a841b10e4b041cc41d8cc47c6a6049f1ff5fa272ddf47a0aa5ad8f59d139060600160405180910390a2505b5050565b610d2e6114e0565b60098190556040518181527f4784309e6b1f1431c711eac5e572f9ba2d542ecb5428efc0e927b794f4e8e2c190602001610c15565b610d6b6114e0565b610d756000611607565b565b80600003610d985760405163d3590a8360e01b815260040160405180910390fd5b6004546000908152600560205260409020600881015460ff16610dce5760405163b885dfef60e01b815260040160405180910390fd5b600b5482600c54610ddf9190611959565b1115610dfe5760405163437d78f560e01b815260040160405180910390fd5b6000610e0861145d565b90506000610e168483611584565b6009546004546000908152600e6020908152604080832033845290915290205491925090610e45908390611959565b1115610e64576040516375284bdb60e01b815260040160405180910390fd5b600354600254610e83916001600160a01b03918216913391168461150d565b600154610e9a906001600160a01b03163386611657565b80600d6000828254610eac9190611959565b9250508190555080836009016000828254610ec79190611959565b9250508190555083836007016000828254610ee29190611959565b9250508190555083600c6000828254610efb9190611959565b90915550506004546000908152600e6020908152604080832033845290915281208054839290610f2c908490611959565b9091555050600a544290600090610f439083611959565b604080516060810182528881526020808201868152828401858152336000818152600f85528690209451855591516001850155516002909301929092559151868152929350917fd0a009034e24a39106653c4903cf28b1947b8a9964d03206648e0f0a5de74a46910160405180910390a2604080518781526020810184905290810182905233907f892f1a841b10e4b041cc41d8cc47c6a6049f1ff5fa272ddf47a0aa5ad8f59d139060600160405180910390a2600b54600c54106110455760088501805460ff1916905561101661168d565b6004546000805160206119e8833981519152866009015460405161103c91815260200190565b60405180910390a25b505050505050565b61107160405180606001604052806000815260200160008152602001600081525090565b506001600160a01b03166000908152600f6020908152604091829020825160608101845281548152600182015492810192909252600201549181019190915290565b61110b6040518061014001604052806000815260200160008152602001600081526020016000815260200160008152602001600081526020016000815260200160008152602001600015158152602001600081525090565b5060048054600090815260056020818152604092839020835161014081018552815481526001820154928101929092526002810154938201939093526003830154606082015292820154608084015281015460a0830152600681015460c0830152600781015460e0830152600881015460ff1615156101008301526009015461012082015290565b61119b6114e0565b6004546000908152600560205260409020600881015460ff166111d15760405163b885dfef60e01b815260040160405180910390fd5b60088101805460ff1916905560045460098201546040519081526000805160206119e88339815191529060200160405180910390a250565b6112116114e0565b60088190556040518181527f5f444d43ef974de0a9762ea40d495ac7a320efb6f44e8f1c32505b3cbc026d9c90602001610c15565b61124e6114e0565b6004546000908152600560205260409020600881015460ff16156112855760405163ccf5bf4560e01b815260040160405180910390fd5b8486116112a5576040516381b8843960e01b815260040160405180910390fd5b816000036112c657604051631b3cc90f60e01b815260040160405180910390fd5b6004546000805160206119e883398151915282600901546040516112ec91815260200190565b60405180910390a26004805490600061130483611996565b91905055508560068190555084600781905550836008819055508260098190555081600a819055506000600d81905550604051806101400160405280600454815260200187815260200186815260200185815260200184815260200183815260200160008152602001600081526020016001151581526020016000815250600560006004548152602001908152602001600020600082015181600001556020820151816001015560408201518160020155606082015181600301556080820151816004015560a0820151816005015560c0820151816006015560e082015181600701556101008201518160080160006101000a81548160ff02191690831515021790555061012082015181600901559050506004547ffd9d17e5565deea3d25918d95fc398673b9445ef0a96d12eaf3ab2b198756c6587878760405161103c939291909283526020830191909152604082015260600190565b600061065b600d5460085460065460075461171c565b61147b6114e0565b600380546001600160a01b0319166001600160a01b0392909216919091179055565b6114a56114e0565b6001600160a01b0381166114d457604051631e4fbdf760e01b8152600060048201526024015b60405180910390fd5b6114dd81611607565b50565b6000546001600160a01b03163314610d755760405163118cdaa760e01b81523360048201526024016114cb565b6040516001600160a01b0384811660248301528381166044830152606482018390526115749186918216906323b872dd906084015b604051602081830303815290604052915060e01b6020820180516001600160e01b0383818316178352505050506117a3565b50505050565b8082105b92915050565b600060648211156115d75760405162461bcd60e51b815260206004820152601b60248201527f446973636f756e742063616e6e6f74206578636565642031303025000000000060448201526064016114cb565b64e8d4a510006115e8836064611959565b6115f290856119c5565b6115fd90606461197f565b610c7991906119c5565b600080546001600160a01b038381166001600160a01b0319831681178455604051919092169283917f8be0079c531659141344cd1fd0a4f28419497f9722a3daafe3b4186f6b6457e09190a35050565b6040516001600160a01b0383811660248301526044820183905261168891859182169063a9059cbb90606401611542565b505050565b6116956114e0565b6004546000908152600560205260408120905b8160090154811015610d2257336000818152600f6020908152604091829020825160608101845281548082526001830154938201939093526002909101549281019290925215611712576001600160a01b0382166000908152600f60205260409020426002909101555b50506001016116a8565b60008460000361172d57508161179b565b83851061173b57508061179b565b60008461174a8761271061197f565b61175491906119c5565b90506000611762848661196c565b9050612710611771828461197f565b61177b91906119c5565b611785908661196c565b92508383116117945783611796565b825b925050505b949350505050565b600080602060008451602086016000885af1806117c6576040513d6000823e3d81fd5b50506000513d915081156117de5780600114156117eb565b6001600160a01b0384163b155b1561157457604051635274afe760e01b81526001600160a01b03851660048201526024016114cb565b60006020828403121561182657600080fd5b5035919050565b80356001600160a01b038116811461184457600080fd5b919050565b60006020828403121561185b57600080fd5b610c798261182d565b600061014082019050825182526020830151602083015260408301516040830152606083015160608301526080830151608083015260a083015160a083015260c083015160c083015260e083015160e0830152610100808401516118cb8285018215159052565b505061012092830151919092015290565b600080604083850312156118ef57600080fd5b823591506118ff6020840161182d565b90509250929050565b600080600080600060a0868803121561192057600080fd5b505083359560208501359550604085013594606081013594506080013592509050565b634e487b7160e01b600052601160045260246000fd5b8082018082111561157e5761157e611943565b8181038181111561157e5761157e611943565b808202811582820484141761157e5761157e611943565b6000600182016119a8576119a8611943565b5060010190565b634e487b7160e01b600052603260045260246000fd5b6000826119e257634e487b7160e01b600052601260045260246000fd5b50049056fe867bc48474afbd71c32542f493801861b7fa916f53f0e706e1bb8a3f47709c28a2646970667358221220437b6e2218398cec0ca9575c809a8e177a539207cc04e2217e0c13826169180064736f6c63430008180033","opcodes":"PUSH1 0x80 PUSH1 0x40 MSTORE CALLVALUE DUP1 ISZERO PUSH3 0x11 JUMPI PUSH1 0x0 DUP1 REVERT JUMPDEST POP PUSH1 0x40 MLOAD PUSH3 0x1E63 CODESIZE SUB DUP1 PUSH3 0x1E63 DUP4 CODECOPY DUP2 ADD PUSH1 0x40 DUP2 SWAP1 MSTORE PUSH3 0x34 SWAP2 PUSH3 0x39B JUMP JUMPDEST CALLER DUP1 PUSH3 0x5B JUMPI PUSH1 0x40 MLOAD PUSH4 0x1E4FBDF7 PUSH1 0xE0 SHL DUP2 MSTORE PUSH1 0x0 PUSH1 0x4 DUP3 ADD MSTORE PUSH1 0x24 ADD PUSH1 0x40 MLOAD DUP1 SWAP2 SUB SWAP1 REVERT JUMPDEST PUSH3 0x66 DUP2 PUSH3 0x32E JUMP JUMPDEST POP PUSH1 0x1 DUP1 SLOAD PUSH1 0x1 PUSH1 0x1 PUSH1 0xA0 SHL SUB DUP1 DUP12 AND PUSH1 0x1 PUSH1 0x1 PUSH1 0xA0 SHL SUB NOT SWAP3 DUP4 AND OR SWAP1 SWAP3 SSTORE PUSH1 0x2 DUP1 SLOAD DUP11 DUP5 AND SWAP1 DUP4 AND OR SWAP1 SSTORE PUSH1 0x3 DUP1 SLOAD SWAP3 DUP10 AND SWAP3 SWAP1 SWAP2 AND SWAP2 SWAP1 SWAP2 OR SWAP1 SSTORE DUP4 DUP6 GT PUSH3 0xC5 JUMPI PUSH1 0x40 MLOAD PUSH4 0x81B88439 PUSH1 0xE0 SHL DUP2 MSTORE PUSH1 0x4 ADD PUSH1 0x40 MLOAD DUP1 SWAP2 SUB SWAP1 REVERT JUMPDEST DUP1 PUSH1 0x0 SUB PUSH3 0xE7 JUMPI PUSH1 0x40 MLOAD PUSH4 0x1B3CC90F PUSH1 0xE0 SHL DUP2 MSTORE PUSH1 0x4 ADD PUSH1 0x40 MLOAD DUP1 SWAP2 SUB SWAP1 REVERT JUMPDEST PUSH1 0x1 PUSH1 0x4 DUP2 SWAP1 SSTORE PUSH1 0x6 DUP7 SWAP1 SSTORE PUSH1 0x7 DUP6 SWAP1 SSTORE PUSH1 0x8 DUP5 SWAP1 SSTORE PUSH1 0x9 DUP4 SWAP1 SSTORE PUSH1 0xA DUP3 SWAP1 SSTORE PUSH1 0x0 PUSH1 0xB DUP2 SWAP1 SSTORE PUSH1 0xC DUP2 SWAP1 SSTORE PUSH1 0xD DUP2 SWAP1 SSTORE PUSH1 0x40 DUP1 MLOAD PUSH2 0x140 DUP2 ADD DUP3 MSTORE DUP4 DUP2 MSTORE PUSH1 0x20 DUP1 DUP3 ADD DUP11 DUP2 MSTORE DUP3 DUP5 ADD DUP11 DUP2 MSTORE PUSH1 0x60 DUP1 DUP6 ADD DUP12 DUP2 MSTORE PUSH1 0x80 DUP7 ADD DUP12 DUP2 MSTORE PUSH1 0xA0 DUP8 ADD DUP12 DUP2 MSTORE PUSH1 0xC0 DUP9 ADD DUP11 DUP2 MSTORE PUSH1 0xE0 DUP10 ADD DUP12 DUP2 MSTORE PUSH2 0x100 DUP11 ADD DUP14 DUP2 MSTORE PUSH2 0x120 DUP12 ADD DUP14 DUP2 MSTORE SWAP13 DUP15 SWAP1 MSTORE PUSH1 0x5 DUP11 MSTORE SWAP10 MLOAD PUSH32 0x1471EB6EB2C5E789FC3DE43F8CE62938C7D1836EC861730447E2ADA8FD81017B SSTORE SWAP7 MLOAD PUSH32 0x1471EB6EB2C5E789FC3DE43F8CE62938C7D1836EC861730447E2ADA8FD81017C SSTORE SWAP5 MLOAD PUSH32 0x1471EB6EB2C5E789FC3DE43F8CE62938C7D1836EC861730447E2ADA8FD81017D SSTORE SWAP2 MLOAD PUSH32 0x1471EB6EB2C5E789FC3DE43F8CE62938C7D1836EC861730447E2ADA8FD81017E SSTORE MLOAD PUSH32 0x1471EB6EB2C5E789FC3DE43F8CE62938C7D1836EC861730447E2ADA8FD81017F SSTORE MLOAD PUSH32 0x1471EB6EB2C5E789FC3DE43F8CE62938C7D1836EC861730447E2ADA8FD810180 SSTORE SWAP1 MLOAD PUSH32 0x1471EB6EB2C5E789FC3DE43F8CE62938C7D1836EC861730447E2ADA8FD810181 SSTORE SWAP1 MLOAD PUSH32 0x1471EB6EB2C5E789FC3DE43F8CE62938C7D1836EC861730447E2ADA8FD810182 SSTORE SWAP2 MLOAD PUSH32 0x1471EB6EB2C5E789FC3DE43F8CE62938C7D1836EC861730447E2ADA8FD810183 DUP1 SLOAD PUSH1 0xFF NOT AND SWAP2 ISZERO ISZERO SWAP2 SWAP1 SWAP2 OR SWAP1 SSTORE SWAP3 MLOAD PUSH32 0x1471EB6EB2C5E789FC3DE43F8CE62938C7D1836EC861730447E2ADA8FD810184 SSTORE DUP2 MLOAD DUP10 DUP2 MSTORE SWAP3 DUP4 ADD DUP9 SWAP1 MSTORE SWAP1 DUP3 ADD DUP7 SWAP1 MSTORE PUSH32 0xFD9D17E5565DEEA3D25918D95FC398673B9445EF0A96D12EAF3AB2B198756C65 SWAP2 ADD PUSH1 0x40 MLOAD DUP1 SWAP2 SUB SWAP1 LOG2 POP POP POP POP POP POP POP POP PUSH3 0x416 JUMP JUMPDEST PUSH1 0x0 DUP1 SLOAD PUSH1 0x1 PUSH1 0x1 PUSH1 0xA0 SHL SUB DUP4 DUP2 AND PUSH1 0x1 PUSH1 0x1 PUSH1 0xA0 SHL SUB NOT DUP4 AND DUP2 OR DUP5 SSTORE PUSH1 0x40 MLOAD SWAP2 SWAP1 SWAP3 AND SWAP3 DUP4 SWAP2 PUSH32 0x8BE0079C531659141344CD1FD0A4F28419497F9722A3DAAFE3B4186F6B6457E0 SWAP2 SWAP1 LOG3 POP POP JUMP JUMPDEST DUP1 MLOAD PUSH1 0x1 PUSH1 0x1 PUSH1 0xA0 SHL SUB DUP2 AND DUP2 EQ PUSH3 0x396 JUMPI PUSH1 0x0 DUP1 REVERT JUMPDEST SWAP2 SWAP1 POP JUMP JUMPDEST PUSH1 0x0 DUP1 PUSH1 0x0 DUP1 PUSH1 0x0 DUP1 PUSH1 0x0 DUP1 PUSH2 0x100 DUP10 DUP12 SUB SLT ISZERO PUSH3 0x3B9 JUMPI PUSH1 0x0 DUP1 REVERT JUMPDEST PUSH3 0x3C4 DUP10 PUSH3 0x37E JUMP JUMPDEST SWAP8 POP PUSH3 0x3D4 PUSH1 0x20 DUP11 ADD PUSH3 0x37E JUMP JUMPDEST SWAP7 POP PUSH3 0x3E4 PUSH1 0x40 DUP11 ADD PUSH3 0x37E JUMP JUMPDEST SWAP6 POP PUSH1 0x60 DUP10 ADD MLOAD SWAP5 POP PUSH1 0x80 DUP10 ADD MLOAD SWAP4 POP PUSH1 0xA0 DUP10 ADD MLOAD SWAP3 POP PUSH1 0xC0 DUP10 ADD MLOAD SWAP2 POP PUSH1 0xE0 DUP10 ADD MLOAD SWAP1 POP SWAP3 SWAP6 SWAP9 POP SWAP3 SWAP6 SWAP9 SWAP1 SWAP4 SWAP7 POP JUMP JUMPDEST PUSH2 0x1A3D DUP1 PUSH3 0x426 PUSH1 0x0 CODECOPY PUSH1 0x0 RETURN INVALID PUSH1 0x80 PUSH1 0x40 MSTORE CALLVALUE DUP1 ISZERO PUSH2 0x10 JUMPI PUSH1 0x0 DUP1 REVERT JUMPDEST POP PUSH1 0x4 CALLDATASIZE LT PUSH2 0x211 JUMPI PUSH1 0x0 CALLDATALOAD PUSH1 0xE0 SHR DUP1 PUSH4 0x7EC897CD GT PUSH2 0x125 JUMPI DUP1 PUSH4 0xD1C17E38 GT PUSH2 0xAD JUMPI DUP1 PUSH4 0xEACCAAE1 GT PUSH2 0x7C JUMPI DUP1 PUSH4 0xEACCAAE1 EQ PUSH2 0x4DF JUMPI DUP1 PUSH4 0xF0EB737A EQ PUSH2 0x4E8 JUMPI DUP1 PUSH4 0xF0F44260 EQ PUSH2 0x4F0 JUMPI DUP1 PUSH4 0xF2FDE38B EQ PUSH2 0x503 JUMPI DUP1 PUSH4 0xFDB20CCB EQ PUSH2 0x516 JUMPI PUSH1 0x0 DUP1 REVERT JUMPDEST DUP1 PUSH4 0xD1C17E38 EQ PUSH2 0x49E JUMPI DUP1 PUSH4 0xD93DE017 EQ PUSH2 0x4B1 JUMPI DUP1 PUSH4 0xE033EBB0 EQ PUSH2 0x4B9 JUMPI DUP1 PUSH4 0xE8BA4B0F EQ PUSH2 0x4CC JUMPI PUSH1 0x0 DUP1 REVERT JUMPDEST DUP1 PUSH4 0x9940686E GT PUSH2 0xF4 JUMPI DUP1 PUSH4 0x9940686E EQ PUSH2 0x40D JUMPI DUP1 PUSH4 0x9CBE5EFD EQ PUSH2 0x420 JUMPI DUP1 PUSH4 0x9F829063 EQ PUSH2 0x429 JUMPI DUP1 PUSH4 0xA32BF597 EQ PUSH2 0x45E JUMPI DUP1 PUSH4 0xD06F518B EQ PUSH2 0x473 JUMPI PUSH1 0x0 DUP1 REVERT JUMPDEST DUP1 PUSH4 0x7EC897CD EQ PUSH2 0x338 JUMPI DUP1 PUSH4 0x8C65C81F EQ PUSH2 0x341 JUMPI DUP1 PUSH4 0x8CF407DD EQ PUSH2 0x3F3 JUMPI DUP1 PUSH4 0x8DA5CB5B EQ PUSH2 0x3FC JUMPI PUSH1 0x0 DUP1 REVERT JUMPDEST DUP1 PUSH4 0x4A4FBEEC GT PUSH2 0x1A8 JUMPI DUP1 PUSH4 0x61025060 GT PUSH2 0x177 JUMPI DUP1 PUSH4 0x61025060 EQ PUSH2 0x2F8 JUMPI DUP1 PUSH4 0x61D027B3 EQ PUSH2 0x301 JUMPI DUP1 PUSH4 0x65A64668 EQ PUSH2 0x314 JUMPI DUP1 PUSH4 0x715018A6 EQ PUSH2 0x327 JUMPI DUP1 PUSH4 0x7313EE5A EQ PUSH2 0x32F JUMPI PUSH1 0x0 DUP1 REVERT JUMPDEST DUP1 PUSH4 0x4A4FBEEC EQ PUSH2 0x2A6 JUMPI DUP1 PUSH4 0x4CABB824 EQ PUSH2 0x2C9 JUMPI DUP1 PUSH4 0x4CDAA354 EQ PUSH2 0x2DC JUMPI DUP1 PUSH4 0x58950C22 EQ PUSH2 0x2EF JUMPI PUSH1 0x0 DUP1 REVERT JUMPDEST DUP1 PUSH4 0x3E84D3C5 GT PUSH2 0x1E4 JUMPI DUP1 PUSH4 0x3E84D3C5 EQ PUSH2 0x279 JUMPI DUP1 PUSH4 0x40BEE0ED EQ PUSH2 0x281 JUMPI DUP1 PUSH4 0x44D96E95 EQ PUSH2 0x294 JUMPI DUP1 PUSH4 0x473357F1 EQ PUSH2 0x29D JUMPI PUSH1 0x0 DUP1 REVERT JUMPDEST DUP1 PUSH4 0xB8F760B EQ PUSH2 0x216 JUMPI DUP1 PUSH4 0x36FB2CF5 EQ PUSH2 0x22B JUMPI DUP1 PUSH4 0x3C3CCC44 EQ PUSH2 0x246 JUMPI DUP1 PUSH4 0x3E413BEE EQ PUSH2 0x24E JUMPI JUMPDEST PUSH1 0x0 DUP1 REVERT JUMPDEST PUSH2 0x229 PUSH2 0x224 CALLDATASIZE PUSH1 0x4 PUSH2 0x1814 JUMP JUMPDEST PUSH2 0x560 JUMP JUMPDEST STOP JUMPDEST PUSH2 0x233 PUSH2 0x649 JUMP JUMPDEST PUSH1 0x40 MLOAD SWAP1 DUP2 MSTORE PUSH1 0x20 ADD JUMPDEST PUSH1 0x40 MLOAD DUP1 SWAP2 SUB SWAP1 RETURN JUMPDEST PUSH2 0x229 PUSH2 0x660 JUMP JUMPDEST PUSH1 0x2 SLOAD PUSH2 0x261 SWAP1 PUSH1 0x1 PUSH1 0x1 PUSH1 0xA0 SHL SUB AND DUP2 JUMP JUMPDEST PUSH1 0x40 MLOAD PUSH1 0x1 PUSH1 0x1 PUSH1 0xA0 SHL SUB SWAP1 SWAP2 AND DUP2 MSTORE PUSH1 0x20 ADD PUSH2 0x23D JUMP JUMPDEST PUSH2 0x229 PUSH2 0xB6E JUMP JUMPDEST PUSH2 0x229 PUSH2 0x28F CALLDATASIZE PUSH1 0x4 PUSH2 0x1814 JUMP JUMPDEST PUSH2 0xBBB JUMP JUMPDEST PUSH2 0x233 PUSH1 0xD SLOAD DUP2 JUMP JUMPDEST PUSH2 0x233 PUSH1 0x7 SLOAD DUP2 JUMP JUMPDEST PUSH2 0x2B9 PUSH2 0x2B4 CALLDATASIZE PUSH1 0x4 PUSH2 0x1849 JUMP JUMPDEST PUSH2 0xC20 JUMP JUMPDEST PUSH1 0x40 MLOAD SWAP1 ISZERO ISZERO DUP2 MSTORE PUSH1 0x20 ADD PUSH2 0x23D JUMP JUMPDEST PUSH2 0x233 PUSH2 0x2D7 CALLDATASIZE PUSH1 0x4 PUSH2 0x1814 JUMP JUMPDEST PUSH2 0xC80 JUMP JUMPDEST PUSH2 0x229 PUSH2 0x2EA CALLDATASIZE PUSH1 0x4 PUSH2 0x1849 JUMP JUMPDEST PUSH2 0xC97 JUMP JUMPDEST PUSH2 0x233 PUSH1 0x9 SLOAD DUP2 JUMP JUMPDEST PUSH2 0x233 PUSH1 0x8 SLOAD DUP2 JUMP JUMPDEST PUSH1 0x3 SLOAD PUSH2 0x261 SWAP1 PUSH1 0x1 PUSH1 0x1 PUSH1 0xA0 SHL SUB AND DUP2 JUMP JUMPDEST PUSH2 0x229 PUSH2 0x322 CALLDATASIZE PUSH1 0x4 PUSH2 0x1814 JUMP JUMPDEST PUSH2 0xD26 JUMP JUMPDEST PUSH2 0x229 PUSH2 0xD63 JUMP JUMPDEST PUSH2 0x233 PUSH1 0xA SLOAD DUP2 JUMP JUMPDEST PUSH2 0x233 PUSH1 0x6 SLOAD DUP2 JUMP JUMPDEST PUSH2 0x3A7 PUSH2 0x34F CALLDATASIZE PUSH1 0x4 PUSH2 0x1814 JUMP JUMPDEST PUSH1 0x5 PUSH1 0x20 DUP2 SWAP1 MSTORE PUSH1 0x0 SWAP2 DUP3 MSTORE PUSH1 0x40 SWAP1 SWAP2 KECCAK256 DUP1 SLOAD PUSH1 0x1 DUP3 ADD SLOAD PUSH1 0x2 DUP4 ADD SLOAD PUSH1 0x3 DUP5 ADD SLOAD PUSH1 0x4 DUP6 ADD SLOAD SWAP6 DUP6 ADD SLOAD PUSH1 0x6 DUP7 ADD SLOAD PUSH1 0x7 DUP8 ADD SLOAD PUSH1 0x8 DUP9 ADD SLOAD PUSH1 0x9 SWAP1 SWAP9 ADD SLOAD SWAP7 SWAP9 SWAP6 SWAP8 SWAP5 SWAP7 SWAP4 SWAP6 SWAP5 SWAP3 SWAP4 SWAP2 SWAP3 SWAP1 SWAP2 PUSH1 0xFF SWAP1 SWAP2 AND SWAP1 DUP11 JUMP JUMPDEST PUSH1 0x40 DUP1 MLOAD SWAP11 DUP12 MSTORE PUSH1 0x20 DUP12 ADD SWAP10 SWAP1 SWAP10 MSTORE SWAP8 DUP10 ADD SWAP7 SWAP1 SWAP7 MSTORE PUSH1 0x60 DUP9 ADD SWAP5 SWAP1 SWAP5 MSTORE PUSH1 0x80 DUP8 ADD SWAP3 SWAP1 SWAP3 MSTORE PUSH1 0xA0 DUP7 ADD MSTORE PUSH1 0xC0 DUP6 ADD MSTORE PUSH1 0xE0 DUP5 ADD MSTORE ISZERO ISZERO PUSH2 0x100 DUP4 ADD MSTORE PUSH2 0x120 DUP3 ADD MSTORE PUSH2 0x140 ADD PUSH2 0x23D JUMP JUMPDEST PUSH2 0x233 PUSH1 0xB SLOAD DUP2 JUMP JUMPDEST PUSH1 0x0 SLOAD PUSH1 0x1 PUSH1 0x1 PUSH1 0xA0 SHL SUB AND PUSH2 0x261 JUMP JUMPDEST PUSH2 0x229 PUSH2 0x41B CALLDATASIZE PUSH1 0x4 PUSH2 0x1814 JUMP JUMPDEST PUSH2 0xD77 JUMP JUMPDEST PUSH2 0x233 PUSH1 0x4 SLOAD DUP2 JUMP JUMPDEST PUSH2 0x43C PUSH2 0x437 CALLDATASIZE PUSH1 0x4 PUSH2 0x1849 JUMP JUMPDEST PUSH2 0x104D JUMP JUMPDEST PUSH1 0x40 DUP1 MLOAD DUP3 MLOAD DUP2 MSTORE PUSH1 0x20 DUP1 DUP5 ADD MLOAD SWAP1 DUP3 ADD MSTORE SWAP2 DUP2 ADD MLOAD SWAP1 DUP3 ADD MSTORE PUSH1 0x60 ADD PUSH2 0x23D JUMP JUMPDEST PUSH2 0x466 PUSH2 0x10B3 JUMP JUMPDEST PUSH1 0x40 MLOAD PUSH2 0x23D SWAP2 SWAP1 PUSH2 0x1864 JUMP JUMPDEST PUSH2 0x233 PUSH2 0x481 CALLDATASIZE PUSH1 0x4 PUSH2 0x18DC JUMP JUMPDEST PUSH1 0xE PUSH1 0x20 SWAP1 DUP2 MSTORE PUSH1 0x0 SWAP3 DUP4 MSTORE PUSH1 0x40 DUP1 DUP5 KECCAK256 SWAP1 SWAP2 MSTORE SWAP1 DUP3 MSTORE SWAP1 KECCAK256 SLOAD DUP2 JUMP JUMPDEST PUSH1 0x1 SLOAD PUSH2 0x261 SWAP1 PUSH1 0x1 PUSH1 0x1 PUSH1 0xA0 SHL SUB AND DUP2 JUMP JUMPDEST PUSH2 0x229 PUSH2 0x1193 JUMP JUMPDEST PUSH2 0x229 PUSH2 0x4C7 CALLDATASIZE PUSH1 0x4 PUSH2 0x1814 JUMP JUMPDEST PUSH2 0x1209 JUMP JUMPDEST PUSH2 0x229 PUSH2 0x4DA CALLDATASIZE PUSH1 0x4 PUSH2 0x1908 JUMP JUMPDEST PUSH2 0x1246 JUMP JUMPDEST PUSH2 0x233 PUSH1 0xC SLOAD DUP2 JUMP JUMPDEST PUSH2 0x233 PUSH2 0x145D JUMP JUMPDEST PUSH2 0x229 PUSH2 0x4FE CALLDATASIZE PUSH1 0x4 PUSH2 0x1849 JUMP JUMPDEST PUSH2 0x1473 JUMP JUMPDEST PUSH2 0x229 PUSH2 0x511 CALLDATASIZE PUSH1 0x4 PUSH2 0x1849 JUMP JUMPDEST PUSH2 0x149D JUMP JUMPDEST PUSH2 0x545 PUSH2 0x524 CALLDATASIZE PUSH1 0x4 PUSH2 0x1849 JUMP JUMPDEST PUSH1 0xF PUSH1 0x20 MSTORE PUSH1 0x0 SWAP1 DUP2 MSTORE PUSH1 0x40 SWAP1 KECCAK256 DUP1 SLOAD PUSH1 0x1 DUP3 ADD SLOAD PUSH1 0x2 SWAP1 SWAP3 ADD SLOAD SWAP1 SWAP2 SWAP1 DUP4 JUMP JUMPDEST PUSH1 0x40 DUP1 MLOAD SWAP4 DUP5 MSTORE PUSH1 0x20 DUP5 ADD SWAP3 SWAP1 SWAP3 MSTORE SWAP1 DUP3 ADD MSTORE PUSH1 0x60 ADD PUSH2 0x23D JUMP JUMPDEST PUSH2 0x568 PUSH2 0x14E0 JUMP JUMPDEST PUSH1 0x4 SLOAD PUSH1 0x0 SWAP1 DUP2 MSTORE PUSH1 0x5 PUSH1 0x20 MSTORE PUSH1 0x40 SWAP1 KECCAK256 PUSH1 0x8 DUP2 ADD SLOAD PUSH1 0xFF AND PUSH2 0x59E JUMPI PUSH1 0x40 MLOAD PUSH4 0xB885DFEF PUSH1 0xE0 SHL DUP2 MSTORE PUSH1 0x4 ADD PUSH1 0x40 MLOAD DUP1 SWAP2 SUB SWAP1 REVERT JUMPDEST DUP2 PUSH1 0x0 SUB PUSH2 0x5BF JUMPI PUSH1 0x40 MLOAD PUSH4 0xD3590A83 PUSH1 0xE0 SHL DUP2 MSTORE PUSH1 0x4 ADD PUSH1 0x40 MLOAD DUP1 SWAP2 SUB SWAP1 REVERT JUMPDEST PUSH1 0x1 SLOAD PUSH2 0x5D7 SWAP1 PUSH1 0x1 PUSH1 0x1 PUSH1 0xA0 SHL SUB AND CALLER ADDRESS DUP6 PUSH2 0x150D JUMP JUMPDEST DUP2 PUSH1 0xB PUSH1 0x0 DUP3 DUP3 SLOAD PUSH2 0x5E9 SWAP2 SWAP1 PUSH2 0x1959 JUMP JUMPDEST SWAP3 POP POP DUP2 SWAP1 SSTORE POP DUP2 DUP2 PUSH1 0x6 ADD PUSH1 0x0 DUP3 DUP3 SLOAD PUSH2 0x604 SWAP2 SWAP1 PUSH2 0x1959 JUMP JUMPDEST SWAP1 SWAP2 SSTORE POP POP PUSH1 0x4 SLOAD PUSH1 0x40 DUP1 MLOAD SWAP2 DUP3 MSTORE PUSH1 0x20 DUP3 ADD DUP5 SWAP1 MSTORE PUSH32 0x7CDD16D98681F4D22957409604A564EF1D8CD2B0D5CC5235D444451F03324B13 SWAP2 ADD PUSH1 0x40 MLOAD DUP1 SWAP2 SUB SWAP1 LOG1 POP POP JUMP JUMPDEST PUSH1 0x0 PUSH1 0xC SLOAD PUSH1 0xB SLOAD PUSH2 0x65B SWAP2 SWAP1 PUSH2 0x196C JUMP JUMPDEST SWAP1 POP SWAP1 JUMP JUMPDEST PUSH2 0x668 PUSH2 0x14E0 JUMP JUMPDEST PUSH1 0x4 SLOAD PUSH1 0x0 SWAP1 DUP2 MSTORE PUSH1 0x5 PUSH1 0x20 MSTORE PUSH1 0x40 SWAP1 KECCAK256 PUSH1 0x8 DUP2 ADD SLOAD PUSH1 0xFF AND ISZERO PUSH2 0x69F JUMPI PUSH1 0x40 MLOAD PUSH4 0xCCF5BF45 PUSH1 0xE0 SHL DUP2 MSTORE PUSH1 0x4 ADD PUSH1 0x40 MLOAD DUP1 SWAP2 SUB SWAP1 REVERT JUMPDEST PUSH1 0x5 PUSH1 0x4 SLOAD LT PUSH2 0x6C2 JUMPI PUSH1 0x40 MLOAD PUSH4 0x46DC4D3B PUSH1 0xE0 SHL DUP2 MSTORE PUSH1 0x4 ADD PUSH1 0x40 MLOAD DUP1 SWAP2 SUB SWAP1 REVERT JUMPDEST PUSH1 0x0 PUSH1 0x40 MLOAD DUP1 PUSH1 0xA0 ADD PUSH1 0x40 MSTORE DUP1 PUSH1 0x19 DUP2 MSTORE PUSH1 0x20 ADD PUSH1 0x14 DUP2 MSTORE PUSH1 0x20 ADD PUSH1 0xF DUP2 MSTORE PUSH1 0x20 ADD PUSH1 0xA DUP2 MSTORE PUSH1 0x20 ADD PUSH1 0x5 DUP2 MSTORE POP SWAP1 POP PUSH1 0x0 PUSH1 0x40 MLOAD DUP1 PUSH1 0xA0 ADD PUSH1 0x40 MSTORE DUP1 PUSH1 0x5 DUP2 MSTORE PUSH1 0x20 ADD PUSH1 0x3 DUP2 MSTORE PUSH1 0x20 ADD PUSH1 0x2 DUP2 MSTORE PUSH1 0x20 ADD PUSH1 0x1 DUP2 MSTORE PUSH1 0x20 ADD PUSH1 0x0 DUP2 MSTORE POP SWAP1 POP PUSH1 0x0 PUSH1 0x40 MLOAD DUP1 PUSH1 0xA0 ADD PUSH1 0x40 MSTORE DUP1 PUSH4 0x4C4B400 PUSH8 0xDE0B6B3A7640000 PUSH2 0x747 SWAP2 SWAP1 PUSH2 0x197F JUMP JUMPDEST DUP2 MSTORE PUSH1 0x20 ADD PUSH2 0x762 PUSH4 0x3938700 PUSH8 0xDE0B6B3A7640000 PUSH2 0x197F JUMP JUMPDEST DUP2 MSTORE PUSH1 0x20 ADD PUSH2 0x77D PUSH4 0x2625A00 PUSH8 0xDE0B6B3A7640000 PUSH2 0x197F JUMP JUMPDEST DUP2 MSTORE PUSH1 0x20 ADD PUSH2 0x797 PUSH3 0xE4E1C0 PUSH8 0xDE0B6B3A7640000 PUSH2 0x197F JUMP JUMPDEST DUP2 MSTORE PUSH1 0x20 ADD PUSH2 0x7B1 PUSH3 0x4C4B40 PUSH8 0xDE0B6B3A7640000 PUSH2 0x197F JUMP JUMPDEST DUP2 MSTORE POP SWAP1 POP PUSH1 0x0 PUSH1 0x40 MLOAD DUP1 PUSH1 0xA0 ADD PUSH1 0x40 MSTORE DUP1 PUSH3 0x7A1200 PUSH8 0xDE0B6B3A7640000 PUSH2 0x7DA SWAP2 SWAP1 PUSH2 0x197F JUMP JUMPDEST DUP2 MSTORE PUSH1 0x20 ADD PUSH2 0x7F4 PUSH3 0x5B8D80 PUSH8 0xDE0B6B3A7640000 PUSH2 0x197F JUMP JUMPDEST DUP2 MSTORE PUSH1 0x20 ADD PUSH2 0x80E PUSH3 0x3D0900 PUSH8 0xDE0B6B3A7640000 PUSH2 0x197F JUMP JUMPDEST DUP2 MSTORE PUSH1 0x20 ADD PUSH2 0x828 PUSH3 0x1E8480 PUSH8 0xDE0B6B3A7640000 PUSH2 0x197F JUMP JUMPDEST DUP2 MSTORE PUSH1 0x20 ADD PUSH2 0x842 PUSH3 0xF4240 PUSH8 0xDE0B6B3A7640000 PUSH2 0x197F JUMP JUMPDEST DUP2 MSTORE POP SWAP1 POP PUSH1 0x4 SLOAD PUSH1 0x0 DUP1 MLOAD PUSH1 0x20 PUSH2 0x19E8 DUP4 CODECOPY DUP2 MLOAD SWAP2 MSTORE DUP7 PUSH1 0x9 ADD SLOAD PUSH1 0x40 MLOAD PUSH2 0x86D SWAP2 DUP2 MSTORE PUSH1 0x20 ADD SWAP1 JUMP JUMPDEST PUSH1 0x40 MLOAD DUP1 SWAP2 SUB SWAP1 LOG2 PUSH1 0x4 DUP1 SLOAD SWAP1 PUSH1 0x0 PUSH2 0x885 DUP4 PUSH2 0x1996 JUMP JUMPDEST SWAP2 SWAP1 POP SSTORE POP DUP4 PUSH1 0x1 PUSH1 0x4 SLOAD PUSH2 0x89A SWAP2 SWAP1 PUSH2 0x196C JUMP JUMPDEST PUSH1 0x5 DUP2 LT PUSH2 0x8AA JUMPI PUSH2 0x8AA PUSH2 0x19AF JUMP JUMPDEST PUSH1 0x20 MUL ADD MLOAD PUSH1 0x6 SSTORE PUSH1 0x4 SLOAD DUP4 SWAP1 PUSH2 0x8C3 SWAP1 PUSH1 0x1 SWAP1 PUSH2 0x196C JUMP JUMPDEST PUSH1 0x5 DUP2 LT PUSH2 0x8D3 JUMPI PUSH2 0x8D3 PUSH2 0x19AF JUMP JUMPDEST PUSH1 0x20 MUL ADD MLOAD PUSH1 0x7 SSTORE PUSH1 0x4 SLOAD DUP3 SWAP1 PUSH2 0x8EC SWAP1 PUSH1 0x1 SWAP1 PUSH2 0x196C JUMP JUMPDEST PUSH1 0x5 DUP2 LT PUSH2 0x8FC JUMPI PUSH2 0x8FC PUSH2 0x19AF JUMP JUMPDEST PUSH1 0x20 MUL ADD MLOAD PUSH1 0x8 SSTORE PUSH1 0x4 SLOAD DUP2 SWAP1 PUSH2 0x915 SWAP1 PUSH1 0x1 SWAP1 PUSH2 0x196C JUMP JUMPDEST PUSH1 0x5 DUP2 LT PUSH2 0x925 JUMPI PUSH2 0x925 PUSH2 0x19AF JUMP JUMPDEST PUSH1 0x20 MUL ADD MLOAD PUSH1 0x9 DUP2 SWAP1 SSTORE POP PUSH1 0x0 PUSH1 0xD DUP2 SWAP1 SSTORE POP PUSH1 0x40 MLOAD DUP1 PUSH2 0x140 ADD PUSH1 0x40 MSTORE DUP1 PUSH1 0x4 SLOAD DUP2 MSTORE PUSH1 0x20 ADD DUP6 PUSH1 0x1 PUSH1 0x4 SLOAD PUSH2 0x95C SWAP2 SWAP1 PUSH2 0x196C JUMP JUMPDEST PUSH1 0x5 DUP2 LT PUSH2 0x96C JUMPI PUSH2 0x96C PUSH2 0x19AF JUMP JUMPDEST PUSH1 0x20 MUL ADD MLOAD DUP2 MSTORE PUSH1 0x20 ADD DUP5 PUSH1 0x1 PUSH1 0x4 SLOAD PUSH2 0x986 SWAP2 SWAP1 PUSH2 0x196C JUMP JUMPDEST PUSH1 0x5 DUP2 LT PUSH2 0x996 JUMPI PUSH2 0x996 PUSH2 0x19AF JUMP JUMPDEST PUSH1 0x20 MUL ADD MLOAD DUP2 MSTORE PUSH1 0x20 ADD DUP4 PUSH1 0x1 PUSH1 0x4 SLOAD PUSH2 0x9B0 SWAP2 SWAP1 PUSH2 0x196C JUMP JUMPDEST PUSH1 0x5 DUP2 LT PUSH2 0x9C0 JUMPI PUSH2 0x9C0 PUSH2 0x19AF JUMP JUMPDEST PUSH1 0x20 MUL ADD MLOAD DUP2 MSTORE PUSH1 0x20 ADD DUP3 PUSH1 0x1 PUSH1 0x4 SLOAD PUSH2 0x9DA SWAP2 SWAP1 PUSH2 0x196C JUMP JUMPDEST PUSH1 0x5 DUP2 LT PUSH2 0x9EA JUMPI PUSH2 0x9EA PUSH2 0x19AF JUMP JUMPDEST PUSH1 0x20 MUL ADD MLOAD DUP2 MSTORE PUSH1 0x20 ADD PUSH1 0xA SLOAD DUP2 MSTORE PUSH1 0x20 ADD PUSH1 0x0 DUP2 MSTORE PUSH1 0x20 ADD PUSH1 0x0 DUP2 MSTORE PUSH1 0x20 ADD PUSH1 0x1 ISZERO ISZERO DUP2 MSTORE PUSH1 0x20 ADD PUSH1 0x0 DUP2 MSTORE POP PUSH1 0x5 PUSH1 0x0 PUSH1 0x4 SLOAD DUP2 MSTORE PUSH1 0x20 ADD SWAP1 DUP2 MSTORE PUSH1 0x20 ADD PUSH1 0x0 KECCAK256 PUSH1 0x0 DUP3 ADD MLOAD DUP2 PUSH1 0x0 ADD SSTORE PUSH1 0x20 DUP3 ADD MLOAD DUP2 PUSH1 0x1 ADD SSTORE PUSH1 0x40 DUP3 ADD MLOAD DUP2 PUSH1 0x2 ADD SSTORE PUSH1 0x60 DUP3 ADD MLOAD DUP2 PUSH1 0x3 ADD SSTORE PUSH1 0x80 DUP3 ADD MLOAD DUP2 PUSH1 0x4 ADD SSTORE PUSH1 0xA0 DUP3 ADD MLOAD DUP2 PUSH1 0x5 ADD SSTORE PUSH1 0xC0 DUP3 ADD MLOAD DUP2 PUSH1 0x6 ADD SSTORE PUSH1 0xE0 DUP3 ADD MLOAD DUP2 PUSH1 0x7 ADD SSTORE PUSH2 0x100 DUP3 ADD MLOAD DUP2 PUSH1 0x8 ADD PUSH1 0x0 PUSH2 0x100 EXP DUP2 SLOAD DUP2 PUSH1 0xFF MUL NOT AND SWAP1 DUP4 ISZERO ISZERO MUL OR SWAP1 SSTORE POP PUSH2 0x120 DUP3 ADD MLOAD DUP2 PUSH1 0x9 ADD SSTORE SWAP1 POP POP PUSH1 0x4 SLOAD PUSH32 0xFD9D17E5565DEEA3D25918D95FC398673B9445EF0A96D12EAF3AB2B198756C65 DUP6 PUSH1 0x1 PUSH1 0x4 SLOAD PUSH2 0xAE0 SWAP2 SWAP1 PUSH2 0x196C JUMP JUMPDEST PUSH1 0x5 DUP2 LT PUSH2 0xAF0 JUMPI PUSH2 0xAF0 PUSH2 0x19AF JUMP JUMPDEST PUSH1 0x20 MUL ADD MLOAD DUP6 PUSH1 0x1 PUSH1 0x4 SLOAD PUSH2 0xB05 SWAP2 SWAP1 PUSH2 0x196C JUMP JUMPDEST PUSH1 0x5 DUP2 LT PUSH2 0xB15 JUMPI PUSH2 0xB15 PUSH2 0x19AF JUMP JUMPDEST PUSH1 0x20 MUL ADD MLOAD DUP6 PUSH1 0x1 PUSH1 0x4 SLOAD PUSH2 0xB2A SWAP2 SWAP1 PUSH2 0x196C JUMP JUMPDEST PUSH1 0x5 DUP2 LT PUSH2 0xB3A JUMPI PUSH2 0xB3A PUSH2 0x19AF JUMP JUMPDEST PUSH1 0x20 MUL ADD MLOAD PUSH1 0x40 MLOAD PUSH2 0xB5F SWAP4 SWAP3 SWAP2 SWAP1 SWAP3 DUP4 MSTORE PUSH1 0x20 DUP4 ADD SWAP2 SWAP1 SWAP2 MSTORE PUSH1 0x40 DUP3 ADD MSTORE PUSH1 0x60 ADD SWAP1 JUMP JUMPDEST PUSH1 0x40 MLOAD DUP1 SWAP2 SUB SWAP1 LOG2 POP POP POP POP POP JUMP JUMPDEST PUSH2 0xB76 PUSH2 0x14E0 JUMP JUMPDEST PUSH1 0x40 DUP1 MLOAD PUSH1 0x0 DUP1 DUP3 MSTORE PUSH1 0x20 DUP3 ADD DUP2 SWAP1 MSTORE SWAP2 DUP2 ADD DUP3 SWAP1 MSTORE PUSH32 0x892F1A841B10E4B041CC41D8CC47C6A6049F1FF5FA272DDF47A0AA5AD8F59D13 SWAP1 PUSH1 0x60 ADD PUSH1 0x40 MLOAD DUP1 SWAP2 SUB SWAP1 LOG2 JUMP JUMPDEST PUSH2 0xBC3 PUSH2 0x14E0 JUMP JUMPDEST DUP1 PUSH1 0x0 SUB PUSH2 0xBE4 JUMPI PUSH1 0x40 MLOAD PUSH4 0x1B3CC90F PUSH1 0xE0 SHL DUP2 MSTORE PUSH1 0x4 ADD PUSH1 0x40 MLOAD DUP1 SWAP2 SUB SWAP1 REVERT JUMPDEST PUSH1 0xA DUP2 SWAP1 SSTORE PUSH1 0x40 MLOAD DUP2 DUP2 MSTORE PUSH32 0xC21CB0F112058F1EB0E3313A577DFC27E6BE5B39127591E05245343A422E4915 SWAP1 PUSH1 0x20 ADD JUMPDEST PUSH1 0x40 MLOAD DUP1 SWAP2 SUB SWAP1 LOG1 POP JUMP JUMPDEST PUSH1 0x1 PUSH1 0x1 PUSH1 0xA0 SHL SUB DUP2 AND PUSH1 0x0 SWAP1 DUP2 MSTORE PUSH1 0xF PUSH1 0x20 SWAP1 DUP2 MSTORE PUSH1 0x40 DUP1 DUP4 KECCAK256 DUP2 MLOAD PUSH1 0x60 DUP2 ADD DUP4 MSTORE DUP2 SLOAD DUP1 DUP3 MSTORE PUSH1 0x1 DUP4 ADD SLOAD SWAP5 DUP3 ADD SWAP5 SWAP1 SWAP5 MSTORE PUSH1 0x2 SWAP1 SWAP2 ADD SLOAD SWAP2 DUP2 ADD SWAP2 SWAP1 SWAP2 MSTORE SWAP1 ISZERO DUP1 ISZERO SWAP1 PUSH2 0xC79 JUMPI POP PUSH2 0xC79 TIMESTAMP DUP3 PUSH1 0x40 ADD MLOAD PUSH2 0x157A JUMP JUMPDEST SWAP4 SWAP3 POP POP POP JUMP JUMPDEST PUSH1 0x0 DUP1 PUSH2 0xC8B PUSH2 0x145D JUMP JUMPDEST SWAP1 POP PUSH2 0xC79 DUP4 DUP3 PUSH2 0x1584 JUMP JUMPDEST PUSH2 0xC9F PUSH2 0x14E0 JUMP JUMPDEST PUSH1 0x1 PUSH1 0x1 PUSH1 0xA0 SHL SUB DUP2 AND PUSH1 0x0 SWAP1 DUP2 MSTORE PUSH1 0xF PUSH1 0x20 MSTORE PUSH1 0x40 SWAP1 KECCAK256 DUP1 SLOAD ISZERO PUSH2 0xD22 JUMPI DUP1 SLOAD PUSH1 0x0 DUP1 DUP4 SSTORE PUSH1 0x1 DUP4 ADD DUP2 SWAP1 SSTORE PUSH1 0x2 DUP4 ADD DUP2 SWAP1 SSTORE PUSH1 0x40 DUP1 MLOAD DUP3 DUP2 MSTORE PUSH1 0x20 DUP2 ADD DUP4 SWAP1 MSTORE SWAP1 DUP2 ADD SWAP2 SWAP1 SWAP2 MSTORE PUSH1 0x1 PUSH1 0x1 PUSH1 0xA0 SHL SUB DUP5 AND SWAP1 PUSH32 0x892F1A841B10E4B041CC41D8CC47C6A6049F1FF5FA272DDF47A0AA5AD8F59D13 SWAP1 PUSH1 0x60 ADD PUSH1 0x40 MLOAD DUP1 SWAP2 SUB SWAP1 LOG2 POP JUMPDEST POP POP JUMP JUMPDEST PUSH2 0xD2E PUSH2 0x14E0 JUMP JUMPDEST PUSH1 0x9 DUP2 SWAP1 SSTORE PUSH1 0x40 MLOAD DUP2 DUP2 MSTORE PUSH32 0x4784309E6B1F1431C711EAC5E572F9BA2D542ECB5428EFC0E927B794F4E8E2C1 SWAP1 PUSH1 0x20 ADD PUSH2 0xC15 JUMP JUMPDEST PUSH2 0xD6B PUSH2 0x14E0 JUMP JUMPDEST PUSH2 0xD75 PUSH1 0x0 PUSH2 0x1607 JUMP JUMPDEST JUMP JUMPDEST DUP1 PUSH1 0x0 SUB PUSH2 0xD98 JUMPI PUSH1 0x40 MLOAD PUSH4 0xD3590A83 PUSH1 0xE0 SHL DUP2 MSTORE PUSH1 0x4 ADD PUSH1 0x40 MLOAD DUP1 SWAP2 SUB SWAP1 REVERT JUMPDEST PUSH1 0x4 SLOAD PUSH1 0x0 SWAP1 DUP2 MSTORE PUSH1 0x5 PUSH1 0x20 MSTORE PUSH1 0x40 SWAP1 KECCAK256 PUSH1 0x8 DUP2 ADD SLOAD PUSH1 0xFF AND PUSH2 0xDCE JUMPI PUSH1 0x40 MLOAD PUSH4 0xB885DFEF PUSH1 0xE0 SHL DUP2 MSTORE PUSH1 0x4 ADD PUSH1 0x40 MLOAD DUP1 SWAP2 SUB SWAP1 REVERT JUMPDEST PUSH1 0xB SLOAD DUP3 PUSH1 0xC SLOAD PUSH2 0xDDF SWAP2 SWAP1 PUSH2 0x1959 JUMP JUMPDEST GT ISZERO PUSH2 0xDFE JUMPI PUSH1 0x40 MLOAD PUSH4 0x437D78F5 PUSH1 0xE0 SHL DUP2 MSTORE PUSH1 0x4 ADD PUSH1 0x40 MLOAD DUP1 SWAP2 SUB SWAP1 REVERT JUMPDEST PUSH1 0x0 PUSH2 0xE08 PUSH2 0x145D JUMP JUMPDEST SWAP1 POP PUSH1 0x0 PUSH2 0xE16 DUP5 DUP4 PUSH2 0x1584 JUMP JUMPDEST PUSH1 0x9 SLOAD PUSH1 0x4 SLOAD PUSH1 0x0 SWAP1 DUP2 MSTORE PUSH1 0xE PUSH1 0x20 SWAP1 DUP2 MSTORE PUSH1 0x40 DUP1 DUP4 KECCAK256 CALLER DUP5 MSTORE SWAP1 SWAP2 MSTORE SWAP1 KECCAK256 SLOAD SWAP2 SWAP3 POP SWAP1 PUSH2 0xE45 SWAP1 DUP4 SWAP1 PUSH2 0x1959 JUMP JUMPDEST GT ISZERO PUSH2 0xE64 JUMPI PUSH1 0x40 MLOAD PUSH4 0x75284BDB PUSH1 0xE0 SHL DUP2 MSTORE PUSH1 0x4 ADD PUSH1 0x40 MLOAD DUP1 SWAP2 SUB SWAP1 REVERT JUMPDEST PUSH1 0x3 SLOAD PUSH1 0x2 SLOAD PUSH2 0xE83 SWAP2 PUSH1 0x1 PUSH1 0x1 PUSH1 0xA0 SHL SUB SWAP2 DUP3 AND SWAP2 CALLER SWAP2 AND DUP5 PUSH2 0x150D JUMP JUMPDEST PUSH1 0x1 SLOAD PUSH2 0xE9A SWAP1 PUSH1 0x1 PUSH1 0x1 PUSH1 0xA0 SHL SUB AND CALLER DUP7 PUSH2 0x1657 JUMP JUMPDEST DUP1 PUSH1 0xD PUSH1 0x0 DUP3 DUP3 SLOAD PUSH2 0xEAC SWAP2 SWAP1 PUSH2 0x1959 JUMP JUMPDEST SWAP3 POP POP DUP2 SWAP1 SSTORE POP DUP1 DUP4 PUSH1 0x9 ADD PUSH1 0x0 DUP3 DUP3 SLOAD PUSH2 0xEC7 SWAP2 SWAP1 PUSH2 0x1959 JUMP JUMPDEST SWAP3 POP POP DUP2 SWAP1 SSTORE POP DUP4 DUP4 PUSH1 0x7 ADD PUSH1 0x0 DUP3 DUP3 SLOAD PUSH2 0xEE2 SWAP2 SWAP1 PUSH2 0x1959 JUMP JUMPDEST SWAP3 POP POP DUP2 SWAP1 SSTORE POP DUP4 PUSH1 0xC PUSH1 0x0 DUP3 DUP3 SLOAD PUSH2 0xEFB SWAP2 SWAP1 PUSH2 0x1959 JUMP JUMPDEST SWAP1 SWAP2 SSTORE POP POP PUSH1 0x4 SLOAD PUSH1 0x0 SWAP1 DUP2 MSTORE PUSH1 0xE PUSH1 0x20 SWAP1 DUP2 MSTORE PUSH1 0x40 DUP1 DUP4 KECCAK256 CALLER DUP5 MSTORE SWAP1 SWAP2 MSTORE DUP2 KECCAK256 DUP1 SLOAD DUP4 SWAP3 SWAP1 PUSH2 0xF2C SWAP1 DUP5 SWAP1 PUSH2 0x1959 JUMP JUMPDEST SWAP1 SWAP2 SSTORE POP POP PUSH1 0xA SLOAD TIMESTAMP SWAP1 PUSH1 0x0 SWAP1 PUSH2 0xF43 SWAP1 DUP4 PUSH2 0x1959 JUMP JUMPDEST PUSH1 0x40 DUP1 MLOAD PUSH1 0x60 DUP2 ADD DUP3 MSTORE DUP9 DUP2 MSTORE PUSH1 0x20 DUP1 DUP3 ADD DUP7 DUP2 MSTORE DUP3 DUP5 ADD DUP6 DUP2 MSTORE CALLER PUSH1 0x0 DUP2 DUP2 MSTORE PUSH1 0xF DUP6 MSTORE DUP7 SWAP1 KECCAK256 SWAP5 MLOAD DUP6 SSTORE SWAP2 MLOAD PUSH1 0x1 DUP6 ADD SSTORE MLOAD PUSH1 0x2 SWAP1 SWAP4 ADD SWAP3 SWAP1 SWAP3 SSTORE SWAP2 MLOAD DUP7 DUP2 MSTORE SWAP3 SWAP4 POP SWAP2 PUSH32 0xD0A009034E24A39106653C4903CF28B1947B8A9964D03206648E0F0A5DE74A46 SWAP2 ADD PUSH1 0x40 MLOAD DUP1 SWAP2 SUB SWAP1 LOG2 PUSH1 0x40 DUP1 MLOAD DUP8 DUP2 MSTORE PUSH1 0x20 DUP2 ADD DUP5 SWAP1 MSTORE SWAP1 DUP2 ADD DUP3 SWAP1 MSTORE CALLER SWAP1 PUSH32 0x892F1A841B10E4B041CC41D8CC47C6A6049F1FF5FA272DDF47A0AA5AD8F59D13 SWAP1 PUSH1 0x60 ADD PUSH1 0x40 MLOAD DUP1 SWAP2 SUB SWAP1 LOG2 PUSH1 0xB SLOAD PUSH1 0xC SLOAD LT PUSH2 0x1045 JUMPI PUSH1 0x8 DUP6 ADD DUP1 SLOAD PUSH1 0xFF NOT AND SWAP1 SSTORE PUSH2 0x1016 PUSH2 0x168D JUMP JUMPDEST PUSH1 0x4 SLOAD PUSH1 0x0 DUP1 MLOAD PUSH1 0x20 PUSH2 0x19E8 DUP4 CODECOPY DUP2 MLOAD SWAP2 MSTORE DUP7 PUSH1 0x9 ADD SLOAD PUSH1 0x40 MLOAD PUSH2 0x103C SWAP2 DUP2 MSTORE PUSH1 0x20 ADD SWAP1 JUMP JUMPDEST PUSH1 0x40 MLOAD DUP1 SWAP2 SUB SWAP1 LOG2 JUMPDEST POP POP POP POP POP POP JUMP JUMPDEST PUSH2 0x1071 PUSH1 0x40 MLOAD DUP1 PUSH1 0x60 ADD PUSH1 0x40 MSTORE DUP1 PUSH1 0x0 DUP2 MSTORE PUSH1 0x20 ADD PUSH1 0x0 DUP2 MSTORE PUSH1 0x20 ADD PUSH1 0x0 DUP2 MSTORE POP SWAP1 JUMP JUMPDEST POP PUSH1 0x1 PUSH1 0x1 PUSH1 0xA0 SHL SUB AND PUSH1 0x0 SWAP1 DUP2 MSTORE PUSH1 0xF PUSH1 0x20 SWAP1 DUP2 MSTORE PUSH1 0x40 SWAP2 DUP3 SWAP1 KECCAK256 DUP3 MLOAD PUSH1 0x60 DUP2 ADD DUP5 MSTORE DUP2 SLOAD DUP2 MSTORE PUSH1 0x1 DUP3 ADD SLOAD SWAP3 DUP2 ADD SWAP3 SWAP1 SWAP3 MSTORE PUSH1 0x2 ADD SLOAD SWAP2 DUP2 ADD SWAP2 SWAP1 SWAP2 MSTORE SWAP1 JUMP JUMPDEST PUSH2 0x110B PUSH1 0x40 MLOAD DUP1 PUSH2 0x140 ADD PUSH1 0x40 MSTORE DUP1 PUSH1 0x0 DUP2 MSTORE PUSH1 0x20 ADD PUSH1 0x0 DUP2 MSTORE PUSH1 0x20 ADD PUSH1 0x0 DUP2 MSTORE PUSH1 0x20 ADD PUSH1 0x0 DUP2 MSTORE PUSH1 0x20 ADD PUSH1 0x0 DUP2 MSTORE PUSH1 0x20 ADD PUSH1 0x0 DUP2 MSTORE PUSH1 0x20 ADD PUSH1 0x0 DUP2 MSTORE PUSH1 0x20 ADD PUSH1 0x0 DUP2 MSTORE PUSH1 0x20 ADD PUSH1 0x0 ISZERO ISZERO DUP2 MSTORE PUSH1 0x20 ADD PUSH1 0x0 DUP2 MSTORE POP SWAP1 JUMP JUMPDEST POP PUSH1 0x4 DUP1 SLOAD PUSH1 0x0 SWAP1 DUP2 MSTORE PUSH1 0x5 PUSH1 0x20 DUP2 DUP2 MSTORE PUSH1 0x40 SWAP3 DUP4 SWAP1 KECCAK256 DUP4 MLOAD PUSH2 0x140 DUP2 ADD DUP6 MSTORE DUP2 SLOAD DUP2 MSTORE PUSH1 0x1 DUP3 ADD SLOAD SWAP3 DUP2 ADD SWAP3 SWAP1 SWAP3 MSTORE PUSH1 0x2 DUP2 ADD SLOAD SWAP4 DUP3 ADD SWAP4 SWAP1 SWAP4 MSTORE PUSH1 0x3 DUP4 ADD SLOAD PUSH1 0x60 DUP3 ADD MSTORE SWAP3 DUP3 ADD SLOAD PUSH1 0x80 DUP5 ADD MSTORE DUP2 ADD SLOAD PUSH1 0xA0 DUP4 ADD MSTORE PUSH1 0x6 DUP2 ADD SLOAD PUSH1 0xC0 DUP4 ADD MSTORE PUSH1 0x7 DUP2 ADD SLOAD PUSH1 0xE0 DUP4 ADD MSTORE PUSH1 0x8 DUP2 ADD SLOAD PUSH1 0xFF AND ISZERO ISZERO PUSH2 0x100 DUP4 ADD MSTORE PUSH1 0x9 ADD SLOAD PUSH2 0x120 DUP3 ADD MSTORE SWAP1 JUMP JUMPDEST PUSH2 0x119B PUSH2 0x14E0 JUMP JUMPDEST PUSH1 0x4 SLOAD PUSH1 0x0 SWAP1 DUP2 MSTORE PUSH1 0x5 PUSH1 0x20 MSTORE PUSH1 0x40 SWAP1 KECCAK256 PUSH1 0x8 DUP2 ADD SLOAD PUSH1 0xFF AND PUSH2 0x11D1 JUMPI PUSH1 0x40 MLOAD PUSH4 0xB885DFEF PUSH1 0xE0 SHL DUP2 MSTORE PUSH1 0x4 ADD PUSH1 0x40 MLOAD DUP1 SWAP2 SUB SWAP1 REVERT JUMPDEST PUSH1 0x8 DUP2 ADD DUP1 SLOAD PUSH1 0xFF NOT AND SWAP1 SSTORE PUSH1 0x4 SLOAD PUSH1 0x9 DUP3 ADD SLOAD PUSH1 0x40 MLOAD SWAP1 DUP2 MSTORE PUSH1 0x0 DUP1 MLOAD PUSH1 0x20 PUSH2 0x19E8 DUP4 CODECOPY DUP2 MLOAD SWAP2 MSTORE SWAP1 PUSH1 0x20 ADD PUSH1 0x40 MLOAD DUP1 SWAP2 SUB SWAP1 LOG2 POP JUMP JUMPDEST PUSH2 0x1211 PUSH2 0x14E0 JUMP JUMPDEST PUSH1 0x8 DUP2 SWAP1 SSTORE PUSH1 0x40 MLOAD DUP2 DUP2 MSTORE PUSH32 0x5F444D43EF974DE0A9762EA40D495AC7A320EFB6F44E8F1C32505B3CBC026D9C SWAP1 PUSH1 0x20 ADD PUSH2 0xC15 JUMP JUMPDEST PUSH2 0x124E PUSH2 0x14E0 JUMP JUMPDEST PUSH1 0x4 SLOAD PUSH1 0x0 SWAP1 DUP2 MSTORE PUSH1 0x5 PUSH1 0x20 MSTORE PUSH1 0x40 SWAP1 KECCAK256 PUSH1 0x8 DUP2 ADD SLOAD PUSH1 0xFF AND ISZERO PUSH2 0x1285 JUMPI PUSH1 0x40 MLOAD PUSH4 0xCCF5BF45 PUSH1 0xE0 SHL DUP2 MSTORE PUSH1 0x4 ADD PUSH1 0x40 MLOAD DUP1 SWAP2 SUB SWAP1 REVERT JUMPDEST DUP5 DUP7 GT PUSH2 0x12A5 JUMPI PUSH1 0x40 MLOAD PUSH4 0x81B88439 PUSH1 0xE0 SHL DUP2 MSTORE PUSH1 0x4 ADD PUSH1 0x40 MLOAD DUP1 SWAP2 SUB SWAP1 REVERT JUMPDEST DUP2 PUSH1 0x0 SUB PUSH2 0x12C6 JUMPI PUSH1 0x40 MLOAD PUSH4 0x1B3CC90F PUSH1 0xE0 SHL DUP2 MSTORE PUSH1 0x4 ADD PUSH1 0x40 MLOAD DUP1 SWAP2 SUB SWAP1 REVERT JUMPDEST PUSH1 0x4 SLOAD PUSH1 0x0 DUP1 MLOAD PUSH1 0x20 PUSH2 0x19E8 DUP4 CODECOPY DUP2 MLOAD SWAP2 MSTORE DUP3 PUSH1 0x9 ADD SLOAD PUSH1 0x40 MLOAD PUSH2 0x12EC SWAP2 DUP2 MSTORE PUSH1 0x20 ADD SWAP1 JUMP JUMPDEST PUSH1 0x40 MLOAD DUP1 SWAP2 SUB SWAP1 LOG2 PUSH1 0x4 DUP1 SLOAD SWAP1 PUSH1 0x0 PUSH2 0x1304 DUP4 PUSH2 0x1996 JUMP JUMPDEST SWAP2 SWAP1 POP SSTORE POP DUP6 PUSH1 0x6 DUP2 SWAP1 SSTORE POP DUP5 PUSH1 0x7 DUP2 SWAP1 SSTORE POP DUP4 PUSH1 0x8 DUP2 SWAP1 SSTORE POP DUP3 PUSH1 0x9 DUP2 SWAP1 SSTORE POP DUP2 PUSH1 0xA DUP2 SWAP1 SSTORE POP PUSH1 0x0 PUSH1 0xD DUP2 SWAP1 SSTORE POP PUSH1 0x40 MLOAD DUP1 PUSH2 0x140 ADD PUSH1 0x40 MSTORE DUP1 PUSH1 0x4 SLOAD DUP2 MSTORE PUSH1 0x20 ADD DUP8 DUP2 MSTORE PUSH1 0x20 ADD DUP7 DUP2 MSTORE PUSH1 0x20 ADD DUP6 DUP2 MSTORE PUSH1 0x20 ADD DUP5 DUP2 MSTORE PUSH1 0x20 ADD DUP4 DUP2 MSTORE PUSH1 0x20 ADD PUSH1 0x0 DUP2 MSTORE PUSH1 0x20 ADD PUSH1 0x0 DUP2 MSTORE PUSH1 0x20 ADD PUSH1 0x1 ISZERO ISZERO DUP2 MSTORE PUSH1 0x20 ADD PUSH1 0x0 DUP2 MSTORE POP PUSH1 0x5 PUSH1 0x0 PUSH1 0x4 SLOAD DUP2 MSTORE PUSH1 0x20 ADD SWAP1 DUP2 MSTORE PUSH1 0x20 ADD PUSH1 0x0 KECCAK256 PUSH1 0x0 DUP3 ADD MLOAD DUP2 PUSH1 0x0 ADD SSTORE PUSH1 0x20 DUP3 ADD MLOAD DUP2 PUSH1 0x1 ADD SSTORE PUSH1 0x40 DUP3 ADD MLOAD DUP2 PUSH1 0x2 ADD SSTORE PUSH1 0x60 DUP3 ADD MLOAD DUP2 PUSH1 0x3 ADD SSTORE PUSH1 0x80 DUP3 ADD MLOAD DUP2 PUSH1 0x4 ADD SSTORE PUSH1 0xA0 DUP3 ADD MLOAD DUP2 PUSH1 0x5 ADD SSTORE PUSH1 0xC0 DUP3 ADD MLOAD DUP2 PUSH1 0x6 ADD SSTORE PUSH1 0xE0 DUP3 ADD MLOAD DUP2 PUSH1 0x7 ADD SSTORE PUSH2 0x100 DUP3 ADD MLOAD DUP2 PUSH1 0x8 ADD PUSH1 0x0 PUSH2 0x100 EXP DUP2 SLOAD DUP2 PUSH1 0xFF MUL NOT AND SWAP1 DUP4 ISZERO ISZERO MUL OR SWAP1 SSTORE POP PUSH2 0x120 DUP3 ADD MLOAD DUP2 PUSH1 0x9 ADD SSTORE SWAP1 POP POP PUSH1 0x4 SLOAD PUSH32 0xFD9D17E5565DEEA3D25918D95FC398673B9445EF0A96D12EAF3AB2B198756C65 DUP8 DUP8 DUP8 PUSH1 0x40 MLOAD PUSH2 0x103C SWAP4 SWAP3 SWAP2 SWAP1 SWAP3 DUP4 MSTORE PUSH1 0x20 DUP4 ADD SWAP2 SWAP1 SWAP2 MSTORE PUSH1 0x40 DUP3 ADD MSTORE PUSH1 0x60 ADD SWAP1 JUMP JUMPDEST PUSH1 0x0 PUSH2 0x65B PUSH1 0xD SLOAD PUSH1 0x8 SLOAD PUSH1 0x6 SLOAD PUSH1 0x7 SLOAD PUSH2 0x171C JUMP JUMPDEST PUSH2 0x147B PUSH2 0x14E0 JUMP JUMPDEST PUSH1 0x3 DUP1 SLOAD PUSH1 0x1 PUSH1 0x1 PUSH1 0xA0 SHL SUB NOT AND PUSH1 0x1 PUSH1 0x1 PUSH1 0xA0 SHL SUB SWAP3 SWAP1 SWAP3 AND SWAP2 SWAP1 SWAP2 OR SWAP1 SSTORE JUMP JUMPDEST PUSH2 0x14A5 PUSH2 0x14E0 JUMP JUMPDEST PUSH1 0x1 PUSH1 0x1 PUSH1 0xA0 SHL SUB DUP2 AND PUSH2 0x14D4 JUMPI PUSH1 0x40 MLOAD PUSH4 0x1E4FBDF7 PUSH1 0xE0 SHL DUP2 MSTORE PUSH1 0x0 PUSH1 0x4 DUP3 ADD MSTORE PUSH1 0x24 ADD JUMPDEST PUSH1 0x40 MLOAD DUP1 SWAP2 SUB SWAP1 REVERT JUMPDEST PUSH2 0x14DD DUP2 PUSH2 0x1607 JUMP JUMPDEST POP JUMP JUMPDEST PUSH1 0x0 SLOAD PUSH1 0x1 PUSH1 0x1 PUSH1 0xA0 SHL SUB AND CALLER EQ PUSH2 0xD75 JUMPI PUSH1 0x40 MLOAD PUSH4 0x118CDAA7 PUSH1 0xE0 SHL DUP2 MSTORE CALLER PUSH1 0x4 DUP3 ADD MSTORE PUSH1 0x24 ADD PUSH2 0x14CB JUMP JUMPDEST PUSH1 0x40 MLOAD PUSH1 0x1 PUSH1 0x1 PUSH1 0xA0 SHL SUB DUP5 DUP2 AND PUSH1 0x24 DUP4 ADD MSTORE DUP4 DUP2 AND PUSH1 0x44 DUP4 ADD MSTORE PUSH1 0x64 DUP3 ADD DUP4 SWAP1 MSTORE PUSH2 0x1574 SWAP2 DUP7 SWAP2 DUP3 AND SWAP1 PUSH4 0x23B872DD SWAP1 PUSH1 0x84 ADD JUMPDEST PUSH1 0x40 MLOAD PUSH1 0x20 DUP2 DUP4 SUB SUB DUP2 MSTORE SWAP1 PUSH1 0x40 MSTORE SWAP2 POP PUSH1 0xE0 SHL PUSH1 0x20 DUP3 ADD DUP1 MLOAD PUSH1 0x1 PUSH1 0x1 PUSH1 0xE0 SHL SUB DUP4 DUP2 DUP4 AND OR DUP4 MSTORE POP POP POP POP PUSH2 0x17A3 JUMP JUMPDEST POP POP POP POP JUMP JUMPDEST DUP1 DUP3 LT JUMPDEST SWAP3 SWAP2 POP POP JUMP JUMPDEST PUSH1 0x0 PUSH1 0x64 DUP3 GT ISZERO PUSH2 0x15D7 JUMPI PUSH1 0x40 MLOAD PUSH3 0x461BCD PUSH1 0xE5 SHL DUP2 MSTORE PUSH1 0x20 PUSH1 0x4 DUP3 ADD MSTORE PUSH1 0x1B PUSH1 0x24 DUP3 ADD MSTORE PUSH32 0x446973636F756E742063616E6E6F742065786365656420313030250000000000 PUSH1 0x44 DUP3 ADD MSTORE PUSH1 0x64 ADD PUSH2 0x14CB JUMP JUMPDEST PUSH5 0xE8D4A51000 PUSH2 0x15E8 DUP4 PUSH1 0x64 PUSH2 0x1959 JUMP JUMPDEST PUSH2 0x15F2 SWAP1 DUP6 PUSH2 0x19C5 JUMP JUMPDEST PUSH2 0x15FD SWAP1 PUSH1 0x64 PUSH2 0x197F JUMP JUMPDEST PUSH2 0xC79 SWAP2 SWAP1 PUSH2 0x19C5 JUMP JUMPDEST PUSH1 0x0 DUP1 SLOAD PUSH1 0x1 PUSH1 0x1 PUSH1 0xA0 SHL SUB DUP4 DUP2 AND PUSH1 0x1 PUSH1 0x1 PUSH1 0xA0 SHL SUB NOT DUP4 AND DUP2 OR DUP5 SSTORE PUSH1 0x40 MLOAD SWAP2 SWAP1 SWAP3 AND SWAP3 DUP4 SWAP2 PUSH32 0x8BE0079C531659141344CD1FD0A4F28419497F9722A3DAAFE3B4186F6B6457E0 SWAP2 SWAP1 LOG3 POP POP JUMP JUMPDEST PUSH1 0x40 MLOAD PUSH1 0x1 PUSH1 0x1 PUSH1 0xA0 SHL SUB DUP4 DUP2 AND PUSH1 0x24 DUP4 ADD MSTORE PUSH1 0x44 DUP3 ADD DUP4 SWAP1 MSTORE PUSH2 0x1688 SWAP2 DUP6 SWAP2 DUP3 AND SWAP1 PUSH4 0xA9059CBB SWAP1 PUSH1 0x64 ADD PUSH2 0x1542 JUMP JUMPDEST POP POP POP JUMP JUMPDEST PUSH2 0x1695 PUSH2 0x14E0 JUMP JUMPDEST PUSH1 0x4 SLOAD PUSH1 0x0 SWAP1 DUP2 MSTORE PUSH1 0x5 PUSH1 0x20 MSTORE PUSH1 0x40 DUP2 KECCAK256 SWAP1 JUMPDEST DUP2 PUSH1 0x9 ADD SLOAD DUP2 LT ISZERO PUSH2 0xD22 JUMPI CALLER PUSH1 0x0 DUP2 DUP2 MSTORE PUSH1 0xF PUSH1 0x20 SWAP1 DUP2 MSTORE PUSH1 0x40 SWAP2 DUP3 SWAP1 KECCAK256 DUP3 MLOAD PUSH1 0x60 DUP2 ADD DUP5 MSTORE DUP2 SLOAD DUP1 DUP3 MSTORE PUSH1 0x1 DUP4 ADD SLOAD SWAP4 DUP3 ADD SWAP4 SWAP1 SWAP4 MSTORE PUSH1 0x2 SWAP1 SWAP2 ADD SLOAD SWAP3 DUP2 ADD SWAP3 SWAP1 SWAP3 MSTORE ISZERO PUSH2 0x1712 JUMPI PUSH1 0x1 PUSH1 0x1 PUSH1 0xA0 SHL SUB DUP3 AND PUSH1 0x0 SWAP1 DUP2 MSTORE PUSH1 0xF PUSH1 0x20 MSTORE PUSH1 0x40 SWAP1 KECCAK256 TIMESTAMP PUSH1 0x2 SWAP1 SWAP2 ADD SSTORE JUMPDEST POP POP PUSH1 0x1 ADD PUSH2 0x16A8 JUMP JUMPDEST PUSH1 0x0 DUP5 PUSH1 0x0 SUB PUSH2 0x172D JUMPI POP DUP2 PUSH2 0x179B JUMP JUMPDEST DUP4 DUP6 LT PUSH2 0x173B JUMPI POP DUP1 PUSH2 0x179B JUMP JUMPDEST PUSH1 0x0 DUP5 PUSH2 0x174A DUP8 PUSH2 0x2710 PUSH2 0x197F JUMP JUMPDEST PUSH2 0x1754 SWAP2 SWAP1 PUSH2 0x19C5 JUMP JUMPDEST SWAP1 POP PUSH1 0x0 PUSH2 0x1762 DUP5 DUP7 PUSH2 0x196C JUMP JUMPDEST SWAP1 POP PUSH2 0x2710 PUSH2 0x1771 DUP3 DUP5 PUSH2 0x197F JUMP JUMPDEST PUSH2 0x177B SWAP2 SWAP1 PUSH2 0x19C5 JUMP JUMPDEST PUSH2 0x1785 SWAP1 DUP7 PUSH2 0x196C JUMP JUMPDEST SWAP3 POP DUP4 DUP4 GT PUSH2 0x1794 JUMPI DUP4 PUSH2 0x1796 JUMP JUMPDEST DUP3 JUMPDEST SWAP3 POP POP POP JUMPDEST SWAP5 SWAP4 POP POP POP POP JUMP JUMPDEST PUSH1 0x0 DUP1 PUSH1 0x20 PUSH1 0x0 DUP5 MLOAD PUSH1 0x20 DUP7 ADD PUSH1 0x0 DUP9 GAS CALL DUP1 PUSH2 0x17C6 JUMPI PUSH1 0x40 MLOAD RETURNDATASIZE PUSH1 0x0 DUP3 RETURNDATACOPY RETURNDATASIZE DUP2 REVERT JUMPDEST POP POP PUSH1 0x0 MLOAD RETURNDATASIZE SWAP2 POP DUP2 ISZERO PUSH2 0x17DE JUMPI DUP1 PUSH1 0x1 EQ ISZERO PUSH2 0x17EB JUMP JUMPDEST PUSH1 0x1 PUSH1 0x1 PUSH1 0xA0 SHL SUB DUP5 AND EXTCODESIZE ISZERO JUMPDEST ISZERO PUSH2 0x1574 JUMPI PUSH1 0x40 MLOAD PUSH4 0x5274AFE7 PUSH1 0xE0 SHL DUP2 MSTORE PUSH1 0x1 PUSH1 0x1 PUSH1 0xA0 SHL SUB DUP6 AND PUSH1 0x4 DUP3 ADD MSTORE PUSH1 0x24 ADD PUSH2 0x14CB JUMP JUMPDEST PUSH1 0x0 PUSH1 0x20 DUP3 DUP5 SUB SLT ISZERO PUSH2 0x1826 JUMPI PUSH1 0x0 DUP1 REVERT JUMPDEST POP CALLDATALOAD SWAP2 SWAP1 POP JUMP JUMPDEST DUP1 CALLDATALOAD PUSH1 0x1 PUSH1 0x1 PUSH1 0xA0 SHL SUB DUP2 AND DUP2 EQ PUSH2 0x1844 JUMPI PUSH1 0x0 DUP1 REVERT JUMPDEST SWAP2 SWAP1 POP JUMP JUMPDEST PUSH1 0x0 PUSH1 0x20 DUP3 DUP5 SUB SLT ISZERO PUSH2 0x185B JUMPI PUSH1 0x0 DUP1 REVERT JUMPDEST PUSH2 0xC79 DUP3 PUSH2 0x182D JUMP JUMPDEST PUSH1 0x0 PUSH2 0x140 DUP3 ADD SWAP1 POP DUP3 MLOAD DUP3 MSTORE PUSH1 0x20 DUP4 ADD MLOAD PUSH1 0x20 DUP4 ADD MSTORE PUSH1 0x40 DUP4 ADD MLOAD PUSH1 0x40 DUP4 ADD MSTORE PUSH1 0x60 DUP4 ADD MLOAD PUSH1 0x60 DUP4 ADD MSTORE PUSH1 0x80 DUP4 ADD MLOAD PUSH1 0x80 DUP4 ADD MSTORE PUSH1 0xA0 DUP4 ADD MLOAD PUSH1 0xA0 DUP4 ADD MSTORE PUSH1 0xC0 DUP4 ADD MLOAD PUSH1 0xC0 DUP4 ADD MSTORE PUSH1 0xE0 DUP4 ADD MLOAD PUSH1 0xE0 DUP4 ADD MSTORE PUSH2 0x100 DUP1 DUP5 ADD MLOAD PUSH2 0x18CB DUP3 DUP6 ADD DUP3 ISZERO ISZERO SWAP1 MSTORE JUMP JUMPDEST POP POP PUSH2 0x120 SWAP3 DUP4 ADD MLOAD SWAP2 SWAP1 SWAP3 ADD MSTORE SWAP1 JUMP JUMPDEST PUSH1 0x0 DUP1 PUSH1 0x40 DUP4 DUP6 SUB SLT ISZERO PUSH2 0x18EF JUMPI PUSH1 0x0 DUP1 REVERT JUMPDEST DUP3 CALLDATALOAD SWAP2 POP PUSH2 0x18FF PUSH1 0x20 DUP5 ADD PUSH2 0x182D JUMP JUMPDEST SWAP1 POP SWAP3 POP SWAP3 SWAP1 POP JUMP JUMPDEST PUSH1 0x0 DUP1 PUSH1 0x0 DUP1 PUSH1 0x0 PUSH1 0xA0 DUP7 DUP9 SUB SLT ISZERO PUSH2 0x1920 JUMPI PUSH1 0x0 DUP1 REVERT JUMPDEST POP POP DUP4 CALLDATALOAD SWAP6 PUSH1 0x20 DUP6 ADD CALLDATALOAD SWAP6 POP PUSH1 0x40 DUP6 ADD CALLDATALOAD SWAP5 PUSH1 0x60 DUP2 ADD CALLDATALOAD SWAP5 POP PUSH1 0x80 ADD CALLDATALOAD SWAP3 POP SWAP1 POP JUMP JUMPDEST PUSH4 0x4E487B71 PUSH1 0xE0 SHL PUSH1 0x0 MSTORE PUSH1 0x11 PUSH1 0x4 MSTORE PUSH1 0x24 PUSH1 0x0 REVERT JUMPDEST DUP1 DUP3 ADD DUP1 DUP3 GT ISZERO PUSH2 0x157E JUMPI PUSH2 0x157E PUSH2 0x1943 JUMP JUMPDEST DUP2 DUP2 SUB DUP2 DUP2 GT ISZERO PUSH2 0x157E JUMPI PUSH2 0x157E PUSH2 0x1943 JUMP JUMPDEST DUP1 DUP3 MUL DUP2 ISZERO DUP3 DUP3 DIV DUP5 EQ OR PUSH2 0x157E JUMPI PUSH2 0x157E PUSH2 0x1943 JUMP JUMPDEST PUSH1 0x0 PUSH1 0x1 DUP3 ADD PUSH2 0x19A8 JUMPI PUSH2 0x19A8 PUSH2 0x1943 JUMP JUMPDEST POP PUSH1 0x1 ADD SWAP1 JUMP JUMPDEST PUSH4 0x4E487B71 PUSH1 0xE0 SHL PUSH1 0x0 MSTORE PUSH1 0x32 PUSH1 0x4 MSTORE PUSH1 0x24 PUSH1 0x0 REVERT JUMPDEST PUSH1 0x0 DUP3 PUSH2 0x19E2 JUMPI PUSH4 0x4E487B71 PUSH1 0xE0 SHL PUSH1 0x0 MSTORE PUSH1 0x12 PUSH1 0x4 MSTORE PUSH1 0x24 PUSH1 0x0 REVERT JUMPDEST POP DIV SWAP1 JUMP INVALID DUP7 PUSH28 0xC48474AFBD71C32542F493801861B7FA916F53F0E706E1BB8A3F4770 SWAP13 0x28 LOG2 PUSH5 0x6970667358 0x22 SLT KECCAK256 NUMBER PUSH28 0x6E2218398CEC0CA9575C809A8E177A539207CC04E2217E0C13826169 XOR STOP PUSH5 0x736F6C6343 STOP ADDMOD XOR STOP CALLER "},"methodIdentifiers":{"allocateFVC(uint256)":"0b8f760b","bond(uint256)":"9940686e","calculateUSDCAmount(uint256)":"4cabb824","completeCurrentRound()":"d93de017","currentRoundId()":"9cbe5efd","emergencyUnlockAllVesting()":"3e84d3c5","emergencyUnlockVesting(address)":"4cdaa354","epochCap()":"61025060","finalDiscount()":"473357f1","fvc()":"d1c17e38","fvcAllocated()":"8cf407dd","fvcSold()":"eaccaae1","getCurrentDiscount()":"f0eb737a","getCurrentRound()":"a32bf597","getRemainingFVC()":"36fb2cf5","getVestingSchedule(address)":"9f829063","initialDiscount()":"7ec897cd","isLocked(address)":"4a4fbeec","owner()":"8da5cb5b","renounceOwnership()":"715018a6","rounds(uint256)":"8c65c81f","setEpochCap(uint256)":"e033ebb0","setTreasury(address)":"f0f44260","setVestingPeriod(uint256)":"40bee0ed","setWalletCap(uint256)":"65a64668","startNewRound(uint256,uint256,uint256,uint256,uint256)":"e8ba4b0f","startNextRound()":"3c3ccc44","totalBonded()":"44d96e95","transferOwnership(address)":"f2fde38b","treasury()":"61d027b3","usdc()":"3e413bee","userBonded(uint256,address)":"d06f518b","vestingPeriod()":"7313ee5a","vestingSchedules(address)":"fdb20ccb","walletCap()":"58950c22"}},"storageLayout":{"storage":[{"astId":8,"contract":"src/Bonding.sol:Bonding","label":"_owner","offset":0,"slot":"0","type":"t_address"},{"astId":842,"contract":"src/Bonding.sol:Bonding","label":"fvc","offset":0,"slot":"1","type":"t_contract(IFVC)2194"},{"astId":846,"contract":"src/Bonding.sol:Bonding","label":"usdc","offset":0,"slot":"2","type":"t_contract(IERC20)315"},{"astId":849,"contract":"src/Bonding.sol:Bonding","label":"treasury","offset":0,"slot":"3","type":"t_address"},{"astId":852,"contract":"src/Bonding.sol:Bonding","label":"currentRoundId","offset":0,"slot":"4","type":"t_uint256"},{"astId":858,"contract":"src/Bonding.sol:Bonding","label":"rounds","offset":0,"slot":"5","type":"t_mapping(t_uint256,t_struct(RoundConfig)2062_storage)"},{"astId":861,"contract":"src/Bonding.sol:Bonding","label":"initialDiscount","offset":0,"slot":"6","type":"t_uint256"},{"astId":864,"contract":"src/Bonding.sol:Bonding","label":"finalDiscount","offset":0,"slot":"7","type":"t_uint256"},{"astId":867,"contract":"src/Bonding.sol:Bonding","label":"epochCap","offset":0,"slot":"8","type":"t_uint256"},{"astId":870,"contract":"src/Bonding.sol:Bonding","label":"walletCap","offset":0,"slot":"9","type":"t_uint256"},{"astId":873,"contract":"src/Bonding.sol:Bonding","label":"vestingPeriod","offset":0,"slot":"10","type":"t_uint256"},{"astId":876,"contract":"src/Bonding.sol:Bonding","label":"fvcAllocated","offset":0,"slot":"11","type":"t_uint256"},{"astId":879,"contract":"src/Bonding.sol:Bonding","label":"fvcSold","offset":0,"slot":"12","type":"t_uint256"},{"astId":882,"contract":"src/Bonding.sol:Bonding","label":"totalBonded","offset":0,"slot":"13","type":"t_uint256"},{"astId":889,"contract":"src/Bonding.sol:Bonding","label":"userBonded","offset":0,"slot":"14","type":"t_mapping(t_uint256,t_mapping(t_address,t_uint256))"},{"astId":895,"contract":"src/Bonding.sol:Bonding","label":"vestingSchedules","offset":0,"slot":"15","type":"t_mapping(t_address,t_struct(VestingSchedule)2040_storage)"}],"types":{"t_address":{"encoding":"inplace","label":"address","numberOfBytes":"20"},"t_bool":{"encoding":"inplace","label":"bool","numberOfBytes":"1"},"t_contract(IERC20)315":{"encoding":"inplace","label":"contract IERC20","numberOfBytes":"20"},"t_contract(IFVC)2194":{"encoding":"inplace","label":"contract IFVC","numberOfBytes":"20"},"t_mapping(t_address,t_struct(VestingSchedule)2040_storage)":{"encoding":"mapping","key":"t_address","label":"mapping(address => struct IBonding.VestingSchedule)","numberOfBytes":"32","value":"t_struct(VestingSchedule)2040_storage"},"t_mapping(t_address,t_uint256)":{"encoding":"mapping","key":"t_address","label":"mapping(address => uint256)","numberOfBytes":"32","value":"t_uint256"},"t_mapping(t_uint256,t_mapping(t_address,t_uint256))":{"encoding":"mapping","key":"t_uint256","label":"mapping(uint256 => mapping(address => uint256))","numberOfBytes":"32","value":"t_mapping(t_address,t_uint256)"},"t_mapping(t_uint256,t_struct(RoundConfig)2062_storage)":{"encoding":"mapping","key":"t_uint256","label":"mapping(uint256 => struct IBonding.RoundConfig)","numberOfBytes":"32","value":"t_struct(RoundConfig)2062_storage"},"t_struct(RoundConfig)2062_storage":{"encoding":"inplace","label":"struct IBonding.RoundConfig","members":[{"astId":2043,"contract":"src/Bonding.sol:Bonding","label":"roundId","offset":0,"slot":"0","type":"t_uint256"},{"astId":2045,"contract":"src/Bonding.sol:Bonding","label":"initialDiscount","offset":0,"slot":"1","type":"t_uint256"},{"astId":2047,"contract":"src/Bonding.sol:Bonding","label":"finalDiscount","offset":0,"slot":"2","type":"t_uint256"},{"astId":2049,"contract":"src/Bonding.sol:Bonding","label":"epochCap","offset":0,"slot":"3","type":"t_uint256"},{"astId":2051,"contract":"src/Bonding.sol:Bonding","label":"walletCap","offset":0,"slot":"4","type":"t_uint256"},{"astId":2053,"contract":"src/Bonding.sol:Bonding","label":"vestingPeriod","offset":0,"slot":"5","type":"t_uint256"},{"astId":2055,"contract":"src/Bonding.sol:Bonding","label":"fvcAllocated","offset":0,"slot":"6","type":"t_uint256"},{"astId":2057,"contract":"src/Bonding.sol:Bonding","label":"fvcSold","offset":0,"slot":"7","type":"t_uint256"},{"astId":2059,"contract":"src/Bonding.sol:Bonding","label":"isActive","offset":0,"slot":"8","type":"t_bool"},{"astId":2061,"contract":"src/Bonding.sol:Bonding","label":"totalBonded","offset":0,"slot":"9","type":"t_uint256"}],"numberOfBytes":"320"},"t_struct(VestingSchedule)2040_storage":{"encoding":"inplace","label":"struct IBonding.VestingSchedule","members":[{"astId":2035,"contract":"src/Bonding.sol:Bonding","label":"amount","offset":0,"slot":"0","type":"t_uint256"},{"astId":2037,"contract":"src/Bonding.sol:Bonding","label":"startTime","offset":0,"slot":"1","type":"t_uint256"},{"astId":2039,"contract":"src/Bonding.sol:Bonding","label":"endTime","offset":0,"slot":"2","type":"t_uint256"}],"numberOfBytes":"96"},"t_uint256":{"encoding":"inplace","label":"uint256","numberOfBytes":"32"}}}}}}