{"src/BondingV2.sol":{"BondingV2":{"abi":[{"inputs":[{"internalType":"address","name":"_fvc","type":"address"},{"internalType":"address","name":"_usdc","type":"address"},{"internalType":"address","name":"_treasury","type":"address"},{"internalType":"uint256","name":"_initialDiscount","type":"uint256"},{"internalType":"uint256","name":"_finalDiscount","type":"uint256"},{"internalType":"uint256","name":"_epochCap","type":"uint256"},{"internalType":"uint256","name":"_walletCap","type":"uint256"},{"internalType":"uint256","name":"_vestingPeriod","type":"uint256"}],"stateMutability":"nonpayable","type":"constructor"},{"inputs":[],"name":"Bonding__AmountMustBeGreaterThanZero","type":"error"},{"inputs":[],"name":"Bonding__EpochCapExceeded","type":"error"},{"inputs":[],"name":"Bonding__ExceedsWalletCap","type":"error"},{"inputs":[],"name":"Bonding__InvalidVestingPeriod","type":"error"},{"inputs":[],"name":"Bonding__RoundNotActive","type":"error"},{"inputs":[],"name":"Bonding__TokensLockedInVesting","type":"error"},{"inputs":[{"internalType":"address","name":"owner","type":"address"}],"name":"OwnableInvalidOwner","type":"error"},{"inputs":[{"internalType":"address","name":"account","type":"address"}],"name":"OwnableUnauthorizedAccount","type":"error"},{"inputs":[{"internalType":"address","name":"token","type":"address"}],"name":"SafeERC20FailedOperation","type":"error"},{"anonymous":false,"inputs":[{"indexed":true,"internalType":"address","name":"user","type":"address"},{"indexed":false,"internalType":"uint256","name":"amount","type":"uint256"}],"name":"Bonded","type":"event"},{"anonymous":false,"inputs":[{"indexed":true,"internalType":"address","name":"user","type":"address"},{"indexed":false,"internalType":"uint256","name":"amount","type":"uint256"}],"name":"EmergencyUnlock","type":"event"},{"anonymous":false,"inputs":[{"indexed":false,"internalType":"uint256","name":"newCap","type":"uint256"}],"name":"EpochCapUpdated","type":"event"},{"anonymous":false,"inputs":[{"indexed":false,"internalType":"uint256","name":"roundId","type":"uint256"},{"indexed":false,"internalType":"uint256","name":"fvcAmount","type":"uint256"}],"name":"FVCAllocated","type":"event"},{"anonymous":false,"inputs":[{"indexed":true,"internalType":"address","name":"previousOwner","type":"address"},{"indexed":true,"internalType":"address","name":"newOwner","type":"address"}],"name":"OwnershipTransferred","type":"event"},{"anonymous":false,"inputs":[{"indexed":true,"internalType":"uint256","name":"roundId","type":"uint256"},{"indexed":false,"internalType":"uint256","name":"totalBonded","type":"uint256"}],"name":"RoundCompleted","type":"event"},{"anonymous":false,"inputs":[{"indexed":true,"internalType":"uint256","name":"roundId","type":"uint256"},{"indexed":false,"internalType":"uint256","name":"initialDiscount","type":"uint256"},{"indexed":false,"internalType":"uint256","name":"finalDiscount","type":"uint256"},{"indexed":false,"internalType":"uint256","name":"epochCap","type":"uint256"}],"name":"RoundStarted","type":"event"},{"anonymous":false,"inputs":[{"indexed":false,"internalType":"uint256","name":"newPeriod","type":"uint256"}],"name":"VestingPeriodUpdated","type":"event"},{"anonymous":false,"inputs":[{"indexed":true,"internalType":"address","name":"user","type":"address"},{"indexed":false,"internalType":"uint256","name":"amount","type":"uint256"},{"indexed":false,"internalType":"uint256","name":"startTime","type":"uint256"},{"indexed":false,"internalType":"uint256","name":"endTime","type":"uint256"}],"name":"VestingScheduleCreated","type":"event"},{"anonymous":false,"inputs":[{"indexed":false,"internalType":"uint256","name":"newCap","type":"uint256"}],"name":"WalletCapUpdated","type":"event"},{"inputs":[{"internalType":"uint256","name":"fvcAmount","type":"uint256"}],"name":"allocateFVC","outputs":[],"stateMutability":"nonpayable","type":"function"},{"inputs":[{"internalType":"uint256","name":"fvcAmount","type":"uint256"}],"name":"bond","outputs":[],"stateMutability":"nonpayable","type":"function"},{"inputs":[{"internalType":"uint256","name":"fvcAmount","type":"uint256"}],"name":"calculateUSDCAmount","outputs":[{"internalType":"uint256","name":"usdcAmount","type":"uint256"}],"stateMutability":"view","type":"function"},{"inputs":[],"name":"currentRoundId","outputs":[{"internalType":"uint256","name":"","type":"uint256"}],"stateMutability":"view","type":"function"},{"inputs":[],"name":"emergencyUnlockAllVesting","outputs":[],"stateMutability":"nonpayable","type":"function"},{"inputs":[{"internalType":"address","name":"user","type":"address"}],"name":"emergencyUnlockVesting","outputs":[],"stateMutability":"nonpayable","type":"function"},{"inputs":[],"name":"epochCap","outputs":[{"internalType":"uint256","name":"","type":"uint256"}],"stateMutability":"view","type":"function"},{"inputs":[],"name":"finalDiscount","outputs":[{"internalType":"uint256","name":"","type":"uint256"}],"stateMutability":"view","type":"function"},{"inputs":[],"name":"fvc","outputs":[{"internalType":"contract IFVC","name":"","type":"address"}],"stateMutability":"view","type":"function"},{"inputs":[],"name":"fvcAllocated","outputs":[{"internalType":"uint256","name":"","type":"uint256"}],"stateMutability":"view","type":"function"},{"inputs":[],"name":"fvcSold","outputs":[{"internalType":"uint256","name":"","type":"uint256"}],"stateMutability":"view","type":"function"},{"inputs":[],"name":"getCurrentDiscount","outputs":[{"internalType":"uint256","name":"","type":"uint256"}],"stateMutability":"view","type":"function"},{"inputs":[],"name":"getCurrentRound","outputs":[{"components":[{"internalType":"uint256","name":"roundId","type":"uint256"},{"internalType":"uint256","name":"initialDiscount","type":"uint256"},{"internalType":"uint256","name":"finalDiscount","type":"uint256"},{"internalType":"uint256","name":"epochCap","type":"uint256"},{"internalType":"uint256","name":"walletCap","type":"uint256"},{"internalType":"uint256","name":"vestingPeriod","type":"uint256"},{"internalType":"uint256","name":"fvcAllocated","type":"uint256"},{"internalType":"uint256","name":"fvcSold","type":"uint256"},{"internalType":"bool","name":"isActive","type":"bool"},{"internalType":"uint256","name":"totalBonded","type":"uint256"}],"internalType":"struct IBonding.RoundConfig","name":"","type":"tuple"}],"stateMutability":"view","type":"function"},{"inputs":[],"name":"getRemainingFVC","outputs":[{"internalType":"uint256","name":"","type":"uint256"}],"stateMutability":"view","type":"function"},{"inputs":[{"internalType":"address","name":"user","type":"address"}],"name":"getVestingSchedule","outputs":[{"components":[{"internalType":"uint256","name":"amount","type":"uint256"},{"internalType":"uint256","name":"startTime","type":"uint256"},{"internalType":"uint256","name":"endTime","type":"uint256"}],"internalType":"struct IBonding.VestingSchedule","name":"","type":"tuple"}],"stateMutability":"view","type":"function"},{"inputs":[],"name":"initialDiscount","outputs":[{"internalType":"uint256","name":"","type":"uint256"}],"stateMutability":"view","type":"function"},{"inputs":[{"internalType":"address","name":"user","type":"address"}],"name":"isLocked","outputs":[{"internalType":"bool","name":"","type":"bool"}],"stateMutability":"view","type":"function"},{"inputs":[],"name":"owner","outputs":[{"internalType":"address","name":"","type":"address"}],"stateMutability":"view","type":"function"},{"inputs":[],"name":"renounceOwnership","outputs":[],"stateMutability":"nonpayable","type":"function"},{"inputs":[{"internalType":"uint256","name":"","type":"uint256"}],"name":"rounds","outputs":[{"internalType":"uint256","name":"roundId","type":"uint256"},{"internalType":"uint256","name":"initialDiscount","type":"uint256"},{"internalType":"uint256","name":"finalDiscount","type":"uint256"},{"internalType":"uint256","name":"epochCap","type":"uint256"},{"internalType":"uint256","name":"walletCap","type":"uint256"},{"internalType":"uint256","name":"vestingPeriod","type":"uint256"},{"internalType":"uint256","name":"fvcAllocated","type":"uint256"},{"internalType":"uint256","name":"fvcSold","type":"uint256"},{"internalType":"bool","name":"isActive","type":"bool"},{"internalType":"uint256","name":"totalBonded","type":"uint256"}],"stateMutability":"view","type":"function"},{"inputs":[{"internalType":"uint256","name":"_vestingPeriod","type":"uint256"}],"name":"setVestingPeriod","outputs":[],"stateMutability":"nonpayable","type":"function"},{"inputs":[{"internalType":"uint256","name":"_initialDiscount","type":"uint256"},{"internalType":"uint256","name":"_finalDiscount","type":"uint256"},{"internalType":"uint256","name":"_epochCap","type":"uint256"},{"internalType":"uint256","name":"_walletCap","type":"uint256"},{"internalType":"uint256","name":"_vestingPeriod","type":"uint256"}],"name":"startNewRound","outputs":[],"stateMutability":"nonpayable","type":"function"},{"inputs":[],"name":"totalBonded","outputs":[{"internalType":"uint256","name":"","type":"uint256"}],"stateMutability":"view","type":"function"},{"inputs":[{"internalType":"address","name":"newOwner","type":"address"}],"name":"transferOwnership","outputs":[],"stateMutability":"nonpayable","type":"function"},{"inputs":[],"name":"treasury","outputs":[{"internalType":"address","name":"","type":"address"}],"stateMutability":"view","type":"function"},{"inputs":[],"name":"usdc","outputs":[{"internalType":"contract IERC20","name":"","type":"address"}],"stateMutability":"view","type":"function"},{"inputs":[{"internalType":"uint256","name":"","type":"uint256"},{"internalType":"address","name":"","type":"address"}],"name":"userBonded","outputs":[{"internalType":"uint256","name":"","type":"uint256"}],"stateMutability":"view","type":"function"},{"inputs":[],"name":"vestingPeriod","outputs":[{"internalType":"uint256","name":"","type":"uint256"}],"stateMutability":"view","type":"function"},{"inputs":[{"internalType":"address","name":"","type":"address"}],"name":"vestingSchedules","outputs":[{"internalType":"uint256","name":"amount","type":"uint256"},{"internalType":"uint256","name":"startTime","type":"uint256"},{"internalType":"uint256","name":"endTime","type":"uint256"}],"stateMutability":"view","type":"function"},{"inputs":[],"name":"walletCap","outputs":[{"internalType":"uint256","name":"","type":"uint256"}],"stateMutability":"view","type":"function"}],"evm":{"bytecode":{"linkReferences":{},"object":"60806040523480156200001157600080fd5b506040516200158b3803806200158b83398101604081905262000034916200032b565b33806200005b57604051631e4fbdf760e01b81526000600482015260240160405180910390fd5b6200006681620002be565b50600180546001600160a01b03808b166001600160a01b031992831617909255600280548a841690831617905560038054928916929091169190911790556000819003620000c757604051631b3cc90f60e01b815260040160405180910390fd5b6006859055600784905560088390556009829055600a8190556001600481905560408051610140810182528281526020808201988952918101968752606081019586526080810194855260a08101938452600060c0820181815260e083018281526101008401868152610120850184815296909352600590945291517f1471eb6eb2c5e789fc3de43f8ce62938c7d1836ec861730447e2ada8fd81017b5597517f1471eb6eb2c5e789fc3de43f8ce62938c7d1836ec861730447e2ada8fd81017c5595517f1471eb6eb2c5e789fc3de43f8ce62938c7d1836ec861730447e2ada8fd81017d5593517f1471eb6eb2c5e789fc3de43f8ce62938c7d1836ec861730447e2ada8fd81017e5591517f1471eb6eb2c5e789fc3de43f8ce62938c7d1836ec861730447e2ada8fd81017f55517f1471eb6eb2c5e789fc3de43f8ce62938c7d1836ec861730447e2ada8fd8101805591517f1471eb6eb2c5e789fc3de43f8ce62938c7d1836ec861730447e2ada8fd81018155517f1471eb6eb2c5e789fc3de43f8ce62938c7d1836ec861730447e2ada8fd8101825590517f1471eb6eb2c5e789fc3de43f8ce62938c7d1836ec861730447e2ada8fd810183805460ff1916911515919091179055517f1471eb6eb2c5e789fc3de43f8ce62938c7d1836ec861730447e2ada8fd8101845550620003a6915050565b600080546001600160a01b038381166001600160a01b0319831681178455604051919092169283917f8be0079c531659141344cd1fd0a4f28419497f9722a3daafe3b4186f6b6457e09190a35050565b80516001600160a01b03811681146200032657600080fd5b919050565b600080600080600080600080610100898b0312156200034957600080fd5b62000354896200030e565b97506200036460208a016200030e565b96506200037460408a016200030e565b9550606089015194506080890151935060a0890151925060c0890151915060e089015190509295985092959890939650565b6111d580620003b66000396000f3fe608060405234801561001057600080fd5b50600436106101da5760003560e01c80637ec897cd11610104578063a32bf597116100a2578063eaccaae111610071578063eaccaae114610472578063f0eb737a1461047b578063f2fde38b14610483578063fdb20ccb1461049657600080fd5b8063a32bf5971461040c578063d06f518b14610421578063d1c17e381461044c578063e8ba4b0f1461045f57600080fd5b80638da5cb5b116100de5780638da5cb5b146103aa5780639940686e146103bb5780639cbe5efd146103ce5780639f829063146103d757600080fd5b80637ec897cd146102e65780638c65c81f146102ef5780638cf407dd146103a157600080fd5b80634a4fbeec1161017c578063610250601161014b57806361025060146102b957806361d027b3146102c2578063715018a6146102d55780637313ee5a146102dd57600080fd5b80634a4fbeec146102675780634cabb8241461028a5780634cdaa3541461029d57806358950c22146102b057600080fd5b80633e84d3c5116101b85780633e84d3c51461023a57806340bee0ed1461024257806344d96e9514610255578063473357f11461025e57600080fd5b80630b8f760b146101df57806336fb2cf5146101f45780633e413bee1461020f575b600080fd5b6101f26101ed366004610fe2565b6104e0565b005b6101fc6105c9565b6040519081526020015b60405180910390f35b600254610222906001600160a01b031681565b6040516001600160a01b039091168152602001610206565b6101f26105e0565b6101f2610250366004610fe2565b610620565b6101fc600d5481565b6101fc60075481565b61027a610275366004611017565b610684565b6040519015158152602001610206565b6101fc610298366004610fe2565b6106e4565b6101f26102ab366004611017565b6106fb565b6101fc60095481565b6101fc60085481565b600354610222906001600160a01b031681565b6101f2610779565b6101fc600a5481565b6101fc60065481565b6103556102fd366004610fe2565b6005602081905260009182526040909120805460018201546002830154600384015460048501549585015460068601546007870154600888015460099098015496989597949693959492939192909160ff909116908a565b604080519a8b5260208b0199909952978901969096526060880194909452608087019290925260a086015260c085015260e0840152151561010083015261012082015261014001610206565b6101fc600b5481565b6000546001600160a01b0316610222565b6101f26103c9366004610fe2565b61078d565b6101fc60045481565b6103ea6103e5366004611017565b610a16565b6040805182518152602080840151908201529181015190820152606001610206565b610414610a7c565b6040516102069190611032565b6101fc61042f3660046110aa565b600e60209081526000928352604080842090915290825290205481565b600154610222906001600160a01b031681565b6101f261046d3660046110d6565b610b5c565b6101fc600c5481565b6101fc610d13565b6101f2610491366004611017565b610d81565b6104c56104a4366004611017565b600f6020526000908152604090208054600182015460029092015490919083565b60408051938452602084019290925290820152606001610206565b6104e8610dc4565b6004546000908152600560205260409020600881015460ff1661051e5760405163b885dfef60e01b815260040160405180910390fd5b8160000361053f5760405163d3590a8360e01b815260040160405180910390fd5b600154610557906001600160a01b0316333085610df1565b81600b60008282546105699190611127565b92505081905550818160060160008282546105849190611127565b909155505060045460408051918252602082018490527f7cdd16d98681f4d22957409604a564ef1d8cd2b0d5cc5235d444451f03324b13910160405180910390a15050565b6000600c54600b546105db919061113a565b905090565b6105e8610dc4565b6040516000808252907fb8797ab767ff1517f7c915ddd7c9a79ae5609fc876c2d87f2b2b545475642a1a9060200160405180910390a2565b610628610dc4565b8060000361064957604051631b3cc90f60e01b815260040160405180910390fd5b600a8190556040518181527fc21cb0f112058f1eb0e3313a577dfc27e6be5b39127591e05245343a422e49159060200160405180910390a150565b6001600160a01b0381166000908152600f60209081526040808320815160608101835281548082526001830154948201949094526002909101549181019190915290158015906106dd57506106dd428260400151610e5e565b9392505050565b6000806106ef610d13565b90506106dd8382610e68565b610703610dc4565b6001600160a01b0381166000908152600f6020526040902080541561077557805460008083556001830181905560028301556040518181526001600160a01b038416907fb8797ab767ff1517f7c915ddd7c9a79ae5609fc876c2d87f2b2b545475642a1a9060200160405180910390a2505b5050565b610781610dc4565b61078b6000610eeb565b565b806000036107ae5760405163d3590a8360e01b815260040160405180910390fd5b6004546000908152600560205260409020600881015460ff166107e45760405163b885dfef60e01b815260040160405180910390fd5b600b5482600c546107f59190611127565b11156108145760405163437d78f560e01b815260040160405180910390fd5b600061081e610d13565b9050600061082c8483610e68565b6009546004546000908152600e602090815260408083203384529091529020549192509061085b908390611127565b111561087a576040516375284bdb60e01b815260040160405180910390fd5b600354600254610899916001600160a01b039182169133911684610df1565b6001546108b0906001600160a01b03163386610f3b565b80600d60008282546108c29190611127565b92505081905550808360090160008282546108dd9190611127565b92505081905550838360070160008282546108f89190611127565b9250508190555083600c60008282546109119190611127565b90915550506004546000908152600e6020908152604080832033845290915281208054839290610942908490611127565b9091555050600a5442906000906109599083611127565b604080516060810182528881526020808201868152828401858152336000818152600f85528690209451855591516001850155516002909301929092559151868152929350917fd0a009034e24a39106653c4903cf28b1947b8a9964d03206648e0f0a5de74a46910160405180910390a2604080518781526020810184905290810182905233907f892f1a841b10e4b041cc41d8cc47c6a6049f1ff5fa272ddf47a0aa5ad8f59d13906060015b60405180910390a2505050505050565b610a3a60405180606001604052806000815260200160008152602001600081525090565b506001600160a01b03166000908152600f6020908152604091829020825160608101845281548152600182015492810192909252600201549181019190915290565b610ad46040518061014001604052806000815260200160008152602001600081526020016000815260200160008152602001600081526020016000815260200160008152602001600015158152602001600081525090565b5060048054600090815260056020818152604092839020835161014081018552815481526001820154928101929092526002810154938201939093526003830154606082015292820154608084015281015460a0830152600681015460c0830152600781015460e0830152600881015460ff1615156101008301526009015461012082015290565b610b64610dc4565b80600003610b8557604051631b3cc90f60e01b815260040160405180910390fd5b60048054600090815260056020526040812060088101805460ff19169055825490929091610bb28361114d565b91905055508560068190555084600781905550836008819055508260098190555081600a819055506000600d819055506000600c81905550604051806101400160405280600454815260200187815260200186815260200185815260200184815260200183815260200160008152602001600081526020016001151581526020016000815250600560006004548152602001908152602001600020600082015181600001556020820151816001015560408201518160020155606082015181600301556080820151816004015560a0820151816005015560c0820151816006015560e082015181600701556101008201518160080160006101000a81548160ff02191690831515021790555061012082015181600901559050506004547ffd9d17e5565deea3d25918d95fc398673b9445ef0a96d12eaf3ab2b198756c65878787604051610a06939291909283526020830191909152604082015260600190565b6000600854600d5410610d27575060075490565b6000600854600d546064610d3b9190611166565b610d45919061117d565b9050606481600754600654610d5a919061113a565b610d649190611166565b610d6e919061117d565b600654610d7b919061113a565b91505090565b610d89610dc4565b6001600160a01b038116610db857604051631e4fbdf760e01b8152600060048201526024015b60405180910390fd5b610dc181610eeb565b50565b6000546001600160a01b0316331461078b5760405163118cdaa760e01b8152336004820152602401610daf565b6040516001600160a01b038481166024830152838116604483015260648201839052610e589186918216906323b872dd906084015b604051602081830303815290604052915060e01b6020820180516001600160e01b038381831617835250505050610f71565b50505050565b8082105b92915050565b60006064821115610ebb5760405162461bcd60e51b815260206004820152601b60248201527f446973636f756e742063616e6e6f7420657863656564203130302500000000006044820152606401610daf565b64e8d4a51000610ecc836064611127565b610ed6908561117d565b610ee1906064611166565b6106dd919061117d565b600080546001600160a01b038381166001600160a01b0319831681178455604051919092169283917f8be0079c531659141344cd1fd0a4f28419497f9722a3daafe3b4186f6b6457e09190a35050565b6040516001600160a01b03838116602483015260448201839052610f6c91859182169063a9059cbb90606401610e26565b505050565b600080602060008451602086016000885af180610f94576040513d6000823e3d81fd5b50506000513d91508115610fac578060011415610fb9565b6001600160a01b0384163b155b15610e5857604051635274afe760e01b81526001600160a01b0385166004820152602401610daf565b600060208284031215610ff457600080fd5b5035919050565b80356001600160a01b038116811461101257600080fd5b919050565b60006020828403121561102957600080fd5b6106dd82610ffb565b600061014082019050825182526020830151602083015260408301516040830152606083015160608301526080830151608083015260a083015160a083015260c083015160c083015260e083015160e0830152610100808401516110998285018215159052565b505061012092830151919092015290565b600080604083850312156110bd57600080fd5b823591506110cd60208401610ffb565b90509250929050565b600080600080600060a086880312156110ee57600080fd5b505083359560208501359550604085013594606081013594506080013592509050565b634e487b7160e01b600052601160045260246000fd5b80820180821115610e6257610e62611111565b81810381811115610e6257610e62611111565b60006001820161115f5761115f611111565b5060010190565b8082028115828204841417610e6257610e62611111565b60008261119a57634e487b7160e01b600052601260045260246000fd5b50049056fea26469706673582212200fb332eb87227338db023a2c512658fe735cd0cd003d983308fba956515fe51764736f6c63430008180033","opcodes":"PUSH1 0x80 PUSH1 0x40 MSTORE CALLVALUE DUP1 ISZERO PUSH3 0x11 JUMPI PUSH1 0x0 DUP1 REVERT JUMPDEST POP PUSH1 0x40 MLOAD PUSH3 0x158B CODESIZE SUB DUP1 PUSH3 0x158B DUP4 CODECOPY DUP2 ADD PUSH1 0x40 DUP2 SWAP1 MSTORE PUSH3 0x34 SWAP2 PUSH3 0x32B JUMP JUMPDEST CALLER DUP1 PUSH3 0x5B JUMPI PUSH1 0x40 MLOAD PUSH4 0x1E4FBDF7 PUSH1 0xE0 SHL DUP2 MSTORE PUSH1 0x0 PUSH1 0x4 DUP3 ADD MSTORE PUSH1 0x24 ADD PUSH1 0x40 MLOAD DUP1 SWAP2 SUB SWAP1 REVERT JUMPDEST PUSH3 0x66 DUP2 PUSH3 0x2BE JUMP JUMPDEST POP PUSH1 0x1 DUP1 SLOAD PUSH1 0x1 PUSH1 0x1 PUSH1 0xA0 SHL SUB DUP1 DUP12 AND PUSH1 0x1 PUSH1 0x1 PUSH1 0xA0 SHL SUB NOT SWAP3 DUP4 AND OR SWAP1 SWAP3 SSTORE PUSH1 0x2 DUP1 SLOAD DUP11 DUP5 AND SWAP1 DUP4 AND OR SWAP1 SSTORE PUSH1 0x3 DUP1 SLOAD SWAP3 DUP10 AND SWAP3 SWAP1 SWAP2 AND SWAP2 SWAP1 SWAP2 OR SWAP1 SSTORE PUSH1 0x0 DUP2 SWAP1 SUB PUSH3 0xC7 JUMPI PUSH1 0x40 MLOAD PUSH4 0x1B3CC90F PUSH1 0xE0 SHL DUP2 MSTORE PUSH1 0x4 ADD PUSH1 0x40 MLOAD DUP1 SWAP2 SUB SWAP1 REVERT JUMPDEST PUSH1 0x6 DUP6 SWAP1 SSTORE PUSH1 0x7 DUP5 SWAP1 SSTORE PUSH1 0x8 DUP4 SWAP1 SSTORE PUSH1 0x9 DUP3 SWAP1 SSTORE PUSH1 0xA DUP2 SWAP1 SSTORE PUSH1 0x1 PUSH1 0x4 DUP2 SWAP1 SSTORE PUSH1 0x40 DUP1 MLOAD PUSH2 0x140 DUP2 ADD DUP3 MSTORE DUP3 DUP2 MSTORE PUSH1 0x20 DUP1 DUP3 ADD SWAP9 DUP10 MSTORE SWAP2 DUP2 ADD SWAP7 DUP8 MSTORE PUSH1 0x60 DUP2 ADD SWAP6 DUP7 MSTORE PUSH1 0x80 DUP2 ADD SWAP5 DUP6 MSTORE PUSH1 0xA0 DUP2 ADD SWAP4 DUP5 MSTORE PUSH1 0x0 PUSH1 0xC0 DUP3 ADD DUP2 DUP2 MSTORE PUSH1 0xE0 DUP4 ADD DUP3 DUP2 MSTORE PUSH2 0x100 DUP5 ADD DUP7 DUP2 MSTORE PUSH2 0x120 DUP6 ADD DUP5 DUP2 MSTORE SWAP7 SWAP1 SWAP4 MSTORE PUSH1 0x5 SWAP1 SWAP5 MSTORE SWAP2 MLOAD PUSH32 0x1471EB6EB2C5E789FC3DE43F8CE62938C7D1836EC861730447E2ADA8FD81017B SSTORE SWAP8 MLOAD PUSH32 0x1471EB6EB2C5E789FC3DE43F8CE62938C7D1836EC861730447E2ADA8FD81017C SSTORE SWAP6 MLOAD PUSH32 0x1471EB6EB2C5E789FC3DE43F8CE62938C7D1836EC861730447E2ADA8FD81017D SSTORE SWAP4 MLOAD PUSH32 0x1471EB6EB2C5E789FC3DE43F8CE62938C7D1836EC861730447E2ADA8FD81017E SSTORE SWAP2 MLOAD PUSH32 0x1471EB6EB2C5E789FC3DE43F8CE62938C7D1836EC861730447E2ADA8FD81017F SSTORE MLOAD PUSH32 0x1471EB6EB2C5E789FC3DE43F8CE62938C7D1836EC861730447E2ADA8FD810180 SSTORE SWAP2 MLOAD PUSH32 0x1471EB6EB2C5E789FC3DE43F8CE62938C7D1836EC861730447E2ADA8FD810181 SSTORE MLOAD PUSH32 0x1471EB6EB2C5E789FC3DE43F8CE62938C7D1836EC861730447E2ADA8FD810182 SSTORE SWAP1 MLOAD PUSH32 0x1471EB6EB2C5E789FC3DE43F8CE62938C7D1836EC861730447E2ADA8FD810183 DUP1 SLOAD PUSH1 0xFF NOT AND SWAP2 ISZERO ISZERO SWAP2 SWAP1 SWAP2 OR SWAP1 SSTORE MLOAD PUSH32 0x1471EB6EB2C5E789FC3DE43F8CE62938C7D1836EC861730447E2ADA8FD810184 SSTORE POP PUSH3 0x3A6 SWAP2 POP POP JUMP JUMPDEST PUSH1 0x0 DUP1 SLOAD PUSH1 0x1 PUSH1 0x1 PUSH1 0xA0 SHL SUB DUP4 DUP2 AND PUSH1 0x1 PUSH1 0x1 PUSH1 0xA0 SHL SUB NOT DUP4 AND DUP2 OR DUP5 SSTORE PUSH1 0x40 MLOAD SWAP2 SWAP1 SWAP3 AND SWAP3 DUP4 SWAP2 PUSH32 0x8BE0079C531659141344CD1FD0A4F28419497F9722A3DAAFE3B4186F6B6457E0 SWAP2 SWAP1 LOG3 POP POP JUMP JUMPDEST DUP1 MLOAD PUSH1 0x1 PUSH1 0x1 PUSH1 0xA0 SHL SUB DUP2 AND DUP2 EQ PUSH3 0x326 JUMPI PUSH1 0x0 DUP1 REVERT JUMPDEST SWAP2 SWAP1 POP JUMP JUMPDEST PUSH1 0x0 DUP1 PUSH1 0x0 DUP1 PUSH1 0x0 DUP1 PUSH1 0x0 DUP1 PUSH2 0x100 DUP10 DUP12 SUB SLT ISZERO PUSH3 0x349 JUMPI PUSH1 0x0 DUP1 REVERT JUMPDEST PUSH3 0x354 DUP10 PUSH3 0x30E JUMP JUMPDEST SWAP8 POP PUSH3 0x364 PUSH1 0x20 DUP11 ADD PUSH3 0x30E JUMP JUMPDEST SWAP7 POP PUSH3 0x374 PUSH1 0x40 DUP11 ADD PUSH3 0x30E JUMP JUMPDEST SWAP6 POP PUSH1 0x60 DUP10 ADD MLOAD SWAP5 POP PUSH1 0x80 DUP10 ADD MLOAD SWAP4 POP PUSH1 0xA0 DUP10 ADD MLOAD SWAP3 POP PUSH1 0xC0 DUP10 ADD MLOAD SWAP2 POP PUSH1 0xE0 DUP10 ADD MLOAD SWAP1 POP SWAP3 SWAP6 SWAP9 POP SWAP3 SWAP6 SWAP9 SWAP1 SWAP4 SWAP7 POP JUMP JUMPDEST PUSH2 0x11D5 DUP1 PUSH3 0x3B6 PUSH1 0x0 CODECOPY PUSH1 0x0 RETURN INVALID PUSH1 0x80 PUSH1 0x40 MSTORE CALLVALUE DUP1 ISZERO PUSH2 0x10 JUMPI PUSH1 0x0 DUP1 REVERT JUMPDEST POP PUSH1 0x4 CALLDATASIZE LT PUSH2 0x1DA JUMPI PUSH1 0x0 CALLDATALOAD PUSH1 0xE0 SHR DUP1 PUSH4 0x7EC897CD GT PUSH2 0x104 JUMPI DUP1 PUSH4 0xA32BF597 GT PUSH2 0xA2 JUMPI DUP1 PUSH4 0xEACCAAE1 GT PUSH2 0x71 JUMPI DUP1 PUSH4 0xEACCAAE1 EQ PUSH2 0x472 JUMPI DUP1 PUSH4 0xF0EB737A EQ PUSH2 0x47B JUMPI DUP1 PUSH4 0xF2FDE38B EQ PUSH2 0x483 JUMPI DUP1 PUSH4 0xFDB20CCB EQ PUSH2 0x496 JUMPI PUSH1 0x0 DUP1 REVERT JUMPDEST DUP1 PUSH4 0xA32BF597 EQ PUSH2 0x40C JUMPI DUP1 PUSH4 0xD06F518B EQ PUSH2 0x421 JUMPI DUP1 PUSH4 0xD1C17E38 EQ PUSH2 0x44C JUMPI DUP1 PUSH4 0xE8BA4B0F EQ PUSH2 0x45F JUMPI PUSH1 0x0 DUP1 REVERT JUMPDEST DUP1 PUSH4 0x8DA5CB5B GT PUSH2 0xDE JUMPI DUP1 PUSH4 0x8DA5CB5B EQ PUSH2 0x3AA JUMPI DUP1 PUSH4 0x9940686E EQ PUSH2 0x3BB JUMPI DUP1 PUSH4 0x9CBE5EFD EQ PUSH2 0x3CE JUMPI DUP1 PUSH4 0x9F829063 EQ PUSH2 0x3D7 JUMPI PUSH1 0x0 DUP1 REVERT JUMPDEST DUP1 PUSH4 0x7EC897CD EQ PUSH2 0x2E6 JUMPI DUP1 PUSH4 0x8C65C81F EQ PUSH2 0x2EF JUMPI DUP1 PUSH4 0x8CF407DD EQ PUSH2 0x3A1 JUMPI PUSH1 0x0 DUP1 REVERT JUMPDEST DUP1 PUSH4 0x4A4FBEEC GT PUSH2 0x17C JUMPI DUP1 PUSH4 0x61025060 GT PUSH2 0x14B JUMPI DUP1 PUSH4 0x61025060 EQ PUSH2 0x2B9 JUMPI DUP1 PUSH4 0x61D027B3 EQ PUSH2 0x2C2 JUMPI DUP1 PUSH4 0x715018A6 EQ PUSH2 0x2D5 JUMPI DUP1 PUSH4 0x7313EE5A EQ PUSH2 0x2DD JUMPI PUSH1 0x0 DUP1 REVERT JUMPDEST DUP1 PUSH4 0x4A4FBEEC EQ PUSH2 0x267 JUMPI DUP1 PUSH4 0x4CABB824 EQ PUSH2 0x28A JUMPI DUP1 PUSH4 0x4CDAA354 EQ PUSH2 0x29D JUMPI DUP1 PUSH4 0x58950C22 EQ PUSH2 0x2B0 JUMPI PUSH1 0x0 DUP1 REVERT JUMPDEST DUP1 PUSH4 0x3E84D3C5 GT PUSH2 0x1B8 JUMPI DUP1 PUSH4 0x3E84D3C5 EQ PUSH2 0x23A JUMPI DUP1 PUSH4 0x40BEE0ED EQ PUSH2 0x242 JUMPI DUP1 PUSH4 0x44D96E95 EQ PUSH2 0x255 JUMPI DUP1 PUSH4 0x473357F1 EQ PUSH2 0x25E JUMPI PUSH1 0x0 DUP1 REVERT JUMPDEST DUP1 PUSH4 0xB8F760B EQ PUSH2 0x1DF JUMPI DUP1 PUSH4 0x36FB2CF5 EQ PUSH2 0x1F4 JUMPI DUP1 PUSH4 0x3E413BEE EQ PUSH2 0x20F JUMPI JUMPDEST PUSH1 0x0 DUP1 REVERT JUMPDEST PUSH2 0x1F2 PUSH2 0x1ED CALLDATASIZE PUSH1 0x4 PUSH2 0xFE2 JUMP JUMPDEST PUSH2 0x4E0 JUMP JUMPDEST STOP JUMPDEST PUSH2 0x1FC PUSH2 0x5C9 JUMP JUMPDEST PUSH1 0x40 MLOAD SWAP1 DUP2 MSTORE PUSH1 0x20 ADD JUMPDEST PUSH1 0x40 MLOAD DUP1 SWAP2 SUB SWAP1 RETURN JUMPDEST PUSH1 0x2 SLOAD PUSH2 0x222 SWAP1 PUSH1 0x1 PUSH1 0x1 PUSH1 0xA0 SHL SUB AND DUP2 JUMP JUMPDEST PUSH1 0x40 MLOAD PUSH1 0x1 PUSH1 0x1 PUSH1 0xA0 SHL SUB SWAP1 SWAP2 AND DUP2 MSTORE PUSH1 0x20 ADD PUSH2 0x206 JUMP JUMPDEST PUSH2 0x1F2 PUSH2 0x5E0 JUMP JUMPDEST PUSH2 0x1F2 PUSH2 0x250 CALLDATASIZE PUSH1 0x4 PUSH2 0xFE2 JUMP JUMPDEST PUSH2 0x620 JUMP JUMPDEST PUSH2 0x1FC PUSH1 0xD SLOAD DUP2 JUMP JUMPDEST PUSH2 0x1FC PUSH1 0x7 SLOAD DUP2 JUMP JUMPDEST PUSH2 0x27A PUSH2 0x275 CALLDATASIZE PUSH1 0x4 PUSH2 0x1017 JUMP JUMPDEST PUSH2 0x684 JUMP JUMPDEST PUSH1 0x40 MLOAD SWAP1 ISZERO ISZERO DUP2 MSTORE PUSH1 0x20 ADD PUSH2 0x206 JUMP JUMPDEST PUSH2 0x1FC PUSH2 0x298 CALLDATASIZE PUSH1 0x4 PUSH2 0xFE2 JUMP JUMPDEST PUSH2 0x6E4 JUMP JUMPDEST PUSH2 0x1F2 PUSH2 0x2AB CALLDATASIZE PUSH1 0x4 PUSH2 0x1017 JUMP JUMPDEST PUSH2 0x6FB JUMP JUMPDEST PUSH2 0x1FC PUSH1 0x9 SLOAD DUP2 JUMP JUMPDEST PUSH2 0x1FC PUSH1 0x8 SLOAD DUP2 JUMP JUMPDEST PUSH1 0x3 SLOAD PUSH2 0x222 SWAP1 PUSH1 0x1 PUSH1 0x1 PUSH1 0xA0 SHL SUB AND DUP2 JUMP JUMPDEST PUSH2 0x1F2 PUSH2 0x779 JUMP JUMPDEST PUSH2 0x1FC PUSH1 0xA SLOAD DUP2 JUMP JUMPDEST PUSH2 0x1FC PUSH1 0x6 SLOAD DUP2 JUMP JUMPDEST PUSH2 0x355 PUSH2 0x2FD CALLDATASIZE PUSH1 0x4 PUSH2 0xFE2 JUMP JUMPDEST PUSH1 0x5 PUSH1 0x20 DUP2 SWAP1 MSTORE PUSH1 0x0 SWAP2 DUP3 MSTORE PUSH1 0x40 SWAP1 SWAP2 KECCAK256 DUP1 SLOAD PUSH1 0x1 DUP3 ADD SLOAD PUSH1 0x2 DUP4 ADD SLOAD PUSH1 0x3 DUP5 ADD SLOAD PUSH1 0x4 DUP6 ADD SLOAD SWAP6 DUP6 ADD SLOAD PUSH1 0x6 DUP7 ADD SLOAD PUSH1 0x7 DUP8 ADD SLOAD PUSH1 0x8 DUP9 ADD SLOAD PUSH1 0x9 SWAP1 SWAP9 ADD SLOAD SWAP7 SWAP9 SWAP6 SWAP8 SWAP5 SWAP7 SWAP4 SWAP6 SWAP5 SWAP3 SWAP4 SWAP2 SWAP3 SWAP1 SWAP2 PUSH1 0xFF SWAP1 SWAP2 AND SWAP1 DUP11 JUMP JUMPDEST PUSH1 0x40 DUP1 MLOAD SWAP11 DUP12 MSTORE PUSH1 0x20 DUP12 ADD SWAP10 SWAP1 SWAP10 MSTORE SWAP8 DUP10 ADD SWAP7 SWAP1 SWAP7 MSTORE PUSH1 0x60 DUP9 ADD SWAP5 SWAP1 SWAP5 MSTORE PUSH1 0x80 DUP8 ADD SWAP3 SWAP1 SWAP3 MSTORE PUSH1 0xA0 DUP7 ADD MSTORE PUSH1 0xC0 DUP6 ADD MSTORE PUSH1 0xE0 DUP5 ADD MSTORE ISZERO ISZERO PUSH2 0x100 DUP4 ADD MSTORE PUSH2 0x120 DUP3 ADD MSTORE PUSH2 0x140 ADD PUSH2 0x206 JUMP JUMPDEST PUSH2 0x1FC PUSH1 0xB SLOAD DUP2 JUMP JUMPDEST PUSH1 0x0 SLOAD PUSH1 0x1 PUSH1 0x1 PUSH1 0xA0 SHL SUB AND PUSH2 0x222 JUMP JUMPDEST PUSH2 0x1F2 PUSH2 0x3C9 CALLDATASIZE PUSH1 0x4 PUSH2 0xFE2 JUMP JUMPDEST PUSH2 0x78D JUMP JUMPDEST PUSH2 0x1FC PUSH1 0x4 SLOAD DUP2 JUMP JUMPDEST PUSH2 0x3EA PUSH2 0x3E5 CALLDATASIZE PUSH1 0x4 PUSH2 0x1017 JUMP JUMPDEST PUSH2 0xA16 JUMP JUMPDEST PUSH1 0x40 DUP1 MLOAD DUP3 MLOAD DUP2 MSTORE PUSH1 0x20 DUP1 DUP5 ADD MLOAD SWAP1 DUP3 ADD MSTORE SWAP2 DUP2 ADD MLOAD SWAP1 DUP3 ADD MSTORE PUSH1 0x60 ADD PUSH2 0x206 JUMP JUMPDEST PUSH2 0x414 PUSH2 0xA7C JUMP JUMPDEST PUSH1 0x40 MLOAD PUSH2 0x206 SWAP2 SWAP1 PUSH2 0x1032 JUMP JUMPDEST PUSH2 0x1FC PUSH2 0x42F CALLDATASIZE PUSH1 0x4 PUSH2 0x10AA JUMP JUMPDEST PUSH1 0xE PUSH1 0x20 SWAP1 DUP2 MSTORE PUSH1 0x0 SWAP3 DUP4 MSTORE PUSH1 0x40 DUP1 DUP5 KECCAK256 SWAP1 SWAP2 MSTORE SWAP1 DUP3 MSTORE SWAP1 KECCAK256 SLOAD DUP2 JUMP JUMPDEST PUSH1 0x1 SLOAD PUSH2 0x222 SWAP1 PUSH1 0x1 PUSH1 0x1 PUSH1 0xA0 SHL SUB AND DUP2 JUMP JUMPDEST PUSH2 0x1F2 PUSH2 0x46D CALLDATASIZE PUSH1 0x4 PUSH2 0x10D6 JUMP JUMPDEST PUSH2 0xB5C JUMP JUMPDEST PUSH2 0x1FC PUSH1 0xC SLOAD DUP2 JUMP JUMPDEST PUSH2 0x1FC PUSH2 0xD13 JUMP JUMPDEST PUSH2 0x1F2 PUSH2 0x491 CALLDATASIZE PUSH1 0x4 PUSH2 0x1017 JUMP JUMPDEST PUSH2 0xD81 JUMP JUMPDEST PUSH2 0x4C5 PUSH2 0x4A4 CALLDATASIZE PUSH1 0x4 PUSH2 0x1017 JUMP JUMPDEST PUSH1 0xF PUSH1 0x20 MSTORE PUSH1 0x0 SWAP1 DUP2 MSTORE PUSH1 0x40 SWAP1 KECCAK256 DUP1 SLOAD PUSH1 0x1 DUP3 ADD SLOAD PUSH1 0x2 SWAP1 SWAP3 ADD SLOAD SWAP1 SWAP2 SWAP1 DUP4 JUMP JUMPDEST PUSH1 0x40 DUP1 MLOAD SWAP4 DUP5 MSTORE PUSH1 0x20 DUP5 ADD SWAP3 SWAP1 SWAP3 MSTORE SWAP1 DUP3 ADD MSTORE PUSH1 0x60 ADD PUSH2 0x206 JUMP JUMPDEST PUSH2 0x4E8 PUSH2 0xDC4 JUMP JUMPDEST PUSH1 0x4 SLOAD PUSH1 0x0 SWAP1 DUP2 MSTORE PUSH1 0x5 PUSH1 0x20 MSTORE PUSH1 0x40 SWAP1 KECCAK256 PUSH1 0x8 DUP2 ADD SLOAD PUSH1 0xFF AND PUSH2 0x51E JUMPI PUSH1 0x40 MLOAD PUSH4 0xB885DFEF PUSH1 0xE0 SHL DUP2 MSTORE PUSH1 0x4 ADD PUSH1 0x40 MLOAD DUP1 SWAP2 SUB SWAP1 REVERT JUMPDEST DUP2 PUSH1 0x0 SUB PUSH2 0x53F JUMPI PUSH1 0x40 MLOAD PUSH4 0xD3590A83 PUSH1 0xE0 SHL DUP2 MSTORE PUSH1 0x4 ADD PUSH1 0x40 MLOAD DUP1 SWAP2 SUB SWAP1 REVERT JUMPDEST PUSH1 0x1 SLOAD PUSH2 0x557 SWAP1 PUSH1 0x1 PUSH1 0x1 PUSH1 0xA0 SHL SUB AND CALLER ADDRESS DUP6 PUSH2 0xDF1 JUMP JUMPDEST DUP2 PUSH1 0xB PUSH1 0x0 DUP3 DUP3 SLOAD PUSH2 0x569 SWAP2 SWAP1 PUSH2 0x1127 JUMP JUMPDEST SWAP3 POP POP DUP2 SWAP1 SSTORE POP DUP2 DUP2 PUSH1 0x6 ADD PUSH1 0x0 DUP3 DUP3 SLOAD PUSH2 0x584 SWAP2 SWAP1 PUSH2 0x1127 JUMP JUMPDEST SWAP1 SWAP2 SSTORE POP POP PUSH1 0x4 SLOAD PUSH1 0x40 DUP1 MLOAD SWAP2 DUP3 MSTORE PUSH1 0x20 DUP3 ADD DUP5 SWAP1 MSTORE PUSH32 0x7CDD16D98681F4D22957409604A564EF1D8CD2B0D5CC5235D444451F03324B13 SWAP2 ADD PUSH1 0x40 MLOAD DUP1 SWAP2 SUB SWAP1 LOG1 POP POP JUMP JUMPDEST PUSH1 0x0 PUSH1 0xC SLOAD PUSH1 0xB SLOAD PUSH2 0x5DB SWAP2 SWAP1 PUSH2 0x113A JUMP JUMPDEST SWAP1 POP SWAP1 JUMP JUMPDEST PUSH2 0x5E8 PUSH2 0xDC4 JUMP JUMPDEST PUSH1 0x40 MLOAD PUSH1 0x0 DUP1 DUP3 MSTORE SWAP1 PUSH32 0xB8797AB767FF1517F7C915DDD7C9A79AE5609FC876C2D87F2B2B545475642A1A SWAP1 PUSH1 0x20 ADD PUSH1 0x40 MLOAD DUP1 SWAP2 SUB SWAP1 LOG2 JUMP JUMPDEST PUSH2 0x628 PUSH2 0xDC4 JUMP JUMPDEST DUP1 PUSH1 0x0 SUB PUSH2 0x649 JUMPI PUSH1 0x40 MLOAD PUSH4 0x1B3CC90F PUSH1 0xE0 SHL DUP2 MSTORE PUSH1 0x4 ADD PUSH1 0x40 MLOAD DUP1 SWAP2 SUB SWAP1 REVERT JUMPDEST PUSH1 0xA DUP2 SWAP1 SSTORE PUSH1 0x40 MLOAD DUP2 DUP2 MSTORE PUSH32 0xC21CB0F112058F1EB0E3313A577DFC27E6BE5B39127591E05245343A422E4915 SWAP1 PUSH1 0x20 ADD PUSH1 0x40 MLOAD DUP1 SWAP2 SUB SWAP1 LOG1 POP JUMP JUMPDEST PUSH1 0x1 PUSH1 0x1 PUSH1 0xA0 SHL SUB DUP2 AND PUSH1 0x0 SWAP1 DUP2 MSTORE PUSH1 0xF PUSH1 0x20 SWAP1 DUP2 MSTORE PUSH1 0x40 DUP1 DUP4 KECCAK256 DUP2 MLOAD PUSH1 0x60 DUP2 ADD DUP4 MSTORE DUP2 SLOAD DUP1 DUP3 MSTORE PUSH1 0x1 DUP4 ADD SLOAD SWAP5 DUP3 ADD SWAP5 SWAP1 SWAP5 MSTORE PUSH1 0x2 SWAP1 SWAP2 ADD SLOAD SWAP2 DUP2 ADD SWAP2 SWAP1 SWAP2 MSTORE SWAP1 ISZERO DUP1 ISZERO SWAP1 PUSH2 0x6DD JUMPI POP PUSH2 0x6DD TIMESTAMP DUP3 PUSH1 0x40 ADD MLOAD PUSH2 0xE5E JUMP JUMPDEST SWAP4 SWAP3 POP POP POP JUMP JUMPDEST PUSH1 0x0 DUP1 PUSH2 0x6EF PUSH2 0xD13 JUMP JUMPDEST SWAP1 POP PUSH2 0x6DD DUP4 DUP3 PUSH2 0xE68 JUMP JUMPDEST PUSH2 0x703 PUSH2 0xDC4 JUMP JUMPDEST PUSH1 0x1 PUSH1 0x1 PUSH1 0xA0 SHL SUB DUP2 AND PUSH1 0x0 SWAP1 DUP2 MSTORE PUSH1 0xF PUSH1 0x20 MSTORE PUSH1 0x40 SWAP1 KECCAK256 DUP1 SLOAD ISZERO PUSH2 0x775 JUMPI DUP1 SLOAD PUSH1 0x0 DUP1 DUP4 SSTORE PUSH1 0x1 DUP4 ADD DUP2 SWAP1 SSTORE PUSH1 0x2 DUP4 ADD SSTORE PUSH1 0x40 MLOAD DUP2 DUP2 MSTORE PUSH1 0x1 PUSH1 0x1 PUSH1 0xA0 SHL SUB DUP5 AND SWAP1 PUSH32 0xB8797AB767FF1517F7C915DDD7C9A79AE5609FC876C2D87F2B2B545475642A1A SWAP1 PUSH1 0x20 ADD PUSH1 0x40 MLOAD DUP1 SWAP2 SUB SWAP1 LOG2 POP JUMPDEST POP POP JUMP JUMPDEST PUSH2 0x781 PUSH2 0xDC4 JUMP JUMPDEST PUSH2 0x78B PUSH1 0x0 PUSH2 0xEEB JUMP JUMPDEST JUMP JUMPDEST DUP1 PUSH1 0x0 SUB PUSH2 0x7AE JUMPI PUSH1 0x40 MLOAD PUSH4 0xD3590A83 PUSH1 0xE0 SHL DUP2 MSTORE PUSH1 0x4 ADD PUSH1 0x40 MLOAD DUP1 SWAP2 SUB SWAP1 REVERT JUMPDEST PUSH1 0x4 SLOAD PUSH1 0x0 SWAP1 DUP2 MSTORE PUSH1 0x5 PUSH1 0x20 MSTORE PUSH1 0x40 SWAP1 KECCAK256 PUSH1 0x8 DUP2 ADD SLOAD PUSH1 0xFF AND PUSH2 0x7E4 JUMPI PUSH1 0x40 MLOAD PUSH4 0xB885DFEF PUSH1 0xE0 SHL DUP2 MSTORE PUSH1 0x4 ADD PUSH1 0x40 MLOAD DUP1 SWAP2 SUB SWAP1 REVERT JUMPDEST PUSH1 0xB SLOAD DUP3 PUSH1 0xC SLOAD PUSH2 0x7F5 SWAP2 SWAP1 PUSH2 0x1127 JUMP JUMPDEST GT ISZERO PUSH2 0x814 JUMPI PUSH1 0x40 MLOAD PUSH4 0x437D78F5 PUSH1 0xE0 SHL DUP2 MSTORE PUSH1 0x4 ADD PUSH1 0x40 MLOAD DUP1 SWAP2 SUB SWAP1 REVERT JUMPDEST PUSH1 0x0 PUSH2 0x81E PUSH2 0xD13 JUMP JUMPDEST SWAP1 POP PUSH1 0x0 PUSH2 0x82C DUP5 DUP4 PUSH2 0xE68 JUMP JUMPDEST PUSH1 0x9 SLOAD PUSH1 0x4 SLOAD PUSH1 0x0 SWAP1 DUP2 MSTORE PUSH1 0xE PUSH1 0x20 SWAP1 DUP2 MSTORE PUSH1 0x40 DUP1 DUP4 KECCAK256 CALLER DUP5 MSTORE SWAP1 SWAP2 MSTORE SWAP1 KECCAK256 SLOAD SWAP2 SWAP3 POP SWAP1 PUSH2 0x85B SWAP1 DUP4 SWAP1 PUSH2 0x1127 JUMP JUMPDEST GT ISZERO PUSH2 0x87A JUMPI PUSH1 0x40 MLOAD PUSH4 0x75284BDB PUSH1 0xE0 SHL DUP2 MSTORE PUSH1 0x4 ADD PUSH1 0x40 MLOAD DUP1 SWAP2 SUB SWAP1 REVERT JUMPDEST PUSH1 0x3 SLOAD PUSH1 0x2 SLOAD PUSH2 0x899 SWAP2 PUSH1 0x1 PUSH1 0x1 PUSH1 0xA0 SHL SUB SWAP2 DUP3 AND SWAP2 CALLER SWAP2 AND DUP5 PUSH2 0xDF1 JUMP JUMPDEST PUSH1 0x1 SLOAD PUSH2 0x8B0 SWAP1 PUSH1 0x1 PUSH1 0x1 PUSH1 0xA0 SHL SUB AND CALLER DUP7 PUSH2 0xF3B JUMP JUMPDEST DUP1 PUSH1 0xD PUSH1 0x0 DUP3 DUP3 SLOAD PUSH2 0x8C2 SWAP2 SWAP1 PUSH2 0x1127 JUMP JUMPDEST SWAP3 POP POP DUP2 SWAP1 SSTORE POP DUP1 DUP4 PUSH1 0x9 ADD PUSH1 0x0 DUP3 DUP3 SLOAD PUSH2 0x8DD SWAP2 SWAP1 PUSH2 0x1127 JUMP JUMPDEST SWAP3 POP POP DUP2 SWAP1 SSTORE POP DUP4 DUP4 PUSH1 0x7 ADD PUSH1 0x0 DUP3 DUP3 SLOAD PUSH2 0x8F8 SWAP2 SWAP1 PUSH2 0x1127 JUMP JUMPDEST SWAP3 POP POP DUP2 SWAP1 SSTORE POP DUP4 PUSH1 0xC PUSH1 0x0 DUP3 DUP3 SLOAD PUSH2 0x911 SWAP2 SWAP1 PUSH2 0x1127 JUMP JUMPDEST SWAP1 SWAP2 SSTORE POP POP PUSH1 0x4 SLOAD PUSH1 0x0 SWAP1 DUP2 MSTORE PUSH1 0xE PUSH1 0x20 SWAP1 DUP2 MSTORE PUSH1 0x40 DUP1 DUP4 KECCAK256 CALLER DUP5 MSTORE SWAP1 SWAP2 MSTORE DUP2 KECCAK256 DUP1 SLOAD DUP4 SWAP3 SWAP1 PUSH2 0x942 SWAP1 DUP5 SWAP1 PUSH2 0x1127 JUMP JUMPDEST SWAP1 SWAP2 SSTORE POP POP PUSH1 0xA SLOAD TIMESTAMP SWAP1 PUSH1 0x0 SWAP1 PUSH2 0x959 SWAP1 DUP4 PUSH2 0x1127 JUMP JUMPDEST PUSH1 0x40 DUP1 MLOAD PUSH1 0x60 DUP2 ADD DUP3 MSTORE DUP9 DUP2 MSTORE PUSH1 0x20 DUP1 DUP3 ADD DUP7 DUP2 MSTORE DUP3 DUP5 ADD DUP6 DUP2 MSTORE CALLER PUSH1 0x0 DUP2 DUP2 MSTORE PUSH1 0xF DUP6 MSTORE DUP7 SWAP1 KECCAK256 SWAP5 MLOAD DUP6 SSTORE SWAP2 MLOAD PUSH1 0x1 DUP6 ADD SSTORE MLOAD PUSH1 0x2 SWAP1 SWAP4 ADD SWAP3 SWAP1 SWAP3 SSTORE SWAP2 MLOAD DUP7 DUP2 MSTORE SWAP3 SWAP4 POP SWAP2 PUSH32 0xD0A009034E24A39106653C4903CF28B1947B8A9964D03206648E0F0A5DE74A46 SWAP2 ADD PUSH1 0x40 MLOAD DUP1 SWAP2 SUB SWAP1 LOG2 PUSH1 0x40 DUP1 MLOAD DUP8 DUP2 MSTORE PUSH1 0x20 DUP2 ADD DUP5 SWAP1 MSTORE SWAP1 DUP2 ADD DUP3 SWAP1 MSTORE CALLER SWAP1 PUSH32 0x892F1A841B10E4B041CC41D8CC47C6A6049F1FF5FA272DDF47A0AA5AD8F59D13 SWAP1 PUSH1 0x60 ADD JUMPDEST PUSH1 0x40 MLOAD DUP1 SWAP2 SUB SWAP1 LOG2 POP POP POP POP POP POP JUMP JUMPDEST PUSH2 0xA3A PUSH1 0x40 MLOAD DUP1 PUSH1 0x60 ADD PUSH1 0x40 MSTORE DUP1 PUSH1 0x0 DUP2 MSTORE PUSH1 0x20 ADD PUSH1 0x0 DUP2 MSTORE PUSH1 0x20 ADD PUSH1 0x0 DUP2 MSTORE POP SWAP1 JUMP JUMPDEST POP PUSH1 0x1 PUSH1 0x1 PUSH1 0xA0 SHL SUB AND PUSH1 0x0 SWAP1 DUP2 MSTORE PUSH1 0xF PUSH1 0x20 SWAP1 DUP2 MSTORE PUSH1 0x40 SWAP2 DUP3 SWAP1 KECCAK256 DUP3 MLOAD PUSH1 0x60 DUP2 ADD DUP5 MSTORE DUP2 SLOAD DUP2 MSTORE PUSH1 0x1 DUP3 ADD SLOAD SWAP3 DUP2 ADD SWAP3 SWAP1 SWAP3 MSTORE PUSH1 0x2 ADD SLOAD SWAP2 DUP2 ADD SWAP2 SWAP1 SWAP2 MSTORE SWAP1 JUMP JUMPDEST PUSH2 0xAD4 PUSH1 0x40 MLOAD DUP1 PUSH2 0x140 ADD PUSH1 0x40 MSTORE DUP1 PUSH1 0x0 DUP2 MSTORE PUSH1 0x20 ADD PUSH1 0x0 DUP2 MSTORE PUSH1 0x20 ADD PUSH1 0x0 DUP2 MSTORE PUSH1 0x20 ADD PUSH1 0x0 DUP2 MSTORE PUSH1 0x20 ADD PUSH1 0x0 DUP2 MSTORE PUSH1 0x20 ADD PUSH1 0x0 DUP2 MSTORE PUSH1 0x20 ADD PUSH1 0x0 DUP2 MSTORE PUSH1 0x20 ADD PUSH1 0x0 DUP2 MSTORE PUSH1 0x20 ADD PUSH1 0x0 ISZERO ISZERO DUP2 MSTORE PUSH1 0x20 ADD PUSH1 0x0 DUP2 MSTORE POP SWAP1 JUMP JUMPDEST POP PUSH1 0x4 DUP1 SLOAD PUSH1 0x0 SWAP1 DUP2 MSTORE PUSH1 0x5 PUSH1 0x20 DUP2 DUP2 MSTORE PUSH1 0x40 SWAP3 DUP4 SWAP1 KECCAK256 DUP4 MLOAD PUSH2 0x140 DUP2 ADD DUP6 MSTORE DUP2 SLOAD DUP2 MSTORE PUSH1 0x1 DUP3 ADD SLOAD SWAP3 DUP2 ADD SWAP3 SWAP1 SWAP3 MSTORE PUSH1 0x2 DUP2 ADD SLOAD SWAP4 DUP3 ADD SWAP4 SWAP1 SWAP4 MSTORE PUSH1 0x3 DUP4 ADD SLOAD PUSH1 0x60 DUP3 ADD MSTORE SWAP3 DUP3 ADD SLOAD PUSH1 0x80 DUP5 ADD MSTORE DUP2 ADD SLOAD PUSH1 0xA0 DUP4 ADD MSTORE PUSH1 0x6 DUP2 ADD SLOAD PUSH1 0xC0 DUP4 ADD MSTORE PUSH1 0x7 DUP2 ADD SLOAD PUSH1 0xE0 DUP4 ADD MSTORE PUSH1 0x8 DUP2 ADD SLOAD PUSH1 0xFF AND ISZERO ISZERO PUSH2 0x100 DUP4 ADD MSTORE PUSH1 0x9 ADD SLOAD PUSH2 0x120 DUP3 ADD MSTORE SWAP1 JUMP JUMPDEST PUSH2 0xB64 PUSH2 0xDC4 JUMP JUMPDEST DUP1 PUSH1 0x0 SUB PUSH2 0xB85 JUMPI PUSH1 0x40 MLOAD PUSH4 0x1B3CC90F PUSH1 0xE0 SHL DUP2 MSTORE PUSH1 0x4 ADD PUSH1 0x40 MLOAD DUP1 SWAP2 SUB SWAP1 REVERT JUMPDEST PUSH1 0x4 DUP1 SLOAD PUSH1 0x0 SWAP1 DUP2 MSTORE PUSH1 0x5 PUSH1 0x20 MSTORE PUSH1 0x40 DUP2 KECCAK256 PUSH1 0x8 DUP2 ADD DUP1 SLOAD PUSH1 0xFF NOT AND SWAP1 SSTORE DUP3 SLOAD SWAP1 SWAP3 SWAP1 SWAP2 PUSH2 0xBB2 DUP4 PUSH2 0x114D JUMP JUMPDEST SWAP2 SWAP1 POP SSTORE POP DUP6 PUSH1 0x6 DUP2 SWAP1 SSTORE POP DUP5 PUSH1 0x7 DUP2 SWAP1 SSTORE POP DUP4 PUSH1 0x8 DUP2 SWAP1 SSTORE POP DUP3 PUSH1 0x9 DUP2 SWAP1 SSTORE POP DUP2 PUSH1 0xA DUP2 SWAP1 SSTORE POP PUSH1 0x0 PUSH1 0xD DUP2 SWAP1 SSTORE POP PUSH1 0x0 PUSH1 0xC DUP2 SWAP1 SSTORE POP PUSH1 0x40 MLOAD DUP1 PUSH2 0x140 ADD PUSH1 0x40 MSTORE DUP1 PUSH1 0x4 SLOAD DUP2 MSTORE PUSH1 0x20 ADD DUP8 DUP2 MSTORE PUSH1 0x20 ADD DUP7 DUP2 MSTORE PUSH1 0x20 ADD DUP6 DUP2 MSTORE PUSH1 0x20 ADD DUP5 DUP2 MSTORE PUSH1 0x20 ADD DUP4 DUP2 MSTORE PUSH1 0x20 ADD PUSH1 0x0 DUP2 MSTORE PUSH1 0x20 ADD PUSH1 0x0 DUP2 MSTORE PUSH1 0x20 ADD PUSH1 0x1 ISZERO ISZERO DUP2 MSTORE PUSH1 0x20 ADD PUSH1 0x0 DUP2 MSTORE POP PUSH1 0x5 PUSH1 0x0 PUSH1 0x4 SLOAD DUP2 MSTORE PUSH1 0x20 ADD SWAP1 DUP2 MSTORE PUSH1 0x20 ADD PUSH1 0x0 KECCAK256 PUSH1 0x0 DUP3 ADD MLOAD DUP2 PUSH1 0x0 ADD SSTORE PUSH1 0x20 DUP3 ADD MLOAD DUP2 PUSH1 0x1 ADD SSTORE PUSH1 0x40 DUP3 ADD MLOAD DUP2 PUSH1 0x2 ADD SSTORE PUSH1 0x60 DUP3 ADD MLOAD DUP2 PUSH1 0x3 ADD SSTORE PUSH1 0x80 DUP3 ADD MLOAD DUP2 PUSH1 0x4 ADD SSTORE PUSH1 0xA0 DUP3 ADD MLOAD DUP2 PUSH1 0x5 ADD SSTORE PUSH1 0xC0 DUP3 ADD MLOAD DUP2 PUSH1 0x6 ADD SSTORE PUSH1 0xE0 DUP3 ADD MLOAD DUP2 PUSH1 0x7 ADD SSTORE PUSH2 0x100 DUP3 ADD MLOAD DUP2 PUSH1 0x8 ADD PUSH1 0x0 PUSH2 0x100 EXP DUP2 SLOAD DUP2 PUSH1 0xFF MUL NOT AND SWAP1 DUP4 ISZERO ISZERO MUL OR SWAP1 SSTORE POP PUSH2 0x120 DUP3 ADD MLOAD DUP2 PUSH1 0x9 ADD SSTORE SWAP1 POP POP PUSH1 0x4 SLOAD PUSH32 0xFD9D17E5565DEEA3D25918D95FC398673B9445EF0A96D12EAF3AB2B198756C65 DUP8 DUP8 DUP8 PUSH1 0x40 MLOAD PUSH2 0xA06 SWAP4 SWAP3 SWAP2 SWAP1 SWAP3 DUP4 MSTORE PUSH1 0x20 DUP4 ADD SWAP2 SWAP1 SWAP2 MSTORE PUSH1 0x40 DUP3 ADD MSTORE PUSH1 0x60 ADD SWAP1 JUMP JUMPDEST PUSH1 0x0 PUSH1 0x8 SLOAD PUSH1 0xD SLOAD LT PUSH2 0xD27 JUMPI POP PUSH1 0x7 SLOAD SWAP1 JUMP JUMPDEST PUSH1 0x0 PUSH1 0x8 SLOAD PUSH1 0xD SLOAD PUSH1 0x64 PUSH2 0xD3B SWAP2 SWAP1 PUSH2 0x1166 JUMP JUMPDEST PUSH2 0xD45 SWAP2 SWAP1 PUSH2 0x117D JUMP JUMPDEST SWAP1 POP PUSH1 0x64 DUP2 PUSH1 0x7 SLOAD PUSH1 0x6 SLOAD PUSH2 0xD5A SWAP2 SWAP1 PUSH2 0x113A JUMP JUMPDEST PUSH2 0xD64 SWAP2 SWAP1 PUSH2 0x1166 JUMP JUMPDEST PUSH2 0xD6E SWAP2 SWAP1 PUSH2 0x117D JUMP JUMPDEST PUSH1 0x6 SLOAD PUSH2 0xD7B SWAP2 SWAP1 PUSH2 0x113A JUMP JUMPDEST SWAP2 POP POP SWAP1 JUMP JUMPDEST PUSH2 0xD89 PUSH2 0xDC4 JUMP JUMPDEST PUSH1 0x1 PUSH1 0x1 PUSH1 0xA0 SHL SUB DUP2 AND PUSH2 0xDB8 JUMPI PUSH1 0x40 MLOAD PUSH4 0x1E4FBDF7 PUSH1 0xE0 SHL DUP2 MSTORE PUSH1 0x0 PUSH1 0x4 DUP3 ADD MSTORE PUSH1 0x24 ADD JUMPDEST PUSH1 0x40 MLOAD DUP1 SWAP2 SUB SWAP1 REVERT JUMPDEST PUSH2 0xDC1 DUP2 PUSH2 0xEEB JUMP JUMPDEST POP JUMP JUMPDEST PUSH1 0x0 SLOAD PUSH1 0x1 PUSH1 0x1 PUSH1 0xA0 SHL SUB AND CALLER EQ PUSH2 0x78B JUMPI PUSH1 0x40 MLOAD PUSH4 0x118CDAA7 PUSH1 0xE0 SHL DUP2 MSTORE CALLER PUSH1 0x4 DUP3 ADD MSTORE PUSH1 0x24 ADD PUSH2 0xDAF JUMP JUMPDEST PUSH1 0x40 MLOAD PUSH1 0x1 PUSH1 0x1 PUSH1 0xA0 SHL SUB DUP5 DUP2 AND PUSH1 0x24 DUP4 ADD MSTORE DUP4 DUP2 AND PUSH1 0x44 DUP4 ADD MSTORE PUSH1 0x64 DUP3 ADD DUP4 SWAP1 MSTORE PUSH2 0xE58 SWAP2 DUP7 SWAP2 DUP3 AND SWAP1 PUSH4 0x23B872DD SWAP1 PUSH1 0x84 ADD JUMPDEST PUSH1 0x40 MLOAD PUSH1 0x20 DUP2 DUP4 SUB SUB DUP2 MSTORE SWAP1 PUSH1 0x40 MSTORE SWAP2 POP PUSH1 0xE0 SHL PUSH1 0x20 DUP3 ADD DUP1 MLOAD PUSH1 0x1 PUSH1 0x1 PUSH1 0xE0 SHL SUB DUP4 DUP2 DUP4 AND OR DUP4 MSTORE POP POP POP POP PUSH2 0xF71 JUMP JUMPDEST POP POP POP POP JUMP JUMPDEST DUP1 DUP3 LT JUMPDEST SWAP3 SWAP2 POP POP JUMP JUMPDEST PUSH1 0x0 PUSH1 0x64 DUP3 GT ISZERO PUSH2 0xEBB JUMPI PUSH1 0x40 MLOAD PUSH3 0x461BCD PUSH1 0xE5 SHL DUP2 MSTORE PUSH1 0x20 PUSH1 0x4 DUP3 ADD MSTORE PUSH1 0x1B PUSH1 0x24 DUP3 ADD MSTORE PUSH32 0x446973636F756E742063616E6E6F742065786365656420313030250000000000 PUSH1 0x44 DUP3 ADD MSTORE PUSH1 0x64 ADD PUSH2 0xDAF JUMP JUMPDEST PUSH5 0xE8D4A51000 PUSH2 0xECC DUP4 PUSH1 0x64 PUSH2 0x1127 JUMP JUMPDEST PUSH2 0xED6 SWAP1 DUP6 PUSH2 0x117D JUMP JUMPDEST PUSH2 0xEE1 SWAP1 PUSH1 0x64 PUSH2 0x1166 JUMP JUMPDEST PUSH2 0x6DD SWAP2 SWAP1 PUSH2 0x117D JUMP JUMPDEST PUSH1 0x0 DUP1 SLOAD PUSH1 0x1 PUSH1 0x1 PUSH1 0xA0 SHL SUB DUP4 DUP2 AND PUSH1 0x1 PUSH1 0x1 PUSH1 0xA0 SHL SUB NOT DUP4 AND DUP2 OR DUP5 SSTORE PUSH1 0x40 MLOAD SWAP2 SWAP1 SWAP3 AND SWAP3 DUP4 SWAP2 PUSH32 0x8BE0079C531659141344CD1FD0A4F28419497F9722A3DAAFE3B4186F6B6457E0 SWAP2 SWAP1 LOG3 POP POP JUMP JUMPDEST PUSH1 0x40 MLOAD PUSH1 0x1 PUSH1 0x1 PUSH1 0xA0 SHL SUB DUP4 DUP2 AND PUSH1 0x24 DUP4 ADD MSTORE PUSH1 0x44 DUP3 ADD DUP4 SWAP1 MSTORE PUSH2 0xF6C SWAP2 DUP6 SWAP2 DUP3 AND SWAP1 PUSH4 0xA9059CBB SWAP1 PUSH1 0x64 ADD PUSH2 0xE26 JUMP JUMPDEST POP POP POP JUMP JUMPDEST PUSH1 0x0 DUP1 PUSH1 0x20 PUSH1 0x0 DUP5 MLOAD PUSH1 0x20 DUP7 ADD PUSH1 0x0 DUP9 GAS CALL DUP1 PUSH2 0xF94 JUMPI PUSH1 0x40 MLOAD RETURNDATASIZE PUSH1 0x0 DUP3 RETURNDATACOPY RETURNDATASIZE DUP2 REVERT JUMPDEST POP POP PUSH1 0x0 MLOAD RETURNDATASIZE SWAP2 POP DUP2 ISZERO PUSH2 0xFAC JUMPI DUP1 PUSH1 0x1 EQ ISZERO PUSH2 0xFB9 JUMP JUMPDEST PUSH1 0x1 PUSH1 0x1 PUSH1 0xA0 SHL SUB DUP5 AND EXTCODESIZE ISZERO JUMPDEST ISZERO PUSH2 0xE58 JUMPI PUSH1 0x40 MLOAD PUSH4 0x5274AFE7 PUSH1 0xE0 SHL DUP2 MSTORE PUSH1 0x1 PUSH1 0x1 PUSH1 0xA0 SHL SUB DUP6 AND PUSH1 0x4 DUP3 ADD MSTORE PUSH1 0x24 ADD PUSH2 0xDAF JUMP JUMPDEST PUSH1 0x0 PUSH1 0x20 DUP3 DUP5 SUB SLT ISZERO PUSH2 0xFF4 JUMPI PUSH1 0x0 DUP1 REVERT JUMPDEST POP CALLDATALOAD SWAP2 SWAP1 POP JUMP JUMPDEST DUP1 CALLDATALOAD PUSH1 0x1 PUSH1 0x1 PUSH1 0xA0 SHL SUB DUP2 AND DUP2 EQ PUSH2 0x1012 JUMPI PUSH1 0x0 DUP1 REVERT JUMPDEST SWAP2 SWAP1 POP JUMP JUMPDEST PUSH1 0x0 PUSH1 0x20 DUP3 DUP5 SUB SLT ISZERO PUSH2 0x1029 JUMPI PUSH1 0x0 DUP1 REVERT JUMPDEST PUSH2 0x6DD DUP3 PUSH2 0xFFB JUMP JUMPDEST PUSH1 0x0 PUSH2 0x140 DUP3 ADD SWAP1 POP DUP3 MLOAD DUP3 MSTORE PUSH1 0x20 DUP4 ADD MLOAD PUSH1 0x20 DUP4 ADD MSTORE PUSH1 0x40 DUP4 ADD MLOAD PUSH1 0x40 DUP4 ADD MSTORE PUSH1 0x60 DUP4 ADD MLOAD PUSH1 0x60 DUP4 ADD MSTORE PUSH1 0x80 DUP4 ADD MLOAD PUSH1 0x80 DUP4 ADD MSTORE PUSH1 0xA0 DUP4 ADD MLOAD PUSH1 0xA0 DUP4 ADD MSTORE PUSH1 0xC0 DUP4 ADD MLOAD PUSH1 0xC0 DUP4 ADD MSTORE PUSH1 0xE0 DUP4 ADD MLOAD PUSH1 0xE0 DUP4 ADD MSTORE PUSH2 0x100 DUP1 DUP5 ADD MLOAD PUSH2 0x1099 DUP3 DUP6 ADD DUP3 ISZERO ISZERO SWAP1 MSTORE JUMP JUMPDEST POP POP PUSH2 0x120 SWAP3 DUP4 ADD MLOAD SWAP2 SWAP1 SWAP3 ADD MSTORE SWAP1 JUMP JUMPDEST PUSH1 0x0 DUP1 PUSH1 0x40 DUP4 DUP6 SUB SLT ISZERO PUSH2 0x10BD JUMPI PUSH1 0x0 DUP1 REVERT JUMPDEST DUP3 CALLDATALOAD SWAP2 POP PUSH2 0x10CD PUSH1 0x20 DUP5 ADD PUSH2 0xFFB JUMP JUMPDEST SWAP1 POP SWAP3 POP SWAP3 SWAP1 POP JUMP JUMPDEST PUSH1 0x0 DUP1 PUSH1 0x0 DUP1 PUSH1 0x0 PUSH1 0xA0 DUP7 DUP9 SUB SLT ISZERO PUSH2 0x10EE JUMPI PUSH1 0x0 DUP1 REVERT JUMPDEST POP POP DUP4 CALLDATALOAD SWAP6 PUSH1 0x20 DUP6 ADD CALLDATALOAD SWAP6 POP PUSH1 0x40 DUP6 ADD CALLDATALOAD SWAP5 PUSH1 0x60 DUP2 ADD CALLDATALOAD SWAP5 POP PUSH1 0x80 ADD CALLDATALOAD SWAP3 POP SWAP1 POP JUMP JUMPDEST PUSH4 0x4E487B71 PUSH1 0xE0 SHL PUSH1 0x0 MSTORE PUSH1 0x11 PUSH1 0x4 MSTORE PUSH1 0x24 PUSH1 0x0 REVERT JUMPDEST DUP1 DUP3 ADD DUP1 DUP3 GT ISZERO PUSH2 0xE62 JUMPI PUSH2 0xE62 PUSH2 0x1111 JUMP JUMPDEST DUP2 DUP2 SUB DUP2 DUP2 GT ISZERO PUSH2 0xE62 JUMPI PUSH2 0xE62 PUSH2 0x1111 JUMP JUMPDEST PUSH1 0x0 PUSH1 0x1 DUP3 ADD PUSH2 0x115F JUMPI PUSH2 0x115F PUSH2 0x1111 JUMP JUMPDEST POP PUSH1 0x1 ADD SWAP1 JUMP JUMPDEST DUP1 DUP3 MUL DUP2 ISZERO DUP3 DUP3 DIV DUP5 EQ OR PUSH2 0xE62 JUMPI PUSH2 0xE62 PUSH2 0x1111 JUMP JUMPDEST PUSH1 0x0 DUP3 PUSH2 0x119A JUMPI PUSH4 0x4E487B71 PUSH1 0xE0 SHL PUSH1 0x0 MSTORE PUSH1 0x12 PUSH1 0x4 MSTORE PUSH1 0x24 PUSH1 0x0 REVERT JUMPDEST POP DIV SWAP1 JUMP INVALID LOG2 PUSH5 0x6970667358 0x22 SLT KECCAK256 0xF 0xB3 ORIGIN 0xEB DUP8 0x22 PUSH20 0x38DB023A2C512658FE735CD0CD003D983308FBA9 JUMP MLOAD PUSH0 0xE5 OR PUSH5 0x736F6C6343 STOP ADDMOD XOR STOP CALLER "},"methodIdentifiers":{"allocateFVC(uint256)":"0b8f760b","bond(uint256)":"9940686e","calculateUSDCAmount(uint256)":"4cabb824","currentRoundId()":"9cbe5efd","emergencyUnlockAllVesting()":"3e84d3c5","emergencyUnlockVesting(address)":"4cdaa354","epochCap()":"61025060","finalDiscount()":"473357f1","fvc()":"d1c17e38","fvcAllocated()":"8cf407dd","fvcSold()":"eaccaae1","getCurrentDiscount()":"f0eb737a","getCurrentRound()":"a32bf597","getRemainingFVC()":"36fb2cf5","getVestingSchedule(address)":"9f829063","initialDiscount()":"7ec897cd","isLocked(address)":"4a4fbeec","owner()":"8da5cb5b","renounceOwnership()":"715018a6","rounds(uint256)":"8c65c81f","setVestingPeriod(uint256)":"40bee0ed","startNewRound(uint256,uint256,uint256,uint256,uint256)":"e8ba4b0f","totalBonded()":"44d96e95","transferOwnership(address)":"f2fde38b","treasury()":"61d027b3","usdc()":"3e413bee","userBonded(uint256,address)":"d06f518b","vestingPeriod()":"7313ee5a","vestingSchedules(address)":"fdb20ccb","walletCap()":"58950c22"}},"storageLayout":{"storage":[{"astId":8,"contract":"src/BondingV2.sol:BondingV2","label":"_owner","offset":0,"slot":"0","type":"t_address"},{"astId":842,"contract":"src/BondingV2.sol:BondingV2","label":"fvc","offset":0,"slot":"1","type":"t_contract(IFVC)1712"},{"astId":846,"contract":"src/BondingV2.sol:BondingV2","label":"usdc","offset":0,"slot":"2","type":"t_contract(IERC20)315"},{"astId":849,"contract":"src/BondingV2.sol:BondingV2","label":"treasury","offset":0,"slot":"3","type":"t_address"},{"astId":852,"contract":"src/BondingV2.sol:BondingV2","label":"currentRoundId","offset":0,"slot":"4","type":"t_uint256"},{"astId":858,"contract":"src/BondingV2.sol:BondingV2","label":"rounds","offset":0,"slot":"5","type":"t_mapping(t_uint256,t_struct(RoundConfig)1580_storage)"},{"astId":861,"contract":"src/BondingV2.sol:BondingV2","label":"initialDiscount","offset":0,"slot":"6","type":"t_uint256"},{"astId":864,"contract":"src/BondingV2.sol:BondingV2","label":"finalDiscount","offset":0,"slot":"7","type":"t_uint256"},{"astId":867,"contract":"src/BondingV2.sol:BondingV2","label":"epochCap","offset":0,"slot":"8","type":"t_uint256"},{"astId":870,"contract":"src/BondingV2.sol:BondingV2","label":"walletCap","offset":0,"slot":"9","type":"t_uint256"},{"astId":873,"contract":"src/BondingV2.sol:BondingV2","label":"vestingPeriod","offset":0,"slot":"10","type":"t_uint256"},{"astId":876,"contract":"src/BondingV2.sol:BondingV2","label":"fvcAllocated","offset":0,"slot":"11","type":"t_uint256"},{"astId":879,"contract":"src/BondingV2.sol:BondingV2","label":"fvcSold","offset":0,"slot":"12","type":"t_uint256"},{"astId":882,"contract":"src/BondingV2.sol:BondingV2","label":"totalBonded","offset":0,"slot":"13","type":"t_uint256"},{"astId":889,"contract":"src/BondingV2.sol:BondingV2","label":"userBonded","offset":0,"slot":"14","type":"t_mapping(t_uint256,t_mapping(t_address,t_uint256))"},{"astId":895,"contract":"src/BondingV2.sol:BondingV2","label":"vestingSchedules","offset":0,"slot":"15","type":"t_mapping(t_address,t_struct(VestingSchedule)1558_storage)"}],"types":{"t_address":{"encoding":"inplace","label":"address","numberOfBytes":"20"},"t_bool":{"encoding":"inplace","label":"bool","numberOfBytes":"1"},"t_contract(IERC20)315":{"encoding":"inplace","label":"contract IERC20","numberOfBytes":"20"},"t_contract(IFVC)1712":{"encoding":"inplace","label":"contract IFVC","numberOfBytes":"20"},"t_mapping(t_address,t_struct(VestingSchedule)1558_storage)":{"encoding":"mapping","key":"t_address","label":"mapping(address => struct IBonding.VestingSchedule)","numberOfBytes":"32","value":"t_struct(VestingSchedule)1558_storage"},"t_mapping(t_address,t_uint256)":{"encoding":"mapping","key":"t_address","label":"mapping(address => uint256)","numberOfBytes":"32","value":"t_uint256"},"t_mapping(t_uint256,t_mapping(t_address,t_uint256))":{"encoding":"mapping","key":"t_uint256","label":"mapping(uint256 => mapping(address => uint256))","numberOfBytes":"32","value":"t_mapping(t_address,t_uint256)"},"t_mapping(t_uint256,t_struct(RoundConfig)1580_storage)":{"encoding":"mapping","key":"t_uint256","label":"mapping(uint256 => struct IBonding.RoundConfig)","numberOfBytes":"32","value":"t_struct(RoundConfig)1580_storage"},"t_struct(RoundConfig)1580_storage":{"encoding":"inplace","label":"struct IBonding.RoundConfig","members":[{"astId":1561,"contract":"src/BondingV2.sol:BondingV2","label":"roundId","offset":0,"slot":"0","type":"t_uint256"},{"astId":1563,"contract":"src/BondingV2.sol:BondingV2","label":"initialDiscount","offset":0,"slot":"1","type":"t_uint256"},{"astId":1565,"contract":"src/BondingV2.sol:BondingV2","label":"finalDiscount","offset":0,"slot":"2","type":"t_uint256"},{"astId":1567,"contract":"src/BondingV2.sol:BondingV2","label":"epochCap","offset":0,"slot":"3","type":"t_uint256"},{"astId":1569,"contract":"src/BondingV2.sol:BondingV2","label":"walletCap","offset":0,"slot":"4","type":"t_uint256"},{"astId":1571,"contract":"src/BondingV2.sol:BondingV2","label":"vestingPeriod","offset":0,"slot":"5","type":"t_uint256"},{"astId":1573,"contract":"src/BondingV2.sol:BondingV2","label":"fvcAllocated","offset":0,"slot":"6","type":"t_uint256"},{"astId":1575,"contract":"src/BondingV2.sol:BondingV2","label":"fvcSold","offset":0,"slot":"7","type":"t_uint256"},{"astId":1577,"contract":"src/BondingV2.sol:BondingV2","label":"isActive","offset":0,"slot":"8","type":"t_bool"},{"astId":1579,"contract":"src/BondingV2.sol:BondingV2","label":"totalBonded","offset":0,"slot":"9","type":"t_uint256"}],"numberOfBytes":"320"},"t_struct(VestingSchedule)1558_storage":{"encoding":"inplace","label":"struct IBonding.VestingSchedule","members":[{"astId":1553,"contract":"src/BondingV2.sol:BondingV2","label":"amount","offset":0,"slot":"0","type":"t_uint256"},{"astId":1555,"contract":"src/BondingV2.sol:BondingV2","label":"startTime","offset":0,"slot":"1","type":"t_uint256"},{"astId":1557,"contract":"src/BondingV2.sol:BondingV2","label":"endTime","offset":0,"slot":"2","type":"t_uint256"}],"numberOfBytes":"96"},"t_uint256":{"encoding":"inplace","label":"uint256","numberOfBytes":"32"}}}}}}