{
  "_format": "hh-sol-artifact-1",
  "contractName": "MockFVC",
  "sourceName": "src/mocks/MockFVC.sol",
  "abi": [
    {
      "inputs": [],
      "stateMutability": "nonpayable",
      "type": "constructor"
    },
    {
      "inputs": [],
      "name": "AccessControlBadConfirmation",
      "type": "error"
    },
    {
      "inputs": [
        {
          "internalType": "address",
          "name": "account",
          "type": "address"
        },
        {
          "internalType": "bytes32",
          "name": "neededRole",
          "type": "bytes32"
        }
      ],
      "name": "AccessControlUnauthorizedAccount",
      "type": "error"
    },
    {
      "inputs": [
        {
          "internalType": "address",
          "name": "spender",
          "type": "address"
        },
        {
          "internalType": "uint256",
          "name": "allowance",
          "type": "uint256"
        },
        {
          "internalType": "uint256",
          "name": "needed",
          "type": "uint256"
        }
      ],
      "name": "ERC20InsufficientAllowance",
      "type": "error"
    },
    {
      "inputs": [
        {
          "internalType": "address",
          "name": "sender",
          "type": "address"
        },
        {
          "internalType": "uint256",
          "name": "balance",
          "type": "uint256"
        },
        {
          "internalType": "uint256",
          "name": "needed",
          "type": "uint256"
        }
      ],
      "name": "ERC20InsufficientBalance",
      "type": "error"
    },
    {
      "inputs": [
        {
          "internalType": "address",
          "name": "approver",
          "type": "address"
        }
      ],
      "name": "ERC20InvalidApprover",
      "type": "error"
    },
    {
      "inputs": [
        {
          "internalType": "address",
          "name": "receiver",
          "type": "address"
        }
      ],
      "name": "ERC20InvalidReceiver",
      "type": "error"
    },
    {
      "inputs": [
        {
          "internalType": "address",
          "name": "sender",
          "type": "address"
        }
      ],
      "name": "ERC20InvalidSender",
      "type": "error"
    },
    {
      "inputs": [
        {
          "internalType": "address",
          "name": "spender",
          "type": "address"
        }
      ],
      "name": "ERC20InvalidSpender",
      "type": "error"
    },
    {
      "anonymous": false,
      "inputs": [
        {
          "indexed": true,
          "internalType": "address",
          "name": "owner",
          "type": "address"
        },
        {
          "indexed": true,
          "internalType": "address",
          "name": "spender",
          "type": "address"
        },
        {
          "indexed": false,
          "internalType": "uint256",
          "name": "value",
          "type": "uint256"
        }
      ],
      "name": "Approval",
      "type": "event"
    },
    {
      "anonymous": false,
      "inputs": [
        {
          "indexed": true,
          "internalType": "address",
          "name": "bondingContract",
          "type": "address"
        }
      ],
      "name": "BondingContractSet",
      "type": "event"
    },
    {
      "anonymous": false,
      "inputs": [
        {
          "indexed": true,
          "internalType": "bytes32",
          "name": "role",
          "type": "bytes32"
        },
        {
          "indexed": true,
          "internalType": "bytes32",
          "name": "previousAdminRole",
          "type": "bytes32"
        },
        {
          "indexed": true,
          "internalType": "bytes32",
          "name": "newAdminRole",
          "type": "bytes32"
        }
      ],
      "name": "RoleAdminChanged",
      "type": "event"
    },
    {
      "anonymous": false,
      "inputs": [
        {
          "indexed": true,
          "internalType": "bytes32",
          "name": "role",
          "type": "bytes32"
        },
        {
          "indexed": true,
          "internalType": "address",
          "name": "account",
          "type": "address"
        },
        {
          "indexed": true,
          "internalType": "address",
          "name": "sender",
          "type": "address"
        }
      ],
      "name": "RoleGranted",
      "type": "event"
    },
    {
      "anonymous": false,
      "inputs": [
        {
          "indexed": true,
          "internalType": "bytes32",
          "name": "role",
          "type": "bytes32"
        },
        {
          "indexed": true,
          "internalType": "address",
          "name": "account",
          "type": "address"
        },
        {
          "indexed": true,
          "internalType": "address",
          "name": "sender",
          "type": "address"
        }
      ],
      "name": "RoleRevoked",
      "type": "event"
    },
    {
      "anonymous": false,
      "inputs": [
        {
          "indexed": true,
          "internalType": "address",
          "name": "from",
          "type": "address"
        },
        {
          "indexed": true,
          "internalType": "address",
          "name": "to",
          "type": "address"
        },
        {
          "indexed": false,
          "internalType": "uint256",
          "name": "value",
          "type": "uint256"
        }
      ],
      "name": "Transfer",
      "type": "event"
    },
    {
      "inputs": [],
      "name": "DEFAULT_ADMIN_ROLE",
      "outputs": [
        {
          "internalType": "bytes32",
          "name": "",
          "type": "bytes32"
        }
      ],
      "stateMutability": "view",
      "type": "function"
    },
    {
      "inputs": [],
      "name": "MINTER_ROLE",
      "outputs": [
        {
          "internalType": "bytes32",
          "name": "",
          "type": "bytes32"
        }
      ],
      "stateMutability": "view",
      "type": "function"
    },
    {
      "inputs": [
        {
          "internalType": "address",
          "name": "owner",
          "type": "address"
        },
        {
          "internalType": "address",
          "name": "spender",
          "type": "address"
        }
      ],
      "name": "allowance",
      "outputs": [
        {
          "internalType": "uint256",
          "name": "",
          "type": "uint256"
        }
      ],
      "stateMutability": "view",
      "type": "function"
    },
    {
      "inputs": [
        {
          "internalType": "address",
          "name": "spender",
          "type": "address"
        },
        {
          "internalType": "uint256",
          "name": "value",
          "type": "uint256"
        }
      ],
      "name": "approve",
      "outputs": [
        {
          "internalType": "bool",
          "name": "",
          "type": "bool"
        }
      ],
      "stateMutability": "nonpayable",
      "type": "function"
    },
    {
      "inputs": [
        {
          "internalType": "address",
          "name": "account",
          "type": "address"
        }
      ],
      "name": "balanceOf",
      "outputs": [
        {
          "internalType": "uint256",
          "name": "",
          "type": "uint256"
        }
      ],
      "stateMutability": "view",
      "type": "function"
    },
    {
      "inputs": [],
      "name": "bondingContract",
      "outputs": [
        {
          "internalType": "address",
          "name": "",
          "type": "address"
        }
      ],
      "stateMutability": "view",
      "type": "function"
    },
    {
      "inputs": [],
      "name": "decimals",
      "outputs": [
        {
          "internalType": "uint8",
          "name": "",
          "type": "uint8"
        }
      ],
      "stateMutability": "view",
      "type": "function"
    },
    {
      "inputs": [
        {
          "internalType": "bytes32",
          "name": "role",
          "type": "bytes32"
        }
      ],
      "name": "getRoleAdmin",
      "outputs": [
        {
          "internalType": "bytes32",
          "name": "",
          "type": "bytes32"
        }
      ],
      "stateMutability": "view",
      "type": "function"
    },
    {
      "inputs": [
        {
          "internalType": "bytes32",
          "name": "role",
          "type": "bytes32"
        },
        {
          "internalType": "address",
          "name": "account",
          "type": "address"
        }
      ],
      "name": "grantRole",
      "outputs": [],
      "stateMutability": "nonpayable",
      "type": "function"
    },
    {
      "inputs": [
        {
          "internalType": "bytes32",
          "name": "role",
          "type": "bytes32"
        },
        {
          "internalType": "address",
          "name": "account",
          "type": "address"
        }
      ],
      "name": "hasRole",
      "outputs": [
        {
          "internalType": "bool",
          "name": "",
          "type": "bool"
        }
      ],
      "stateMutability": "view",
      "type": "function"
    },
    {
      "inputs": [
        {
          "internalType": "address",
          "name": "to",
          "type": "address"
        },
        {
          "internalType": "uint256",
          "name": "amount",
          "type": "uint256"
        }
      ],
      "name": "mint",
      "outputs": [],
      "stateMutability": "nonpayable",
      "type": "function"
    },
    {
      "inputs": [],
      "name": "name",
      "outputs": [
        {
          "internalType": "string",
          "name": "",
          "type": "string"
        }
      ],
      "stateMutability": "view",
      "type": "function"
    },
    {
      "inputs": [
        {
          "internalType": "bytes32",
          "name": "role",
          "type": "bytes32"
        },
        {
          "internalType": "address",
          "name": "callerConfirmation",
          "type": "address"
        }
      ],
      "name": "renounceRole",
      "outputs": [],
      "stateMutability": "nonpayable",
      "type": "function"
    },
    {
      "inputs": [
        {
          "internalType": "bytes32",
          "name": "role",
          "type": "bytes32"
        },
        {
          "internalType": "address",
          "name": "account",
          "type": "address"
        }
      ],
      "name": "revokeRole",
      "outputs": [],
      "stateMutability": "nonpayable",
      "type": "function"
    },
    {
      "inputs": [
        {
          "internalType": "address",
          "name": "_bondingContract",
          "type": "address"
        }
      ],
      "name": "setBondingContract",
      "outputs": [],
      "stateMutability": "nonpayable",
      "type": "function"
    },
    {
      "inputs": [
        {
          "internalType": "bytes4",
          "name": "interfaceId",
          "type": "bytes4"
        }
      ],
      "name": "supportsInterface",
      "outputs": [
        {
          "internalType": "bool",
          "name": "",
          "type": "bool"
        }
      ],
      "stateMutability": "view",
      "type": "function"
    },
    {
      "inputs": [],
      "name": "symbol",
      "outputs": [
        {
          "internalType": "string",
          "name": "",
          "type": "string"
        }
      ],
      "stateMutability": "view",
      "type": "function"
    },
    {
      "inputs": [],
      "name": "totalSupply",
      "outputs": [
        {
          "internalType": "uint256",
          "name": "",
          "type": "uint256"
        }
      ],
      "stateMutability": "view",
      "type": "function"
    },
    {
      "inputs": [
        {
          "internalType": "address",
          "name": "to",
          "type": "address"
        },
        {
          "internalType": "uint256",
          "name": "amount",
          "type": "uint256"
        }
      ],
      "name": "transfer",
      "outputs": [
        {
          "internalType": "bool",
          "name": "",
          "type": "bool"
        }
      ],
      "stateMutability": "nonpayable",
      "type": "function"
    },
    {
      "inputs": [
        {
          "internalType": "address",
          "name": "from",
          "type": "address"
        },
        {
          "internalType": "address",
          "name": "to",
          "type": "address"
        },
        {
          "internalType": "uint256",
          "name": "amount",
          "type": "uint256"
        }
      ],
      "name": "transferFrom",
      "outputs": [
        {
          "internalType": "bool",
          "name": "",
          "type": "bool"
        }
      ],
      "stateMutability": "nonpayable",
      "type": "function"
    }
  ],
  "bytecode": "0x60806040523480156200001157600080fd5b506040518060400160405280601581526020017f46697273742056656e74757265204361706974616c00000000000000000000008152506040518060400160405280600381526020016246564360e81b815250816003908162000075919062000224565b50600462000084828262000224565b506200009691506000905033620000ca565b50620000c37f9f2df0fed2c77648de5860a4cc508cd0818c85b8b8a1ab4ceeef8d981c8956a633620000ca565b50620002f0565b60008281526005602090815260408083206001600160a01b038516845290915281205460ff16620001735760008381526005602090815260408083206001600160a01b03861684529091529020805460ff191660011790556200012a3390565b6001600160a01b0316826001600160a01b0316847f2f8788117e7eff1d82e926ec794901d17c78024a50270940304540a733656f0d60405160405180910390a450600162000177565b5060005b92915050565b634e487b7160e01b600052604160045260246000fd5b600181811c90821680620001a857607f821691505b602082108103620001c957634e487b7160e01b600052602260045260246000fd5b50919050565b601f8211156200021f576000816000526020600020601f850160051c81016020861015620001fa5750805b601f850160051c820191505b818110156200021b5782815560010162000206565b5050505b505050565b81516001600160401b038111156200024057620002406200017d565b620002588162000251845462000193565b84620001cf565b602080601f831160018114620002905760008415620002775750858301515b600019600386901b1c1916600185901b1785556200021b565b600085815260208120601f198616915b82811015620002c157888601518255948401946001909101908401620002a0565b5085821015620002e05787850151600019600388901b60f8161c191681555b5050505050600190811b01905550565b610c2a80620003006000396000f3fe608060405234801561001057600080fd5b506004361061012c5760003560e01c806370a08231116100ad578063d539139311610071578063d539139314610272578063d547741f14610299578063dd62ed3e146102ac578063e999720f146102e5578063eecaab061461031057600080fd5b806370a082311461021357806391d148541461023c57806395d89b411461024f578063a217fddf14610257578063a9059cbb1461025f57600080fd5b8063248a9ca3116100f4578063248a9ca3146101a65780632f2ff15d146101c9578063313ce567146101de57806336568abe146101ed57806340c10f191461020057600080fd5b806301ffc9a71461013157806306fdde0314610159578063095ea7b31461016e57806318160ddd1461018157806323b872dd14610193575b600080fd5b61014461013f366004610a14565b610323565b60405190151581526020015b60405180910390f35b61016161035a565b6040516101509190610a3e565b61014461017c366004610aa9565b6103ec565b6002545b604051908152602001610150565b6101446101a1366004610ad3565b610404565b6101856101b4366004610b0f565b60009081526005602052604090206001015490565b6101dc6101d7366004610b28565b610419565b005b60405160128152602001610150565b6101dc6101fb366004610b28565b610444565b6101dc61020e366004610aa9565b61047c565b610185610221366004610b54565b6001600160a01b031660009081526020819052604090205490565b61014461024a366004610b28565b6104b0565b6101616104db565b610185600081565b61014461026d366004610aa9565b6104ea565b6101857f9f2df0fed2c77648de5860a4cc508cd0818c85b8b8a1ab4ceeef8d981c8956a681565b6101dc6102a7366004610b28565b6104fd565b6101856102ba366004610b6f565b6001600160a01b03918216600090815260016020908152604080832093909416825291909152205490565b6006546102f8906001600160a01b031681565b6040516001600160a01b039091168152602001610150565b6101dc61031e366004610b54565b610522565b60006001600160e01b03198216637965db0b60e01b148061035457506301ffc9a760e01b6001600160e01b03198316145b92915050565b60606003805461036990610b99565b80601f016020809104026020016040519081016040528092919081815260200182805461039590610b99565b80156103e25780601f106103b7576101008083540402835291602001916103e2565b820191906000526020600020905b8154815290600101906020018083116103c557829003601f168201915b5050505050905090565b6000336103fa818585610578565b5060019392505050565b6000610411848484610585565b949350505050565b600082815260056020526040902060010154610434816105a9565b61043e83836105b6565b50505050565b6001600160a01b038116331461046d5760405163334bd91960e11b815260040160405180910390fd5b610477828261064a565b505050565b7f9f2df0fed2c77648de5860a4cc508cd0818c85b8b8a1ab4ceeef8d981c8956a66104a6816105a9565b61047783836106b7565b60009182526005602090815260408084206001600160a01b0393909316845291905290205460ff1690565b60606004805461036990610b99565b60006104f683836106f6565b9392505050565b600082815260056020526040902060010154610518816105a9565b61043e838361064a565b600061052d816105a9565b600680546001600160a01b0319166001600160a01b0384169081179091556040517f7aa87aebd6d5c204db6300fd91613a02daf742541b0af8b21606d406a3a4d82790600090a25050565b6104778383836001610704565b6000336105938582856107d9565b61059e858585610852565b506001949350505050565b6105b381336108b1565b50565b60006105c283836104b0565b6106425760008381526005602090815260408083206001600160a01b03861684529091529020805460ff191660011790556105fa3390565b6001600160a01b0316826001600160a01b0316847f2f8788117e7eff1d82e926ec794901d17c78024a50270940304540a733656f0d60405160405180910390a4506001610354565b506000610354565b600061065683836104b0565b156106425760008381526005602090815260408083206001600160a01b0386168085529252808320805460ff1916905551339286917ff6391f5c32d9c69d2a47ea670b442974b53935d1edc7fd64eb21e047a839171b9190a4506001610354565b6001600160a01b0382166106e65760405163ec442f0560e01b8152600060048201526024015b60405180910390fd5b6106f2600083836108ea565b5050565b6000336103fa818585610852565b6001600160a01b03841661072e5760405163e602df0560e01b8152600060048201526024016106dd565b6001600160a01b03831661075857604051634a1406b160e11b8152600060048201526024016106dd565b6001600160a01b038085166000908152600160209081526040808320938716835292905220829055801561043e57826001600160a01b0316846001600160a01b03167f8c5be1e5ebec7d5bd14f71427d1e84f3dd0314c0f7b2291e5b200ac8c7c3b925846040516107cb91815260200190565b60405180910390a350505050565b6001600160a01b0383811660009081526001602090815260408083209386168352929052205460001981101561043e578181101561084357604051637dc7a0d960e11b81526001600160a01b038416600482015260248101829052604481018390526064016106dd565b61043e84848484036000610704565b6001600160a01b03831661087c57604051634b637e8f60e11b8152600060048201526024016106dd565b6001600160a01b0382166108a65760405163ec442f0560e01b8152600060048201526024016106dd565b6104778383836108ea565b6108bb82826104b0565b6106f25760405163e2517d3f60e01b81526001600160a01b0382166004820152602481018390526044016106dd565b6001600160a01b03831661091557806002600082825461090a9190610bd3565b909155506109879050565b6001600160a01b038316600090815260208190526040902054818110156109685760405163391434e360e21b81526001600160a01b038516600482015260248101829052604481018390526064016106dd565b6001600160a01b03841660009081526020819052604090209082900390555b6001600160a01b0382166109a3576002805482900390556109c2565b6001600160a01b03821660009081526020819052604090208054820190555b816001600160a01b0316836001600160a01b03167fddf252ad1be2c89b69c2b068fc378daa952ba7f163c4a11628f55a4df523b3ef83604051610a0791815260200190565b60405180910390a3505050565b600060208284031215610a2657600080fd5b81356001600160e01b0319811681146104f657600080fd5b60006020808352835180602085015260005b81811015610a6c57858101830151858201604001528201610a50565b506000604082860101526040601f19601f8301168501019250505092915050565b80356001600160a01b0381168114610aa457600080fd5b919050565b60008060408385031215610abc57600080fd5b610ac583610a8d565b946020939093013593505050565b600080600060608486031215610ae857600080fd5b610af184610a8d565b9250610aff60208501610a8d565b9150604084013590509250925092565b600060208284031215610b2157600080fd5b5035919050565b60008060408385031215610b3b57600080fd5b82359150610b4b60208401610a8d565b90509250929050565b600060208284031215610b6657600080fd5b6104f682610a8d565b60008060408385031215610b8257600080fd5b610b8b83610a8d565b9150610b4b60208401610a8d565b600181811c90821680610bad57607f821691505b602082108103610bcd57634e487b7160e01b600052602260045260246000fd5b50919050565b8082018082111561035457634e487b7160e01b600052601160045260246000fdfea264697066735822122028f703623635a585fa992a9bd7b5fa9cf60251352b3e5bcae91d46fb4d9e2fd964736f6c63430008180033",
  "linkReferences": {},
  "deployedLinkReferences": {}
}